:020000040802F0
:1000000008A90020A1010208F35F0208354C02088C
:10001000F15F020811090208496E020800000000A1
:10002000000000000000000000000000DD66020883
:100030004F0E02080000000099600208996702084C
:10004000BB010208BB010208BB010208BB01020898
:10005000BB010208BB010208BB010208BB01020888
:10006000BB010208BB010208BB010208BB01020878
:10007000BB010208BB010208BB010208BB01020868
:10008000BB010208BB010208BB010208BB01020858
:10009000BB010208BB010208BB010208BB01020848
:1000A000BB010208BB010208BB010208BB01020838
:1000B000BB010208BB010208BB010208BB01020828
:1000C000BB010208BB010208BB010208BB01020818
:1000D000BB010208BB010208BB010208BB01020808
:1000E000BB010208BB010208BB010208BB010208F8
:1000F000BB010208BB010208BB010208BB010208E8
:10010000BB010208BB010208BB010208BB010208D7
:10011000BB010208BB010208E5690208BB01020835
:10012000BB010208BB010208BB010208BB010208B7
:10013000BB010208BB010208BB010208BB010208A7
:1001400015090208BB010208BB010208BB01020835
:10015000BB010208BB010208BB010208BB01020887
:10016000BB010208BB010208BB010208BB01020877
:10017000BB010208BB010208BB010208BB01020867
:10018000BB010208BB010208DFF810D000F0C2FA80
:10019000004800479DEA0208AFF3008008A900204C
:1001A0000648804706480047FEE7FEE7FEE7FEE711
:1001B000FEE7FEE7FEE7FEE7FEE7FEE79D670208D3
:1001C0008901020810B5431A934209D2831888188E
:1001D00003E010F8011D03F8011D521EF9D210BDF5
:1001E00040EA01039B0703D009E008C9121F08C0B9
:1001F000042AFAD203E011F8013B00F8013B521E39
:10020000F9D210BDD2B201E000F8012B491EFBD299
:1002100070470022F6E710B513460A460446194611
:10022000FFF7F0FF204610BD421C10F8011B00290B
:10023000FBD1801A7047034611F8012B00F8012BFF
:10024000002AF9D11846704700F0004230F0004013
:100250000AD0C10D01F56071C0F3160042EA0151E8
:10026000C20840071143704700200146704701F063
:10027000004330B421F0004150EA010206D00A0DDB
:10028000A2F56072C1F31301002A02DC30BC002029
:100290007047440F44EAC104C100E01830BC00EBD1
:1002A000C25000F047B830B50B460146002020226E
:1002B000012409E021FA02F59D4205D303FA02F573
:1002C000491B04FA02F52844151EA2F10102F1DCD3
:1002D00030BD2DE9F05F0546002092469B468846DA
:1002E0000646814640241BE02846414647462246B2
:1002F00000F031FA53465A46C01A914110D31146C4
:100300001846224600F018FA2D1A67EB01084F46EE
:1003100022460120002100F00FFA17EB00094E41A0
:10032000201EA4F10104DFDC484631462A4643463C
:10033000BDE8F09F0029A8BF7047401C490008BFD6
:1003400020F00100704710B4B0FA80FC00FA0CF005
:1003500050EA010404BF10BC704749B1CCF120043D
:1003600021FA04F411FA0CF118BF012121430843CA
:10037000A3EB0C01CB1D4FEA00614FEA102042BFF6
:10038000002010BC704700EBC35010440029A4BFEC
:1003900010BC7047401C490008BF20F0010010BC91
:1003A00070472DE9FE4F804681EA0300C00F0C46DE
:1003B000009021F0004123F00045B8EB0200A94174
:1003C00005D24046214690461C460B46024623F085
:1003D0000040104347D0270DC7F30A00C3F30A516A
:1003E0000290401A019040286BDAC3F3130040F4E6
:1003F000801B0098924620B10023D2EB030A63EBE6
:100400000B0B01985946C0F14002504600F094F998
:1004100006460D4650465946019A00F0ACF910EBDD
:1004200008006141002487EA115284EAE7731A4305
:1004300040D0009A62B3019A012A4FEA075215DCB4
:10044000001B61EB02014FF0004202EA0752CDE9C6
:100450000042001C41F5801132462B4600F0ACF9F9
:1004600003B0BDE8F08F40462146F9E7001B61EB81
:100470000201001C41F5801300185B412018A2F511
:10048000001747EB030140EAD570B6196D4111E042
:100490006D084FEA360645EAC0754FEA0752001B61
:1004A00061EB0201001C41F5801149084FEA300060
:1004B0000019514132462B4603B0BDE8F04F00F021
:1004C0006CB90098012240000023D0EB020263EBDC
:1004D000E073009821464FEAE074B8EB000061EB4E
:1004E0000401E9E783F000435BE781F0004158E74E
:1004F0002DE9FE4F81EA030404F0004421F000419D
:1005000000944FF0000B23F0004350EA01045ED04A
:1005100052EA03045BD0C3F30A54C1F30A552C44D6
:10052000A4F2F3340194A0FB0254C1F3130141F48B
:100530008011C3F3130343F4801301FB024400FB57
:10054000034E840A970A44EA815447EA8357A4FB7E
:10055000076802958D0A05FB07854FEA932C04FB7B
:100560000C542705029D4FEA065847EA1637B5EBAB
:1005700008056EEB070C870E920E47EA811742EAD8
:100580008312A7FB0201B6EB0B0164EB00042B0DF9
:1005900043EA0C335E1844EB1C50DA465146E7FB45
:1005A0000201C5F313044FEA0B3343EA14534FEA35
:1005B0000432019C43EA0603A4F10C040294009C5B
:1005C000CDE900B400F0F8F803B0BDE8F08F0020EA
:1005D0000146F9E72DE9F04D81EA030404F0004BF0
:1005E00021F0004514464FF0000A23F0004150EA84
:1005F000050220D054EA01021DD0C5F30A57024675
:10060000C5F31303C1F31300C1F30A5640F4801578
:1006100043F48013A7EB0608101BD64608F2FD38FA
:1006200073EB050002D308F1010801E092185B4169
:10063000B8F1000F03DA00200146BDE8F08D00207C
:100640004FF48011064684460EE0171B73EB050736
:1006500005D3121B63EB050306434CEA010C490862
:100660004FEA300092185B4150EA0107EDD152EA9F
:10067000030012D082EA040083EA0501084305D092
:10068000101BAB4106D20122002306E000224FF0EE
:10069000004302E06FF0010253101AEB06004CEB2E
:1006A000085110EB0A0041EB0B01BDE8F04D00F0E2
:1006B00074B8C1F30A52C1F3130140F2FF3341F49D
:1006C00080119A4202DA00200146704740F233431B
:1006D0009A42A2F2334202DC524200F03CB800F0EF
:1006E0002BB8000030B5041E71F1000404DB4FF09C
:1006F0000044404264EB0101141E73F1000405DB69
:100700001C464FF00043524263EB0403994208BF7A
:10071000904230BD064C074D06E0E06840F0010312
:1007200094E8070098471034AC42F6D3FFF730FD49
:10073000AC2B0308CC2B0308202A04DB203A00FA58
:1007400002F1002070479140C2F1200320FA03F328
:10075000194390407047202A04DB203A21FA02F026
:100760000021704721FA02F3D040C2F120029140EB
:10077000084319467047202A06DBCB17203A41FA76
:1007800002F043EAE07306E041FA02F3D040C2F11E
:100790002002914008431946704710B5141E73F1AA
:1007A000000408DA401C41F1000192185B411A4331
:1007B00001D120F0010010BD2DE9F04D92469B467D
:1007C00011B1B1FA81F202E0B0FA80F22032904623
:1007D000FFF7B2FF04460F4640EA0A0041EA0B0168
:1007E00053465A46084313D0114653EA010019D024
:1007F000C8F140025046FFF7AEFF05460E46504690
:1008000059464246FFF798FF084305D0012004E00F
:1008100020463946BDE8F08D0020054346EAE076E3
:100820002C4337430A986305E40AA0EB0800002232
:10083000FD0A44EA47540A3002D500200146E9E7A0
:10084000010510196941DDE9084500196941BDE854
:10085000F04DA2E770B58C1810F8015B15F0070396
:1008600001D110F8013B2A1106D110F8012B03E049
:1008700010F8016B01F8016B5B1EF9D12B0705D451
:100880000023521E0DD401F8013BFAE710F8013B9A
:10089000CB1A921C03E013F8015B01F8015B521EB6
:1008A000F9D5A142D8D3002070BD002800DC404219
:1008B00070470000054904480860002080F3138851
:1008C00062B603A00DF0D2B90000020808ED00E006
:1008D0000D0A2D2D2D2D2D2D2D2D2D2D2D2D2D2D8B
:1008E0002D2D2D2D2D2D2D2DBDF8C8EBB5BD417015
:1008F00070B3CCD0F22D2D2D2D2D2D2D2D2D2D2D58
:100900002D2D2D2D2D2D2D2D2D2D2D0D0A000000E1
:10091000FEE7000010B50C4A00210C4800F0CEF9AB
:1009200009480B494268A2F59853143B05D1027A55
:10093000042A02D1807A082802D00020086010BD65
:100940000120086010BD0000D402002000680040B3
:100950001000002010B500F0B5F800F09BF900F091
:100960006BF9BDE8104000F087B8000010B50C49E5
:1009700088420AD101214C06204605F0D1FB2046D1
:10098000BDE81040002105F0CBBB01218C062046BC
:1009900005F0C6FB2046BDE81040002105F0C0BBB5
:1009A00000640040F0B5827A01219140304C226809
:1009B00042F0010222602E4D1C352A688A432A60CB
:1009C0002B4A067B0C322B4B002E14D116688E431B
:1009D00016604688C78846EA0746877A03EBC7074A
:1009E000C7F840660688878846EA0746877A03EB99
:1009F000C707C7F84466067B012E14D116680E435C
:100A000016604288068842EA0642867A03EBC606EA
:100A1000C6F84026C288868842EA0642867A03EBF8
:100A2000C603C3F84426124AC37A121D3BB11368A9
:100A30000B4313600E4A0389143223B106E0136896
:100A40008B431360F6E713688B4313600389012B14
:100A500002D113680B431360407B012802D1286840
:100A600008432860206820F001002060F0BD0000ED
:100A700000660040006000401FB50E208DF80A009F
:100A800000208DF80B0001218DF80C10ADF800004E
:100A900049F6A402ADF802204FF6FF72ADF804202B
:100AA000ADF80620ADF808008DF80D106846FFF788
:100AB00079FF01220221024800F032F81FBD000038
:100AC000006800407CB50121022005F0FFFA134DBB
:100AD00009220C21284600F0CDFD09220D212846CF
:100AE00000F0C8FD4FF40050009002248DF804403F
:100AF0008DF8054000218DF8061001218DF80710B2
:100B00006946284600F078FDE10200918DF8044026
:100B10006946284600F070FD7CBD000000040240DC
:100B2000002A03D042690A434261704742698A43FE
:100B30004261704710B50022036823F0020303608E
:100B4000036843F0010303604FF6FF7300E0521C9B
:100B50004468E40701D19A42F9D14268D2073ED0F5
:100B60008A79012A3DD0026822F080020260CA79A7
:100B7000012A3BD0026822F0400202600A7A012A70
:100B800039D0026822F0200202604A7A012A37D066
:100B9000026822F0100202608A7A012A35D00268C7
:100BA00022F008020260CA7A012A33D0026822F0D9
:100BB000040202608A78CC78920742EA04620C79D7
:100BC00042EA04424C79098842EA0452491E0A4327
:100BD000C261016821F001010160002120E00020D4
:100BE00010BD026842F080020260C0E7026842F075
:100BF00040020260C2E7026842F020020260C4E7DD
:100C0000026842F010020260C6E7026842F0080281
:100C10000260C8E7026842F004020260CAE7491CA9
:100C20004268D20701D09942F9D14068C00701D08B
:100C3000002010BD012010BD3EB501214FF0C06065
:100C400005F060FA124C2046FFF790FE684600F06F
:100C500093F800218DF8061001228DF807208DF8F9
:100C600008208DF809108DF80A108DF80B108DF8FA
:100C700002108DF8032003208DF804008DF8052064
:100C80000620ADF8000069462046FFF753FF3EBD41
:100C90000068004008B54FF4C06005F0F3F940204B
:100CA0008DF8000000208DF801008DF80200012071
:100CB0008DF80300684605F0B1F908BD10B500EBEA
:100CC0000113D3F8B04104F004041472002C2CD0AA
:100CD000D3F8B041E408546003F5D8731C6804F0FD
:100CE000020454725C6804F00F0494725C68240A75
:100CF000D4749C68D4729C68240A14739C68240C75
:100D000054739C68240E9473DC68D473DC68240AE2
:100D10001474DC68240C5474DB681B0E937449B1A2
:100D2000016941F02001016110BDD3F8B041640DAB
:100D30001460D1E7C16841F02001C16010BD00001E
:100D40001CB500210AA20CCACDE900234FF4A4620D
:100D500042600422027200224272082282726A46B3
:100D60004418535CE372491CC9B20829F8D31CBD6E
:100D7000E40CE40CE40CE40C00218171C1710172FB
:100D800041728172C1728170C170032101710221AF
:100D9000417101210180704730B5024600209368FF
:100DA0005B010AD49068000101D5012005E090683C
:100DB000C00001D5022000E0042004283BD002EB53
:100DC0000012D2F8803103F00103C2F880310B7AAF
:100DD00093B3D2F880414D681C434B7A43EAC50374
:100DE0001C43C2F880418B7A03F00F038B7202F52B
:100DF000C072536823F00F03536053688C7A234307
:100E00005360CB7A8C7B0D7B43EA04634C7B2404D8
:100E100044EA052423439360CB7B8C7C43EA046340
:100E20004C7C097C240444EA01210B43D360116803
:100E300041F00101116030BDFFE7D2F880314C7AFA
:100E400023430C8843EA4453C2F88031CBE7704710
:100E500070B586B00121084605F038F9012110204F
:100E600005F06CF900248DF8164001208DF817006C
:100E700002258DF815508DF81450400204901C4E38
:100E800004A9304600F0B8FB8DF8145069020491B3
:100E900004A9304600F0B0FB07220A21304600F0DA
:100EA000E9FB07220921304600F0E4FB4FF4E13072
:100EB0000090ADF80440ADF80640ADF80840ADF83C
:100EC0000C400C20ADF80A000A4C6946204605F09B
:100ED00071FE05F08FF8012240F22551204605F001
:100EE0004EFE0121204605F037FE06B070BD000021
:100EF000000002400010014001B502E00098401ED1
:100F0000009000980028F9D108BD00008000A0F1F1
:100F1000C040002904D0016841F001010160704720
:100F20000168024A1140016070470000FEFF0F0097
:100F300070B501688900A1F1C0410B68344A1340C3
:100F4000D0E901242243D0E903452C4322434469DC
:100F5000224384692243C4692243046A2243446AC7
:100F60002243846A2243C46A2243046B22431A4305
:100F70000A608168082907D101688900A1F1C04190
:100F80000A6842F040020A600168491C8A00A2F126
:100F9000C042116801F04044416BD1E9003543EA99
:100FA00005138D688E892D0245EA06452B430D8A6F
:100FB00043EA05530D7D896943EA05630B432343E7
:100FC0001360C16AB1F5804F08D000686FF07041BE
:100FD0008000A0F1C040C0F8041170BD0168890014
:100FE000A1F1C041D1F804210A4B1A40806BD0E92D
:100FF000003443EA041384688589240244EA0544E2
:101000008069234303431343C1F8043170BD0000DA
:101010008000F7FF0000F0CF1CB50024019401AC64
:10102000009400F0E7F81CBD2DE9FF4F83B0814626
:1010300006988A46A0EB0A08109E00200090A2EBBA
:1010400009043568934654EA080018D02046FFF793
:101050002CFC07464046FFF728FC87420BDA204667
:10106000444680464846D14682465846DDF818B088
:10107000069001200090002C07DD204606E007B016
:101080004846BDE8F04F00F03BB96042A0420AD0AC
:101090004846D9466442C8F1000883464FF0FF37FE
:1010A000DDF818A000E001275148B8F1000F11D079
:1010B00004EBD4714FEA610B01DACBF1000B4C4821
:1010C0000068807E88B3002F02DA306820443060E8
:1010D00000257BE000990029016821D0897E11B1AB
:1010E0000027804615E007B05A4649465046BDE8FD
:1010F000F04F04F0A7BA28466D1C0BF067FF38B913
:10110000D8F8000009EB0701406E4268504690474E
:101110007F1CA742EFDD6D1E356007B0BDE8F08F84
:101120008A7E1AB10027804617E019E0486E5A46B9
:101130005146036807B04846BDE8F04F18472846B7
:101140006D1C0BF043FF38B9D8F8001009EB07000D
:10115000496E4A68514690477F1CA742EFDDDAE7A7
:1011600000250FE008FB05B090FBF4F101EB0A004D
:10117000009951B11E4A09EB05011268526E52687E
:1011800090476D1CA542EDDDC7E7194909EB050342
:101190000968496E4A6801461846F1E708FB05B040
:1011A00090FBF4F101EB0A000190306838443060A4
:1011B0000BF00CFF48B9009890B10D4809EB050100
:1011C0000068406E4268019890476D1CA542E5DDBD
:1011D0003068002F01DA20443060C01B30609CE78B
:1011E000034909EB05000968496E4A680199EBE774
:1011F000640000202DE9FF470F464049164680460F
:1012000009680C981D460A7E012A1CD0A8EB06002E
:10121000791B50EA01031CD0A2F101090CF074FE05
:1012200000F58060824603F0BEFC00FB09F45046E6
:1012300003F0BEFC00FB09F1002C0CDAC4F50070D1
:10124000801240420AE00090324639464046FFF79D
:10125000EBFEBDE8FF8704F50074A012002904DA54
:10126000C1F5007189124C4202E001F500718C1247
:10127000002804DD411C01EBD171491003E000EBB3
:10128000D0714910401E00EBD0704210002C04DDDC
:10129000601C00EBD070401003E004EBD4704010F1
:1012A000641E04EBD47308EB0104ADF800403C1855
:1012B000ADF80240A8EB02045B10B21AADF804408E
:1012C000ADF808203144FC1AEA1AADF80C10284495
:1012D000ADF80A20ADF80E000023ADF806401A461E
:1012E0000421684600F07AF83946404609F0C8FC07
:1012F0002946304609F0C4FCABE70000640000203A
:10130000064A13681A7E012A05D0521E02EBD272D9
:10131000521000F005B85A6E526810476400002061
:101320002DE9F05F0646884640F2C32002FB00F13B
:101330004FF47A7091FBF0F702FB02F102EBD270EE
:1013400001EB600B1446B118234A301B7F1C126856
:10135000526E13680A4641469847012538E000BF9F
:1013600005FB05F004FB040159451CDDBC4219DDF9
:10137000194B06EB050AA6EB05091B68AAF1010249
:1013800008EB04015B6E09F101001B689847124BE2
:10139000AAF10102A8EB04011B6809F101005B6ED0
:1013A0001B689847641E0C4B3219301B1B68924611
:1013B00008EB05015B6E81461B689847064B524659
:1013C000A8EB05011B6848465B6E1B6898476D1CBF
:1013D000BD42C5DDBDE8F09F640000202DE9FF4F50
:1013E00043F6FF740F46664283B09B468146002158
:1013F0000BE000BF09EB8100B0F90200A04200DA67
:101400000446B04200DD0646491CB942F2DB67489B
:101410000068406900280DD0B0F906101A46A1EB0B
:101420000B01B14200DA0E46B0F90200801AA04268
:1014300000DD0446B4E0DFF878A100200546CAF8D4
:10144000000088E0781E854201DA6B1C00E0002372
:1014500009EB850C09EB8302BCF90200B2F902101A
:10146000A04244D1A14215D139F92330059A39F966
:10147000251003EB020C4D4A05981268084404EB52
:101480000B01526E6045136801DA62462AE002469B
:10149000604627E02846A4464FF000087A1E0BE07D
:1014A00008B1401E00E0781E09EB8003B3F902305A
:1014B000634504D108F101089045F1DB2346A342BE
:1014C00048D01A1B39F92500A1EB040C059B92EAC0
:1014D0000C0F09D4354A184404EB0B011268526E04
:1014E00013680246984735E007F020FA32E0A1423F
:1014F00030D001DBA04203DDA0422BDBA14229DC7E
:10150000E04688420ADC0346A04223DC0846A142AA
:1015100020DBB8F900C0B2F9001008E00B46A14288
:1015200018DCA04216DBB2F900C0B8F90010E21ACC
:10153000A1EB0C0151430029A0EB030202DD01EBFA
:10154000620102E0A1EB6201491CC01A91FBF0F0BC
:101550006044C9E76D1CBD42FFF674AF059800906A
:1015600004EB0B00019000208046054613E0114972
:10157000B8F1000F31F915A009D0009901EB0A026A
:1015800008440A490968496E0B680199984788F030
:10159000010850466D1C064909688D42E7DB641C52
:1015A000B4427FF748AF07B0BDE8F08F6400002079
:1015B00040020020F0A4002010B5002002F010FA34
:1015C0006FF07F4002F00EFA012002F043FA002093
:1015D00002F048FA002002F04FFA002002F00AFA66
:1015E0000448006802F008FABDE81040002002F04C
:1015F0000DBA0000600000202DE9F0410022012713
:101600004FF0030C07FA02F50B682B40AB422CD1CC
:10161000066853000CFA03F4A64306600E79D0F86E
:1016200000809E4046EA080606600E79012E01D031
:10163000022E12D18668A64386604E79D0F80880C3
:101640009E4046EA080686604668AE4346604568A6
:101650008E799640B6B235434560C568A543C560EE
:10166000CC799C40C3681C43C460521C102AC9D367
:10167000BDE8F08110B54B07DB0E9A40C90800EBBE
:101680008100016A0F249C40A1430162016A114359
:10169000016210BD0246002012690A4200D00120FA
:1016A0007047418370470183704733B583B00400AE
:1016B00016D000F0C9FE0190456E01A800F00EFFA3
:1016C000049800F0C1FE00908460684600F006FFB8
:1016D000042204A9284600F025FF204606F00DFA52
:1016E00005B030BD33B583B0040016D000F0ACFEB9
:1016F0000190856E01A800F0F1FE049800F0A4FEB0
:1017000000908460684600F0E9FE042204A928469F
:1017100000F008FF204606F0F0F905B030BD2DE9D5
:10172000F04104460025D4E90007B0F5407F00D120
:1017300001252146384605F0AFFB064615B138466F
:101740000AF07FFB002E2FD02068052806D00B283A
:101750000ED00F2806D0262821D10EE038460AF0F8
:1017600070FB1CE03846E168BDE8F0410AF0D6BCE9
:101770003846BDE8F0410AF006BCE06805280ED105
:10178000384606F0B8F8A168884205D0384606F019
:10179000A9F8A168884202D160680AF004FF2046D7
:1017A000BDE8F04105F0CCBEBDE8F081F0B585B0F4
:1017B000B0F90850468A84690296CDE9035400279F
:1017C000CDE90017B0F90C10B0F91050B0F90E4087
:1017D000B0F90A00194410442B46224600F002F8E2
:1017E00005B0F0BD2DE9F04186B00DF1300CDDE91A
:1017F0000F849CE8E0006C34DFF850C003948DE85F
:10180000601005F0EFFD04001BD000F0C8FE054697
:1018100000F0C5FE0646204600F016FE0490C0E922
:1018200019560022414605F051FC0498302208491F
:101830003430FEF7C7FC0498A0F8787004A800F0D4
:101840004DFE06B02046BDE8F08100001F170208DB
:10185000D400002003B583B000F0F6FD009060B125
:10186000406A00F0F1FD01460190022304AA0098AD
:1018700000F0A4F901A800F031FE684600F02EFE49
:1018800005B000BD2DE9F043814685B01D46904668
:101890000F462C2000F007FD060024D0780000F051
:1018A00002FD04000ED0B8F1000F0BD055B1204658
:1018B00000F0CAFD6A0041460090FEF783FC6846CE
:1018C00000F00CFE304600F0BFFD0949029000F127
:1018D0000C02446282E8A2020649016006494160A6
:1018E00002A800F0FBFD05B03046BDE8F083000023
:1018F000F1BC0208C7C2020817C002082DE9F8436C
:101900000746984615460E46302000F0CCFC0400F1
:1019100015D000F099FD0090C0E905768584094A4C
:10192000B7EE000AC0F81C8080ED0A0AD2E9001266
:10193000C0E9031204490160684600F0CFFD20466B
:10194000BDE8F883040100209FC3020800B52DED17
:10195000028B81B09FED0E8AF0EE408A88B100F0D4
:1019600073FD009090ED0A8AB4EE688AF1EE10FAE9
:1019700004D0C0ED0A8A806806F0BFF8684600F01F
:10198000ADFD01B0B0EE480ABDEC028B00BD000019
:101990000000000038B50D46002460B100F054FD91
:1019A00000900469AC4203D00561806806F0A5F898
:1019B000684600F093FD204638BD38B50D4600243A
:1019C00060B100F041FD0090C468AC4203D0C56036
:1019D000806806F092F8684600F080FD204638BD29
:1019E0002DE9F8431D46DDF8208016460F46040019
:1019F00010D000F029FD0090C0F860804765C0E974
:101A00001665684600F06AFD20460AF01AFA20467C
:101A100006F073F8BDE8F883F8B50D4606004FF000
:101A200000040CD000F010FD0090446CAC4203D0D8
:101A30004564304606F061F8684600F04FFD2046E8
:101A4000F8BDF8B50D4606004FF000040CD000F0CC
:101A5000FBFC0090846CAC4203D08564304606F0F9
:101A60004CF8684600F03AFD2046F8BDF8B50D4642
:101A700006004FF000040ED000F0E6FC009090F855
:101A80006C40AC4204D080F86C50304606F035F81B
:101A9000684600F023FD2046F8BDF8B50D46060067
:101AA0004FF000040ED000F0CFFC009090F87B4087
:101AB000AC4204D080F87B50304606F01EF86846F1
:101AC00000F00CFD2046F8BDF8B5054640F60201D1
:101AD000284605F043FE06462320052300901A46BB
:101AE0001E213046FFF77CFF01213046FFF7BEFF85
:101AF00019213046FFF790FF0A213046FFF7A1FF7A
:101B000002213046FFF7C9FF3223012200210A20BB
:101B1000FFF7F4FE044621463046FFF7E3FD244973
:101B20002046FFF737FFFF212046FFF746FF9FEDD6
:101B3000210A2046FFF70AFF00234FF47A771A465E
:101B400039464FF47F40FFF79DFE1B4C2060002379
:101B50001A463946FF20FFF795FE606000231A46BB
:101B600039464FF47F00FFF78DFEA06000231A4630
:101B700039464FF6FF70FFF785FEE060304621687A
:101B8000FFF793FD30466168FFF78FFD3046A1688F
:101B9000FFF78BFD3046E168FFF787FD01B028466F
:101BA000BDE8F04000235A224FF4016105F0F0BB7C
:101BB000FC020308CDCCCC3D400000202DE9F041D3
:101BC000044680681D4617460E46002826D0D4E9F4
:101BD000040290420ED1521E6A4371193046FEF73C
:101BE000F1FA20692A46401E05FB00603946FEF7DF
:101BF000E9FA0EE005FB0013401C20612A46394635
:101C00001846FEF7DFFAE16819B12046BDE8F04159
:101C10000847A068BDE8F04100F002B8BDE8F081D7
:101C200010B58AB0044600F00FFC09A904AACDE95A
:101C3000002105AB089006AA07A909F08CFE08A8A8
:101C400000F04CFC02A9204605F0CEFDBDF80800CE
:101C500007990844ADF80800BDF80A000699084441
:101C6000ADF80A00BDF80C000599401AADF80C005B
:101C7000BDF80E000499401AADF80E0002A92046E6
:101C800005F000FF0AB010BD70B50C46054600F027
:101C9000FFF8A8682168C16261680163A1684163B7
:101CA000490707D5D0E90021C0E90012D0E9022197
:101CB000C0E90212A18981842169002903D001DCD5
:101CC0004FF00001016270BD2DE9F0411E4617463C
:101CD0008846054600F0DCF8AC686822414604F509
:101CE0008670FEF76FFA2846B8472846B04728693D
:101CF00080688047A062BDE8F081000010B504460E
:101D000000F0C6F8A0681149144AC0F8AC10104998
:101D1000C0F8A8100F49C0F8B0100F49C0F8B810AB
:101D20000021C0F8BC101368C0F8B4300C4BC0E9F7
:101D300032315168C0F8C41030F8261F21F0030179
:101D400020F82A1B0749416410BD0000A5D00208F5
:101D5000EDD102086DD0020873CB0208CC00002040
:101D600043CC02089DCF020810B5044600F090F85D
:101D7000A46810481021C4F8E4000F48C4F8E80033
:101D80000E48C4F8EC000E48C4F8F0000D48C4F842
:101D9000A0000D48C4F8A400D4F8C400C4F8FC00A6
:101DA000D4F89420204690471020A0630748606430
:101DB00010BD00004D9E020821B00208D11D02088E
:101DC000011F02082DCB020875D40208D818030899
:101DD000F8B5846815460F4694F8260080074CD560
:101DE000D4F80031204698470646D4F804312A46F4
:101DF000394620469847D4F8983005461BB1002252
:101E00000121204698472069B04201DD012000E011
:101E10000020A169B14201DA012100E0002108435C
:101E20006169A94201DD012100E000210843E16967
:101E3000A94201DA012100E0002108430AD06068CC
:101E40000022401E00902368D4F8A8701146204656
:101E50005B1EB847D4F8AC302A4631462046984736
:101E6000D4F8A01020468847D4F8983005466BB1C6
:101E7000012200212046984708E0D4F8AC302046E3
:101E80009847D4F8A0102046884705462846F8BD54
:101E900070B504468068002812D14FF4BA75284600
:101EA00000F04CFA2A460021A06002F00AFEA06869
:101EB0000221C1840121046401620249C0F80811B1
:101EC00070BD0000C91E020810B590B00446202263
:101ED0000A496846FEF776F908492022203108A809
:101EE000FEF770F9606B5DF82010C4F8001108A9C6
:101EF00051F82000C4F8040110B010BD14F302081A
:101F00002DE9F84384689846154694F826000F4654
:101F1000800740D5D4F80031204698470646D4F8CB
:101F200004312A4639462046984705462069B04282
:101F300001DD012000E00020A169B14201DA0121A8
:101F400000E0002108436169A94201DD012100E0B0
:101F500000210843E169A94201DA012100E00021E2
:101F600008430AD060680022401E00902368D4F81D
:101F7000A870114620465B1EB847D4F8AC302A46FC
:101F8000314620469847D4F8A42001B04146204667
:101F9000BDE8F0431047D4F8AC30F2E72DE9F04F3C
:101FA000DFF828B191B04FF0FF35DBF80030B3F91E
:101FB00022100691DE69B3F92490F469A189814267
:101FC00006D8E289824203D3471AD4F8008012E08F
:101FD000D4E9018100296FD00A8882426CD84D88EB
:101FE000854269D3801A82B2486800EB8200B0F95A
:101FF0000070B0F90250781C5ED0307EA17C10FBDE
:1020000001FA217CCDE90701B3F92A60304603F0DB
:10201000C1FDC0B20E90DBF8000007FB0A81A37C73
:10202000826B0127CDE90412CDE90273C069089AD9
:10203000C17E807ECDE90001DDE90603494603F05B
:102040009FF9681C18D046F0020003F0A3FDDBF8EE
:102050000000A37C05FB0A81826BCDE90273CDE908
:102060000412C069089AC17E807ECDE90001DDE9D5
:102070000603494603F084F9DBF800005D46C069B9
:10208000417E007E814214D9022E12D086F00400D7
:1020900003F080FD2868C069027EC37E12FB0391B5
:1020A000437E857E089A06984B4412FB050203F096
:1020B000F3FA0E9803F06EFDDBF80000627C418CB1
:1020C0001144418411B0BDE8F08F0000640000208D
:1020D00004480068C069C06909B1027C0A60407C9C
:1020E0007047000064000020022008807047C0692B
:1020F00082898A4202D8C2898A4210D2806880B11D
:1021000002888A420DD843888B420AD3406800EB8C
:102110008100A0EB8200B0F90000002801DB012063
:1021200070470020704700002DE9F043304C034613
:1021300087B020681946B0F92A60C069C06900F00C
:1021400086F8002850D041680088181A01EBC005B5
:102150003046AF7803F01EFD814620686A6801238F
:10216000816BCDE90237CDE90421C169CB7E8A7E3E
:10217000CDE900230B7EB0F924102A78B0F92200B3
:1021800003F0FEF82068C069417E027E91421FD9AB
:10219000C07E11FB00F812FB00F7022E18D000F0F1
:1021A000DBFE064600F0C0FE01F01CFC21682A7828
:1021B000CB69B1F92200DB7E12FB0302B1F92410D6
:1021C00001EB0803394403F067FA304601F00AFCDA
:1021D000484603F0DFFC20686A78C369B0F9221032
:1021E0009B7E12FB0311418407B0BDE8F083000021
:1021F0006400002030B50F4C05460B462068294688
:10220000C069C06900F023F8002812D04168008836
:1022100024682A1A0120E46900EBC200085CA47E4D
:1022200010FB04F0002B04D011F8321011FB04F164
:10223000196030BD6400002001200880704700B59F
:10224000C06900F004F8002800D0012000BD06E0BD
:1022500002888A4202D842888A4202D280680028D4
:10226000F6D17047F8B505460C000DD0084600F0D1
:1022700015F8060010D000F0E7F8224600902DB1C6
:102280002946FDF79FFF04E00020F8BD002102F081
:1022900018FC684600F022F93046F8BD002801D04D
:1022A00006F0A8BB704738B50546FFF7F7FF0400F6
:1022B00009D000F0C9F82A460021009002F001FC84
:1022C000684600F00BF9204638BD0000024A106055
:1022D00021F0030050607047BCA3002010B5002817
:1022E00014D004460A48406B10F8341000290DD071
:1022F00002290BD2042101EBC4014158486806F0C1
:1023000031FB2046BDE810400AF0FCBB10BD0000C8
:10231000FCA20020002805D0034AD16B016001B166
:102320004860D06370470000FCA2002010B504464E
:102330000068FFF7D3FF0020206010BD2DE9F041B9
:10234000044609F041FC2848E41C24F00305016C14
:102350002D1DA94200D90D46C46B13E054F8042C7E
:10236000AA420ED184B1216809B162684A606168ED
:1023700009B122680A60C26BA24231D12168C163EF
:102380002EE02468002CE9D18046816BC0680F18CC
:1023900057F8040C3E1A306838B100200AF0BEFC31
:1023A00057F8040C3E1A3068D0B97068A84217DBA1
:1023B0003044441B3046241D0AF068FCD8F80C1049
:1023C000491BC8F80C10D8F814102944C8F8141088
:1023D0007068401B02D0314606F0C4FA44F8045C31
:1023E0002046BDE8F0810000FCA2002010B50024CA
:1023F00009F0EAFB0C490F2001EBC002526C1AB144
:1024000001EBC000406C08E0401EF5D508E04168D3
:10241000A14200D90C46806810B180680028F6D12E
:10242000A4F10C0010BD0000FCA20020002138B176
:102430000449042202EBC000496B085841680C397A
:1024400008467047FCA200200549CA69521CCA61AF
:10245000496B01EBC0010A78521C0A7000F056B8B3
:10246000FCA200207CB506460C460846FFF716FF86
:1024700005001CD0DEB13046FFF7D8FFA04200DADD
:1024800004462846FFF7E0FF00903046FFF7DCFFE8
:102490000146019022460098FDF794FE684600F040
:1024A0001DF801A800F01AF83046FFF717FF28467C
:1024B0007CBD000010B5FFF799FF64220649B0F516
:1024C000800F04D990FBF2F0096A484310BD096AF5
:1024D0004143B1FBF2F010BDFCA200200A490268A2
:1024E0004B6B52F8082C03EBC2021378022B03D378
:1024F000CB690BB15B1ECB611178491E11700021B5
:102500000160084670470000FCA20020002806D0A9
:102510000349042202EBC000496B08580830704799
:10252000FCA200202DE9FC414FF000060B465FEABB
:10253000000834462BD032B111461846FFF792FE00
:10254000060000D101244046FFF77EFF0090078877
:1025500045686846FFF7C2FFCCB9B9002846091D97
:10256000FFF780FF050015D0FFF76EFF019040F8E0
:10257000276001A8FFF7B2FF4046FFF765FF009014
:1025800045600188491C01806846FFF7A7FF204687
:10259000BDE8FC813046FFF7A1FE0124F7E70820E3
:1025A000FFF781BE7CB5050023D0FFF74DFF0090FB
:1025B0004068C0B1FFF748FF0024019005E0019892
:1025C00000EB8400FFF7B2FE641C00980088A04274
:1025D000F5DC01A8FFF782FF0098001DFFF7A6FEBB
:1025E0000099002008806846FFF778FF2846FFF72B
:1025F00075FE7CBD38B5002430B1FFF725FF009093
:1026000004886846FFF76AFF204638BD38B50D4696
:10261000002448B1FFF718FF2946009000F006F8A3
:1026200004466846FFF75AFF204638BD38B50D46C8
:1026300001880024A94209D9406838B1FFF704FF96
:10264000009050F825406846FFF748FF204638BD07
:10265000F0B52D271C68B0F1004F08D000260028E7
:102660000DDA651C1D6027704042012408E0651CDE
:1026700001261D606FF000402770491E01E0002414
:10268000091BC9B22AB3491EC9B222E00C46491E31
:10269000C9B2944205D1124C27781C68651C1D6094
:1026A0002770104C54F8215090FBF5F4E4B20A2C3A
:1026B00011D804FB150011B90EB1641CE4B20A2C48
:1026C00002D10124491CC9B21D686F1C30341F603F
:1026D0002C700029DAD1196800200870F0BD0000C4
:1026E000580000200C19030810B5002807DD0A68FF
:1026F0002B24531C0B601470096800220A7010BD53
:1027000010B5C2B2CBB2D21A00D5524293B25B43DB
:10271000C0F30722C1F30724121B00D55242000C5C
:1027200092B2A0EB114002FB023200B2002801DAA3
:10273000404200B280B200FB002010BD10B5002165
:10274000084600F04DFC43F6FF725042BDE81040D1
:1027500013460146AFF300802DE9FC4107461C46B5
:1027600015460E46042003F015FA80461148C0684D
:10277000C16C006D0F4406440D440444ADF8007074
:10278000ADF80450ADF80260ADF80640684605F0BB
:102790001FFD07E023462A463146384602F07CFFFB
:1027A00005F0D8FC0028F5D1404603F0F3F9BDE868
:1027B000FC810000580000202DE9F8431C00DDE9F1
:1027C000089816460F46054602D104F0BBFF0446A2
:1027D00000962E6843464A4621462846B047061EC4
:1027E00035D004F0A3FF8146698A304604F0E4FB4B
:1027F000304605F09DFB484605F09AFB4FF0000877
:102800000CE000BFCDF8008055F81CCF00231A461D
:1028100049462846E047E0B105F08AFB7F1E002FBD
:10282000F0DC1D21484605F09CFA601C0ED004F037
:10283000AFFF30B1FFF76AFE8469B44201D02000D7
:10284000F8D1B44202D0304605F00EFB3046BDE868
:10285000F883304604F0A8FE0020F8E72DE9F041A7
:102860001C4616460D460746022B02DB0020BDE83B
:10287000F0811C20FFF762FD0028F8D00DB1056142
:102880000AE0094A52F8241009B905E011460A681D
:10289000002AFBD1096901618461868200210160FF
:1028A0004160C0E90217E2E77C00002070B51D46D8
:1028B000FFF7D4FF040009D000F00EF8E0680068CC
:1028C00020B90348006800EB85008465204670BD90
:1028D00064000020FFF71EBD70B590B38269022A24
:1028E00030DA1E4C54F8221019B944F8220032E0B4
:1028F00019464B68002BFBD106E0CB68C5681B6806
:102900002D68AB4203DD09680029F6D11AE0C1B198
:10291000CB68C6681B683668B3420CD1838A012B2A
:1029200005D008E01946DB681B68AB4203DB0B6887
:10293000002BF7D129B14B6833B118604A68426067
:1029400004E0FFE7012070BD44F82200486088429F
:1029500000D100210160002070BD00007C0000203B
:102960000A4A816952F82130834202D1036842F851
:102970002130416809B102680A60016809B1426802
:102980004A60002101604160704700007C00002027
:10299000022801DB00207047054951F8200004E0BF
:1029A000C16809680029F6D000680028F8D170478E
:1029B0007C00002070B5044601F0B8FA051908E063
:1029C00000F086FA052C01DD052000E0204601F02C
:1029D000A1FA01F0ABFA2C1A002CF1DC70BD1FB586
:1029E00003ABCDF80CD0FFF733FE684600F01AF8C1
:1029F0001FBD002106F00EBB7FB50C461546CDF875
:102A00000CD003A9FFF770FE002801DD641EE4B2BC
:102A100003AB2A462146FFF71BFE684600F002F88A
:102A20007FBD00002DE9FC4706005BD000F09CFA5A
:102A30003B4C81462068B0F9228000F0A9FA216859
:102A400007468A8CD01B888441E000BF47F6FF719F
:102A5000304601F067FE82460146304601F038FEFE
:102A60002168054691F82C0000F0030001283FD0B2
:102A7000022839D000204A8C101A4884ADF8000092
:102A80006A1E1044ADF80400888CADF80200A9F16C
:102A900001010844ADF806006A465146304601F08F
:102AA000CFFB2168BDF8020088845146304601F012
:102AB00005F9064430780A281CD00D281AD0BDF834
:102AC0000000216828444884307818B1761C30789A
:102AD0000028BBD12068818C39448184818D21F00C
:102AE00003018185BDE8FC8705EBD5704010C2E786
:102AF0002846C0E7206890F82C1001F00301012956
:102B00000BD0022909D0018C418431780A29DBD10C
:102B1000828C02EB09018184D6E7A0F82280F4E7D9
:102B2000640000202DE9FF4F87B0904689460700DA
:102B300079D00C68D9F8045021B228B2401A401C50
:102B4000029000F011FA064618F00C0F1ED038461D
:102B50000A9A029901F0BBF908F00C01042904D08B
:102B6000082902D00C2911D104E0291400FB161009
:102B7000401C09E02114C1EB254200FB1620401C3B
:102B800000EBD07001EB600060F31F44484605F095
:102B9000C3F95FEA000B09D00246494604A8CDE913
:102BA000044501F012FE04A805F0B6F9A6F1010AE9
:102BB00038460A9A029901F053FF03900AEB244029
:102BC00060F31F45CDE900453846039901F080FDCB
:102BD00018F003010ED0012928D002290ED1B9F92D
:102BE0000420B9F90010521A101A00EBD07001EB52
:102BF000600001E0B9F80000ADF800006A46384610
:102C0000039901F01DFB38460A9A029901F01EFF54
:102C1000074406EB244060F31F4438780028C7D1EE
:102C2000584605F079F90BB0BDE8F08FB9F80410FB
:102C3000081A401CE0E700002DE9F04F0C46164949
:102C400087B00D68DDE91098E96C0F18286D8D18B4
:102C50000619C418ADF81070ADF81450ADF8126034
:102C6000ADF8164004A805F0B3FA002811D0DFF83B
:102C70002CB04FF0000ACDE90098CDE902BA2B46FE
:102C800022463946304607F03FFD05F063FA00283A
:102C9000F1D107B0BDE8F08F64000020455602086E
:102CA0002DE9F04F164C87B02568DDE91098EC6CE3
:102CB0002718286DA5184618C418ADF81070ADF87F
:102CC0001450ADF81260ADF8164004A805F080FA73
:102CD000002811D0DFF82CB04FF0010ACDE90098A0
:102CE000CDE902BA23462A463146384607F00CFDA4
:102CF00005F030FA0028F1D107B0BDE8F08F0000F0
:102D000064000020855502082DE9FE4F82460F48D9
:102D10008946DDE90D6500680C9FC16C006D01EB13
:102D20000208C418002005F053FA0AE00097CDE924
:102D30000165234642464946504607F0A5FD05F089
:102D400009FA0028F2D1BDE8FE8F000064000020DF
:102D50002DE9FC41104F04463B68D86C4518196DAD
:102D6000ADF800500E198418ADF80440ADF80260BB
:102D7000ADF80660684605F02BFA08E03868224690
:102D80003146406E03682846984705F0E3F900286D
:102D9000F4D1BDE8FC810000640000202DE9F04181
:102DA0000B4C2568EC6C2718286DA5184618C4181C
:102DB000002005F00DFA07E023462A463146384642
:102DC000FEF72AF905F0C6F90028F5D1BDE8F08133
:102DD000640000207CB50E4D2A68D36C1E18106D5F
:102DE000ADF804604418ADF80060ADF80640ADF8E9
:102DF0000240684605F0ECF907E028682146406E7D
:102E000042683046904705F0A5F90028F5D17CBD11
:102E1000640000202DE9FC411C4C2468E66C94F809
:102E200018C03718206DACF1010C4518C418A7EB79
:102E30000C001644ADF8000006EB0C00ADF80400E1
:102E4000A5EB0C00ADF8020004EB0C00ADF8060099
:102E5000684605F0BDF915E032462946384602F0CD
:102E600091FB32462146384602F08CFB621E691CFB
:102E7000384602F0E7FB621E691C304602F0E2FBB6
:102E800005F068F90028E7D1BDE8FC816400002066
:102E90007CB50E4B1B68DC6C2618186DADF8006015
:102EA00045188418ADF80460ADF80250ADF806403E
:102EB000684605F08DF906E022462946304602F0C4
:102EC000C1FB05F047F90028F6D17CBD6400002065
:102ED00010B5002400E0012400F004F80028FAD125
:102EE000204610BD094810B50068002410B1804785
:102EF00000B1012404F0CCFB00B1012404480068B7
:102F000010B1804700B10124204610BD8800002088
:102F100084000020034951F82000C1688A6A082112
:102F2000104700007C00002010B502F0E5FBBDE872
:102F3000104002F075BC000002490968C9694A687E
:102F40000021104764000020024A1268D2695268CA
:102F5000104700006400002010B502F0D5FBBDE86A
:102F6000104002F05DBC000002480068C069407E6D
:102F7000704700006400002001F0A0BB0148006819
:102F8000807E70476400002001F0E8BB00F0CEBFF7
:102F90000A490020096891F82C2002F00C02042A4A
:102FA00007D0082A01D00C2A02D1C869007E400847
:102FB0007047C869007E401E704700006400002012
:102FC000024951F820000069006870477C00002029
:102FD000024951F820000069406870477C000020D9
:102FE00070B50D4608F052FD0446284608F056FD1F
:102FF000204370BD2DE9F0411948016821F001011D
:10300000016018480125856017490160006817496B
:10301000884200D0FEE701F045F8154E2E203070B2
:1030200000F08AFF134808F097FD0BF0DFFC07461D
:1030300002F0B0FB10B102F0C1FB38B902F0C7FBDF
:10304000044602F0B0FB214602F09EFD0021084636
:1030500000F0E4FC04F0ACFC75703846BDE8F0818B
:10306000002000E000300240C2A507F4CDB5E8B56D
:1030700058000020C8A3002010B5011E01DD024643
:1030800000E04A42064B012053F82040944202D807
:10309000401C0A28F8DB002900DA401C10BD0000A3
:1030A0000C1903081CB520B90C480068006E0028F4
:1030B00012D0FFF7C9F9009044696846FFF70EFA8D
:1030C000002C09D02046FFF7BFF90190816889687C
:1030D000884701A8FFF702FA1CBD00006400002029
:1030E00001490A4600F002B801F0FFFF2DE9F04364
:1030F00087B015460C465FEA000842D0002000F079
:1031000079FC814620480068066E4046FFF79CF92E
:1031100000900068806900F04BFC074640F6FF70A5
:10312000C44204D10098B0F90440B0F906500098A8
:10313000611E0289ADF804401144ADF808104189C0
:10314000681E0844ADF80650ADF80A0004F0C8F84F
:103150006846FFF7C3F901A805F03AF806E02A46E9
:103160002146404600F04EFB04F0F4FF0028F6D163
:10317000384600F01DFC304600F066F9484600F085
:1031800039FC07B0BDE8F083640000202DE9FE4F54
:1031900083461A488A461A4900680C9E9846407C25
:1031A0009146002751F82040E1680968042903D0BE
:1031B0002468002CF8D100E01CB9FFF7E9FB041EDD
:1031C00019D0E0680121C26A20469047050011D05D
:1031D0002469A0688047401C02D10A4C46F00106D1
:1031E0000096CDE9015443464A465146584600F000
:1031F000AFF907463846BDE8FE8F000064000020A6
:103200007C0000204C19030838B5040018D00D4884
:103210000068006EA04201D100F0C0FB2046FFF71D
:1032200013F90090406908B100F03FFE0098006873
:10323000FFF750FB6846FFF751F92046FFF74EF8BD
:1032400038BD0000640000202DE9FF4FDFF8389101
:10325000074683B0D9F800009A468B46447C4B4819
:1032600000570128204606DD02F09AFA054620465E
:1032700002F0AAFA05E002F07BFA0546204602F0C9
:103280007DFA04461FB302A901A8FFF77DFEB7F936
:103290000000002800DA0020B7F902608046002E06
:1032A00000DA002601984119B7F90400491E08F018
:1032B0002FFE054602980119B7F90600491E08F0CD
:1032C00027FEA5EB0802841B521C641C03E04FF090
:1032D000000846462A46BAF1000F01D1C4F1000A9F
:1032E000002A4FDD002C4DDD1098009053463146EA
:1032F0004046FFF74BFF5FEA000A10D000F06AF883
:103300000746A04206D0D9F80000806C10B13221E7
:1033100005F07CFA504600F097F8002521E0594668
:1033200005988847012007B0BDE8F08F611BB942BE
:1033300002DA504600F072F83DB17219414650462B
:1033400000F0A4F85046FFF7ADFE594605988847AF
:103350000F48016809B1002088475046FFF7C0FEBA
:103360003D44A542E2DB5046FFF74EFF002000F04F
:103370006BF8A74206D0D9F80000806C10B1332159
:1033800005F044FA0020CEE7640000209C000020F5
:10339000DC01002038B5002460B1FFF755F800903B
:1033A000006800698068804702F0C0FD04466846F6
:1033B000FFF794F8204638BD38B5002808D0FFF74D
:1033C00043F800F1180400906846FFF787F820469C
:1033D00038BD000038B5002418B907480068006EF1
:1033E00038B1FFF731F80090B0F90A406846FFF7AE
:1033F00075F8204638BD00006400002070B5054611
:103400000024284605F000FD641C18B1BDE870409A
:1034100000F068B8052CF4DB70BD000038B50C4630
:1034200020B908480068006E00280AD0FFF70CF8A1
:103430000090B0F90A10A14200DD44816846FFF710
:103440004DF838BD64000020F8B50F4E0500306817
:10345000046E16D00CB100F0A1FA04F067F828460B
:10346000FEF7F2FF009031680D660068FFF734FA4E
:103470006846FFF733F802F0E7FB02F065FB2046F1
:10348000F8BD00F08BFAFAE7640000207CB5154621
:103490000C4620B912480068006E00281FD0FEF7C5
:1034A000D3FF2DB20090C58024B2848002F04CFB83
:1034B0000098406980B1FEF7C7FF009A0190B2F909
:1034C00008108180B2F90A20C28011B10AB10480CB
:1034D000458001A8FFF702F86846FEF7FFFF7CBDB4
:1034E0006400002001490A4600F002B801F0FFFF25
:1034F0007FB515460C46060028D0FEF7A5FF40F61E
:10350000FF710190CC4203D1B0F90440B0F90650EC
:103510000289611E1144ADF80840ADF80C104189D4
:10352000681E0844ADF80E00ADF80A5001A8FEF779
:10353000D5FF02A804F04CFE06E02A46214630469C
:1035400000F048F904F006FE0028F6D17FBD000027
:103550002DE9FF4FDFF8E8B083B01C46DBF8001020
:10356000DDE9106092464FF000084B7C424612990C
:10357000FFF774F9050060D028698068804702F081
:10358000D5FC81460AFB09F1C91DCF08FEF792FF61
:10359000F10705D1C11700EB9170801000EB4000DE
:1035A000002C09DC1FB11838B0FBF7F000E0002058
:1035B0006442A04200DC0446F00707D10090DDE938
:1035C00003012346524600F0F9FB8046002C03DC41
:1035D0002846FFF77FF930E004FB07F01830F107C9
:1035E00002D0FEF75BFE01E0FEF75DFE06001CD098
:1035F000FEF72AFF01900560039981800499C1803C
:10360000A0F808A04481C0F81480C0E9037901A89B
:10361000FEF764FF1298AE602861DBF80000407C82
:10362000A861304607B0BDE8F08F2846FFF752F991
:10363000B8F1000001D0FEF751FE0020F2E70000D3
:10364000640000202DE9F74F8EB0144689460E988D
:10365000FEF7FAFE0990B0F908B0B0F90A60006808
:10366000006940680C9009A8FEF738FF564D574F87
:103670002868407C57F82000C1688A6A0821904772
:103680000790182801D3202007902868407C57F81D
:1036900020000069069003C80B904D48814201D07C
:1036A000012000E000200A90002000F046FC0028E5
:1036B0007DD1286809EB0B01B0F90C20891A491E4D
:1036C000002902DDABEB010500E05D46B0F9081012
:1036D000494505DDA1EB090189446D1A089101E016
:1036E00000210891002D6BDDB0F90E20A119891A77
:1036F000491E002902DDA6EB010800E0B046B0F942
:103700000A00A04204DD061B3444A8EB060800E0D2
:103710000026B8F1000F53DD089801900DA95F460F
:10372000DDF830A00E980091FFF746FE774300EBDE
:10373000870101982B4601EB800200994846CDE9AC
:1037400000A1214600F0E2FD0090002838D00A9840
:10375000E8B1DDE906322946009800F09DFCB0B9D9
:103760000698009FDA46D0F810C0BCF1000F05D0D3
:1037700004235A4639463846E04708E00B99386832
:10378000884701C7AAF101005FEA000AF6D1009953
:103790000020079ACDE90301059001200090CDE9B2
:1037A000010221460346641C2A46484600E007E021
:1037B00001F0E6FDA8F10100761C5FEA0008ABD13C
:1037C00011B0BDE8F08F0000640000207C000020F4
:1037D0003F580208F8B515460E460746FEF734FE78
:1037E000009000681621C068426A00209047044695
:1037F0006846FEF773FE002C03D02A463146384651
:10380000A047F8BDF8B516460F46050012D0FEF7E2
:103810001BFE009044696846FEF760FE2846FFF7ED
:10382000B9FD0346082800DD2CB13246394628464A
:1038300009F036FEF8BD32463946284609F0D0FF79
:10384000F8BD10B5002821D009B30AB3B1F9004082
:10385000B2F900309C4200DA23460380B1F90240FD
:10386000B2F902309C4200DA23464380B1F90440A9
:10387000B2F904309C4200DD23468380B1F9061082
:10388000B2F90620914200DC1146C18010BD1146FC
:103890000A6802604968416010BD00280BD00388A7
:1038A0000B440380838819448180418811444180FE
:1038B000C1881144C180704770B5094C0020D4E91B
:1038C00000218A420AD0D2E90056104608F0FCF8DE
:1038D00020603146284604F07BF9012070BD0000CD
:1038E000900100202DE9FC41154DDDE908742D689B
:1038F000B5F90860864200DD3046B5F90C609642A5
:1039000000DA3246824219DBB5F90A608E4200DDE8
:103910003146B5F90E509D4200DA2B468B420DDB45
:1039200000E02C46E5682D6825B1042D02D02568FD
:10393000002DF6D1CDE9007401F0F0FFBDE8FC8167
:1039400064000020B0F90220B1F906309A4213DC7D
:10395000B1F90220B0F906309A420DDCB0F900202E
:10396000B1F904309A4207DCB1F90010B0F9040053
:10397000814201DC01207047002070470146024867
:1039800070220068FCF71EBC64000020024970220F
:103990000968FCF717BC00006400002010B502F0B5
:1039A00089F802F051F9BDE8104003F099BC00001D
:1039B00070B5094D0446022C2868467C09D2204681
:1039C000FEF7E6FF28B128684474FFF7E7FF0348D5
:1039D0000460304670BD0000640000201C0100201F
:1039E00002F088B802F0BEB8014988607047000054
:1039F0005800002002F0CEB803490968CA6900B136
:103A0000C861104670470000640000200249096840
:103A10008A7E88761046704764000020094A30B4D8
:103A20001080094A1180094A1268537C084A52F8EA
:103A30002330DA68146A0A46A446014630BC1846A8
:103A400060470000A4000020A600002064000020C1
:103A50007C000020024909680A7E087610467047FB
:103A60006400002003490968B1F92C2088851046BC
:103A7000704700006400002003490968B1F92A205A
:103A80004885104670470000640000200248006826
:103A9000002800D000477047B401002002498A681E
:103AA00002B98860FFF7F2BF900100202DE9FC41C8
:103AB0000746984616460D461C20FEF7F4FB040008
:103AC0002DD01B49194808602046FEF7BDFC009028
:103AD00015B9FFF75BFA054600980760C0E9046571
:103AE000A0F80C806846FEF7F9FC204608F034F98F
:103AF000104DA86840B90120A86005F10C010E48DE
:103B00000860084600F064FF2046FEF79DFC019027
:103B1000296839B181602C6001A8FEF7DFFC2046DE
:103B2000BDE8FC8100212C608160F5E7593B02086B
:103B300088000020A0010020D1C0020810B50400B8
:103B400009D009F0BDF8204609F058FC2046BDE830
:103B50001040FEF7C3BB10BD2DE9F041184C88B0F2
:103B60000025676825E000BFFFF710FA0646606889
:103B7000FEF76AFC01904169891B002915DC616828
:103B8000029604910169039146686660D0F800804E
:103B900001A8FEF7A3FC02A84146884766B1606809
:103BA0000125B84205D1002506E001A8FEF796FCE4
:103BB00002E060680028D7D108B02846BDE8F0814F
:103BC000A001002038B50C4660B1FEF73DFC009026
:103BD0008089204201D0012400E000246846FEF7DD
:103BE0007DFC00E00124204638BD38B5040012D029
:103BF000FEF72AFC0090FFF7C9F901460098826998
:103C0000114441616846FEF769FC204609F0F6FB65
:103C1000204608F0A1F838BD38B50C46002806D07B
:103C2000FEF712FC009084616846FEF757FC38BD31
:103C300038B50546002028600648046844B120468F
:103C4000FEF702FC0090006928606846FEF746FC1B
:103C5000204638BDA001002038B504004FF0000018
:103C60000D46086011D02046FEF7EEFB00908468F8
:103C700044B16846FEF732FC2046FEF7E5FB0090B3
:103C8000006928606846FEF729FC204638BD000020
:103C90002DE9F041084E0446056830680168284661
:103CA000884707463068416828468847284420608E
:103CB0003846BDE8F0810000680000202DE9F041A1
:103CC0000C4606460025064F05E038684168304638
:103CD000884706440544641EF7D22846BDE8F081B3
:103CE000680000202DE9F0411E46069C17468846D4
:103CF00005463A46A8687F1C3346D0F804C04146C2
:103D00002846E047641EF4D1BDE8F08170B5B0F9F3
:103D10000040091BB0F904408C422CDD00F1140472
:103D2000B0F902500069521B02FB0040CA1800EBB8
:103D3000E104521ED010B0EBE10501F007034FF093
:103D4000FF0102F0070221FA03F0C2F1070201FAB3
:103D500002F1CEB221780FD001436D1E04F8011B91
:103D6000002D05DDFF2229462046FCF74BFA2C44A6
:103D700020783043207070BD30400143217070BD09
:103D800010B5B0F90030B0F90240C91A00F11403BF
:103D90000069121B02FB003000EBE10001F0070399
:103DA00002788021D9400A43027010BDB0F9061094
:103DB000026951431430FCF72CBA00002DE9F84396
:103DC000804602F10F000011470003FB07F01C467C
:103DD000154689461430FEF766FA060013D0FEF742
:103DE00033FB0090A0F80080A0F802908580C4808A
:103DF000064981600121818107616846FEF76EFBFB
:103E00003046BDE8F8830020FBE7000044230308A8
:103E100070B5B0F90660B0F904400B6800F1140504
:103E200096421BDD0069A34202FB005000EBE30257
:103E300014DA641EE010A0EBE30512F8010B03F0A6
:103E40000704A040C4B206E045B1083312F8014BA4
:103E500023F007036D1E002CF6D004E0002070BD97
:103E60006006040E5B1C2006FAD5FF2C07D018460E
:103E700002E06406240E401C6606FAD400E0D81D59
:103E8000C443640705D006E012F8014BFF2C09D1AA
:103E900008306D1EF8D5C01A401C0B6070BD62065C
:103EA000140E401C2206FAD4F5E738B50546FEF795
:103EB000CBFA00908189491E0CB284816846FEF7D6
:103EC0000DFB002C02D12846FEF708FA38BD2DE97B
:103ED000F04116460F46054600243246394628462C
:103EE00000F0B4FD054408B1641CF6E72046BDE8C7
:103EF000F081000010B54FF420410448FEF7E6F9C8
:103F0000BDE810400248FFF76FBD0000E802002046
:103F100048FA020803490A6810440A68821A002A0B
:103F2000FBDC70473C00002070470000014800683F
:103F3000704700003C00002070470EB508B102AA8F
:103F400000E00022002301A9684600F069FB0EBDD5
:103F5000074910B50C7818B101200870801E03E0E5
:103F6000002008706FF07F4001F0F4F9204610BD8A
:103F70009E00002010B5082A0EDC0346012A18D046
:103F8000022A56D0042A76D010F8042B03F8012B0D
:103F9000491EF9D1012010BD102A08DC4FEA0002A9
:103FA00030F8043B22F8023B491EF9D1F2E7002029
:103FB00010BD10F8042BD207120E491E34D010F891
:103FC000044B491E04F0010442EA84122CD010F87C
:103FD000044B491E04F0010442EA441224D010F8B4
:103FE000044B491E04F0010442EA04121CD010F8EC
:103FF000044B491E04F0010442EAC40214D010F834
:10400000044B491E04F0010442EA84020CD010F86B
:10401000044B491E04F0010442EA440204D010F8A3
:10402000044B04F00104224303F8012B0029C0D102
:10403000B0E710F8042B9207120E491E15D010F8A5
:10404000044B491E04F0030442EA04120DD010F898
:10405000044B491E04F0030442EA840205D010F820
:10406000044B04F003042243491E03F8012B0029EA
:10407000DFD18FE7FFE710F8042B1207120E491E5D
:1040800005D010F8044B04F00F042243491E03F836
:10409000012B0029EFD17DE738B50024009400F012
:1040A0001BF838BD0A4810B5816900290ED10121DD
:1040B0008161FFF71FFF01F0D9FD054905481C315B
:1040C0000860BDE81040084600F082BC10BD00004A
:1040D0005800002071C002082DE9F0410D460699F4
:1040E000044601B901461F68082A09DC0E46012A68
:1040F0001AD0022A5BD0042A7DD0082A13D18DE081
:10410000102A07DCD3F810C00E46BCF1000F04D013
:10411000022389E00020BDE8F08101CCB84726F8F1
:10412000020B6D1EF9D189E001CCB847C0074FEAF8
:1041300010686D1E36D001CCB84748EA801000F0F8
:10414000FF086D1E2ED001CCB84748EA401000F0A1
:10415000FF086D1E26D001CCB84748EA001000F0D9
:10416000FF086D1E1ED001CCB84748EAC00000F021
:10417000FF086D1E16D001CCB84748EA800000F059
:10418000FF086D1E0ED001CCB84748EA400000F091
:10419000FF086D1E06D001CCB84740EA080000F0C9
:1041A000FF086D1E06F8018B002DBDD146E001CC45
:1041B000B84780074FEA10686D1E16D001CCB8478B
:1041C00048EA001000F0FF086D1E0ED001CCB84781
:1041D00048EA800000F0FF086D1E06D001CCB84709
:1041E00040EA080000F0FF086D1E06F8018B002D64
:1041F000DDD123E0FFE701CCB84700074FEA1068A4
:104200006D1E06D001CCB84740EA080000F0FF0858
:104210006D1E06F8018B002DEDD10FE0D3F810C014
:10422000BCF1000F04D001232A462046E04705E0F8
:1042300001CCB84706F8010B6D1EF9D101206AE7E1
:104240007CB5064628480D46006868B1002003F09A
:10425000BFFF06E06A462946304604F06BFF03F0D4
:1042600079FF0028F6D17CBD106800901F4C506883
:1042700001902268BDF8000032F84C1F0844ADF8E8
:104280000000BDF8020091880844ADF80200BDF8B6
:10429000040011880844ADF80400BDF806009188B8
:1042A0000844ADF80600684603F092FF0EE000BF38
:1042B0002068BDF800106A464184BDF80210818470
:1042C0002946304604F036FF03F044FF0028EFD1C2
:1042D000206830F8221F428D891A01804188C28DE2
:1042E000891A41807CBD0000A000002064000020ED
:1042F00049B1002802DAA0EB610001E000EB6100A7
:1043000090FBF1F070470020704700002DE9FF4F4F
:104310008DB00020DDF86CA0164600901D460446C6
:104320000246CAF8000008AB03A902A800F078F919
:1043300018B1002011B0BDE8F08F0898854200DD6B
:104340000546614F0B9561493868407C51F8201053
:10435000049109690691FEF7DDFD05903868407CFF
:10436000FEF736FE5A498146884204D059498945AC
:1043700001D0012000E000200A9001CE1A99884760
:104380008346000E079077D0009870BB0D9800EB25
:1043900004084D480068B0F90800404503DDA0EB73
:1043A0000807804600E000270298049900EB84008B
:1043B00000EB8700CDE900010B990D984218099296
:1043C0000E9B40461946521EFFF78CFA01200090C2
:1043D000059818280ADA0298DDE9052300EB840025
:1043E00000EB8700E91B00F079F812E00A9880B131
:1043F000029800EB840000EB87070998A0EB0808FF
:1044000049463868884701C7A8F101005FEA0008FB
:10441000F6D13148C06980B3DDE9020700EB8400C2
:1044200007EB8402CDE902022B4C361F3046E469CB
:104430002B460299A047FF213068B1EB106F02D1E3
:104440000298006804E0029A1268B1EB126F01D181
:10445000039A1060029806F10406001D029003986A
:10446000001D03906D1EE7D10397DAF8000040F0BD
:104470000101CAF8001020E021E0FFE70798FF28BB
:1044800011D0C0F1FF02029850F82410584600F0F5
:1044900037FA039941F82400DAF8000040F00101EE
:1044A000CAF8001005E00298039950F8240041F87A
:1044B0002400641C6D1E7FF460AF03983AE70399F3
:1044C00041F824B0E8E70000640000207C000020F0
:1044D0003F5802083D580208180200202DE9F05FFD
:1044E0000C1E16DD5E68014600EB8405082A12DC0E
:1044F000611E012A26D0022A47D0042A6AD0082A3F
:1045000007D1071917F8010DB04745F8040D641ECF
:10451000F8D1BDE8F09F102AFBDC5F693FB122466D
:10452000BC46BDE8F04F02235DF804EB604701EBA9
:10453000440700BF37F8020DB04745F8040D641E6C
:10454000F8D1E6E700EBE10001F0070710F801A958
:104550008146802020FA07F8B5F104050AEA080030
:10456000C7F10701C840B04745F804093FB14FEA19
:1045700048604FEA10687F1E641EEFD1C9E719F842
:1045800001A907274FF00108F6E700EBA10001F0B1
:10459000030710F801A981467900C02020FA01F82C
:1045A0004FF0060BB5F104050AEA0800ABEB470132
:1045B000C840B04745F804093FB14FEA88604FEA68
:1045C00010687F1E641EEFD1A3E7032719F801A925
:1045D000B846F7E700EB6100012710F801A9A743EF
:1045E0008146B900F02020FA01F84FF0040B2D1F8E
:1045F0000AEA0800ABEB8701C840B04745F8040958
:104600003FB14FEA08704FEA10687F1E641EEFD179
:104610007FE719F801A901274FF00F08F6E700001E
:104620002DE9F047224C06461F46A0699046894670
:10463000002540B90120A06104F120011D48086057
:10464000084600F0C5F9606930B91B480068606130
:1046500010B901F090F8606107B138604EB1A06800
:1046600030B960698000FDF769FEA06000B90125DE
:104670003060B9F1000F0AD0E06830B9606980009D
:10468000FDF75CFEE06000B90125C9F80000B8F153
:10469000000F0AD0206930B960698000FDF74EFE36
:1046A000206100B90125C8F800002846BDE8F08760
:1046B00018020020F5C0020894000020034800689A
:1046C000C069017EC07E11FB00F0704764000020CD
:1046D00073B5124A01A9009812689047002400900F
:1046E000C8B10F4900250968C969496959B10A6803
:1046F0004AB1019990477CBD6846FFF7C9FA054663
:10470000FEF71AFC04440198401E0190F4D5284697
:1047100000F032F8044420467CBD0000B4020020C2
:104720006400002073B50D460098002490B10A493A
:104730000968C969496959B14A684AB12946904727
:104740007CBD6846FFF7A4FA20B10A2802D0641C99
:10475000AC42F6DB20467CBD64000020044AB2F97E
:10476000002002600348B0F90000086070470000B4
:10477000A4000020A600002038B50024694600945B
:10478000FEF7E2FB0099814200DD0C1A204638BD9D
:10479000B0F90030B1F90020934200DA0280B0F99C
:1047A0000230B1F90220934200DA4280B0F90430BD
:1047B000B1F90420934200DD8280B0F90620B1F9FE
:1047C00006108A4200DDC180704770B5B1F9004023
:1047D000B2F900309C4200DD23460380B1F902505B
:1047E000B2F90240A54200DD2C464480B1F90460D4
:1047F000B2F90450AE4200DA35468580B1F90610B0
:10480000B2F90620914200DB1146C1809D4201DBD6
:10481000A14201DA002070BD012070BD01460248AE
:104820000068407C00F002B8640000202DE9F843E5
:1048300001268946044602285DDA304F7A6802B1C3
:1048400090472E4D5FEA090005F1100532D001288E
:1048500003D0B9F1020F4ED118E055F8240088B901
:104860002046FEF795F8009018B3C0680D21426A03
:104870006846904702003ED049460098904755F858
:1048800024000026401C45F8240034E02046FEF7B2
:104890007FF8009068B1C0680D21426A6846904771
:1048A000040028D0386800B1804749460098A047E6
:1048B000002620E055F82400A846012812D1204601
:1048C000FEF766F8009068B1C0680D21426A68463C
:1048D0009047050006D0386800B1804749460098E7
:1048E000A847002658F8241009B1012200E0002250
:1048F000891A48F824103046BDE8F8837801002072
:1049000070B5FF23B3EB116F2CD0C3B213FB02F5CC
:1049100000F47F4400F47F0354435343000E10FB24
:1049200002F6C2F1FF00CAB212FB005201F47F4549
:1049300005FB004401F47F0505FB0033090E11FB64
:104940000065C2F307204FF47F024FF47F4102EA73
:10495000132201EA14214FF07F43084303EA054381
:104960001043184370BD2DE9F04F0646DDE90CB940
:1049700015460C4600208046584519D20B9F4FF033
:10498000FF0A01CE08CCAAEB106202FB09F2B2FBCF
:10499000FAF1CAB21946FFF7B3FF20F07F4001C514
:1049A0007F1EEED1099804EB800408F10100E2E7D4
:1049B000BDE8F08F0B88134403808B889B1A83809B
:1049C0004B8813444380C988891AC180704700000E
:1049D00002494A694260486170470000580000205F
:1049E0002DE9F8430768064688460025384600F05A
:1049F000BFF840B3404600F0CBF8441C3846FDF702
:104A000015FD84420CD1F4B13846FDF71DFD224658
:104A100041460090FBF7D6FB6846FDF75FFD11E0CD
:104A20002046FDF73BFC04000DD0FDF70DFD41468F
:104A30000090FBF700FC6846FDF750FD3046FDF79F
:104A400075FC346001252846BDE8F88310B504469E
:104A500000F009F801462046BDE81040FFF72EB9E6
:104A6000002308F0F3BC77B581B015460E466B46BF
:104A7000019808F0EBFC044601460198FFF71EF987
:104A800001990844019001A8FFF702F90A2802D011
:104A9000012D02D012E0641C10E020280ED1FEF798
:104AA0004BFA054607E02844009001A8641CFFF774
:104AB000EFF8202802D100988642F4DA04B02046AC
:104AC00070BD10B502E000F8011B521E0AB1830749
:104AD000F9D1930818D001EB014402F0030204EB72
:104AE000042406E010C01B1F10C040F8084B40F81B
:104AF000044C042BF6DA01E010C05B1E002BFBD146
:104B000002E000F8011B521E002AFAD110BD10B5B8
:104B1000830702D520F8021B521E530811D001EB67
:104B20000144042B09DB10C01B1F10C0042B40F8EC
:104B3000084B40F8044CF6DA01E010C05B1E002B75
:104B4000FBD1D20700D0018010BD000000B907A042
:104B500021B906A102E03AB1401C491C02780B7849
:104B60009A42F8D0012070470020704700000000F2
:104B700038B50D46012448B1FDF766FC2946009082
:104B8000FFF7E4FF04466846FDF7A8FC204638BD61
:104B90004FF0FF3128B100BF10F8012B491C002A4B
:104BA000FAD10846704700F5806000F001B80000B7
:104BB00010B50023C0F30B00B0F5006F02DD012338
:104BC000A0F50060B0F5806F01DDC0F500608111D7
:104BD0000C4C00F03F00C0F1400234F8110050438B
:104BE000402A08D0102906DA04EB4101C2F1400244
:104BF000498801FB020020308009002B00D0404290
:104C000010BD00003818030801460020084A012999
:104C100007D0022907D0032907D0042900D1D08862
:104C20007047108870475088704790887047000020
:104C300014000020FEE70000054A4FF40071002830
:104C400002D01046FCF72DBD1046FCF72CBD00002D
:104C50000014024001B502E00098401E0090009848
:104C60000028F9D108BD00B597B03C2108A8FBF792
:104C7000D0FA1C2101A8FBF7CCFA0121084601F06B
:104C800033FA042101910F20039088060790002039
:104C900002900490059006900891099008210A91CD
:104CA00010210B910C900E900F9010900902119111
:104CB00012901390149001A81590169008A8FCF774
:104CC00037F901210420FCF721F917B000BD0000DD
:104CD0002DE9FC5F0121782001F0F8F902248DF81C
:104CE00004408DF805404FF48049CDF800906946A6
:104CF0007848FCF781FC0C220E217648FCF7BAFCC0
:104D00004FF4004ACDF800A069467248FCF774FCE5
:104D10000C220F216F48FCF7ADFC01250095694678
:104D20006C48FCF769FC0C2200216A48FCF7A2FCE5
:104D3000009469466748FCF75FFC0C220121654836
:104D4000FCF798FC8020009069466348FCF754FC0F
:104D50000C2207216048FCF78DFC4FF4807BCDF8D6
:104D600000B069465C48FCF747FC0C2208215A4811
:104D7000FCF780FC2602009669465748FCF73CFC8D
:104D80000C2209215448FCF775FC6702009769461C
:104D90005148FCF731FC0C220A214F48FCF76AFC11
:104DA0004FF40068CDF8008069464B48FCF724FCBE
:104DB0000C220B214848FCF75DFCE002009069469C
:104DC0004548FCF719FC0C2211464348FCF752FCFD
:104DD0002003009069464048FCF70EFC0C220D2190
:104DE0003D48FCF747FCCDF8009069463A48FCF78F
:104DF00003FC0C220E213848FCF73CFCCDF800A047
:104E000069463548FCF7F8FB0C220F213248FCF7C5
:104E100031FCCDF800B069462E48FCF7EDFB0C22C2
:104E200008212C48FCF726FC009669462948FCF727
:104E3000E3FB0C2209212748FCF71CFC009769467C
:104E40002448FCF7D9FB0C220A212248FCF712FC6B
:104E50001020009069461F48FCF7CEFB0C2204216D
:104E60001C48FCF707FC2020009069461948FCF715
:104E7000C3FB0C2205211748FCF7FCFB0097174FDA
:104E800069463846FCF7B8FB0C220A213846FCF785
:104E9000F1FB0095124F69463846FCF7ADFB0C223A
:104EA00000213846FCF7E6FB8DF8045000208DF811
:104EB00006008DF807508DF80540CDF80080694652
:104EC0003846FCF799FB009669463846FCF794FB98
:104ED000BDE8FC9F000C0240001002400018024098
:104EE0000014024010B507283BD81E4B1870C407A9
:104EF0004FF0F0014FF4A07214D05A8099803622FE
:104F00004FF0D0410A80DA88A2F51344413C04D026
:104F1000A2F50544523C08D009E0082242EA4010BC
:104F2000488004E059809A80E9E7400148802A20BF
:104F300008800020488048805888401EC0F307221F
:104F40004A80C0B248802B200880002048804880DA
:104F50009888401EC0F307224A80C0B248802C20A7
:104F6000088010BD2400002010B5FFF7B1FEFFF748
:104F70007AFE0120FFF760FE00F0A4F900F008F8C7
:104F800002480078BDE81040FFF7ACBF24000020C5
:104F900010B500F06BF9B349C880B349A0F51342CE
:104FA0004FF0D044413A7DD0A0F50542523A7AD133
:104FB000CF20208000206080C12060803020608071
:104FC000ED202080642060800320608012206080BB
:104FD00081206080E8202080852060801020608013
:104FE00078206080CB202080392060802C20608059
:104FF000002060803420608002206080F7202080C4
:1050000020206080EA202080002060806080C02016
:10501000208021206080C120208011206080C52058
:1050200020802D206080332060803620208000206A
:1050300060803A20208055206080B12020800020B0
:10504000608017206080B62020800A206080A22027
:105050006080F62020800120608030206080F22077
:105060002080002060802620208001206080E020B9
:105070002080D02060800020608002206080072097
:1050800060800B2060801A20608031206080542076
:1050900060804020608029206080122060806080D5
:1050A000608001E02AE028E017206080E120208075
:1050B000D020608000206080022060800720608017
:1050C00005206080252060802D2060804420608045
:1050D000452060801C206080182060801620608041
:1050E0001C2060801D206080112020800846FFF772
:1050F000B1FD292020802C20208010BDCF202080D1
:10510000002060808120608030206080ED20208041
:105110006420608003206080122060808120608095
:10512000E8202080852060801020608078206080CA
:10513000CB202080392060802C206080002060807F
:105140003420608002206080F72020802020608052
:10515000EA202080002060806080B1202080002034
:1051600060801B206080B62020800A206080A22002
:105170006080C020208035206080C12020801120E8
:105180006080C5202080452060806080C72020800E
:10519000A2206080F22020800020608026202080D5
:1051A00001206080E02020800F2060802620608029
:1051B000242060800B2060800E20608009206080A9
:1051C00054206080A8206080462060800C20608091
:1051D00017206080092060800F2060800720608099
:1051E00000206080E1202080002060801920608005
:1051F0001B20608004206080102060800720608079
:105200002A206080472060803920608003206080F1
:1052100006206080608030206080382060800F2011
:10522000608036202080C82060802A2020800020D6
:10523000608060806080EF2060802B2020800020D4
:1052400060806080012060803F2060803A20208064
:1052500055206080112020800846FFF7FBFC2920A4
:10526000208010BD24000020FCBF020010B50420E7
:105270004FF0D04108804888488848884FF6FF732F
:1052800003EA002248881043A0F50542523A0FD0A5
:10529000D320088048884888488803EA00204C8842
:1052A0000443214604A008F0E1FC14B149F2413066
:1052B00010BD002010BD00006964203D2025347819
:1052C0000D0A000070B50A4D4FF4006421462846CF
:1052D000FCF7E7F940F6FF263046FFF7BBFC214616
:1052E0002846FCF7E0F93046BDE87040FFF7B2BC55
:1052F000001402401CB50121052000F0E7FE01204A
:10530000009000208DF804008DF8070069460548DC
:10531000FCF772F94FF40050009069460248FCF720
:105320006BF91CBD000002400008024070B5044645
:105330000D4629462046FCF7ADF9012801D0002092
:1053400070BD29462046FCF7A5F90128F9D00120B7
:1053500070BD000002490A680860104670470000EE
:10536000B80200200449054A0968497C52F8211016
:105370000969096808470000640000207C000020DB
:105380002DE9F04F05468DB07B48DDF860901A9C02
:1053900000681E4617464FF0000A78B11B9B199A09
:1053A000CDF808900593CDE90324DDE91623CDE976
:1053B0000023046833463A46284680E0DDE91602B9
:1053C00001EB060805EB070C1043A8F10108ACF14E
:1053D000010C012806D0C9F10800059000200291B7
:1053E0000990C6E065480268B2F90A30581A0028E8
:1053F00006DD361A002E63DD1946199B00FB0344B7
:10540000B2F90E00A8EB0000002802DD361A002ECB
:1054100056DDB2F90C00ACEB0000002800DD3F1AAD
:10542000B2F908300020AB4235DD581B3F1A4B461D
:10543000B9F1080F26D006DC012B0BD0022B11D0BE
:10544000042B28D116E0102B1ED0182B1FD0202B98
:1054500021D11CE020F0070304EBE0041D4400F020
:10546000070018E020F0030304EBA0041D4400F043
:10547000030010E020F0010304EB60041D4400F081
:10548000010008E0044404E004EB400401E004EB04
:10549000800405440020002F12DD1B9BDDF864C052
:1054A000CDE90403CDE90069CDE902C4527C34485A
:1054B0003B4650F82200C26854680A462946A04775
:1054C0000DB0BDE8F08F1799029808440C902B4955
:1054D000401E00900A68B2F90A30834241DCB2F9FA
:1054E0000E10029881423CDB4FF0000BD84603952A
:1054F0000A9434E0BBF1000F05D10A984FF0080B75
:1055000010F801AB0A900599ABEB090B3AFA01F0E0
:105510000AFA09F101F0FF0A04D118490968097C67
:10552000890716D415490968C96B0A680B921B9A3A
:105530000AB152F82000086016990398009B42189F
:10554000521E029900F0A8F80C490B980968C96B23
:1055500008600399169808F1010808440390B845BB
:10556000C8DB0998401C09900C98029019980444D3
:105570000998B042A7DBA3E7A00000206400002048
:105580007C000020F0B40C4612490968B1F90A30D9
:10559000A3421CDCB1F90E30A34218DBB1F908308C
:1055A000834200DD1846B1F90C30934200DA1A4606
:1055B00082420CDB4B7C084951F8235013462246AB
:1055C000E9688E6801462846B446F0BC6047F0BCE6
:1055D00070470000640000207C0000200A46174944
:1055E00030B40968B1F90A30934225DCB1F90E30C4
:1055F000934221DBB1F9083083421DDCB1F90C3054
:10560000834219DB0B7C0E4CDB0709D0497C54F834
:105610002130D968CC690146A44630BC18466047A1
:10562000CB6B497C1B6854F82140E1688D690146C9
:105630002046AC4630BC604730BC70476400002058
:105640007C000020124B30B41B68B3F90840844240
:105650001CDCB3F90C40844218DBB3F90A408C42DD
:1056600000DD2146B3F90E40944200DA22468A4218
:105670000CDB5C7C074B53F82440E368DD68134681
:105680000A4601462046AC4630BC604730BC7047F5
:10569000640000207C00002038B5134C2468B4F965
:1056A0000850854200DD2846B4F90C50954200DAD6
:1056B0002A46824217DBB4F90A508D4200DD2946A2
:1056C000B4F90E509D4200DA2B468B420BDB00935F
:1056D000647C064B53F82440E3681D6913460A4670
:1056E00001462046A84738BD640000207C00002009
:1056F000082106F06EB8000002480068806B006860
:10570000704700006400002002480068C06B006819
:105710007047000064000020024809210068407CB6
:1057200006F057B864000020092106F052B870B5A1
:1057300000252C462046FDF72BF900B16D1C641C9A
:10574000022CF7DB284670BD02480068407C00F060
:1057500003B800006400002010B5FDF719F9002817
:1057600005D0C168CA6ABDE810400221104710BDCB
:10577000032106F02EB8032006F0BFB8042106F07E
:1057800028B80000024801210068407C06F021B8DA
:10579000640000200148006870470000D401002028
:1057A000012106F016B8012006F0A7B80248022130
:1057B0000068407C06F00DB8640000200148406895
:1057C00070470000D4010020022106F002B8022038
:1057D00006F093B8AFF300802DE9F041002809D01E
:1057E000876837B10D4E716819B10468B4F5807FD0
:1057F00002DD0020BDE8F0813068844200DD04460F
:10580000002507E057F82500FFF7ACFD716841F867
:1058100025006D1CA542F5DB7068EBE7C401002094
:105820000449054A0968497C52F821100969496808
:1058300008470000640000207C000020704770478B
:1058400010B500F01F01074A074BC0F34514C0F321
:10585000C4201B5D105C515C00EB032000EB014099
:1058600010BD0000D8150308F815030810B50A4C40
:10587000606860B920688000FCF760FD606040B13E
:1058800004F10801054808600846FFF7A1F8002068
:1058900010BD012010BD0000C4010020E1C00208BD
:1058A0002DE9F047FFF743FF07460024DFF860804B
:1058B0002AE02046FDF76CF828B3D8F8000090F8ED
:1058C000119044742046FFF713FF082817DC114895
:1058D000114950F824000069884210D02046FFF793
:1058E00023FF0646002508E0E8B2FFF799FF0246CD
:1058F000E9B2204600F054F96D1CB542F4DBD8F84B
:10590000001081F81190641CBC42D2DBBDE8F08726
:10591000640000207C000020341903082DE9FF4FAB
:1059200083B01646DDE910408B46C0684769426A7D
:105930007AB1012111A8904705000AD00698CDE957
:10594000000433465A4603991198A84707B0BDE8AA
:10595000F08F57480068407CFDF7DCFA8246082843
:1059600001DC012005E0BAF1100F01DC022000E0AB
:1059700004208046002596E04046B8F1010F05D08E
:10598000022871D0B8F1040F25D17CE0BAF1090FDB
:1059900021D2DFE80AF08605213F3F5959595900C5
:1059A000039815E001465A461198B847C5F107011A
:1059B00088404FF67F722178EA40114001436D1C08
:1059C000217004EBE50425F00700054109F1010011
:1059D0008146B042E6DD64E0039817E001465A468E
:1059E0001198B8470621A1EB450188406B004FF69E
:1059F0003F722178DA40114001436D1C217004EBA5
:105A0000A50425F00300054109F101008146B042DB
:105A1000E4DD46E0039813E001465A461198B84782
:105A20000421A1EB850188402178AB000F229A4028
:105A30001140014321702C4485F0010509F101005A
:105A40008146B042E8DD2CE0DDF80C9007E001462D
:105A50005A461198B847207009F101094444484654
:105A6000B145F4DD1DE0FFE7DDF80C9007E00146ED
:105A70005A461198B847208009F101094444484624
:105A8000B145F4DD0DE0DDF80C9007E001465A4623
:105A90001198B847206009F1010944444846B145CE
:105AA000F4DD0BF1010B06998B457FF765AF4DE7F0
:105AB0006400002010B50D4C0D492068407C51F861
:105AC000200048B1C16811B10968042901D00068FB
:105AD000F7E708B1FCF744FF20680021016600F1F8
