:020000040802F0
:1000000000D30020A1010208A96C02088D56020845
:10001000A56C0208650A0208319002080000000081
:1000200000000000000000000000000079870208C6
:100030004D160208000000005D6D02088D88020860
:10004000BB010208BB010208BB010208BB01020898
:10005000BB010208BB010208BB010208BB01020888
:10006000BB010208BB010208BB010208BB01020878
:10007000BB010208BB010208BB010208BB01020868
:10008000BB010208BB010208BB010208BB01020858
:10009000BB010208BB010208BB010208BB01020848
:1000A000BB010208BB010208BB010208BB01020838
:1000B000BB010208BB010208BB010208BB01020828
:1000C000BB010208BB010208BB010208BB01020818
:1000D000BB010208BB010208BB010208BB01020808
:1000E000BB010208BB010208BB010208BB010208F8
:1000F000BB010208BB010208BB010208BB010208E8
:10010000BB01020829760208BB010208BB010208F4
:10011000BB010208BB010208E58A0208BB01020814
:10012000BB010208BB010208BB010208F913020867
:10013000BB010208BB010208BB010208BB010208A7
:10014000690A0208BB010208BB010208BB010208E0
:10015000BB010208BB010208BB010208BB01020887
:10016000BB010208BB010208BB010208BB01020877
:10017000BB010208BB010208BB010208BB01020867
:10018000BB010208BB010208DFF810D000F0F4FA4E
:100190000048004711360308AFF3008000D3002069
:1001A0000648804706480047FEE7FEE7FEE7FEE711
:1001B000FEE7FEE7FEE7FEE7FEE7FEE791880208BE
:1001C000890102082DE9F05F0546002092469B4612
:1001D00088460646814640241BE02846414647465D
:1001E000224600F0C9F853465A46C01A914110D32E
:1001F00011461846224600F0B0F82D1A67EB0108A8
:100200004F4622460120002100F0A7F817EB000915
:100210004E41201EA4F10104DFDC484631462A4647
:100220004346BDE8F09F00000649074A086850436E
:1002300043F23902104408604008704701490860E1
:1002400070470000580300206D4EC64110B5431A98
:10025000934209D28318881803E010F8011D03F8AF
:10026000011D521EF9D210BD40EA01039B0703D0C5
:1002700009E008C9121F08C0042AFAD203E011F8E5
:10028000013B00F8013B521EF9D210BDD2B201E091
:1002900000F8012B491EFBD270470022F6E710B58B
:1002A00013460A4604461946FFF7F0FF204610BDE4
:1002B000421C10F8011B0029FBD1801A704703462D
:1002C00011F8012B00F8012B002AF9D118467047CC
:1002D00000F0004230F000400AD0C10D01F560711D
:1002E000C0F3160042EA0151C208400711437047AB
:1002F00000200146704701F0004330B421F0004176
:1003000050EA010206D00A0DA2F56072C1F3130192
:10031000002A02DC30BC00207047440F44EAC104CC
:10032000C100E01830BC00EBC25000F035B830B569
:100330000B46014600202022012409E021FA02F5A3
:100340009D4205D303FA02F5491B04FA02F528443D
:10035000151EA2F10102F1DC30BD202A04DB203A97
:1003600000FA02F1002070479140C2F1200320FA08
:1003700003F3194390407047202A04DB203A21FA06
:1003800002F00021704721FA02F3D040C2F12002AE
:1003900091400843194670470029A8BF7047401C88
:1003A000490008BF20F00100704710B4B0FA80FC8B
:1003B00000FA0CF050EA010404BF10BC704749B1C8
:1003C000CCF1200421FA04F411FA0CF118BF012138
:1003D00021430843A3EB0C01CB1D4FEA00614FEA18
:1003E000102042BF002010BC704700EBC3501044E7
:1003F0000029A4BF10BC7047401C490008BF20F072
:10040000010010BC70472DE9FE4F804681EA0300D1
:10041000C00F0C46009021F0004123F00045B8EBDE
:100420000200A94105D24046214690461C460B4693
:10043000024623F00040104347D0270DC7F30A00BF
:10044000C3F30A510290401A019040286BDAC3F3BB
:10045000130040F4801B0098924620B10023D2EB99
:10046000030A63EB0B0B01985946C0F1400250465A
:10047000FFF773FF06460D4650465946019A00F0B5
:100480008DF910EB08006141002487EA115284EADB
:10049000E7731A4340D0009A62B3019A012A4FEAE7
:1004A000075215DC001B61EB02014FF0004202EA2B
:1004B0000752CDE90042001C41F5801132462B461F
:1004C00000F08DF903B0BDE8F08F40462146F9E712
:1004D000001B61EB0201001C41F5801300185B4119
:1004E0002018A2F5001747EB030140EAD570B619B2
:1004F0006D4111E06D084FEA360645EAC0754FEAD6
:100500000752001B61EB0201001C41F580114908F4
:100510004FEA30000019514132462B4603B0BDE886
:10052000F04F00F04DB90098012240000023D0EBBD
:10053000020263EBE073009821464FEAE074B8EBE7
:10054000000061EB0401E9E783F000435BE781F021
:10055000004158E72DE9FE4F81EA030404F000440E
:1005600021F0004100944FF0000B23F0004350EACB
:1005700001045ED052EA03045BD0C3F30A54C1F312
:100580000A552C44A4F2F3340194A0FB0254C1F3A5
:10059000130141F48011C3F3130343F4801301FBEF
:1005A000024400FB034E840A970A44EA815447EA56
:1005B0008357A4FB076802958D0A05FB07854FEA60
:1005C000932C04FB0C542705029D4FEA065847EA7A
:1005D0001637B5EB08056EEB070C870E920E47EA4F
:1005E000811742EA8312A7FB0201B6EB0B0164EB11
:1005F00000042B0D43EA0C335E1844EB1C50DA4622
:100600005146E7FB0201C5F313044FEA0B3343EAFB
:1006100014534FEA0432019C43EA0603A4F10C048C
:100620000294009CCDE900B400F0D9F803B0BDE815
:10063000F08F00200146F9E72DE9F04D81EA03042F
:1006400004F0004B21F0004514464FF0000A23F05F
:10065000004150EA050220D054EA01021DD0C5F342
:100660000A570246C5F31303C1F31300C1F30A5638
:1006700040F4801543F48013A7EB0608101BD64600
:1006800008F2FD3873EB050002D308F1010801E020
:1006900092185B41B8F1000F03DA00200146BDE873
:1006A000F08D00204FF48011064684460EE0171BA3
:1006B00073EB050705D3121B63EB050306434CEAF6
:1006C000010C49084FEA300092185B4150EA0107DB
:1006D000EDD152EA030012D082EA040083EA050158
:1006E000084305D0101BAB4106D20122002306E0CF
:1006F00000224FF0004302E06FF0010253101AEBAA
:1007000006004CEB085110EB0A0041EB0B01BDE871
:10071000F04D00F055B8C1F30A52C1F3130140F295
:10072000FF3341F480119A4202DA002001467047FB
:1007300040F233439A42A2F2334202DC5242FFF7C4
:100740001BBEFFF70ABE000030B5041E71F10004A5
:1007500004DB4FF00044404264EB0101141E73F1CE
:10076000000405DB1C464FF00043524263EB0403D8
:10077000994208BF904230BD064C074D06E0E06844
:1007800040F0010394E8070098471034AC42F6D3D8
:10079000FFF7FEFC6C6106088C610608202A06DB68
:1007A000CB17203A41FA02F043EAE07306E041FA3F
:1007B00002F3D040C2F1200291400843194670472D
:1007C00010B5141E73F1000408DA401C41F1000159
:1007D00092185B411A4301D120F0010010BD2DE9B0
:1007E000F04D92469B4611B1B1FA81F202E0B0FAA7
:1007F00080F220329046FFF7B0FD04460F4640EAF3
:100800000A0041EA0B0153465A46084313D01146E9
:1008100053EA010019D0C8F140025046FFF7ACFD81
:1008200005460E46504659464246FFF796FD084398
:1008300005D0012004E020463946BDE8F08D0020B7
:10084000054346EAE0762C4337430A986305E40AF9
:10085000A0EB08000022FD0A44EA47540A3002D502
:1008600000200146E9E7010510196941DDE9084565
:1008700000196941BDE8F04DA2E770B58C1810F879
:10088000015B15F0070301D110F8013B2A1106D1D5
:1008900010F8012B03E010F8016B01F8016B5B1EEF
:1008A000F9D12B0705D40023521E0DD401F8013BCA
:1008B000FAE710F8013BCB1A921C03E013F8015B36
:1008C00001F8015B521EF9D5A142D8D3002070BDBA
:1008D000002800DC4042704710B506480649086011
:1008E000002080F3138800BF62B604A00FF0F6FF6B
:1008F00010BD00000000020808ED00E00D0A2D2DDB
:100900002D2D2D2D2D2D2D2D2D2D2D2D2D2D2D2D17
:100910002D2D2D2DBDF8C8EBB5BD417070B3CCD0D9
:10092000F22D2D2D2D2D2D2D2D2D2D2D2D2D2D2D32
:100930002D2D2D2D2D2D2D0D0A00000002460148D4
:1009400000787047D0000020024631B1012908D05C
:1009500002290AD0DB2910D10BE0094810600520DC
:100960007047084810600520FAE707481060052026
:10097000F6E7064810600520F2E70020F0E70000E7
:10098000D1000020D7000020DD000020E30000207F
:10099000024600BFB1F1005F04D30348814201D891
:1009A000084670470020FCE7FFFF0220014800686E
:1009B00080B270475C000020002001490870704739
:1009C000D00000207047704730B585B004460D4612
:1009D000082C00DD08240020009045F2786001908A
:1009E00000208DF8090004208DF808008DF80A40D9
:1009F000224629460DF10B00FFF728FC6946024804
:100A000000F001FB05B030BD0068004070470000F9
:100A100003460BB122207047012901DD2620FAE7A9
:100A200002F00300032801D02720F4E701480170F9
:100A30000020F0E7D000002010B506F0E5F800F047
:100A400007FE05F0A1FA08F025F900F043F80AF0D6
:100A500079FC0121080306F0A5F902F0E9FF07F08F
:100A600081FC10BD00BFFEE710B5174A00211748F2
:100A700000F006FA1448406841F2342188420CD153
:100A80001148007A042808D10F48807A082804D138
:100A90000D480B300AF09AFC14E00B48406841F214
:100AA000143188420BD10848007A042807D106483F
:100AB000807A082803D101200549086002E000205F
:100AC0000349086010BD0000740300200068004066
:100AD0001000002010B500F0CDF800F0BDF900F0D6
:100AE0008BF900F0A1F810BD10B504460B48844204
:100AF00009D10121480606F085F900214FF0007068
:100B000006F080F908E00121880606F07BF9002153
:100B10004FF0806006F076F910BD000000640040E0
:100B200010B50021837A012202FA03F13D4A1268CE
:100B300042F001023B4B1A603A4A1C3212688A4367
:100B4000384B1C331A60027BCAB9364A0C32126821
:100B50008A43344B0C331A604288C38842EA034309
:100B6000304A4032847A42F834300288838842EA3C
:100B700003432C4A4032847A02EBC4025360027B66
:100B8000012A19D1274A0C3212680A43254B0C332B
:100B90001A604288038842EA0343224A4032847A38
:100BA00042F83430C288838842EA03431D4A403207
:100BB000847A02EBC4025360C27A3AB9194A121D10
:100BC00012688A43174B1B1D1A6006E0154A121D56
:100BD00012680A43134B1B1D1A60028932B9114A6D
:100BE000143212688A430F4B14331A600289012AA7
:100BF00006D10C4A143212680A430A4B14331A60A5
:100C0000427B012A06D1074A1C3212680A43054B6F
:100C10001C331A60034A126822F00102014B1A6069
:100C200010BD0000006600401FB50E208DF80A00C0
:100C300000208DF80B0001208DF80C000020ADF88D
:100C4000000049F6A400ADF802000020ADF8040051
:100C5000ADF80600ADF8080001208DF80D006846DB
:100C6000FFF75EFF01220221014800F031F81FBDAD
:100C7000006800401CB50121022006F093F809220B
:100C80000C21124801F0F0F909220D210F4801F062
:100C9000EBF94FF40050009002208DF804008DF81D
:100CA000050000208DF8060001208DF80700694638
:100CB000064801F091F94FF48050009002208DF821
:100CC00004006946014801F087F91CBD0004024098
:100CD0001AB143690B43436102E043698B434361AB
:100CE000704730B5024600200023146824F0020447
:100CF0001460146844F00104146000E05B1C546844
:100D000004F001041CB94FF6FF74A342F6D15468F5
:100D100004F001040CB900206CE08C79012C04D1A2
:100D2000146844F08004146003E0146824F0800424
:100D30001460CC79012C04D1146844F04004146090
:100D400003E0146824F0400414600C7A012C04D1F0
:100D5000146844F02004146003E0146824F02004B4
:100D600014604C7A012C04D1146844F0100414600F
:100D700003E0146824F0100414608C7A012C04D170
:100D8000146844F00804146003E0146824F00804B4
:100D90001460CC7A012C04D1146844F0040414606B
:100DA00003E0146824F0040414608C78A407CD7860
:100DB00044EA05640D7944EA05444D7944EA055452
:100DC0000D886D1E2C43D461146824F00104146056
:100DD000002300E05B1C546804F001041CB14FF6D2
:100DE000FF74A342F6D1546804F001040CB1002052
:100DF00000E0012030BD00000EB501214FF0C060C1
:100E000005F0F0FF1348FFF76FFE684600F0EBF8BF
:100E100000208DF8060001208DF807008DF80800ED
:100E200000208DF809008DF80A008DF80B008DF870
:100E3000020001208DF8030003208DF8040001203A
:100E40008DF805000620ADF8000069460148FFF75F
:100E500048FF0EBD0068004008B54FF4C06005F0C3
:100E600073FF40208DF8000000208DF801008DF800
:100E7000020001208DF80300684605F029FF08BD37
:100E800010B500F5D87303EB01131B6803F00403DE
:100E90001372137A53B900F5D87303EB01131B686F
:100EA00040F2FF7404EA5353136009E000F5D8736D
:100EB00003EB01131B686FF0604404EAD303536033
:100EC00000F5D87303EB01131B6803F002035372A0
:100ED00000F5D87303EB01135B6803F00F03937203
:100EE00000F5D87303EB01135B681B0AD37400F59C
:100EF000D87303EB01139B68D37200F5D87303EB2F
:100F000001139B681C0A147300F5D87303EB0113DB
:100F10009B681C0C547300F5D87303EB01139B689A
:100F20001B0E937300F5D87303EB0113DB68D373C7
:100F300000F5D87303EB0113DB681C0A147400F589
:100F4000D87303EB0113DB681C0C547400F5D873E1
:100F500003EB0113DB681B0E937421B9C36843F0E4
:100F60002003C36003E0036943F02003036110BD65
:100F70007FB50546002400BF0CE0FFF755F943F6A6
:100F8000992190FBF1F201FB120080B22DF81400C0
:100F9000601CC4B2042CF0DB00240DE0012303EB41
:100FA000440302AE9A1902AB03EB44013DF814006E
:100FB00008F054F8601CC4B2042CEFDB4FF4A460BA
:100FC000686004202872002068720820A87200243B
:100FD00006E002A8015D05F10B000155601CC4B2DA
:100FE000082CF6DB7FBD00218171C1710172417255
:100FF0008172C1728170C17003210171022141713E
:1010000001210180704710B502460020936803F06B
:101010008063B3F1806F00D110E0936803F0006348
:10102000B3F1006F01D1012008E0936803F0805311
:10103000B3F1805F01D1022000E00420042874D0C5
:1010400002F5C07303EB00131B6803F0010402F503
:10105000C07303EB00131C600B7A7BB94B7A0C88CE
:1010600043EA445302F5C07404EB0014246823439C
:1010700002F5C07404EB0014236010E00B7A4C6896
:1010800043EAC4034C7A234302F5C07404EB001412
:101090002468234302F5C07404EB001423608B7AA8
:1010A00003F00F038B7202F5C07303EB00135B6850
:1010B00023F00F0402F5C07303EB00135C6002F52C
:1010C000C07303EB00135B688C7A234302F5C07492
:1010D00004EB001463608B7B1C064B7B44EA0344E7
:1010E0000B7B44EA0323CC7A234302F5C07404EB60
:1010F0000014A3608B7C1C064B7C44EA03440B7CED
:1011000044EA0323CC7B234302F5C07404EB0014B0
:10111000E36002F5C07303EB00131B6843F00104A6
:1011200002F5C07303EB00131C6010BD70B5002501
:101130004FF4803400E0641E24B1802006F048FAA9
:101140000028F8D014B90325284670BD40F2FF509E
:1011500006F0FAF92846F8E72DE9F041064600279F
:101160004848056801E04748056805F04500002843
:10117000F9D005F0040030B10327042006F0E4F9AB
:101180003846BDE8F08105F0010028B101270120B3
:1011900006F0DAF93846F4E706F014FAB04202D065
:1011A00010273846EDE740F2FF5006F0CDF9002059
:1011B00006F02EFA04463448204008B93846E0E7E5
:1011C00004F0004008B11C20DBE704F0804008B1C7
:1011D0000920D6E704F0005008B10A20D1E704F056
:1011E000805008B10B20CCE704F0006008B10C205F
:1011F000C7E704F0806008B10D20C2E704F08070FA
:1012000008B10E20BDE704F4000008B10F20B8E7D4
:1012100004F4800008B11020B3E704F4001008B112
:101220001120AEE704F4801008B11220A9E704F4FD
:10123000002008B11320A4E704F4802008B1142092
:101240009FE704F4003008B115209AE704F48030D9
:1012500008B1162095E704F4004008B1172090E784
:1012600004F4804008B118208BE704F4005008B162
:10127000192086E704F0080008B11A2081E73846F3
:101280007FE70000342C014008E0FFFD70B5002529
:101290001048046801E00F48046804F04500002885
:1012A000F9D004F0040028B10325042006F04CF91D
:1012B000284670BD04F0010028B10125012006F088
:1012C00043F92846F5E740F2FF5006F03DF928467D
:1012D000EFE70000342C014070B500250B4804688E
:1012E00001E00A48046804F045000028F9D004F041
:1012F000040028B10325042006F026F9284670BD15
:1013000040F2FF5006F020F92846F8E7342C01405F
:101310002DE9F04106460F464FF0000822480568C7
:1013200001E02148056805F045000028F9D005F0E6
:10133000040038B14FF00308042006F005F94046D8
:10134000BDE8F08105F0010030B14FF00108012047
:1013500006F0FAF84046F3E706F034F9B04203D05D
:101360004FF010084046EBE740F2FF5006F0ECF873
:10137000002006F04DF9044604F4604018B9200C32
:1013800038804046DCE704F4005008B11320D7E76A
:1013900004F4804008B11020D2E704F4004008B102
:1013A0000F20CDE74046CBE7342C014070B5002636
:1013B0004FF480350F48046802E06D1E0D48046844
:1013C00004F0450008B9002DF7D115B104F0040070
:1013D00028B10326042006F0B7F8304670BD04F0AB
:1013E000400028B10026402006F0AEF83046F5E770
:1013F0003046F3E7342C014010B506F06DFE10BD09
:101400000246094B9A4201D2084801E006481038CA
:1014100001F000531BB1064B0B40C36002E0044BCC
:101420000B4083607047000010640240006002407F
:101430007D0F7D0F21B1026842F00102026003E0DE
:10144000026822F00102026070470000016821F08A
:10145000010101600021016041608160C1600161A2
:10146000212141614A49884204D13D21484A103A2C
:1014700091608CE046491831884205D14FF474617F
:10148000434A103A916082E041493031884205D1A7
:101490004FF474113E4A103A916078E03C4948316B
:1014A000884205D14FF07461394A103A91606EE07C
:1014B00037496031884204D13649354A103AD16003
:1014C00065E033497831884204D13349304A103AD3
:1014D000D1605CE02E499031884204D12F492C4ADA
:1014E000103AD16053E02A49A831884205D14FF023
:1014F0003D51274A103AD16049E02949884204D138
:101500003D21274A083A116041E0254918318842B7
:1015100005D14FF47461224A083A116037E020493E
:101520003031884205D14FF474111D4A083A1160D8
:101530002DE01B494831884205D14FF07461184AAB
:10154000083A116023E016496031884204D11149FC
:10155000134A121F11601AE011497831884204D1F0
:101560000D490F4A121F116011E00D499031884258
:1015700004D10A490A4A121F116008E00849A8313B
:10158000884204D14FF03D51054A121F1160704747
:10159000106002403D000020400F002000003D2070
:1015A0001064024021B1026842F02002026003E0B0
:1015B000026822F020020260704710B501F080033B
:1015C0004BB122B1436943F08003436103E04369B7
:1015D00023F08003436180290BD02AB1036801F016
:1015E0001E042343036004E0036801F01E04A343C8
:1015F000036010BD10B500220268134B1A40CC687E
:101600000B6823434C6923438C692343CC692343F0
:101610000C6A23434C6A23438C6A23434C6B234359
:101620008C6B23431A430260426922F00702D1E91E
:101630000B3423431A4342610B6943604B68836058
:101640008B68C36010BD00003F801CF07047000035
:1016500000B587B00121084605F0A4FB0121102048
:1016600005F0E0FB00208DF81A0001208DF81B002A
:1016700002208DF819008DF818000002059005A9C8
:101680001B4800F0A9FC02208DF8180040020590CC
:1016900005A9174800F0A0FC07220A21144800F011
:1016A000E3FC07220921124800F0DEFC4FF4E13090
:1016B00001900020ADF80800ADF80A00ADF80C006C
:1016C000ADF810000C20ADF80E0001A9094807F094
:1016D0003BFB05F0EAFA012240F22551054807F0EC
:1016E0000DFB0121034807F0F0FA07B000BD000030
:1016F000000002400010014001B502E00098401EC9
:10170000009000980028F9D108BD000051B1820076
:10171000A2F1C042126842F001038200A2F1C0426D
:10172000136009E08200A2F1C0421268034B1A4024
:101730008300A3F1C0431A6070470000FEFF0F0052
:1017400030B50021002200230468A400A4F1C044A5
:101750002168424C2140D0E901452C43C5682C4307
:1017600005692C4345692C4385692C43C5692C4385
:10177000056A2C43456A2C43856A2C43C56A2C4371
:10178000056B2C4321430468A400A4F1C0442160EC
:101790008468082C0BD10468A400A4F1C044246818
:1017A00044F040050468A400A4F1C0442560046826
:1017B000641CA400A4F1C044226802F04042446BBF
:1017C0002468456B6D6844EA0514456BAD6844EACE
:1017D0000524456BAD8944EA0544456B2D8A44EAEE
:1017E0000554456B2D7D44EA0564456BAD692C437A
:1017F00022430468641CA400A4F1C0442260C46AAB
:10180000B4F5804F20D10468A400A4F1C044D4F8FA
:101810000431134C2340846B2468856B6D6844EA63
:101820000514856BAD6844EA0524856BAD8944EAEF
:101830000544856BAD692C4323430468A400A4F1DF
:10184000C044C4F8043107E06FF070450468A40098
:10185000A4F1C044C4F8045130BD00008000F7FF7B
:101860000000F0CF2DE9FC4107460D46002600247C
:1018700000200090019008205B490860102048601B
:10188000402088600020C8604FF4806008610846EE
:1018900005F0FCFE1020FFF75FFC044614B1204663
:1018A000BDE8FC815148008800044F49086037209A
:1018B0004860402088600020C8604FF48060086164
:1018C000084605F0E3FE3720FFF746FC04460CB15E
:1018D0002046E5E74FF0FF304549086008204860A2
:1018E000302088600220C860002008610120486123
:1018F000084605F041FE00203B490860332048605F
:10190000402088600020C8604FF48060086108466D
:1019100005F0BCFE3320FFF71FFC04460CB1204647
:10192000BEE709E04FF4001005F052FE20B105F0CB
:10193000A7FE4DF82600761C2E48006840F22A616A
:1019400008400028EED0082005F042FE28B108200B
:1019500005F0FAFD04242046A2E7022005F038FE37
:1019600028B1022005F0F0FD0224204698E720204F
:1019700005F02EFE28B1202005F0E6FD06242046C5
:101980008EE74FF4007005F023FE30B14FF4007085
:1019900005F0DAFD0724204682E740F2FF5005F00B
:1019A000D3FD00980006009901F47F4140EA012030
:1019B000009901F47F0140EA1120009940EA11608A
:1019C000686001980006019901F47F4140EA012016
:1019D000019901F47F0140EA1120019940EA116068
:1019E000286020465CE7000080240020440000209E
:1019F00094240020342C01401CB50024019401AC37
:101A0000009400F0E7F81CBD2DE9FF4F83B081463C
:101A100006988A46A0EB0A08109E00200090A2EBD0
:101A200009043568934654EA080018D02046FEF7AA
:101A30004FFF07464046FEF74BFF87420BDA204632
:101A4000444680464846D14682465846DDF818B09E
:101A5000069001200090002C07DD204606E007B02C
:101A60004846BDE8F04F00F03BB96042A0420AD0C2
:101A70004846D9466442C8F1000883464FF0FF3714
:101A8000DDF818A000E001275148B8F1000F11D08F
:101A900004EBD4714FEA610B01DACBF1000B4C4837
:101AA0000068807E88B3002F02DA306820443060FE
:101AB00000257BE000990029016821D0897E11B1C1
:101AC0000027804615E007B05A4649465046BDE813
:101AD000F04F04F001BC28466D1C0EF0AFF838B989
:101AE000D8F8000009EB0701406E42685046904765
:101AF0007F1CA742EFDD6D1E356007B0BDE8F08F9B
:101B00008A7E1AB10027804617E019E0486E5A46CF
:101B10005146036807B04846BDE8F04F18472846CD
:101B20006D1C0EF08BF838B9D8F8001009EB0700DF
:101B3000496E4A68514690477F1CA742EFDDDAE7BD
:101B400000250FE008FB05B090FBF4F101EB0A0063
:101B5000009951B11E4A09EB05011268526E526894
:101B600090476D1CA542EDDDC7E7194909EB050358
:101B70000968496E4A6801461846F1E708FB05B056
:101B800090FBF4F101EB0A000190306838443060BA
:101B90000EF054F848B9009890B10D4809EB0501D2
:101BA0000068406E4268019890476D1CA542E5DDD3
:101BB0003068002F01DA20443060C01B30609CE7A1
:101BC000034909EB05000968496E4A680199EBE78A
:101BD000000100202DE9FF470F4640491646804688
:101BE00009680C981D460A7E012A1CD0A8EB060045
:101BF000791B50EA01031CD0A2F101090EF0D4FFB9
:101C000000F58060824603F0ECFC00FB09F45046CE
:101C100003F0ECFC00FB09F1002C0CDAC4F50070B9
:101C2000801240420AE00090324639464046FFF7B3
:101C3000EBFEBDE8FF8704F50074A012002904DA6A
:101C4000C1F5007189124C4202E001F500718C125D
:101C5000002804DD411C01EBD171491003E000EBC9
:101C6000D0714910401E00EBD0704210002C04DDF2
:101C7000601C00EBD070401003E004EBD470401007
:101C8000641E04EBD47308EB0104ADF800403C186B
:101C9000ADF80240A8EB02045B10B21AADF80440A4
:101CA000ADF808203144FC1AEA1AADF80C102844AB
:101CB000ADF80A20ADF80E000023ADF806401A4634
:101CC0000421684600F07AF8394640460BF010FED1
:101CD000294630460BF00CFEABE700000001002067
:101CE000064A13681A7E012A05D0521E02EBD272F0
:101CF000521000F005B85A6E5268104700010020DB
:101D00002DE9F05F0646884640F2C32002FB00F151
:101D10004FF47A7091FBF0F702FB02F102EBD27004
:101D200001EB600B1446B118234A301B7F1C12686C
:101D3000526E13680A4641469847012538E000BFB5
:101D400005FB05F004FB040159451CDDBC4219DD0F
:101D5000194B06EB050AA6EB05091B68AAF101025F
:101D600008EB04015B6E09F101001B689847124BF8
:101D7000AAF10102A8EB04011B6809F101005B6EE6
:101D80001B689847641E0C4B3219301B1B68924627
:101D900008EB05015B6E81461B689847064B52466F
:101DA000A8EB05011B6848465B6E1B6898476D1CD5
:101DB000BD42C5DDBDE8F09F000100202DE9FF4FC9
:101DC00043F6FF740F46664283B09B46814600216E
:101DD0000BE000BF09EB8100B0F90200A04200DA7D
:101DE0000446B04200DD0646491CB942F2DB6748B2
:101DF0000068406900280DD0B0F906101A46A1EB22
:101E00000B01B14200DA0E46B0F90200801AA0427E
:101E100000DD0446B4E0DFF878A100200546CAF8EA
:101E2000000088E0781E854201DA6B1C00E0002388
:101E300009EB850C09EB8302BCF90200B2F9021030
:101E4000A04244D1A14215D139F92330059A39F97C
:101E5000251003EB020C4D4A05981268084404EB68
:101E60000B01526E6045136801DA62462AE00246B1
:101E7000604627E02846A4464FF000087A1E0BE093
:101E800008B1401E00E0781E09EB8003B3F9023070
:101E9000634504D108F101089045F1DB2346A342D4
:101EA00048D01A1B39F92500A1EB040C059B92EAD6
:101EB0000C0F09D4354A184404EB0B011268526E1A
:101EC00013680246984735E009F068FB32E0A1420A
:101ED00030D001DBA04203DDA0422BDBA14229DC94
:101EE000E04688420ADC0346A04223DC0846A142C1
:101EF00020DBB8F900C0B2F9001008E00B46A1429F
:101F000018DCA04216DBB2F900C0B8F90010E21AE2
:101F1000A1EB0C0151430029A0EB030202DD01EB10
:101F2000620102E0A1EB6201491CC01A91FBF0F0D2
:101F30006044C9E76D1CBD42FFF674AF0598009080
:101F400004EB0B00019000208046054613E0114988
:101F5000B8F1000F31F915A009D0009901EB0A0280
:101F600008440A490968496E0B680199984788F046
:101F7000010850466D1C064909688D42E7DB641C68
:101F8000B4427FF748AF07B0BDE8F08F00010020F2
:101F9000DC020020E8CE002010B5002002F03EFA5E
:101FA0006FF07F4002F03CFA012002F071FA00204D
:101FB00002F076FA002002F07DFA002002F038FAF2
:101FC0000448006802F036FABDE81040002002F034
:101FD0003BBA0000FC000020F0B50A4600210023B7
:101FE000002400BF3DE0012505FA01F3156805EA6C
:101FF00003049C4234D105684F000326BE40B5431C
:10200000056015794E00B5400668354305601579C1
:10201000012D02D01579022D16D185684F000326B7
:10202000BE40B543856055794E00B540866835435E
:102030008560456801268E40B543456045689679C0
:102040008E40B6B235434560C5684F000326BE409A
:10205000B543C560D5794E00B540C6683543C56007
:10206000491C1029BFD3F0BDF0B5002300244D0753
:10207000ED0E02FA05F3CE1000F1200555F82650BA
:102080004E07F70E0F26BE40B543CF1000F12006D5
:1020900046F82750CE1000F1200555F8265045EAA5
:1020A0000304CE1000F1200545F82640F0BD02469D
:1020B000002013690B400BB1012000E000207047A5
:1020C000418370470183704733B583B0040016D055
:1020D00000F0D8FE0190456E01A800F01DFF0498A5
:1020E00000F0D0FE00908460684600F015FF0422E6
:1020F00004A9284600F034FF204607F0F8FD05B09B
:1021000030BD33B583B0040016D000F0BBFE0190A3
:10211000856E01A800F000FF049800F0B3FE009067
:102120008460684600F0F8FE042204A9284600F006
:1021300017FF204607F0DBFD05B030BD2DE9F0416B
:1021400004460025D4E90007B0F5407F00D1012501
:102150002146384606F09AFF064615B138460CF07F
:10216000A8FC002E2FD02068052806D00B280ED002
:102170000F2806D0262821D10EE038460CF099FC15
:102180001CE03846E168BDE8F0410CF0FFBD384680
:10219000BDE8F0410CF02FBDE06805280ED13846AF
:1021A00007F0A3FCA168884205D0384607F094FCEC
:1021B000A168884202D160680DF02DF82046BDE884
:1021C000F04107F0B7BABDE8F081F0B585B0B0F9DD
:1021D0000850468A84690296CDE903540027CDE968
:1021E0000017B0F90C10B0F91050B0F90E40B0F96A
:1021F0000A00194410442B46224600F003F805B0AB
:10220000F0BD00002DE9F04186B00DF1300CDDE9A4
:102210000F849CE8E0006C34DFF850C003948DE834
:10222000601007F0D9F904001BD000F0D6FE054677
:1022300000F0D3FE0646204600F024FE0490C0E9DC
:1022400019560022414607F03BF80498302208490D
:102250003430FDF7FBFF0498A0F8787004A800F074
:102260005BFE06B02046BDE8F08100003D2102087B
:102270007001002003B583B000F004FE009060B14F
:10228000406A00F0FFFD01460190022304AA009875
:1022900000F0B2F901A800F03FFE684600F03CFEF5
:1022A00005B000BD2DE9F043814685B01D4690463E
:1022B0000F462C2000F015FD060024D0780000F019
:1022C00010FD04000ED0B8F1000F0BD055B1204620
:1022D00000F0D8FD6A0041460090FDF7B7FF684660
:1022E00000F01AFE304600F0CDFD0949029000F1E1
:1022F0000C02446282E8A20206490160064941607C
:1023000002A800F009FE05B03046BDE8F0830000E9
:1023100061E9020837EF020887EC02082DE9F8436B
:102320000746984615460E46302000F0DAFC0400B9
:1023300015D000F0A7FD0090C0E905768584094A14
:10234000B7EE000AC0F81C8080ED0A0AD2E900123C
:10235000C0E9031204490160684600F0DDFD204633
:10236000BDE8F883A00100200FF0020800B52DEDB4
:10237000028B81B09FED0E8AF0EE408A88B100F0AA
:1023800081FD009090ED0A8AB4EE688AF1EE10FAB1
:1023900004D0C0ED0A8A806807F0A9FC684600F006
:1023A000BBFD01B0B0EE480ABDEC028B00BD0000E1
:1023B0000000000038B50D46002460B100F062FD59
:1023C00000900469AC4203D00561806807F08FFC7F
:1023D000684600F0A1FD204638BD38B50D46002402
:1023E00060B100F04FFD0090C468AC4203D0C560FE
:1023F000806807F07CFC684600F08EFD204638BD02
:102400002DE9F8431D46DDF8208016460F460400EE
:1024100010D000F037FD0090C0F860804765C0E93B
:102420001665684600F078FD20460CF042FB204619
:1024300007F05DFCBDE8F883F8B50D4606004FF0E7
:1024400000040CD000F01EFD0090446CAC4203D0A0
:102450004564304607F04BFC684600F05DFD2046C1
:10246000F8BDF8B50D4606004FF000040CD000F0A2
:1024700009FD0090846CAC4203D08564304607F0BF
:1024800036FC684600F048FD2046F8BDF8B50D461C
:1024900006004FF000040ED000F0F4FC009090F81D
:1024A0006C40AC4204D080F86C50304607F01FFC02
:1024B000684600F031FD2046F8BDF8B50D4606002F
:1024C0004FF000040ED000F0DDFC009090F87B404F
:1024D000AC4204D080F87B50304607F008FC6846D8
:1024E00000F01AFD2046F8BDF8B5044640F602019A
:1024F000204607F02DFA0646232005231A461E2102
:1025000000903046FFF77CFF01213046FFF7BEFF09
:1025100019213046FFF790FF0A213046FFF7A1FF4F
:1025200002213046FFF7C9FF3223012200210A2091
:10253000FFF7F4FE054629463046FFF7E2FD28493D
:102540002846FFF737FFFF212846FFF746FF9FED9C
:10255000250A2846FFF70AFF00231A464FF47A712E
:102560004FF47F40FFF79EFE1F49086000231A4684
:102570004FF47A71FF20FFF795FE1C490860002395
:102580001A464FF47A714FF47F00FFF78BFE18491B
:10259000086000231A464FF47A714FF6FF70FFF778
:1025A00081FE14490860104801683046FFF78CFD31
:1025B0000E4801683046FFF787FD0D480168304638
:1025C000FFF782FD0B4801683046FFF77DFD0023D1
:1025D0005A224FF40161204606F0D4FFF8BD0000F6
:1025E00070380608CDCCCC3D8C0000209000002037
:1025F00094000020980000202DE9F04104468068F6
:102600001D4617460E46002826D0D4E90402904203
:102610000ED1521E6A4371193046FDF717FE20692C
:102620002A46401E05FB00603946FDF70FFE0EE00E
:1026300005FB0013401C20612A4639461846FDF769
:1026400005FEE16819B12046BDE8F0410847A068E1
:10265000BDE8F04100F002B8BDE8F08110B58AB0E5
:10266000044600F00FFC09A904AACDE9002105AB3E
:10267000089006AA07A90BF0A6FF08A800F04CFCDA
:1026800002A9204607F0AAF9BDF8080007990844F6
:10269000ADF80800BDF80A0006990844ADF80A0034
:1026A000BDF80C000599401AADF80C00BDF80E00FD
:1026B0000499401AADF80E0002A9204607F0DCFA92
:1026C0000AB010BD70B50C46054600F0FFF8A868CA
:1026D0002168C16261680163A1684163490707D548
:1026E000D0E90021C0E90012D0E90221C0E90212BC
:1026F000A18981842169002903D001DC4FF0000108
:10270000016270BD2DE9F0411E4617468846054618
:1027100000F0DCF8AC686822414604F58670FDF7ED
:1027200095FD2846B8472846B04728698068804705
:10273000A062BDE8F081000010B5044600F0C6F8C4
:10274000A0681149144AC0F8AC101049C0F8A8108C
:102750000F49C0F8B0100F49C0F8B8100021C0F8F8
:10276000BC101368C0F8B4300C4BC0E9323151686A
:10277000C0F8C41030F8261F21F0030120F82A1BEE
:102780000749416410BD000015FD02085DFE020806
:10279000DDFC0208E3F7020868010020B3F8020834
:1027A0000DFC020810B5044600F090F8A46810482B
:1027B0001021C4F8E4000F48C4F8E8000E48C4F83B
:1027C000EC000E48C4F8F0000D48C4F8A0000D4815
:1027D000C4F8A400D4F8C400C4F8FC00D4F89420D1
:1027E000204690471020A0630748606410BD000099
:1027F000BDCA020891DC02080D2802083D29020822
:102800009DF70208E50003084C4E0608F8B58468F9
:1028100015460F4694F8260080074CD5D4F80031B1
:10282000204698470646D4F804312A4639462046C1
:102830009847D4F8983005461BB100220121204664
:1028400098472069B04201DD012000E00020A16925
:10285000B14201DA012100E0002108436169A94287
:1028600001DD012100E000210843E169A94201DA0C
:10287000012100E0002108430AD060680022401EC8
:1028800000902368D4F8A870114620465B1EB84714
:10289000D4F8AC302A46314620469847D4F8A010E8
:1028A00020468847D4F8983005466BB101220021B4
:1028B0002046984708E0D4F8AC3020469847D4F832
:1028C000A0102046884705462846F8BD70B5044646
:1028D0008068002812D14FF4BA75284600F04CFAEF
:1028E0002A460021A06002F00AFEA0680221C184ED
:1028F0000121046401620249C0F8081170BD0000A2
:102900000529020810B590B0044620220A496846FD
:10291000FDF79CFC08492022203108A8FDF796FC11
:10292000606B5DF82010C4F8001108A951F8200070
:10293000C4F8040110B010BD882806082DE9F8433A
:1029400084689846154694F826000F46800740D5BF
:10295000D4F80031204698470646D4F804312A4678
:1029600039462046984705462069B04201DD0120DE
:1029700000E00020A169B14201DA012100E000215C
:1029800008436169A94201DD012100E000210843FB
:10299000E169A94201DA012100E0002108430AD0DF
:1029A00060680022401E00902368D4F8A870114689
:1029B00020465B1EB847D4F8AC302A463146204644
:1029C0009847D4F8A42001B041462046BDE8F04322
:1029D0001047D4F8AC30F2E72DE9F04FDFF828B11A
:1029E00091B04FF0FF35DBF80030B3F922100691BB
:1029F000DE69B3F92490F469A189814206D8E2899D
:102A0000824203D3471AD4F8008012E0D4E901814E
:102A100000296FD00A8882426CD84D88854269D3DC
:102A2000801A82B2486800EB8200B0F90070B0F9F9
:102A30000250781C5ED0307EA17C10FB01FA217C14
:102A4000CDE90701B3F92A60304603F0EDFEC0B2CC
:102A50000E90DBF8000007FB0A81A37C826B012744
:102A6000CDE90412CDE90273C069089AC17E807E67
:102A7000CDE90001DDE90603494603F0CBFA681C05
:102A800018D046F0020003F0CFFEDBF80000A37C74
:102A900005FB0A81826BCDE90273CDE90412C0699E
:102AA000089AC17E807ECDE90001DDE90603494632
:102AB00003F0B0FADBF800005D46C069417E007E9D
:102AC000814214D9022E12D086F0040003F0ACFE2D
:102AD0002868C069027EC37E12FB0391437E857E17
:102AE000089A06984B4412FB050203F01FFC0E984F
:102AF00003F09AFEDBF80000627C418C11444184B3
:102B000011B0BDE8F08F000000010020044800680B
:102B1000C069C06909B1027C0A60407C704700004E
:102B200000010020022008807047C06982898A4223
:102B300002D8C2898A4210D2806880B102888A4253
:102B40000DD843888B420AD3406800EB8100A0EB8C
:102B50008200B0F90000002801DB0120704700204E
:102B6000704700002DE9F043304C034687B02068E1
:102B70001946B0F92A60C069C06900F086F80028DB
:102B800050D041680088181A01EBC0053046AF7874
:102B900003F04AFE814620686A680123816BCDE913
:102BA0000237CDE90421C169CB7E8A7ECDE90023BD
:102BB0000B7EB0F924102A78B0F9220003F02AFA2B
:102BC0002068C069417E027E91421FD9C07E11FB00
:102BD00000F812FB00F7022E18D000F0DBFE0646CC
:102BE00000F0C0FE01F01CFC21682A78CB69B1F925
:102BF0002200DB7E12FB0302B1F9241001EB080373
:102C0000394403F093FB304601F00AFC484603F0D8
:102C10000BFE20686A78C369B0F922109B7E12FB14
:102C20000311418407B0BDE8F083000000010020DB
:102C300030B50F4C05460B4620682946C069C0696F
:102C400000F023F8002812D04168008824682A1A6E
:102C50000120E46900EBC200085CA47E10FB04F0D4
:102C6000002B04D011F8321011FB04F1196030BDB3
:102C70000001002001200880704700B5C06900F005
:102C800004F8002800D0012000BD06E002888A4236
:102C900002D842888A4202D280680028F6D1704762
:102CA000F8B505460C000DD0084600F015F80600F2
:102CB00010D000F0E7F8224600902DB12946FDF72C
:102CC000C5FA04E00020F8BD002102F018FC6846B7
:102CD00000F022F93046F8BD002801D008F0C2BC4F
:102CE000704738B50546FFF7F7FF040009D000F03C
:102CF000C9F82A460021009002F001FC684600F065
:102D00000BF9204638BD0000024A106021F0030094
:102D100050607047B4CD002010B5002814D0044690
:102D20000A48406B10F8341000290DD002290BD24C
:102D3000042101EBC4014158486808F04BFC2046CF
:102D4000BDE810400CF016BD10BD0000F4CC002012
:102D5000002805D0034AD16B016001B14860D063FF
:102D600070470000F4CC002010B504460068FFF75F
:102D7000D3FF0020206010BD2DE9F04104460BF088
:102D80005BFD2848E41C24F00305016C2D1DA942BD
:102D900000D90D46C46B13E054F8042CAA420ED19E
:102DA00084B1216809B162684A60616809B122682A
:102DB0000A60C26BA24231D12168C1632EE024684F
:102DC000002CE9D18046816BC0680F1857F8040CBD
:102DD0003E1A306838B100200CF0D8FD57F8040CCA
:102DE0003E1A3068D0B97068A84217DB3044441BE3
:102DF0003046241D0CF082FDD8F80C10491BC8F891
:102E00000C10D8F814102944C8F814107068401B2E
:102E100002D0314608F0DEFB44F8045C2046BDE8F1
:102E2000F0810000F4CC002010B500240BF004FD6C
:102E30000C490F2001EBC002526C1AB101EBC0002B
:102E4000406C08E0401EF5D508E04168A14200D979
:102E50000C46806810B180680028F6D1A4F10C00FF
:102E600010BD0000F4CC0020002138B10449042238
:102E700002EBC000496B085841680C39084670479E
:102E8000F4CC00200549CA69521CCA61496B01EBA8
:102E9000C0010A78521C0A7000F056B8F4CC002029
:102EA0007CB506460C460846FFF716FF05001CD009
:102EB000DEB13046FFF7D8FFA04200DA04462846CC
:102EC000FFF7E0FF00903046FFF7DCFF014601907E
:102ED00022460098FDF7BAF9684600F01DF801A8EF
:102EE00000F01AF83046FFF717FF28467CBD0000B7
:102EF00010B5FFF799FF64220649B0F5800F04D999
:102F000090FBF2F0096A484310BD096A4143B1FBE6
:102F1000F2F010BDF4CC00200A4902684B6B52F865
:102F2000082C03EBC2021378022B03D3CB690BB13D
:102F30005B1ECB611178491E1170002101600846AB
:102F400070470000F4CC0020002806D0034904227A
:102F500002EBC000496B085808307047F4CC0020E1
:102F60002DE9FC414FF000060B465FEA00083446AD
:102F70002BD032B111461846FFF792FE060000D161
:102F800001244046FFF77EFF0090078845686846A9
:102F9000FFF7C2FFCCB9B9002846091DFFF780FF33
:102FA000050015D0FFF76EFF019040F8276001A8DB
:102FB000FFF7B2FF4046FFF765FF009045600188CC
:102FC000491C01806846FFF7A7FF2046BDE8FC8149
:102FD0003046FFF7A1FE0124F7E70820FFF781BE86
:102FE0007CB5050023D0FFF74DFF00904068C0B1CD
:102FF000FFF748FF0024019005E0019800EB8400F2
:10300000FFF7B2FE641C00980088A042F5DC01A81E
:10301000FFF782FF0098001DFFF7A6FE0099002031
:1030200008806846FFF778FF2846FFF775FE7CBDED
:1030300038B5002430B1FFF725FF009004886846BA
:10304000FFF76AFF204638BD38B50D46002448B169
:10305000FFF718FF2946009000F006F8044668467E
:10306000FFF75AFF204638BD38B50D4601880024C9
:10307000A94209D9406838B1FFF704FF009050F821
:1030800025406846FFF748FF204638BDF0B52D279C
:103090001C68B0F1004F08D0002600280DDA651C2E
:1030A0001D6027704042012408E0651C01261D6058
:1030B0006FF000402770491E01E00024091BC9B2CF
:1030C0002AB3491EC9B222E00C46491EC9B2944235
:1030D00005D1124C27781C68651C1D602770104CA8
:1030E00054F8215090FBF5F4E4B20A2C11D804FBFB
:1030F000150011B90EB1641CE4B20A2C02D10124EE
:10310000491CC9B21D686F1C30341F602C70002927
:10311000DAD1196800200870F0BD0000F40000202A
:10312000804E060810B5002807DD0A682B24531CC2
:103130000B601470096800220A7010BD10B5C2B28D
:10314000CBB2D21A00D5524293B25B43C0F30722EE
:10315000C1F30724121B00D55242000C92B2A0EB1F
:10316000114002FB023200B2002801DA404200B2F4
:1031700080B200FB002010BD10B50021084600F011
:103180004DFC43F6FF725042BDE810401346014625
:10319000AFF300802DE9FC4107461C4615460E465C
:1031A000042003F041FB80461148C068C16C006DEB
:1031B0000F4406440D440444ADF80070ADF80450CB
:1031C000ADF80260ADF80640684607F0FBF807E08E
:1031D00023462A463146384603F0A8F807F0B4F8EB
:1031E0000028F5D1404603F01FFBBDE8FC8100003C
:1031F000F40000202DE9F8431C00DDE9089816468C
:103200000F46054602D106F097FB044600962E684D
:1032100043464A4621462846B047061E35D006F0AA
:103220007FFB8146698A304605F0C0FF304606F0D4
:1032300079FF484606F076FF4FF000080CE000BF2B
:10324000CDF8008055F81CCF00231A464946284681
:10325000E047E0B106F066FF7F1E002FF0DC1D2185
:10326000484606F078FE601C0ED006F08BFB30B1AD
:10327000FFF76AFE8469B44201D02000F8D1B4425D
:1032800002D0304606F0EAFE3046BDE8F88330460C
:1032900006F084FA0020F8E72DE9F0411C461646B6
:1032A0000D460746022B02DB0020BDE8F0811C2002
:1032B000FFF762FD0028F8D00DB105610AE0094A68
:1032C00052F8241009B905E011460A68002AFBD11A
:1032D0000969016184618682002101604160C0E961
:1032E0000217E2E71801002070B51D46FFF7D4FF72
:1032F000040009D000F00EF8E068006820B9034827
:10330000006800EB85008465204670BD0001002048
:10331000FFF71EBD70B590B38269022A30DA1E4CE9
:1033200054F8221019B944F8220032E019464B68CB
:10333000002BFBD106E0CB68C5681B682D68AB424B
:1033400003DD09680029F6D11AE0C1B1CB68C6686F
:103350001B683668B3420CD1838A012B05D008E084
:103360001946DB681B68AB4203DB0B68002BF7D107
:1033700029B14B6833B118604A68426004E0FFE746
:10338000012070BD44F822004860884200D100212D
:103390000160002070BD0000180100200A4A816908
:1033A00052F82130834202D1036842F8213041684B
:1033B00009B102680A60016809B142684A600021E7
:1033C000016041607047000018010020022801DB05
:1033D00000207047054951F8200004E0C1680968E1
:1033E0000029F6D000680028F8D1704718010020A5
:1033F00070B5044601F0B8FA051908E000F086FA45
:10340000052C01DD052000E0204601F09FFA01F0C7
:10341000ABFA2C1A002CF1DC70BD1FB503ABCDF854
:103420000CD0FFF733FE684600F01AF81FBD0021EC
:1034300008F028BC7FB50C461546CDF80CD003A982
:10344000FFF770FE002801DD641EE4B203AB2A46DC
:103450002146FFF71BFE684600F002F87FBD000022
:103460002DE9FC4706005BD000F09CFA3B4C8146FE
:103470002068B0F9228000F0A9FA216807468A8CFA
:10348000D01B888441E000BF47F6FF71304601F051
:1034900067FE82460146304601F038FE2168054647
:1034A00091F82C0000F0030001283FD0022839D009
:1034B00000204A8C101A4884ADF800006A1E10449F
:1034C000ADF80400888CADF80200A9F101010844B0
:1034D000ADF806006A465146304601F0CFFB216840
:1034E000BDF8020088845146304601F005F90644D3
:1034F00030780A281CD00D281AD0BDF800002168A9
:1035000028444884307818B1761C30780028BBD124
:103510002068818C39448184818D21F0030181856B
:10352000BDE8FC8705EBD5704010C2E72846C0E730
:10353000206890F82C1001F0030101290BD002291A
:1035400009D0018C418431780A29DBD1828C02EBCD
:1035500009018184D6E7A0F82280F4E70001002069
:103560002DE9FF4F87B090468946070079D00C6857
:10357000D9F8045021B228B2401A401C029000F041
:1035800011FA064618F00C0F1ED038460A9A029916
:1035900001F0BBF908F00C01042904D0082902D07D
:1035A0000C2911D104E0291400FB1610401C09E07D
:1035B0002114C1EB254200FB1620401C00EBD0700B
:1035C00001EB600060F31F44484606F09FFD5FEA90
:1035D000000B09D00246494604A8CDE9044501F094
:1035E00012FE04A806F092FDA6F1010A38460A9AD6
:1035F000029901F053FF03900AEB244060F31F454A
:10360000CDE900453846039901F080FD18F003012B
:103610000ED0012928D002290ED1B9F90420B9F918
:103620000010521A101A00EBD07001EB600001E09C
:10363000B9F80000ADF800006A463846039901F079
:103640001DFB38460A9A029901F01EFF074406EB5B
:10365000244060F31F4438780028C7D1584606F04C
:1036600055FD0BB0BDE8F08FB9F80410081A401CE6
:10367000E0E700002DE9F04F0C46164987B00D68D1
:10368000DDE91098E96C0F18286D8D180619C4181B
:10369000ADF81070ADF81450ADF81260ADF81640EA
:1036A00004A806F08FFE002811D0DFF82CB04FF0F0
:1036B000000ACDE90098CDE902BA2B4622463946E8
:1036C000304609F059FE06F03FFE0028F1D107B060
:1036D000BDE8F08F00010020D96202082DE9F04F0B
:1036E000164C87B02568DDE91098EC6C2718286D1A
:1036F000A5184618C418ADF81070ADF81450ADF800
:103700001260ADF8164004A806F05CFE002811D047
:10371000DFF82CB04FF0010ACDE90098CDE902BAEC
:1037200023462A463146384609F026FE06F00CFEAE
:103730000028F1D107B0BDE8F08F000000010020A3
:10374000196202082DE9FE4F82460F488946DDE9DD
:103750000D6500680C9FC16C006D01EB0208C41878
:10376000002006F02FFE0AE00097CDE90165234610
:1037700042464946504609F0BFFE06F0E5FD0028E6
:10378000F2D1BDE8FE8F0000000100202DE9FC41D0
:10379000104F04463B68D86C4518196DADF80050C1
:1037A0000E198418ADF80440ADF80260ADF806605B
:1037B000684606F007FE08E0386822463146406E4B
:1037C00003682846984706F0BFFD0028F4D1BDE8FD
:1037D000FC810000000100202DE9F0410B4C256820
:1037E000EC6C2718286DA5184618C418002006F0A0
:1037F000E9FD07E023462A4631463846FEF7FCF845
:1038000006F0A2FD0028F5D1BDE8F08100010020FE
:103810007CB50E4D2A68D36C1E18106DADF804608F
:103820004418ADF80060ADF80640ADF802406846B7
:1038300006F0C8FD07E028682146406E4268304621
:10384000904706F081FD0028F5D17CBD00010020E5
:103850002DE9FC411C4C2468E66C94F818C037181C
:10386000206DACF1010C4518C418A7EB0C001644F0
:10387000ADF8000006EB0C00ADF80400A5EB0C0061
:10388000ADF8020004EB0C00ADF80600684606F047
:1038900099FD15E032462946384602F0BDFC324615
:1038A0002146384602F0B8FC621E691C384602F018
:1038B00013FD621E691C304602F00EFD06F044FD49
:1038C0000028E7D1BDE8FC81000100207CB50E4B4B
:1038D0001B68DC6C2618186DADF80060451884185C
:1038E000ADF80460ADF80250ADF80640684606F049
:1038F00069FD06E022462946304602F0EDFC06F05E
:1039000023FD0028F6D17CBD0001002010B5002465
:1039100000E0012400F004F80028FAD1204610BD90
:10392000094810B50068002410B1804700B1012497
:1039300005F0A8FF00B101240448006810B18047D9
:1039400000B10124204610BD2401002020010020E8
:10395000034951F82000C1688A6A08211047000015
:103960001801002010B502F011FDBDE8104002F072
:10397000A1BD000002490968C9694A6800211047D1
:1039800000010020024A1268D26952681047000004
:103990000001002010B502F001FDBDE8104002F06A
:1039A00089BD000002480068C069407E7047000081
:1039B0000001002001F0A0BB01480068807E704734
:1039C0000001002001F0E8BB00F0CEBF0A49002052
:1039D000096891F82C2002F00C02042A07D0082A6A
:1039E00001D00C2A02D1C869007E40087047C8691E
:1039F000007E401E7047000000010020024951F87F
:103A0000200000690068704718010020024951F841
:103A100020000069406870471801002070B50D460D
:103A20000AF06CFE044628460AF070FE204370BD82
:103A30002DE9F0411948016821F0010101601848A1
:103A4000012585601749016000681749884200D048
:103A5000FEE701F045F8154E2E20307000F08AFF89
:103A600013480AF0B1FE0EF0BEFB074602F0DCFC84
:103A700010B102F0EDFC38B902F0F3FC044602F09C
:103A8000DCFC214602F0CAFE0021084600F0E4FCFE
:103A900006F088F875703846BDE8F081002000E037
:103AA00000300240C2A507F4CDB5E8B5F40000200F
:103AB000C0CD002010B5011E01DD024600E04A42E3
:103AC000064B012053F82040944202D8401C0A289B
:103AD000F8DB002900DA401C10BD0000804E06080B
:103AE0001CB520B90C480068006E002812D0FFF702
:103AF000C9F9009044696846FFF70EFA002C09D016
:103B00002046FFF7BFF9019081688968884701A8BE
:103B1000FFF702FA1CBD00000001002001490A461F
:103B200000F002B801F0FFFF2DE9F04387B0154621
:103B30000C465FEA000842D0002000F079FC814684
:103B400020480068066E4046FFF79CF90090006828
:103B5000806900F04BFC074640F6FF70C44204D178
:103B60000098B0F90440B0F906500098611E02892F
:103B7000ADF804401144ADF808104189681E0844AE
:103B8000ADF80650ADF80A0005F0A4FC6846FFF752
:103B9000C3F901A806F016FC06E02A462146404675
:103BA00000F04EFB06F0D0FB0028F6D1384600F0BE
:103BB0001DFC304600F066F9484600F039FC07B0BD
:103BC000BDE8F083000100202DE9FE4F83461A482E
:103BD0008A461A4900680C9E9846407C9146002708
:103BE00051F82040E1680968042903D02468002CBA
:103BF000F8D100E01CB9FFF7E9FB041E19D0E0681A
:103C00000121C26A20469047050011D02469A068AE
:103C10008047401C02D10A4C46F001060096CDE9CF
:103C2000015443464A465146584600F0AFF907460C
:103C30003846BDE8FE8F000000010020180100207A
:103C4000C04E060838B5040018D00D480068006E54
:103C5000A04201D100F0C0FB2046FFF713F900900D
:103C6000406908B100F03FFE00980068FFF750FB84
:103C70006846FFF751F92046FFF74EF838BD0000BF
:103C8000000100202DE9FF4FDFF83891074683B08F
:103C9000D9F800009A468B46447C4B4800570128CF
:103CA000204606DD02F0C6FB0546204602F0D6FBA4
:103CB00005E002F0A7FB0546204602F0A9FB0446FA
:103CC0001FB302A901A8FFF77DFEB7F90000002885
:103CD00000DA0020B7F902608046002E00DA0026E4
:103CE00001984119B7F90400491E0AF049FF054639
:103CF00002980119B7F90600491E0AF041FFA5EB29
:103D00000802841B521C641C03E04FF00008464666
:103D10002A46BAF1000F01D1C4F1000A002A4FDD92
:103D2000002C4DDD10980090534631464046FFF779
:103D30004BFF5FEA000A10D000F06AF80746A04285
:103D400006D0D9F80000806C10B1322106F058FE80
:103D5000504600F097F8002521E05946059888471D
:103D6000012007B0BDE8F08F611BB94202DA50466E
:103D700000F072F83DB172194146504600F0A4F8C7
:103D80005046FFF7ADFE5946059888470F48016831
:103D900009B1002088475046FFF7C0FE3D44A542C8
:103DA000E2DB5046FFF74EFF002000F06BF8A74221
:103DB00006D0D9F80000806C10B1332106F020FE47
:103DC0000020CEE70001002038010020780200200A
:103DD00038B5002460B1FFF755F80090006800691D
:103DE0008068804702F0F6FE04466846FFF794F8C4
:103DF000204638BD38B5002808D0FFF743F800F159
:103E0000180400906846FFF787F8204638BD000088
:103E100038B5002418B907480068006E38B1FFF7BC
:103E200031F80090B0F90A406846FFF775F820466F
:103E300038BD00000001002070B50546002428466A
:103E400007F01AFE641C18B1BDE8704000F068B8B5
:103E5000052CF4DB70BD000038B50C4620B90848CD
:103E60000068006E00280AD0FFF70CF80090B0F947
:103E70000A10A14200DD44816846FFF74DF838BDC5
:103E800000010020F8B50F4E05003068046E16D012
:103E90000CB100F0A1FA05F043FC2846FEF7F2FF52
:103EA000009031680D660068FFF734FA6846FFF746
:103EB00033F802F015FD02F091FC2046F8BD00F049
:103EC0008BFAFAE7000100207CB515460C4620B9B4
:103ED00012480068006E00281FD0FEF7D3FF2DB2F5
:103EE0000090C58024B2848002F078FC009840697C
:103EF00080B1FEF7C7FF009A0190B2F908108180E7
:103F0000B2F90A20C28011B10AB10480458001A82B
:103F1000FFF702F86846FEF7FFFF7CBD00010020B6
:103F200001490A4600F002B801F0FFFF7FB51546CF
:103F30000C46060028D0FEF7A5FF40F6FF71019061
:103F4000CC4203D1B0F90440B0F906500289611E99
:103F50001144ADF80840ADF80C104189681E0844C2
:103F6000ADF80E00ADF80A5001A8FEF7D5FF02A883
:103F700006F028FA06E02A462146304600F048F9C5
:103F800006F0E2F90028F6D17FBD00002DE9FF4FD1
:103F9000DFF8E8B083B01C46DBF80010DDE9106004
:103FA00092464FF000084B7C42461299FFF774F995
:103FB000050060D028698068804702F00BFE8146CA
:103FC0000AFB09F1C91DCF08FEF792FFF10705D1E1
:103FD000C11700EB9170801000EB4000002C09DC51
:103FE0001FB11838B0FBF7F000E000206442A04297
:103FF00000DC0446F00707D10090DDE90301234609
:10400000524600F0F9FB8046002C03DC2846FFF7FF
:104010007FF930E004FB07F01830F10702D0FEF71B
:104020005BFE01E0FEF75DFE06001CD0FEF72AFFF6
:1040300001900560039981800499C180A0F808A0CF
:104040004481C0F81480C0E9037901A8FEF764FF39
:104050001298AE602861DBF80000407CA861304611
:1040600007B0BDE8F08F2846FFF752F9B8F100001D
:1040700001D0FEF751FE0020F2E700000001002011
:104080002DE9F74F8EB0144689460E98FEF7FAFEDA
:104090000990B0F908B0B0F90A600068006940689A
:1040A0000C9009A8FEF738FF564D574F2868407C02
:1040B00057F82000C1688A6A08219047079018289D
:1040C00001D3202007902868407C57F82000006921
:1040D000069003C80B904D48814201D0012000E0BA
:1040E00000200A90002000F046FC00287DD12868BE
:1040F00009EB0B01B0F90C20891A491E002902DDD9
:10410000ABEB010500E05D46B0F90810494505DD5F
:10411000A1EB090189446D1A089101E00021089181
:10412000002D6BDDB0F90E20A119891A491E002956
:1041300002DDA6EB010800E0B046B0F90A00A0429B
:1041400004DD061B3444A8EB060800E00026B8F1A5
:10415000000F53DD089801900DA95F46DDF830A0EF
:104160000E980091FFF746FE774300EB8701019818
:104170002B4601EB800200994846CDE900A121467B
:1041800000F0E2FD0090002838D00A98E8B1DDE99F
:1041900006322946009800F09DFCB0B90698009FB1
:1041A000DA46D0F810C0BCF1000F05D004235A46FF
:1041B00039463846E04708E00B993868884701C718
:1041C000AAF101005FEA000AF6D100990020079ADF
:1041D000CDE90301059001200090CDE901022146BF
:1041E0000346641C2A46484600E007E001F012FF3F
:1041F000A8F10100761C5FEA0008ABD111B0BDE860
:10420000F08F00000001002018010020D364020894
:10421000F8B515460E460746FEF734FE00900068D6
:104220001621C068426A0020904704466846FEF79F
:1042300073FE002C03D02A4631463846A047F8BD0D
:10424000F8B516460F46050012D0FEF71BFE00908B
:1042500044696846FEF760FE2846FFF7B9FD03464D
:10426000082800DD2CB13246394628460BF050FFB5
:10427000F8BD3246394628460CF0EAF8F8BD10B5CC
:10428000002821D009B30AB3B1F90040B2F90030D7
:104290009C4200DA23460380B1F90240B2F90230B1
:1042A0009C4200DA23464380B1F90440B2F904305D
:1042B0009C4200DD23468380B1F90610B2F9062046
:1042C000914200DC1146C18010BD11460A680260AF
:1042D0004968416010BD00280BD003880B4403805F
:1042E000838819448180418811444180C1881144E8
:1042F000C180704770B5094C0020D4E900218A4282
:104300000AD0D2E9005610460AF016FA206031466B
:10431000284605F057FD012070BD00002C0200204A
:104320002DE9FC41154DDDE908742D68B5F90860EB
:10433000864200DD3046B5F90C60964200DA32461E
:10434000824219DBB5F90A608E4200DD3146B5F9CB
:104350000E509D4200DA2B468B420DDB00E02C46CE
:10436000E5682D6825B1042D02D02568002DF6D111
:10437000CDE9007402F01CF9BDE8FC8100010020C9
:10438000B0F90220B1F906309A4213DCB1F90220EB
:10439000B0F906309A420DDCB0F90020B1F90430D2
:1043A0009A4207DCB1F90010B0F90400814201DC47
:1043B00001207047002070470146024870220068C3
:1043C000FBF744BF00010020024970220968FBF797
:1043D0003DBF00000001002010B502F0B5F902F069
:1043E0007FFABDE8104005F075B8000070B5094DC2
:1043F0000446022C2868467C09D22046FEF7E6FFD8
:1044000028B128684474FFF7E7FF0348046030468A
:1044100070BD000000010020B801002002F0B4B916
:1044200002F0EAB90149886070470000F4000020FA
:1044300002F0FAB903490968CA6900B1C8611046B7
:104440007047000000010020024909688A7E8876D2
:104450001046704700010020094A30B41080094A14
:104460001180094A1268537C084A52F82330DA68EE
:10447000146A0A46A446014630BC1846604700004C
:10448000400100204201002000010020180100200E
:10449000024909680A7E087610467047000100202C
:1044A00003490968B1F92C2088851046704700003F
:1044B0000001002003490968B1F92A204885104607
:1044C000704700000001002002480068002800D06A
:1044D000004770475002002002498A6802B988608C
:1044E000FFF7F2BF2C0200202DE9FC410746984659
:1044F00016460D461C20FEF7F4FB04002DD01B4988
:10450000194808602046FEF7BDFC009015B9FFF77A
:104510005BFA054600980760C0E90465A0F80C80C6
:104520006846FEF7F9FC20460AF04EFA104DA868DE
:1045300040B90120A86005F10C010E48086008464A
:1045400000F064FF2046FEF79DFC0190296839B118
:1045500081602C6001A8FEF7DFFC2046BDE8FC81ED
:1045600000212C608160F5E79545020824010020B8
:104570003C02002041ED020810B5040009D00BF008
:10458000D7F920460BF072FD2046BDE81040FEF73B
:10459000C3BB10BD2DE9F041184C88B000256768F9
:1045A00025E000BFFFF710FA06466068FEF76AFCD8
:1045B00001904169891B002915DC6168029604910C
:1045C0000169039146686660D0F8008001A8FEF793
:1045D000A3FC02A84146884766B160680125B8423D
:1045E00005D1002506E001A8FEF796FC02E0606810
:1045F0000028D7D108B02846BDE8F0813C02002051
:1046000038B50C4660B1FEF73DFC00908089204231
:1046100001D0012400E000246846FEF77DFC00E0A4
:104620000124204638BD38B5040012D0FEF72AFC1C
:104630000090FFF7C9F90146009882691144416171
:104640006846FEF769FC20460BF010FD20460AF094
:10465000BBF938BD38B50C46002806D0FEF712FC71
:10466000009084616846FEF757FC38BD38B50546B2
:10467000002028600648046844B12046FEF702FC8A
:104680000090006928606846FEF746FC204638BD69
:104690003C02002038B504004FF000000D460860D1
:1046A00011D02046FEF7EEFB0090846844B16846C6
:1046B000FEF732FC2046FEF7E5FB0090006928601B
:1046C0006846FEF729FC204638BD00002DE9F04180
:1046D000084E044605683068016828468847074642
:1046E0003068416828468847284420603846BDE83D
:1046F000F0810000040100202DE9F0410C4606463F
:104700000025064F05E03868416830468847064472
:104710000544641EF7D22846BDE8F081040100205C
:104720002DE9F0411E46069C1746884605463A4646
:10473000A8687F1C3346D0F804C041462846E047AD
:10474000641EF4D1BDE8F08170B5B0F90040091BDA
:10475000B0F904408C422CDD00F11404B0F9025091
:104760000069521B02FB0040CA1800EBE104521E14
:10477000D010B0EBE10501F007034FF0FF0102F0AC
:10478000070221FA03F0C2F1070201FA02F1CEB2E8
:1047900021780FD001436D1E04F8011B002D05DDAB
:1047A000FF2229462046FBF771FD2C442078304338
:1047B000207070BD30400143217070BD10B5B0F95C
:1047C0000030B0F90240C91A00F114030069121B4D
:1047D00002FB003000EBE10001F0070302788021CA
:1047E000D9400A43027010BDB0F906100269514366
:1047F0001430FBF752BD00002DE9F843804602F16A
:104800000F000011470003FB07F01C4615468946C0
:104810001430FEF766FA060013D0FEF733FB009063
:10482000A0F80080A0F802908580C48006498160CD
:104830000121818107616846FEF76EFB3046BDE8C5
:10484000F8830020FBE70000B858060870B5B0F9FF
:104850000660B0F904400B6800F1140596421BDDB8
:104860000069A34202FB005000EBE30214DA641E6D
:10487000E010A0EBE30512F8010B03F00704A040E1
:10488000C4B206E045B1083312F8014B23F0070328
:104890006D1E002CF6D004E0002070BD6006040EF2
:1048A0005B1C2006FAD5FF2C07D0184602E06406F0
:1048B000240E401C6606FAD400E0D81DC4436407E9
:1048C00005D006E012F8014BFF2C09D108306D1E0F
:1048D000F8D5C01A401C0B6070BD6206140E401C57
:1048E0002206FAD4F5E738B50546FEF7CBFA009074
:1048F0008189491E0CB284816846FEF70DFB002CAD
:1049000002D12846FEF708FA38BD2DE9F0411646D7
:104910000F460546002432463946284600F0B4FDCD
:10492000054408B1641CF6E72046BDE8F0810000AC
:1049300010B54FF420410348FEF7E6F90248FFF7AF
:1049400071FD10BDAC240020BC2F0608044A12687B
:10495000111800BF024A12688A1A002AFADC70474E
:104960008800002070470000014800687047000080
:104970008800002070470EB508B102AA00E00022AE
:10498000002301A9684600F069FB0EBD074910B578
:104990000C7818B101200870801E03E00020087018
:1049A0006FF07F4001F020FB204610BD3A0100204F
:1049B00010B5082A0EDC0346012A18D0022A56D068
:1049C000042A76D010F8042B03F8012B491EF9D1E4
:1049D000012010BD102A08DC4FEA000230F8043B29
:1049E00022F8023B491EF9D1F2E7002010BD10F871
:1049F000042BD207120E491E34D010F8044B491E66
:104A000004F0010442EA84122CD010F8044B491E31
:104A100004F0010442EA441224D010F8044B491E69
:104A200004F0010442EA04121CD010F8044B491EA1
:104A300004F0010442EAC40214D010F8044B491EE9
:104A400004F0010442EA84020CD010F8044B491E21
:104A500004F0010442EA440204D010F8044B04F0CC
:104A60000104224303F8012B0029C0D1B0E710F85C
:104A7000042B9207120E491E15D010F8044B491E44
:104A800004F0030442EA04120DD010F8044B491E4E
:104A900004F0030442EA840205D010F8044B04F049
:104AA00003042243491E03F8012B0029DFD18FE7BD
:104AB000FFE710F8042B1207120E491E05D010F85C
:104AC000044B04F00F042243491E03F8012B002974
:104AD000EFD17DE738B50024009400F01BF838BD15
:104AE0000A4810B5816900290ED101218161FFF7C3
:104AF0001FFF01F007FF054905481C310860BDE8AC
:104B00001040084600F082BC10BD0000F4000020F8
:104B1000E1EC02082DE9F0410D460699044601B981
:104B200001461F68082A09DC0E46012A1AD0022A0B
:104B30005BD0042A7DD0082A13D18DE0102A07DC2F
:104B4000D3F810C00E46BCF1000F04D0022389E058
:104B50000020BDE8F08101CCB84726F8020B6D1E9D
:104B6000F9D189E001CCB847C0074FEA10686D1E43
:104B700036D001CCB84748EA801000F0FF086D1E1F
:104B80002ED001CCB84748EA401000F0FF086D1E57
:104B900026D001CCB84748EA001000F0FF086D1E8F
:104BA0001ED001CCB84748EAC00000F0FF086D1ED7
:104BB00016D001CCB84748EA800000F0FF086D1E0F
:104BC0000ED001CCB84748EA400000F0FF086D1E47
:104BD00006D001CCB84740EA080000F0FF086D1E7F
:104BE00006F8018B002DBDD146E001CCB847800707
:104BF0004FEA10686D1E16D001CCB84748EA001085
:104C000000F0FF086D1E0ED001CCB84748EA8000C6
:104C100000F0FF086D1E06D001CCB84740EA08003E
:104C200000F0FF086D1E06F8018B002DDDD123E09A
:104C3000FFE701CCB84700074FEA10686D1E06D0A9
:104C400001CCB84740EA080000F0FF086D1E06F8E6
:104C5000018B002DEDD10FE0D3F810C0BCF1000F97
:104C600004D001232A462046E04705E001CCB8479E
:104C700006F8010B6D1EF9D101206AE77CB50646E6
:104C800028480D46006868B1002005F09BFB06E04F
:104C90006A462946304607F085F805F055FB00289E
:104CA000F6D17CBD106800901F4C506801902268BE
:104CB000BDF8000032F84C1F0844ADF80000BDF804
:104CC000020091880844ADF80200BDF80400118884
:104CD0000844ADF80400BDF8060091880844ADF81A
:104CE0000600684605F06EFB0EE000BF2068BDF8C8
:104CF00000106A464184BDF802108184294630467E
:104D000007F050F805F020FB0028EFD1206830F8BC
:104D1000221F428D891A01804188C28D891A4180E3
:104D20007CBD00003C0100200001002049B10028AA
:104D300002DAA0EB610001E000EB610090FBF1F012
:104D400070470020704700002DE9FF4F8DB0002014
:104D5000DDF86CA0164600901D4604460246CAF8CF
:104D6000000008AB03A902A800F078F918B10020F0
:104D700011B0BDE8F08F0898854200DD0546614F0F
:104D80000B9561493868407C51F8201004910969FD
:104D90000691FEF7DDFD05903868407CFEF736FE93
:104DA0005A498146884204D05949894501D0012099
:104DB00000E000200A9001CE1A9988478346000E31
:104DC000079077D0009870BB0D9800EB04084D4811
:104DD0000068B0F90800404503DDA0EB08078046F5
:104DE00000E000270298049900EB840000EB8700A4
:104DF000CDE900010B990D98421809920E9B40468F
:104E00001946521EFFF78CFA0120009005981828C9
:104E10000ADA0298DDE9052300EB840000EB870045
:104E2000E91B00F079F812E00A9880B1029800EBD3
:104E3000840000EB87070998A0EB0808494638680A
:104E4000884701C7A8F101005FEA0008F6D13148A0
:104E5000C06980B3DDE9020700EB840007EB840240
:104E6000CDE902022B4C361F3046E4692B460299ED
:104E7000A047FF213068B1EB106F02D102980068A3
:104E800004E0029A1268B1EB126F01D1039A10602C
:104E9000029806F10406001D02900398001D03907D
:104EA0006D1EE7D10397DAF8000040F00101CAF85F
:104EB000001020E021E0FFE70798FF2811D0C0F1A3
:104EC000FF02029850F82410584600F037FA039970
:104ED00041F82400DAF8000040F00101CAF800109F
:104EE00005E00298039950F8240041F82400641C5E
:104EF0006D1E7FF460AF03983AE7039941F824B040
:104F0000E8E700000001002018010020D364020837
:104F1000D1640208B40200202DE9F05F0C1E16DDFA
:104F20005E68014600EB8405082A12DC611E012A36
:104F300026D0022A47D0042A6AD0082A07D10719A6
:104F400017F8010DB04745F8040D641EF8D1BDE80F
:104F5000F09F102AFBDC5F693FB12246BC46BDE8EA
:104F6000F04F02235DF804EB604701EB440700BFFC
:104F700037F8020DB04745F8040D641EF8D1E6E796
:104F800000EBE10001F0070710F801A9814680203D
:104F900020FA07F8B5F104050AEA0800C7F107018D
:104FA000C840B04745F804093FB14FEA48604FEAAE
:104FB00010687F1E641EEFD1C9E719F801A9072701
:104FC0004FF00108F6E700EBA10001F0030710F82D
:104FD00001A981467900C02020FA01F84FF0060BA4
:104FE000B5F104050AEA0800ABEB4701C840B04739
:104FF00045F804093FB14FEA88604FEA10687F1E08
:10500000641EEFD1A3E7032719F801A9B846F7E713
:1050100000EB6100012710F801A9A7438146B90000
:10502000F02020FA01F84FF0040B2D1F0AEA0800C7
:10503000ABEB8701C840B04745F804093FB14FEAE0
:1050400008704FEA10687F1E641EEFD17FE719F8E1
:1050500001A901274FF00F08F6E700002DE9F047FE
:10506000224C06461F46A06990468946002540B955
:105070000120A06104F120011D480860084600F0ED
:10508000C5F9606930B91B480068606110B901F06A
:10509000BCF9606107B138604EB1A06830B9606991
:1050A0008000FDF769FEA06000B901253060B9F10C
:1050B000000F0AD0E06830B960698000FDF75CFE3F
:1050C000E06000B90125C9F80000B8F1000F0AD06E
:1050D000206930B960698000FDF74EFE206100B99B
:1050E0000125C8F800002846BDE8F087B40200207A
:1050F00065ED02083001002003480068C069017EA8
:10510000C07E11FB00F070470001002073B5124A09
:1051100001A900981268904700240090C8B10F4977
:1051200000250968C969496959B10A684AB10199F4
:1051300090477CBD6846FFF7C9FA0546FEF71AFCA2
:1051400004440198401E0190F4D5284600F032F83E
:10515000044420467CBD00005003002000010020D4
:1051600073B50D460098002490B10A490968C969D1
:10517000496959B14A684AB1294690477CBD684699
:10518000FFF7A4FA20B10A2802D0641CAC42F6DB77
:1051900020467CBD00010020044AB2F900200260D4
:1051A0000348B0F90000086070470000400100208B
:1051B0004201002038B5002469460094FEF7E2FB66
:1051C0000099814200DD0C1A204638BDB0F900304C
:1051D000B1F90020934200DA0280B0F90230B1F94F
:1051E0000220934200DA4280B0F90430B1F9042081
:1051F000934200DD8280B0F90620B1F906108A42A0
:1052000000DDC180704770B5B1F90040B2F90030DF
:105210009C4200DD23460380B1F90250B2F90240FE
:10522000A54200DD2C464480B1F90460B2F9045077
:10523000AE4200DA35468580B1F90610B2F9062093
:10524000914200DB1146C1809D4201DBA14201DA9F
:10525000002070BD012070BD014602480068407CFE
:1052600000F002B8000100202DE9F843012689462C
:10527000044602285DDA304F7A6802B190472E4D1D
:105280005FEA090005F1100532D0012803D0B9F119
:10529000020F4ED118E055F8240088B92046FEF7D9
:1052A00095F8009018B3C0680D21426A684690478F
:1052B00002003ED049460098904755F82400002649
:1052C000401C45F8240034E02046FEF77FF80090AB
:1052D00068B1C0680D21426A68469047040028D032
:1052E000386800B1804749460098A047002620E072
:1052F00055F82400A846012812D12046FEF766F88A
:10530000009068B1C0680D21426A68469047050068
:1053100006D0386800B1804749460098A847002663
:1053200058F8241009B1012200E00022891A48F837
:1053300024103046BDE8F8831402002070B5FF2326
:10534000B3EB116F2CD0C3B213FB02F500F47F4412
:1053500000F47F0354435343000E10FB02F6C2F1E6
:10536000FF00CAB212FB005201F47F4505FB004466
:1053700001F47F0505FB0033090E11FB0065C2F344
:1053800007204FF47F024FF47F4102EA132201EA23
:1053900014214FF07F43084303EA054310431843A9
:1053A00070BD2DE9F04F0646DDE90CB915460C46F7
:1053B00000208046584519D20B9F4FF0FF0A01CEBE
:1053C00008CCAAEB106202FB09F2B2FBFAF1CAB2F6
:1053D0001946FFF7B3FF20F07F4001C57F1EEED1D5
:1053E000099804EB800408F10100E2E7BDE8F08FC2
:1053F0000B88134403808B889B1A83804B8813444B
:105400004380C988891AC1807047000002494A69EF
:105410004260486170470000F40000202DE9F84325
:105420000768064688460025384600F0BFF840B3B6
:10543000404600F0CBF8441C3846FDF715FD844289
:105440000CD1F4B13846FDF71DFD224641460090CF
:10545000FAF7FCFE6846FDF75FFD11E02046FDF718
:105460003BFC04000DD0FDF70DFD41460090FAF71E
:1054700026FF6846FDF750FD3046FDF775FC3460A9
:1054800001252846BDE8F88310B5044600F009F868
:1054900001462046BDE81040FFF72EB900230AF070
:1054A0000DBE77B581B015460E466B4601980AF0E1
:1054B00005FE044601460198FFF71EF901990844CC
:1054C000019001A8FFF702F90A2802D0012D02D0AD
:1054D00012E0641C10E020280ED1FEF74BFA0546BE
:1054E00007E02844009001A8641CFFF7EFF820288B
:1054F00002D100988642F4DA04B0204670BD10B59F
:1055000002E000F8011B521E0AB18307F9D193088B
:1055100018D001EB014402F0030204EB042406E07E
:1055200010C01B1F10C040F8084B40F8044C042B5F
:10553000F6DA01E010C05B1E002BFBD102E000F8A0
:10554000011B521E002AFAD110BD10B5830702D5E7
:1055500020F8021B521E530811D001EB0144042B0A
:1055600009DB10C01B1F10C0042B40F8084B40F88B
:10557000044CF6DA01E010C05B1E002BFBD1D20711
:1055800000D0018010BD000000B907A021B906A11C
:1055900002E03AB1401C491C02780B789A42F8D0DC
:1055A00001207047002070470000000038B50D460C
:1055B000012448B1FDF766FC29460090FFF7E4FF9F
:1055C00004466846FDF7A8FC204638BD4FF0FF3181
:1055D00028B100BF10F8012B491C002AFAD1084657
:1055E000704700F5806000F001B8000010B500239E
:1055F000C0F30B00B0F5006F02DD0123A0F50060E1
:10560000B0F5806F01DDC0F5006081110C4C00F039
:105610003F00C0F1400234F811005043402A08D046
:10562000102906DA04EB4101C2F14002498801FB6E
:10563000020020308009002B00D0404210BD000045
:10564000AC4D060801460020012906D0022907D0EA
:10565000032908D004290CD108E0084A10880AE080
:10566000074A108807E0074A108804E0064A1088B5
:1056700001E0002000BF00BF70470000380000209C
:105680003A0000203C0000203E00002000BFFEE762
:1056900010B504462CB14FF400710548FCF710FD1D
:1056A00004E04FF400710248FCF70CFD10BD00004F
:1056B0000014024001B502E00098401E00900098DE
:1056C0000028F9D108BD00B597B03C2108A8FAF729
:1056D000E4FD1C2101A8FAF7E0FD0121084601F0D4
:1056E00071FB042001900F2003904FF08050079031
:1056F000002002900490059006900420089000205D
:10570000099008200A9010200B9000200C900E9019
:105710000F9010904FF48050119000201290139031
:10572000149001A81590169008A8FCF709F801211B
:105730000420FBF7EBFF17B000BD00001CB50121F2
:10574000782001F02FFB02208DF804008DF8050071
:105750004003009069468048FCF73EFC0C220E2175
:105760007D48FCF781FC4FF40040009069467A4880
:10577000FCF732FC0C220F217748FCF775FC012066
:10578000009069467448FCF727FC0C2200217248FF
:10579000FCF76AFC0220009069466F48FCF71CFC8D
:1057A0000C2201216C48FCF75FFC802000906946C8
:1057B0006A48FCF711FC0C2207216848FCF754FCEE
:1057C0004FF48070009069466448FCF705FC0C2299
:1057D00008216248FCF748FC4FF4007000906946CD
:1057E0005E48FCF7F9FB0C2209215C48FCF73CFC05
:1057F0004FF48060009069465848FCF7EDFB0C229E
:105800000A215648FCF730FC4FF4006000906946CE
:105810005248FCF7E1FB0C220B215048FCF724FC1A
:105820004FF48050009069464C48FCF7D5FB0C22A1
:1058300011464A48FCF718FC4FF4005000906946A6
:105840004648FCF7C9FB0C220D214448FCF70CFC30
:105850004FF48040009069464048FCF7BDFB0C22A5
:105860000E213E48FCF700FC4FF4004000906946D2
:105870003A48FCF7B1FB0C220F213848FCF7F4FB47
:105880004FF48070009069463348FCF7A5FB0C226A
:1058900008213148FCF7E8FB4FF40070009069469E
:1058A0002D48FCF799FB0C2209212B48FCF7DCFB67
:1058B0004FF48060009069462748FCF78DFB0C226E
:1058C0000A212548FCF7D0FB1020009069462248A9
:1058D000FCF782FB0C2204211F48FCF7C5FB2020AB
:1058E000009069461C48FCF777FB0C2205211A48FA
:1058F000FCF7BAFB4FF48060009069461848FCF74B
:105900006BFB0C220A211648FCF7AEFB012000902D
:1059100069461448FCF760FB0C2200211148FCF793
:10592000A3FB01208DF8040000208DF80600012063
:105930008DF8070002208DF805008002009069466E
:105940000848FCF749FB4FF4007000906946054891
:10595000FCF742FB1CBD0000000C0240001002409E
:10596000001802400014024010B50446072C00DD68
:1059700010BD31480470204604EBD0714910A4EBEF
:10598000410139B9F0202D4908804FF4A0702C490D
:10599000088006E04FF4A07028490880F0202849CC
:1059A0000880362000F0E8FA2648008849F24131A4
:1059B000884205D1082141EA441000F0E1FA0AE0EA
:1059C0002048008848F25251884204D1002141EA1F
:1059D000441000F0D5FA2A2000F0CEFA002000F0A2
:1059E000CFFA002000F0CCFA14490988491EC1F30F
:1059F000072000F0C5FA11490978491EC8B200F025
:105A0000BFFA2B2000F0B8FA002000F0B9FA00200D
:105A100000F0B6FA0A490988491EC1F3072000F0D0
:105A2000AFFA07490978491EC8B200F0A9FA2C203C
:105A300000F0A2FA00BF9BE768000020640000208D
:105A4000660000206A00002010B5FFF777FEFFF720
:105A50003AFE0120FFF71CFE00F078FA00F008F88B
:105A600002480078FFF780FF10BD000068000020AA
:105A700010B500F025FAFE4908800846008849F272
:105A8000413188427ED1CF2000F076FA002000F02C
:105A900077FA812000F074FA302000F071FAED20DE
:105AA00000F06AFA642000F06BFA032000F068FA54
:105AB000122000F065FA812000F062FAE82000F080
:105AC0005BFA852000F05CFA102000F059FA78208B
:105AD00000F056FACB2000F04FFA392000F050FACF
