:020000040800F2
:1000000060040020A1010008CF140008030C0008C0
:10001000CD140008AF020008E51800080000000039
:10002000000000000000000000000000A916000809
:10003000EB070008000000007515000865170008B0
:10004000BB010008BB010008BB010008BB010008A0
:10005000BB010008BB010008BB010008BB01000890
:10006000BB010008BB010008BB010008BB01000880
:10007000BB010008BB010008BB010008BB01000870
:10008000BB010008BB010008BB010008BB01000860
:10009000BB010008BB010008BB010008BB01000850
:1000A000BB010008BB010008BB010008BB01000840
:1000B000BB010008BB010008BB010008BB01000830
:1000C000BB010008BB010008BB010008BB01000820
:1000D000BB010008BB010008BB010008BB01000810
:1000E000BB010008BB010008BB010008BB01000800
:1000F000BB010008BB010008BB010008BB010008F0
:10010000BB010008BB010008BB010008BB010008DF
:10011000BB010008BB010008BB010008BB010008CF
:10012000BB010008BB010008BB010008BB010008BF
:10013000BB010008BB010008BB010008BB010008AF
:10014000B1020008BB010008BB010008BB010008A8
:10015000BB010008BB010008BB010008BB0100088F
:10016000BB010008BB010008BB010008BB0100087F
:10017000BB010008BB010008BB010008BB0100086F
:10018000BB010008BB010008DFF810D000F05EF8EA
:1001900000480047ED1D0008AFF300806004002018
:1001A0000648804706480047FEE7FEE7FEE7FEE711
:1001B000FEE7FEE7FEE7FEE7FEE7FEE76917000859
:1001C00089010008D2B201E000F8012B491EFBD2E0
:1001D00070470022F6E710B513460A460446194652
:1001E000FFF7F0FF204610BD2DE9F05F0546002027
:1001F00092469B4688460646814640241BE0284698
:1002000041464746224600F042F853465A46C01A35
:10021000914110D311461846224600F029F82D1AB4
:1002200067EB01084F4622460120002100F020F82C
:1002300017EB00094E41201EA4F10104DFDC484603
:1002400031462A464346BDE8F09F0000064C074D64
:1002500006E0E06840F0010394E807009847103496
:10026000AC42F6D3FFF794FFC0380008E03800082E
:10027000202A04DB203A00FA02F100207047914066
:10028000C2F1200320FA03F3194390407047202A5B
:1002900004DB203A21FA02F00021704721FA02F330
:1002A000D040C2F120029140084319467047FEE752
:1002B00010B50C4A00210C4800F0CEF909480B4952
:1002C0004268A2F59853143B05D1027A042A02D160
:1002D000807A082802D00020086010BD0120086044
:1002E00010BD00004C0000200068004010000020FD
:1002F00010B500F0B5F800F09BF900F06BF9BDE81F
:10030000104000F087B8000010B50C4988420AD1AF
:1003100001214C06204601F059F92046BDE8104065
:10032000002101F053B901218C06204601F04EF95D
:100330002046BDE81040002101F048B900640040AB
:10034000F0B5827A01219140304C226842F00102DE
:1003500022602E4D1C352A688A432A602B4A067B70
:100360000C322B4B002E14D116688E431660468833
:10037000C78846EA0746877A03EBC707C7F840668F
:100380000688878846EA0746877A03EBC707C7F8D7
:100390004466067B012E14D116680E43166042880F
:1003A000068842EA0642867A03EBC606C6F840266D
:1003B000C288868842EA0642867A03EBC603C3F8FF
:1003C0004426124AC37A121D3BB113680B431360D3
:1003D0000E4A0389143223B106E013688B4313607D
:1003E000F6E713688B4313600389012B02D113686E
:1003F0000B431360407B012802D128680843286022
:10040000206820F001002060F0BD00000066004080
:10041000006000401FB50E208DF80A0000208DF806
:100420000B0001218DF80C10ADF8000049F6A40274
:10043000ADF802204FF6FF72ADF80420ADF80620AB
:10044000ADF808008DF80D106846FFF779FF01221E
:100450000221024800F032F81FBD00000068004091
:100460007CB50121022001F087F8134D09220C21EF
:10047000284600F0ABFB09220D21284600F0A6FB20
:100480004FF40050009002248DF804408DF8054090
:1004900000218DF8061001218DF8071069462846C5
:1004A00000F056FBE10200918DF8044069462846B1
:1004B00000F04EFB7CBD000000040240002A03D087
:1004C00042690A434261704742698A434261704708
:1004D00010B50022036823F002030360036843F0B1
:1004E000010303604FF6FF7300E0521C4468E40709
:1004F00001D19A42F9D14268D2073ED08A79012AC5
:100500003DD0026822F080020260CA79012A3BD005
:10051000026822F0400202600A7A012A39D0026899
:1005200022F0200202604A7A012A37D0026822F0C3
:10053000100202608A7A012A35D0026822F008028D
:100540000260CA7A012A33D0026822F004020260F3
:100550008A78CC78920742EA04620C7942EA044233
:100560004C79098842EA0452491E0A43C261016873
:1005700021F001010160002120E0002010BD02688F
:1005800042F080020260C0E7026842F0400202606E
:10059000C2E7026842F020020260C4E7026842F04B
:1005A00010020260C6E7026842F008020260C8E773
:1005B000026842F004020260CAE7491C4268D2079E
:1005C00001D09942F9D14068C00701D0002010BD88
:1005D000012010BD3EB501214FF0C06000F0E8FFE2
:1005E000124C2046FFF790FE684600F093F8002179
:1005F0008DF8061001228DF807208DF808208DF85F
:1006000009108DF80A108DF80B108DF802108DF876
:10061000032003208DF804008DF805200620ADF896
:10062000000069462046FFF753FF3EBD00680040CA
:1006300008B54FF4C06000F093FF40208DF8000033
:1006400000208DF801008DF8020001208DF80300D4
:10065000684600F051FF08BD10B500EB0113D3F858
:10066000B04104F004041472002C2CD0D3F8B04133
:10067000E408546003F5D8731C6804F00204547253
:100680005C6804F00F0494725C68240AD4749C685B
:10069000D4729C68240A14739C68240C54739C685C
:1006A000240E9473DC68D473DC68240A1474DC6848
:1006B000240C5474DB681B0E937449B1016941F03A
:1006C0002001016110BDD3F8B041640D1460D1E781
:1006D000C16841F02001C16010BD00001CB50021BF
:1006E0000AA20CCACDE900234FF4A462426004229E
:1006F000027200224272082282726A464418535CD7
:10070000E372491CC9B20829F8D31CBDE40CE40CFF
:10071000E40CE40C00218171C1710172417281729B
:10072000C1728170C17003210171022141710121E7
:100730000180704730B50246002093685B010AD4FF
:100740009068000101D5012005E09068C00001D546
:10075000022000E0042004283BD002EB0012D2F873
:10076000803103F00103C2F880310B7A93B3D2F8E1
:1007700080414D681C434B7A43EAC5031C43C2F8D1
:1007800080418B7A03F00F038B7202F5C0725368BD
:1007900023F00F03536053688C7A23435360CB7A62
:1007A0008C7B0D7B43EA04634C7B240444EA0524E0
:1007B00023439360CB7B8C7C43EA04634C7C097CB1
:1007C000240444EA01210B43D360116841F0010184
:1007D000116030BDFFE7D2F880314C7A23430C889A
:1007E00043EA4453C2F88031CBE7704770B586B016
:1007F0000121084600F0C0FE0121102000F0F4FEA7
:1008000000248DF8164001208DF8170002258DF880
:1008100015508DF81450400204901C4E04A9304627
:1008200000F096F98DF814506902049104A930463D
:1008300000F08EF907220A21304600F0C7F907229E
:100840000921304600F0C2F94FF4E1300090ADF8D4
:100850000440ADF80640ADF80840ADF80C400C205F
:10086000ADF80A000A4C6946204600F0D9FF00F0B6
:100870002FFE012240F22551204600F0B6FF012153
:10088000204600F09FFF06B070BD0000000002404F
:100890000010014001B502E00098401E0090009851
:1008A0000028F9D108BD00002DE9F04188B0017899
:1008B000427841EA02278178C27841EA022401792C
:1008C000427941EA02258179C07941EA002632A0C5
:1008D00001F00AF8394634A001F006F8214637A0A5
:1008E00001F002F829463AA000F0FEFF31463DA093
:1008F00000F0FAFF4048002103884048028808467B
:1009000000F08EF93E4800F0AFFD4FF6FF78002171
:10091000404600F0A3FD00F09BFD3AA1002000F04E
:10092000D3F93B463BA22021684600F0EDFF00F0E2
:100930008FFDC088694600F0C7F9234638A2202100
:10094000684600F0E1FF00F083FDC088694608EAD0
:10095000400000F0B9F92B4634A22021684600F08F
:10096000D3FF00F075FDC088694600EB400080B2FF
:1009700000F0AAF9334630A22021684600F0C4FFF7
:1009800000F066FDC088694608EA800000F09CF926
:1009900008B0BDE8F0810000B5B1C7B0B5E7D1B986
:1009A000CEAAA3BA0D0A0000566F6C746167653158
:1009B0003A2025646D760D0A00000000566F6C74B5
:1009C000616765323A2025646D760D0A00000000EB
:1009D000566F6C74616765333A2025646D760D0A35
:1009E00000000000566F6C74616765343A2025641E
:1009F0006D760D0A0000000028000020260000206F
:100A00001C000020566F6C746167652056616C7520
:100A100065733A0056313A2025646D560000000097
:100A200056323A2025646D560000000056333A20B5
:100A300025646D560000000056343A2025646D563A
:100A4000000000008000A0F1C040002904D001682F
:100A500041F00101016070470168024A11400160E4
:100A600070470000FEFF0F0070B501688900A1F11A
:100A7000C0410B68344A1340D0E901242243D0E935
:100A800003452C4322434469224384692243C469B9
:100A90002243046A2243446A2243846A2243C46A8A
:100AA0002243046B22431A430A608168082907D154
:100AB00001688900A1F1C0410A6842F040020A6061
:100AC0000168491C8A00A2F1C042116801F040444B
:100AD000416BD1E9003543EA05138D688E892D02FB
:100AE00045EA06452B430D8A43EA05530D7D896986
:100AF00043EA05630B4323431360C16AB1F5804F9A
:100B000008D000686FF070418000A0F1C040C0F8CC
:100B1000041170BD01688900A1F1C041D1F8042120
:100B20000A4B1A40806BD0E9003443EA041384680E
:100B30008589240244EA054480692343034313431F
:100B4000C1F8043170BD00008000F7FF0000F0CF55
:100B50002DE9F041002201274FF0030C07FA02F5BE
:100B60000B682B40AB422CD1066853000CFA03F4FF
:100B7000A64306600E79D0F800809E4046EA08063B
:100B800006600E79012E01D0022E12D18668A6438E
:100B900086604E79D0F808809E4046EA0806866056
:100BA0004668AE43466045688E799640B6B2354396
:100BB0004560C568A543C560CC799C40C3681C43AB
:100BC000C460521C102AC9D3BDE8F08110B54B0790
:100BD000DB0E9A40C90800EB8100016A0F249C409B
:100BE000A1430162016A1143016210BD0246002067
:100BF00012690A4200D00120704741837047018387
:100C00007047FEE7054A4FF40071002802D01046F5
:100C1000FFF7F3BF1046FFF7F2BF000000140240D9
:100C200070B514461D462B46224600F013FA0449BF
:100C300004FB05F04989BDE8704000F09FB8000052
:100C40002400002001B502E00098401E00900098AA
:100C50000028F9D108BD00002DE9F043203A97B2F1
:100C6000184EF568AA88EB8802FB03F44FEAE47C8F
:100C700004EB5C74C4F3C7042D6807FB045500F053
:100C8000E9F92C204FF0D04CACF80000002115E021
:100C9000002033897289802715F8018027FA00F92E
:100CA00018EA090F02D0ACF8023001E0ACF80220DB
:100CB000401CC0B20828EFD3491CC9B2A142E7D3F7
:100CC000BDE8F08324000020F0B505460E46002460
:100CD0000F4F19E0F8687B8881882144994203D935
:100CE0000024C18829448DB2C088B988284488422C
:100CF00001D90024002529462046FFF7ADFF761CC8
:100D0000F8688088204484B23278002AE2D1F0BDAD
:100D10002400002000B597B03C2108A8FFF759FA3D
:100D20001C2101A8FFF755FA0121084600F032FC0A
:100D3000042101910F200390880607900020029063
:100D40000490059006900891099008210A911021BD
:100D50000B910C900E900F9010900902119112902F
:100D60001390149001A81590169008A8FFF77CFE28
:100D700001210420FFF766FE17B000BD10B5002268
:100D80002C244FF0D0431C8001E05980521C824239
:100D9000FBD310BD2DE9FC5F0121782000F0ECFBB6
:100DA00002248DF804408DF805404FF48049CDF8B9
:100DB000009069467848FFF7CBFE0C220E2176485A
:100DC000FFF704FF4FF4004ACDF800A069467248CF
:100DD000FFF7BEFE0C220F216F48FFF7F7FE01253B
:100DE000009569466C48FFF7B3FE0C2200216A4863
:100DF000FFF7ECFE009469466748FFF7A9FE0C2256
:100E000001216548FFF7E2FE8020009069466348B3
:100E1000FFF79EFE0C2207216048FFF7D7FE4FF434
:100E2000807BCDF800B069465C48FFF791FE0C224C
:100E300008215A48FFF7CAFE26020096694657481D
:100E4000FFF786FE0C2209215448FFF7BFFE670218
:100E5000009769465148FFF77BFE0C220A214F4854
:100E6000FFF7B4FE4FF40068CDF8008069464B48A8
:100E7000FFF76EFE0C220B214848FFF7A7FEE002A9
:100E8000009069464548FFF763FE0C22114643482F
:100E9000FFF79CFE2003009069464048FFF758FE8C
:100EA0000C220D213D48FFF791FECDF800906946D8
:100EB0003A48FFF74DFE0C220E213848FFF786FE18
:100EC000CDF800A069463548FFF742FE0C220F21FD
:100ED0003248FFF77BFECDF800B069462E48FFF799
:100EE00037FE0C2208212C48FFF770FE0096694659
:100EF0002948FFF72DFE0C2209212748FFF766FE3F
:100F0000009769462448FFF723FE0C220A21224855
:100F1000FFF75CFE1020009069461F48FFF718FE9F
:100F20000C2204211C48FFF751FE20200090694646
:100F30001948FFF70DFE0C2205211748FFF746FE62
:100F40000097174F69463846FFF702FE0C220A2128
:100F50003846FFF73BFE0095124F69463846FFF7CB
:100F6000F7FD0C2200213846FFF730FE8DF80450C3
:100F700000208DF806008DF807508DF80540CDF85B
:100F8000008069463846FFF7E3FD0096694638461B
:100F9000FFF7DEFDBDE8FC9F000C024000100240A0
:100FA000001802400014024010B507283BD81E4B21
:100FB0001870C4074FF0F0014FF4A07214D05A809B
:100FC000998036224FF0D0410A80DA88A2F5134486
:100FD000413C04D0A2F50544523C08D009E0082267
:100FE00042EA4010488004E059809A80E9E74001D5
:100FF00048802A2008800020488048805888401E69
:10100000C0F307224A80C0B248802B20088000200D
:10101000488048809888401EC0F307224A80C0B2AA
:1010200048802C20088010BD2400002010B5FFF758
:10103000B1FEFFF76FFE0120FFF7E4FD00F0C0F9FD
:1010400000F024F802480078BDE81040FFF7ACBF7C
:101050002400002030B52A254FF0D0442580050A11
:101060006580C5B265801044401E020A6280C0B22D
:1010700060802B202080080A6080C8B26080C81879
:10108000401E010A6180C0B2608030BD10B500F022
:101090006BF9B349C880B349A0F513424FF0D0446F
:1010A000413A7DD0A0F50542523A7AD1CF20208036
:1010B00000206080C120608030206080ED20208092
:1010C0006420608003206080122060808120608026
:1010D000E82020808520608010206080782060805B
:1010E000CB202080392060802C2060800020608010
:1010F0003420608002206080F720208020206080E3
:10110000EA202080002060806080C0202080212094
:101110006080C120208011206080C52020802D208B
:1011200060803320608036202080002060803A205C
:10113000208055206080B120208000206080172012
:101140006080B62020800A206080A2206080F62087
:1011500020800120608030206080F22020800020EC
:1011600060802620208001206080E0202080D02028
:1011700060800020608002206080072060800B205B
:1011800060801A2060803120608054206080402080
:10119000608029206080122060806080608001E093
:1011A0002AE028E017206080E1202080D0206080A5
:1011B0000020608002206080072060800520608021
:1011C000252060802D206080442060804520608044
:1011D0001C20608018206080162060801C206080A9
:1011E0001D206080112020800846FFF72BFD29205C
:1011F00020802C20208010BDCF2020800020608007
:101200008120608030206080ED202080642060801C
:10121000032060801220608081206080E820208090
:10122000852060801020608078206080CB20208026
:10123000392060802C206080002060803420608015
:1012400002206080F720208020206080EA2020801B
:10125000002060806080B1202080002060801B2002
:101260006080B62020800A206080A2206080C0209C
:10127000208035206080C120208011206080C52022
:101280002080452060806080C7202080A220608070
:10129000F2202080002060802620208001206080B5
:1012A000E02020800F206080262060802420608045
:1012B0000B2060800E2060800920608054206080B8
:1012C000A8206080462060800C206080172060800D
:1012D000092060800F2060800720608000206080EF
:1012E000E120208000206080192060801B20608029
:1012F0000420608010206080072060802A206080A9
:101300004720608039206080032060800620608054
:10131000608030206080382060800F206080362020
:101320002080C82060802A2020800020608060808B
:101330006080EF2060802B20208000206080608013
:10134000012060803F2060803A202080552060800E
:10135000112020800846FFF775FC2920208010BD51
:1013600024000020FCBF020010B504204FF0D04143
:1013700008804888488848884FF6FF7303EA0022AF
:1013800048881043A0F50542523A0FD0D320088078
:1013900048884888488803EA00204C88044321464E
:1013A00004A000F0A1FA14B149F2413010BD0020B0
:1013B00010BD00006964203D202534780D0A00002E
:1013C00070B50A4D4FF4006421462846FFF715FC1E
:1013D00040F6FF263046FFF735FC21462846FFF74A
:1013E0000EFC3046BDE87040FFF72CBC00140240F4
:1013F0001CB50121052000F0BFF80120009000205D
:101400008DF804008DF8070069460548FFF7A0FB3A
:101410004FF40050009069460248FFF799FB1CBD4D
:10142000000002400008024070B504460D462946FF
:101430002046FFF7DBFB012801D0002070BD2946C4
:101440002046FFF7D3FB0128F9D0012070BD000032
:101450000148C0687047000024000020014A108144
:1014600051817047240000200149C8607047000086
:10147000240000202DE9FC410121202000F07CF80F
:101480004024009401208DF8040000218DF80610FE
:101490008DF807008DF805100B4F69463846FFF7A9
:1014A00057FB8026009669463846FFF751FBA5009A
:1014B000009569463846FFF74BFB03481830048017
:1014C00006800580BDE8FC8100140240FEE77047FD
:1014D00008B54FF4A06000F043F825208DF8000017
:1014E00001208DF801008DF802008DF80300684698
:1014F00000F002F808BD000030B50F23C2780125C6
:101500000178002A1FD0154A126802F4E062C2F581
:10151000E062C2F30722C2F10404D3404278A24041
:1015200084781C401443220101F1E02181F8002459
:10153000007800F01F018D404009800000F1E0209C
:10154000C0F8005130BD01F01F00854048098000FF
:1015500000F1E020C0F8805130BD00000CED00E04B
:101560000249084302490860704700000000FA057C
:101570000CED00E070470000054A002903D0116817
:10158000014311607047116881431160704700008A
:1015900030380240054A002903D011680143116028
:1015A000704711688143116070470000383802406D
:1015B000054A002903D01168014311607047116882
:1015C000814311607047000040380240054A0029FD
:1015D00003D01168014311607047116881431160A5
:1015E0007047000020380240054A002903D01168E6
:1015F000014311607047116881431160704700001A
:101600004438024070B5244B196801F00C01234C9A
:1016100000291ED0224E04291DD008291DD00460A7
:10162000196801F0F00109091E4A545C0168E140A3
:1016300041601C6804F4E054A40A145D21FA04F427
:1016400084601B6803F460435B0BD25CD140C160D3
:1016500070BD0460E4E70660E2E70F4A121F1168FC
:10166000C1F38055116801F03F0135B1B6FBF1F1CE
:101670001468C4F38814614305E0B4FBF1F1146805
:10168000C4F3881461431268C2F30142521C520031
:10169000B1FBF2F10160C3E7083802400024F40016
:1016A00040787D0100000020704700000CB500224A
:1016B000019200922749086840F4803008604FF496
:1016C000A043086800F4003000900198401C01908D
:1016D000009810B901989842F3D10868800302D5A8
:1016E0000120009000E000920098012831D11948B3
:1016F0004030026842F0805202601748026842F4AB
:10170000404202601348083002680260026842F4F6
:1017100000420260026842F4A0520260021F0F4BB6
:1017200013600A6842F080720A600A689201FCD570
:101730000B4A40F205711160016821F0030101605C
:10174000016841F0020101600168C1F381010229D1
:10175000FAD10CBD00380240007000401954400717
:10176000003C02407047000010B51248016841F487
:10177000700101601048016841F0010101600E4AEA
:1017800000210832116002680C4B1A400260031DF0
:101790000B4A1A60026822F48022026006480C306C
:1017A0000160FFF783FF03494FF000608039086054
:1017B00010BD000088ED00E000380240FFFFF6FE9B
:1017C00010300024002904D0818941F40051818126
:1017D0007047818921F400518181704702460020C1
:1017E00012880A4200D00120704710B540F66A13F3
:1017F000C1F3421301F01F040121A140012B07D0C6
:10180000022B07D014303AB102680A43026010BDBF
:101810000C30F8E71030F6E702688A43026010BD2A
:101820007FB504460D46208A20F44051E8880843DD
:101830002082A08941F20C618843A9882A8911433A
:101840006A8902431143A181A08A20F44071A889CA
:101850000843A0826846FFF7D5FE1E48844202D0A6
:101860001D48844201D1039800E00298A18909042F
:1018700008D500EBC00101EB001029684900B0FB5E
:10188000F1F007E000EBC00101EB001029688900CE
:10189000B0FBF1F06422B0FBF2F109010B096FF02B
:1018A00018056B4300EB8300A3891D044FF032033E
:1018B00007D503EBC000B0FBF2F000F007000843CF
:1018C00006E003EB0010B0FBF2F000F00F0008435D
:1018D00020817FBD0010014000140140C1F30801C8
:1018E00081807047FEE700000FB4054B10B503A9D7
:1018F000044A029800F032F810BC5DF814FB0000B6
:10190000C91D0008340000200FB47CB50C0009ADDF
:1019100001D0611E00E00021CDE90001064B6A46BE
:101920002946089800F01AF8002C02D0009A0021ED
:1019300011707CBC5DF814FBB31D000802E008C800
:10194000121F08C1002AFAD170477047002001E039
:1019500001C1121F002AFBD1704700002DE9FF4F83
:101960008DB00F460546002606E025280BD0DDE9A0
:101970000F1290476D1C761C28780028F5D111B005
:101980003046BDE8F08F0024A246A1460122E94975
:1019900000E0044315F8013F203B02FA03F008423F
:1019A000F7D128782A2810D06FF02F022878A0F1DC
:1019B0003001092914D80AEB8A0102EB410144F0F5
:1019C000020400EB010A6D1CF0E701CF5FEA000A98
:1019D00003D544F40054CAF1000A44F002046D1C1B
:1019E00028782E2817D115F8010F44F004042A286E
:1019F0000ED06FF02F022878A0F1300109290AD803
:101A000009EB890102EB410100EB01096D1CF2E7D2
:101A100057F8049B6D1C28786C280FD006DC4C28E6
:101A200017D068280DD06A2814D104E0742810D08B
:101A30007A280FD10DE044F400140AE044F4801435
:101A400001E044F440146978814202D104F5801425
:101A50006D1C6D1C28786E281ED00CDC632830D0DD
:101A600004DC00288BD0582811D19FE0642867D06F
:101A700069280CD164E073282DD004DC6F2872D063
:101A8000702804D194E075286ED078286DD0DDE9F7
:101A90000F129047761C4BE1C4F30250022806D087
:101AA000032809D0042801CF09D0066040E101CF06
:101AB000F117C0E900613BE101CF068038E1067013
:101AC00036E117F8040B8DF8000000208DF80100B6
:101AD000EB46012003E057F804BB4FF0FF306107ED
:101AE0004FF0000102D40DE008F10101884649459C
:101AF0000FDA8045F8DB1BF808100029F4D108E064
:101B000008F1010188468142FADB1BF80810002920
:101B1000F6D1DDE90F23AAEB08008146214600F04B
:101B200031F9304400EB080604E0DDE90F121BF840
:101B3000010B9047B8F10108F7D221464846F2E080
:101B40000A21C4F302524FF0000B0891022A04D07C
:101B500001CFC117032A09D00AE0FF1D27F00707AC
:101B6000F7E8020108E02CE01EE01FE000B2C11718
:101B7000042A01D140B2C117021E71F1000206DA37
:101B80000023D0EB030063EB01012D2202E02205CC
:101B900004D52B228DF82420012203E0E20701D096
:101BA0002022F7E7904653E00A210BE0102109E0DC
:101BB00010214FF0000B44F004044FF00809089185
:101BC00003E008214FF0000B0891C4F30252022AEF
:101BD00004D001CF0021032A06D006E0FF1D27F024
:101BE0000707F7E8020103E080B2042A00D1C0B27F
:101BF0004FF0000822072BD52A78702A07D0DDF88D
:101C000020C08CF0100C5CEA0B0C05D00EE04022DA
:101C10008DF82420012208E050EA010306D0302389
:101C20008DF824308DF8252002229046089B83F001
:101C3000080353EA0B030BD150EA010201D16207FA
:101C400006D530228DF824204FF00108A9F10109B2
:101C50002A78582A04D038A20B9208AA0A920BE0DC
:101C60003AA2F9E75B46089AFEF7BEFA0B9B9B5C2B
:101C70000A9A521E0A92137050EA0102F2D10A988F
:101C8000ADEB000000F1200B600702D524F4803496
:101C900001E04FF00109D94502DDA9EB0B0000E09E
:101CA000002000EB0B0141440890AAEB010AE0037D
:101CB00006D4DDE90F232146504600F063F80644C0
:101CC0004FF0000908E009A911F80900DDE90F1239
:101CD000904709F10109761CC145F4DBE0030CD5FE
:101CE000DDE90F232146504600F04CF8064404E09D
:101CF000DDE90F1230209047761C0899481E0890A5
:101D00000029F5DC08E00A980A990078491C0A9134
:101D1000DDE90F129047761CBBF10001ABF1010B1E
:101D2000F1DC21465046DDE90F2300F019F80644A6
:101D30006D1C21E609280100303132333435363745
:101D40003839616263646566000000003031323307
:101D500034353637383941424344454600000000A7
:101D60002DE9F041044600251E461746880404D498
:101D700005E039462020B0476D1C641EF9D5284681
:101D8000BDE8F0812DE9F041044600251E4690464D
:101D9000C80301D5302700E02027880404D505E0DA
:101DA00041463846B0476D1C641EF9D52846BDE84B
:101DB000F0814A68002A06D00A68531C0B60107034
:101DC0004868401E4860704770B50446064DE1B251
:101DD0002846FFF783FD80212846FFF7FFFC0028F7
:101DE000F9D0204670BD000000100140FFF742FB13
:101DF000FEF7FCFCFFF71AF9FFF7FAFAFEF778FA9C
:101E000049A0FFF771FD51A0FFF76EFD5E48FFF797
:101E10006BFD5E48FFF768FD5DA0FFF765FD0620DE
:101E2000FFF7C2F8694C8025A615DFF8A491A71C1E
:101E30004FF00A0B01216748FFF7F6FA012842D15B
:101E40004FF04008A4F8008025803E8060481F388D
:101E5000FEF744FC5E4960481F39FEF76BFC42F216
:101E60001070FEF717FDA4F800803D8026805BA06F
:101E7000FFF73AFD60A0FFF737FD55481F3841686E
:101E800063A0FFF731FDDFF848A1AAF1140A67A0AB
:101E9000FFF72AFD4FF000086AA01AF80810FFF7B4
:101EA00023FD08F1010090FBFBF10BFB110010B9C1
:101EB00050A0FFF719FD08F10108B8F1080FEBDB9E
:101EC0004CA0FFF711FDDFF884A1DAF8000001282B
:101ED000B0D1402020803D8026805DA0FFF704FD2A
:101EE00052A0FFF701FD4FF0000856A019F80810A6
:101EF000FFF7FAFC08F1010090FBFBF10BFB11006E
:101F000010B93CA0FFF7F0FC08F10108B8F1080F88
:101F1000EBDB38A0FFF7E8FC4846FEF7C5FC0020E5
:101F2000CAF8000086E700000D0A20312ECAB9D396
:101F3000C3B5BCCFDFC1ACBDD3BAC3C1BDB8F643D6
:101F4000414ED1B6C9E8B1B80D0A00000D0A2032E1
:101F50002ECAB9D3C3CCF8CFDFC3B1C1ACBDD3BA9D
:101F6000C33A20463430375632B5D7B0E5A3BA333A
:101F70005633203C2D2D2D3E2043414E2F343835F5
:101F80005F335633200D0A002438000874380008E7
:101F90000D0A20352EB1BEC0FDD6D0B5C463616E2A
:101FA000B2A8CCD8C2CACEAA314D427073A3ACCE6F
:101FB000AA73746D3332B5C463616ED7EEB8DFCBEC
:101FC000D9C2CAA1A3200D0A0000000018140240C3
:101FD0005700002000000240006800400D0AD2D1E6
:101FE000CAB9D3C343414EB7A2CBCDCAFDBEDDB003
:101FF000FCA3A10D0A0000000D0AB7A2CBCDB5C409
:10200000B1A8CEC4C4DAC8DDCEAAA3BA0D0A0000B6
:102010000D0A20C0A9D5B94944BAC54578744964A8
:10202000A3BA30782578200D0A0000003C3C2D43EF
:10203000414E2D44454255472D41525241592D3E66
:102040003E0A0000253032782020200010000020B9
:102050000D0A43414EBDD3CAD5B5BDCAFDBEDDA3F1
:10206000BA0D0A000000000000000000000000009F
:1020700000000000000000181818181818080008C0
:102080001800000000000034242424000000000098
:10209000000000000000000016247F2424247E2479
:1020A00024000000000000083E6848681C16121258
:1020B0007C10100000000061D296740810162949A7
:1020C000C6000000000000003C646438724ACE463E
:1020D0007F00000000000018181818000000000021
:1020E00000000000000000040818103030303010EC
:1020F00010180C04000000201008080C0404040C44
:1021000008181020000000080A341C6A08000000AB
:10211000000000000000000000001818187F1818C8
:10212000180000000000000000000000000000187F
:10213000180830000000000000000000003C000013
:102140000000000000000000000000000000001877
:10215000180000000000000206040C0808101020FF
:1021600020400000000000003C6642475B7342666E
:102170003C00000000000000187848080808080823
:102180007E000000000000003C4606060408102007
:102190007E000000000000007C0606043C020206EF
:1021A0007C000000000000000C1C14246444FF04A8
:1021B00004000000000000007E6060607E020206F5
:1021C0007C000000000000001E3060487642426241
:1021D0003C000000000000007E0206040C081810FD
:1021E00030000000000000003C6242361C664242A3
:1021F0003C000000000000003C664242661A0204F7
:10220000780000000000000000001818000000180E
:10221000180000000000000000001818000000185E
:102220001808300000000000000004183060100C96
:102230000600000000000000000000007E007E009C
:1022400000000000000000000000301804060C1020
:1022500020000000000000301C06060618100010C8
:10226000100000000000001C224141DDB5A5A5AF13
:1022700094C0403C00000000181C342426627E43B9
:10228000C1000000000000007C4642467C42424201
:102290007C000000000000001E20404040404060E4
:1022A0003E000000000000007C464243434342469B
:1022B00078000000000000007E6060607E6060606A
:1022C0007E000000000000007E6060607E60606054
:1022D00060000000000000001E604040CE424262EC
:1022E0003E00000000000000424242427E42424264
:1022F00042000000000000007E1818181818181876
:102300007E000000000000007C0404040404044477
:1023100078000000000000004244485070584C44CF
:10232000420000000000000020202020202020206B
:102330003E000000000000006266675F5B5BC1C199
:10234000C100000000000000626272525A4A4E460C
:1023500046000000000000003C6243C3C3C3436268
:102360003C000000000000007C46424246784040AD
:1023700040000000000000003C6243C3C3C343624E
:102380003C180F00000000007C6662667C6C64668E
:1023900062000000000000003E6040601C06020277
:1023A0007C000000000000007F181818181818188A
:1023B00018000000000000004242424242424262D5
:1023C0003C00000000000000C14342622624341C8F
:1023D0001800000000000000C1C141495B5B766647
:1023E000660000000000000043663418181C2466D4
:1023F000C300000000000000C14266341C18181819
:1024000018000000000000007E02040C181020607C
:102410007E0000000000001C1010101010101010A2
:102420001010101C000000402020101008080C04A0
:10243000060200000000003C0C0C0C0C0C0C0C0CF8
:102440000C0C0C3C00000000181C24620000000072
:10245000000000000000000000000000000000007C
:10246000000000FF0000002010000000000000003D
:10247000000000000000000000003C06023E424652
:102480007A0000000000004040405C62424242424C
:102490007C0000000000000000001E206040602062
:1024A0003E0000000000000202023E62424242661C
:1024B0003A0000000000000000003C62427E4060E4
:1024C0003E0000000000000F1810107E10101010C9
:1024D000100000000000000000003F664266584007
:1024E0003E43423C0000004040405C624242424267
:1024F00042000000000000181800780808080808CA
:102500007E000000000000040C007C0404040404AD
:1025100004040C78000000606060626C787068648D
:102520006200000000000078080808080808080891
:102530007E000000000000000000764B4B4B4B4B30
:102540004B0000000000000000005C62424242427A
:10255000420000000000000000003C624243426272
:102560003C0000000000000000005C624242424269
:102570007C4040400000000000003E624242426653
:102580003A0202020000000000006E7263606060A8
:10259000600000000000000000003E20203C060219
:1025A0007C000000000000001010FE101010101041
:1025B0001E0000000000000000004242424242664D
:1025C0003A00000000000000000043426624341876
:1025D00018000000000000000000C1C15B5A5E66E8
:1025E0006600000000000000000062261C181C2687
:1025F0006200000000000000000043426624341C1A
:10260000181830E00000000000007E060C181020B2
:102610007E0000000000000E181010103070101026
:102620001010180E00000808080808080808080814
:102630000808080800000030180808080C0E0808F0
:10264000080818300000000000000000714B060070
:10265000000000000000000000000000000000007A
:10266000000000000000000000000000000000006A
:10267000000000000000000000000000000000005A
:1026800000000000000000000000000000000380C7
:102690000180018001800180018001800180018032
:1026A00001800000000003C003C000000000000023
:1026B00000000000000000000000000000000E709C
:1026C0000E700E700C3000000000000000000000D2
:1026D00000000000000000000000000000000000FA
:1026E00000000000000000000000000000000000EA
:1026F0000618063806307FFE0C300C300C300C30DB
:102700007FFE0C601C601860186000000000000074
:1027100000000000000000000000000000C000C039
:102720000FF83CC831C031803D801F8003F001F8B4
:10273000031C030C031C3FF83FE0070006000000E9
:102740000000000000000000000000001C007E0EE1
:10275000630C631863307E6000C001800300077C57
:102760000EE61CC618C630C6607C000000000000E3
:1027700000000000000000000000000000000FE06A
:102780001CF0387038701C601FC00F003F8C71CC7B
:1027900060EC607C70383CFC1FCE00000000000044
:1027A000000000000000000000000000000003C066
:1027B0000180018001800000000000000000000096
:1027C0000000000000000000000000000000000009
:1027D000000000000000000000000000003000E0E9
:1027E00001C0018003000700060006000E000E0075
:1027F0000E000E00060007000300038001C000E089
:102800000030000000000000000000000C00060086
:102810000380018001C000E0006000600070007073
:1028200000700060006000E000C0018003800600CE
:102830000C0000000000000000000000000001800B
:1028400011881DB803C007E03DBC0188018000006D
:102850000000000000000000000000000000000078
:102860000000000000000000000000000000000068
:1028700000000000018001800180018001807FFE56
:102880000180018001800180000000000000000044
:102890000000000000000000000000000000000038
:1028A0000000000000000000000000000000000028
:1028B0000000000003C003C001C001C003801F006E
:1028C0000000000000000000000000000000000008
:1028D00000000000000000000000000000000FF0F9
:1028E00000000000000000000000000000000000E8
:1028F00000000000000000000000000000000000D8
:1029000000000000000000000000000000000000C7
:102910000000000003C003C003C00000000000006E
:10292000000000000000000000000000000000188F
:1029300000380030006000E000C001C001800300EA
:10294000030006000E000C001C0018003000000000
:1029500000000000000000000000000000000180F6
:102960000FF01C38381C301C707E70EE738E7E0E9B
:102970007C0C300C381C1E780FE0000000000000BA
:102980000000000000000000000000000000000047
:1029900007C01FC039C001C001C001C001C001C0D3
:1029A00001C001C001C03FFC3FFC0000000000006E
:1029B0000000000000000000000000000000038094
:1029C0001FF018380038001800380038007001E097
:1029D000038007001C003FFC3FFC000000000000DB
:1029E0000000000000000000000000000000078060
:1029F0001FF0003800380038003007E007F00038DA
:102A0000001C001C001820F83FE00000000000003F
:102A100000000000000000000000000000000000B6
:102A200000F001B0033007300E301C303830703009
:102A30007FFE7FFE0030003000300000000000000C
:102A40000000000000000000000000000000000086
:102A50001FF818001800180018001FE000F8001CEC
:102A6000001C001C003800F01FC000000000000027
:102A70000000000000000000000000000000000056
:102A800003F80F001C001800300037F83C3C300CF5
:102A9000300C380C381C1E380FF00000000000000D
:102AA0000000000000000000000000000000000026
:102AB0003FFC001C001800380070006000E001C0FE
:102AC00001800380070006000E00000000000000E7
:102AD000000000000000000000000000000003C033
:102AE0001FF8381C381C381C1C380FF007F01C78F5
:102AF000381C300C381C3C380FF00000000000007F
:102B00000000000000000000000000000000038042
:102B10001FF03838301C701C700C380C1FFC0FCCA8
:102B2000001C001800701FE01F8000000000000063
:102B30000000000000000000000000000000000095
:102B400000000000000003C003C00180000000007E
:102B50000000000003C003C003C00000000000002C
:102B60000000000000000000000000000000000065
:102B700000000000000003C003C00180000000004E
:102B80000000000003C003C001C001C003800F00AB
:102B90000000000000000000000000000000000035
:102BA00000000000003800F001C007001E003800DF
:102BB0000E00078001C0007000300000000000001F
:102BC0000000000000000000000000000000000005
:102BD000000000000000000000003FFC00000000BA
:102BE0003FFC3FFC0000000000000000000000006F
:102BF00000000000000000000000000000000000D5
:102C0000000000001C000F00038001E00078001CA1
:102C1000007001E003800E000C00000000000000C6
:102C200000000000000000000000000000000FC0D5
:102C300000F0003800380038003803F0038003004B
:102C40000300000000000780078000000000000073
:102C500000000000000000000000000000E007F895
:102C60000C0C18063006700363F36633C673CC632E
:102C7000CC62CC66CCE6C7FCE00060007000381087
:102C80001FF0000000000000000000000000000035
:102C900003C007E006E00E700E700C301C381818E8
:102CA0003FFC3FFC700E600EE007000000000000DB
:102CB0000000000000000000000000000000000014
:102CC0003FF03838381C381C38383FF03FF8381C93
:102CD000380C380C381C3FF83FE0000000000000C2
:102CE000000000000000000000000000000000E004
:102CF00007FC1E04380038003000700070007000BF
:102D0000300038003C001F9C07FC00000000000061
:102D100000000000000000000000000000000000B3
:102D20003FF03078301C300C300E300E300E300E4C
:102D3000300E301C30383FF03FC000000000000073
:102D40000000000000000000000000000000000083
:102D50001FF818001800180018001FF81FF81800B6
:102D60001800180018001FF81FF8000000000000ED
:102D70000000000000000000000000000000000053
:102D80001FF818001800180018001FF81FF8180086
:102D900018001800180018001800000000000000BB
:102DA000000000000000000000000000000000F033
:102DB00007FC1E04380030007000700070FC700CBE
:102DC000700C300C380C1F1C07FC000000000000C9
:102DD00000000000000000000000000000000000F3
:102DE000300C300C300C300C300C3FFC3FFC300C05
:102DF000300C300C300C300C300C000000000000A7
:102E000000000000000000000000000000000000C2
:102E10003FFC0180018001800180018001800180F0
:102E20000180018001803FFC3FFC000000000000A9
:102E30000000000000000000000000000000000092
:102E40001FF0003000300030003000300030003023
:102E50000030003000701DE01FC0000000000000C6
:102E60000000000000000000000000000000000062
:102E7000381C387038E039C03B803F003F003B8051
:102E800039C038E038703838381C000000000000C5
:102E90000000000000000000000000000000000032
:102EA0001C001C001C001C001C001C001C001C0042
:102EB0001C001C001C001FFC1FFC00000000000088
:102EC0000000000000000000000000000000000002
:102ED000381C7C3C6C3E6E6E666E66CE63C6638646
:102EE0006186600660066006600600000000000063
:102EF00000000000000000000000000000000000D2
:102F00003C0C3C0C3E0C360C330C338C318C31CCED
:102F100030EC306C307C303C301C00000000000095
:102F2000000000000000000000000000000001C0E0
:102F30000FF81C3C381C700E700E60066006700E98
:102F4000700E700C381C1E780FE0000000000000AE
:102F50000000000000000000000000000000000071
:102F60003FF0383C381C380C380C381C38783FE0BF
:102F70003800380038003800380000000000000039
:102F8000000000000000000000000000000001C080
:102F90000FF81C3C381C700E700E60066006700E38
:102FA000700E700C381C1E780FE0018001C000FF0D
:102FB000003C0000000000000000000000000000D5
:102FC0003FF0383838183818383838F03FC038E013
:102FD000387038383838381C380E000000000000CF
:102FE000000000000000000000000000000001E000
:102FF0000FF83800380038003C001F8003F00078DC
:10300000001C001C001C38783FE00000000000009D
:1030100000000000000000000000000000000000B0
:103020007FFE01800180018001800180018001809C
:10303000018001800180018001800000000000000B
:103040000000000000000000000000000000000080
:10305000300C300C300C300C300C300C300C300C90
:10306000300C300C381C1C380FF000000000000041
:103070000000000000000000000000000000000050
:10308000E006700E700E381C381C1C181C380C30F2
:103090000E70066007E003C003C0000000000000DF
:1030A0000000000000000000000000000000000020
:1030B00060066006600660066186638673C673CE2E
:1030C000766C366C3C3C3C3C381C00000000000038
:1030D00000000000000000000000000000000000F0
:1030E000301C38181C380E7007E003C003C007E01E
:1030F0000E701C381838381C700E000000000000DC
:1031000000000000000000000000000000000000BF
:10311000700E700C381C1C380E70066007E003C07F
:10312000018001800180018001800000000000001A
:10313000000000000000000000000000000000008F
:103140003FFC001C0038007000E001C00380070055
:103150000E000C0018003FFC3FFC000000000000C7
:1031600000000000000000000000000007F007F071
:10317000060006000600060006000600060006001F
:10318000060006000600060006000600060006000F
:1031900007F0000000000000000000000000180020
:1031A0001C000C000600070003000380018001C022
:1031B00000C000600070003000380018000C0000F3
:1031C0000000000000000000000000000FE00FE021
:1031D00000600060006000600060006000600060EF
:1031E00000600060006000600060006000600060DF
:1031F0000FE00000000000000000000000000000E0
:1032000003C006C006600C301818301C0000000017
:1032100000000000000000000000000000000000AE
:10322000000000000000000000000000000000009E
:10323000000000000000000000000000000000008E
:10324000000000000000000000000000000000007E
:10325000FFFF0000000000000000000000001E0052
:1032600003800000000000000000000000000000DB
:10327000000000000000000000000000000000004E
:10328000000000000000000000000000000000003E
:103290000000000000001FF01038001C001C0FFC94
:1032A0001C1C381C381C3CFC1FDC0000000000000B
:1032B00000000000000000000000000000003800D6
:1032C0003800380038003BF83E1C3C1C380C380CE9
:1032D000380C380C381C3C781FE00000000000005F
:1032E00000000000000000000000000000000000DE
:1032F00000000000000007F80E001C003800380035
:10330000380038001C000F1807F80000000000000B
:103310000000000000000000000000000000001C91
:10332000001C001C001C0FFC1C1C381C301C301C1A
:10333000301C301C383C1CFC0F9C000000000000BE
:10334000000000000000000000000000000000007D
:103350000000000000000FF01C38381C300C3FFC4F
:103360003000300038001E0C07FC00000000000098
:10337000000000000000000000000000003C01FE12
:1033800003800300030003007FFC7FFC03000300B5
:10339000030003000300030003000000000000001E
:1033A000000000000000000000000000000000001D
:1033B0000000000000000FFE1C38381838181838BC
:1033C0001FF03B8030003FF01FFC300E700E381CA9
:1033D0001FF800000000000000000000000038009E
:1033E0003800380038003BF83E383C1C381C381C8C
:1033F000381C381C381C381C381C00000000000029
:10340000000000000000000000000000018003C078
:1034100003C0000000001FC001C001C001C001C006
:1034200001C001C001C001C03FFC0000000000005D
:1034300000000000000000000000000000200070FC
:103440000070000000003FF000700070007000701D
:10345000007000700070007000700070007020E05C
:103460003FC0000000000000000000000000180045
:10347000180018001800183C187018E01B801F0076
:103480001B8019E018701838181C0000000000009C
:1034900000000000000000000000000000001FC04D
:1034A00001C001C001C001C001C001C001C001C014
:1034B00001C001C001C001C03FFC000000000000CD
:1034C00000000000000000000000000000000000FC
:1034D0000000000000006F3C79EE71CE718E718E9D
:1034E000718E718E718E718E718E000000000000E1
:1034F00000000000000000000000000000000000CC
:103500000000000000003BF83E383C1C381C381C12
:10351000381C381C381C381C381C00000000000007
:10352000000000000000000000000000000000009B
:103530000000000000000FF01C3C381C700E700EE4
:10354000700E700C381C1E780FE0000000000000A8
:10355000000000000000000000000000000000006B
:103560000000000000003BF83E1C3C1C380C380CEE
:10357000380C380C381C3C783FE0380038003800F4
:103580003800000000000000000000000000000003
:103590000000000000000FFC1C1C381C301C301CFC
:1035A000301C301C383C1CFC0F9C001C001C001CF8
:1035B000001C0000000000000000000000000000EF
:1035C00000000000000019F81F1C1C0C180E180049
:1035D0001800180018001800180000000000000073
:1035E00000000000000000000000000000000000DB
:1035F0000000000000000FF81C0018001E000FC0A3
:1036000001F80018001818381FF000000000000032
:1036100000000000000000000000000000000000AA
:103620000600060006007FFC0600060006000600F5
:10363000060006000700078401FC000000000000EF
:10364000000000000000000000000000000000007A
:10365000000000000000381C381C381C381C381CC6
:10366000381C381C383C1CFC0FDC0000000000003B
:10367000000000000000000000000000000000004A
:10368000000000000000700C381C38181C380C308A
:103690000E70066007E003C003C0000000000000D9
:1036A000000000000000000000000000000000001A
:1036B000000000000000600660066186738E73CC17
:1036C00033CC366C366C3C3C3C38000000000000CB
:1036D00000000000000000000000000000000000EA
:1036E000000000000000381C1C380E7007E003C00A
:1036F00003C007E00E701C38381E000000000000F8
:1037000000000000000000000000000000000000B9
:10371000000000000000700C381C38181C380C30F9
:103720000E70066007E003C003C0038007000E00B0
:103730007C0000000000000000000000000000000D
:103740000000000000001FF80038007000E001C019
:10375000038007000C001FFC3FFC0000000000007D
:10376000000000000000000000000000007801F8E8
:103770000380038003800380038003003F003E003A
:10378000030003800380038003800380038001C063
:1037900000F800000000000001800180018001802D
:1037A0000180018001800180018001800180018011
:1037B0000180018001800180018001800180018001
:1037C0000180000000000000000000001E001F80BB
:1037D000018001C001C001C001C000C000FC007C2C
:1037E00000C001C001C001C001C001C001C0038010
:1037F0001F000000000000000000000000000000AA
:10380000000000000000000000001C003F0671CE18
:1038100060FC00000000000000000000000000004C
:10382000000000000D0A20332EB0B4CFC2BFAAB7EB
:10383000A2B0E5B5C44B455931BCFCA3ACBBE1CA51
:10384000B9D3C343414ECFF2CDE2B7A2CBCD302D99
:1038500037B5C4CAFDBEDDB0FCA3ACB0FCB5C4C076
:10386000A9D5B94944CEAA307831333134200D0A74
:10387000000000000D0A20342EC8F4BFAAB7A2B081
:10388000E5B5C443414EBDD3CAD5B5BDC0A9D5B970
:103890004944CEAA307831333134B5C4CAFDBEDDD7
:1038A000B0FCA3ACBBE1B0D1CAFDBEDDD2D4B4F252
:1038B000D3A1B5BDB4AEBFDAA1A3200D0A000000AC
:1038C000E038000800000020380000003C19000823
:1038D0001839000838000020280400004C1900089E
:1038E00000000000010203040102030406070809A6
:1038F00000000000642000080800100054260008A2
:10390000100018000600F000400100000000FFFF5A
:0839100014000020000000007B
:040000050800018965
:00000001FF
