:020000040800F2
:10000000802F0020A101000893310008011F000883
:1000100091310008450300081D370008000000006A
:100020000000000000000000000000006D33000828
:100030008308000800000000393200082934000855
:10004000BB010008BB010008BB010008BB010008A0
:10005000BB010008BB010008BB010008BB01000890
:10006000BB010008BB010008BB010008BB01000880
:10007000BB010008BB010008BB010008BB01000870
:10008000BB010008BB010008BB010008BB01000860
:10009000BB010008BB010008BB010008BB01000850
:1000A000BB010008BB010008BB010008BB01000840
:1000B000BB010008BB010008BB010008BB01000830
:1000C000BB010008BB010008BB010008BB01000820
:1000D000BB010008BB010008BB010008BB01000810
:1000E000BB010008BB010008BB010008BB01000800
:1000F000BB010008BB010008BB010008BB010008F0
:10010000BB010008BB010008BB010008BB010008DF
:10011000BB010008BB01000889340008BB010008CE
:10012000BB010008BB010008BB010008BB010008BF
:10013000BB010008BB010008BB010008BB010008AF
:1001400049030008BB010008BB010008BB0100080F
:10015000BB010008BB010008BB010008BB0100088F
:10016000BB010008BB010008BB010008BB0100087F
:10017000BB010008BB010008BB010008BB0100086F
:10018000BB010008BB010008DFF810D000F07EF8CA
:1001900000480047616F0008AFF30080802F002007
:1001A0000648804706480047FEE7FEE7FEE7FEE711
:1001B000FEE7FEE7FEE7FEE7FEE7FEE72D34000878
:1001C0008901000810B5431A934209D28318881890
:1001D00003E010F8011D03F8011D521EF9D210BDF5
:1001E00040EA01039B0703D009E008C9121F08C0B9
:1001F000042AFAD203E011F8013B00F8013B521E39
:10020000F9D210BDD2B201E000F8012B491EFBD299
:1002100070470022F6E710B513460A460446194611
:10022000FFF7F0FF204610BD2DE9F05F05460020E6
:1002300092469B4688460646814640241BE0284657
:1002400041464746224600F042F853465A46C01AF5
:10025000914110D311461846224600F029F82D1A74
:1002600067EB01084F4622460120002100F020F8EC
:1002700017EB00094E41201EA4F10104DFDC4846C3
:1002800031462A464346BDE8F09F0000064C074D24
:1002900006E0E06840F0010394E807009847103456
:1002A000AC42F6D3FFF774FF0896000828960008C2
:1002B000202A04DB203A00FA02F100207047914026
:1002C000C2F1200320FA03F3194390407047202A1B
:1002D00004DB203A21FA02F00021704721FA02F3F0
:1002E000D040C2F12002914008431946704770B5D2
:1002F0008C1810F8015B15F0070301D110F8013BD1
:100300002A1106D110F8012B03E010F8016B01F857
:10031000016B5B1EF9D12B0705D40023521E0DD4AF
:1003200001F8013BFAE710F8013BCB1A921C03E0FD
:1003300013F8015B01F8015B521EF9D5A142D8D335
:10034000002070BDFEE7000010B50C4A00210C48EB
:1003500000F0CEF909480B494268A2F59853143BC6
:1003600005D1027A042A02D1807A082802D000201E
:10037000086010BD0120086010BD00007801002059
:10038000006800401000002010B500F0B5F800F043
:100390009BF900F06BF9BDE8104000F087B8000051
:1003A00010B50C4988420AD101214C06204602F0C2
:1003B0006FFF2046BDE81040002102F069BF012117
:1003C0008C06204602F064FF2046BDE81040002164
:1003D00002F05EBF00640040F0B5827A01219140D6
:1003E000304C226842F0010222602E4D1C352A68F2
:1003F0008A432A602B4A067B0C322B4B002E14D1E9
:1004000016688E4316604688C78846EA0746877A8C
:1004100003EBC707C7F840660688878846EA0746A1
:10042000877A03EBC707C7F84466067B012E14D111
:1004300016680E4316604288068842EA0642867AAB
:1004400003EBC606C6F84026C288868842EA064202
:10045000867A03EBC603C3F84426124AC37A121DF8
:100460003BB113680B4313600E4A0389143223B166
:1004700006E013688B431360F6E713688B43136041
:100480000389012B02D113680B431360407B0128C1
:1004900002D1286808432860206820F0010020600D
:1004A000F0BD000000660040006000401FB50E2057
:1004B0008DF80A0000208DF80B0001218DF80C103A
:1004C000ADF8000049F6A402ADF802204FF6FF7225
:1004D000ADF80420ADF80620ADF808008DF80D1039
:1004E0006846FFF779FF01220221024800F032F846
:1004F0001FBD0000006800407CB50121022002F011
:100500009DFE134D09220C21284600F0D1FB092243
:100510000D21284600F0CCFB4FF40050009002243F
:100520008DF804408DF8054000218DF8061001215A
:100530008DF807106946284600F07CFBE102009127
:100540008DF804406946284600F074FB7CBD00002D
:1005500000040240002A03D042690A434261704706
:1005600042698A434261704710B50022036823F054
:1005700002030360036843F0010303604FF6FF7357
:1005800000E0521C4468E40701D19A42F9D1426864
:10059000D2073ED08A79012A3DD0026822F080023B
:1005A0000260CA79012A3BD0026822F04002026050
:1005B0000A7A012A39D0026822F0200202604A7ABF
:1005C000012A37D0026822F0100202608A7A012ADA
:1005D00035D0026822F008020260CA7A012A33D0BC
:1005E000026822F0040202608A78CC78920742EA1C
:1005F00004620C7942EA04424C79098842EA0452C6
:10060000491E0A43C261016821F001010160002115
:1006100020E0002010BD026842F080020260C0E7C6
:10062000026842F040020260C2E7026842F0200223
:100630000260C4E7026842F010020260C6E7026886
:1006400042F008020260C8E7026842F00402026059
:10065000CAE7491C4268D20701D09942F9D14068E3
:10066000C00701D0002010BD012010BD3EB5012102
:100670004FF0C06002F0FEFD124C2046FFF790FEE6
:10068000684600F093F800218DF8061001228DF8DD
:1006900007208DF808208DF809108DF80A108DF8C4
:1006A0000B108DF802108DF8032003208DF8040044
:1006B0008DF805200620ADF8000069462046FFF7BA
:1006C00053FF3EBD0068004008B54FF4C06002F023
:1006D000A9FD40208DF8000000208DF801008DF864
:1006E000020001208DF80300684602F067FD08BD96
:1006F00010B500EB0113D3F8B04104F004041472F8
:10070000002C2CD0D3F8B041E408546003F5D87322
:100710001C6804F0020454725C6804F00F049472C4
:100720005C68240AD4749C68D4729C68240A14738C
:100730009C68240C54739C68240E9473DC68D473F6
:10074000DC68240A1474DC68240C5474DB681B0E07
:10075000937449B1016941F02001016110BDD3F8E2
:10076000B041640D1460D1E7C16841F02001C1605F
:1007700010BD00001CB500210AA20CCACDE900235F
:100780004FF4A462426004220272002242720822E4
:1007900082726A464418535CE372491CC9B2082944
:1007A000F8D31CBDE40CE40CE40CE40C00218171D2
:1007B000C171017241728172C1728170C170032175
:1007C00001710221417101210180704730B502465B
:1007D000002093685B010AD49068000101D50120D4
:1007E00005E09068C00001D5022000E00420042844
:1007F0003BD002EB0012D2F8803103F00103C2F8C3
:1008000080310B7A93B3D2F880414D681C434B7A08
:1008100043EAC5031C43C2F880418B7A03F00F03FF
:100820008B7202F5C072536823F00F035360536854
:100830008C7A23435360CB7A8C7B0D7B43EA046331
:100840004C7B240444EA052423439360CB7B8C7CBB
:1008500043EA04634C7C097C240444EA01210B43F1
:10086000D360116841F00101116030BDFFE7D2F89B
:1008700080314C7A23430C8843EA4453C2F88031D8
:10088000CBE7704770B586B00121084602F0D6FC70
:100890000121102002F00AFD00248DF816400120ED
:1008A0008DF8170002258DF815508DF81450400270
:1008B00004901C4E04A9304600F0BCF98DF8145089
:1008C0006902049104A9304600F0B4F907220A2114
:1008D000304600F0EDF907220921304600F0E8F932
:1008E0004FF4E1300090ADF80440ADF80640ADF8AB
:1008F0000840ADF80C400C20ADF80A000A4C6946DF
:10090000204602F0A9FE02F045FC012240F22551EA
:10091000204602F086FE0121204602F06FFE06B05E
:1009200070BD0000000002400010014001B502E06F
:100930000098401E009000980028F9D108BD0000E2
:100940002DE9F04188B00178427841EA02278178A8
:10095000C27841EA02250179427941EA0226817989
:10096000C07941EA002431A006F00AF8394632A0E5
:1009700006F006F8294635A006F002F8314638A000
:1009800005F0FEFF21463BA005F0FAFF3E4800219E
:1009900083884288084601F0C3FA3C4802F0DCF93B
:1009A0004FF6FF780021404602F0C4F902F070F8DB
:1009B00037A1002001F008FB3B4639A22021684600
:1009C00005F0EEFF02F064F8C088694601F0FCFA19
:1009D0002B4636A22021684605F0E2FF02F058F8C7
:1009E000C088694608EA400001F0EEFA334632A2B8
:1009F0002021684605F0D4FF02F04AF8C088694615
:100A000000EB400080B201F0DFFA23462DA2202146
:100A1000684605F0C5FF02F03BF8C088694608EA61
:100A2000800001F0D1FA08B0BDE8F081B5E7D1B996
:100A3000CEAAA3BA0D0A0000566F6C7461676531C7
:100A40003A2025646D760D0A00000000566F6C7424
:100A5000616765323A2025646D760D0A000000005A
:100A6000566F6C74616765333A2025646D760D0AA4
:100A700000000000566F6C74616765343A2025648D
:100A80006D760D0A00000000240000201C000020EC
:100A9000566F6C746167652056616C7565733A00BA
:100AA00056313A2025646D560000000056323A2037
:100AB00025646D560000000056333A2025646D56BB
:100AC0000000000056343A2025646D5600000000F6
:100AD00010B500F045FC6FF07F4000F021FF4FF4AF
:100AE0007F0000F01BFF6422322105A000F0A2FD70
:100AF0008C22BDE81040322106A000F09BBD000012
:100B00004C434420496E6974205375636365737365
:100B1000210000005072657373204B4559322074D8
:100B20006F20746573742E008000A0F1C04000290E
:100B300004D0016841F00101016070470168024A78
:100B40001140016070470000FEFF0F0070B50168A2
:100B50008900A1F1C0410B68344A1340D0E9012457
:100B60002243D0E903452C4322434469224384694C
:100B70002243C4692243046A2243446A2243846AAA
:100B80002243C46A2243046B22431A430A608168E9
:100B9000082907D101688900A1F1C0410A6842F023
:100BA00040020A600168491C8A00A2F1C042116833
:100BB00001F04044416BD1E9003543EA05138D68EB
:100BC0008E892D0245EA06452B430D8A43EA0553DB
:100BD0000D7D896943EA05630B4323431360C16AB2
:100BE000B1F5804F08D000686FF070418000A0F12F
:100BF000C040C0F8041170BD01688900A1F1C04176
:100C0000D1F804210A4B1A40806BD0E9003443EA42
:100C1000041384688589240244EA054480692343D7
:100C200003431343C1F8043170BD00008000F7FF97
:100C30000000F0CF2DE9F041002201274FF0030C16
:100C400007FA02F50B682B40AB422CD10668530023
:100C50000CFA03F4A64306600E79D0F800809E409B
:100C600046EA080606600E79012E01D0022E12D146
:100C70008668A64386604E79D0F808809E4046EA92
:100C8000080686604668AE43466045688E799640A1
:100C9000B6B235434560C568A543C560CC799C4074
:100CA000C3681C43C460521C102AC9D3BDE8F0813C
:100CB00010B54B07DB0E9A40C90800EB8100016AB2
:100CC0000F249C40A1430162016A1143016210BDDF
:100CD0000246002012690A4200D001207047418379
:100CE00070470183704770B50C46054600F0FEF86A
:100CF000A8682168C16261680163A168416349070E
:100D000007D5D0E90021C0E90012D0E90221C0E9ED
:100D10000212A18981842169002903D001DC4FF0EE
:100D20000001016270BD2DE9F0411E46174688465C
:100D3000054600F0DBF8AC686822414604F5867091
:100D4000FFF740FA2846B8472846B0472869806828
:100D50008047A062BDE8F08110B5044600F0C6F8F7
:100D6000A0681149144AC0F8AC101049C0F8A81086
:100D70000F49C0F8B0100F49C0F8B8100021C0F8F2
:100D8000BC101368C0F8B4300C4BC0E93231516864
:100D9000C0F8C41030F8261F21F0030120F82A1BE8
:100DA0000749416410BD00005D5F00085D600008F8
:100DB000255F0008AF5B0008A40000207F5C0008EE
:100DC000D55E000810B5044600F090F8A4681048FD
:100DD0001021C4F8E4000F48C4F8E8000E48C4F835
:100DE000EC000E48C4F8F0000D48C4F8A0000D480F
:100DF000C4F8A400D4F8C400C4F8FC00D4F89420CB
:100E0000204690471020A0630748606410BD000092
:100E10003D4B0008615000082D0E00085D0F0008D2
:100E2000695B00081F6200089C910008F8B584689F
:100E300015460F4694F8260080074CD5D4F80031AB
:100E4000204698470646D4F804312A4639462046BB
:100E50009847D4F8983005461BB10022012120465E
:100E600098472069B04201DD012000E00020A1691F
:100E7000B14201DA012100E0002108436169A94281
:100E800001DD012100E000210843E169A94201DA06
:100E9000012100E0002108430AD060680022401EC2
:100EA00000902368D4F8A870114620465B1EB8470E
:100EB000D4F8AC302A46314620469847D4F8A010E2
:100EC00020468847D4F8983005466BB101220021AE
:100ED0002046984708E0D4F8AC3020469847D4F82C
:100EE000A0102046884705462846F8BD70B5044640
:100EF0008068002812D14FF4BA75284600F088F9AE
:100F00002A460021A06000F0B7FFA0680221C1843A
:100F10000121046401620249C0F8081170BD00009B
:100F2000250F000810B590B0044620220A496846F3
:100F3000FFF748F908492022203108A8FFF742F9B5
:100F4000606B5DF82010C4F8001108A951F820006A
:100F5000C4F8040110B010BD048A00082DE9F8435C
:100F600084689846154694F826000F46800740D5B9
:100F7000D4F80031204698470646D4F804312A4672
:100F800039462046984705462069B04201DD0120D8
:100F900000E00020A169B14201DA012100E0002156
:100FA00008436169A94201DD012100E000210843F5
:100FB000E169A94201DA012100E0002108430AD0D9
:100FC00060680022401E00902368D4F8A870114683
:100FD00020465B1EB847D4F8AC302A46314620463E
:100FE0009847D4F8A42001B041462046BDE8F0431C
:100FF0001047D4F8AC30F2E72DE9F04FDFF828B114
:1010000091B04FF0FF35DBF80030B3F922100691B4
:10101000DE69B3F92490F469A189814206D8E28996
:10102000824203D3471AD4F8008012E0D4E9018148
:1010300000296FD00A8882426CD84D88854269D3D6
:10104000801A82B2486800EB8200B0F90070B0F9F3
:101050000250781C5ED0307EA17C10FB01FA217C0E
:10106000CDE90701B3F92A60304601F06FFEC0B246
:101070000E90DBF8000007FB0A81A37C826B01273E
:10108000CDE90412CDE90273C069089AC17E807E61
:10109000CDE90001DDE90603494601F067FB681C64
:1010A00018D046F0020001F051FEDBF80000A37CEE
:1010B00005FB0A81826BCDE90273CDE90412C06998
:1010C000089AC17E807ECDE90001DDE9060349462C
:1010D00001F04CFBDBF800005D46C069417E007EFC
:1010E000814214D9022E12D086F0040001F02EFEA7
:1010F0002868C069027EC37E12FB0391437E857E11
:10110000089A06984B4412FB050201F091FC0E98D8
:1011100001F01CFEDBF80000627C418C114441842C
:1011200011B0BDE8F08F00004C00002004480068BA
:10113000C069C06909B1027C0A60407C7047000048
:101140004C000020022008807047C06982898A42D2
:1011500002D8C2898A4210D2806880B102888A424D
:101160000DD843888B420AD3406800EB8100A0EB86
:101170008200B0F90000002801DB01207047002048
:101180007047002801D002F077BF704738B5054698
:10119000FFF7F7FF040009D000F092F82A4600217B
:1011A000009000F069FE684600F098F8204638BDCF
:1011B000024A106021F00300506070474C2A002062
:1011C00010B5002814D004460A48406B10F83410BB
:1011D00000290DD002290BD2042101EBC401415892
:1011E000486802F001FF2046BDE8104004F0A8BCAA
:1011F00010BD00008C290020002805D0034AD16BC7
:10120000016001B14860D063704700008C29002064
:101210002DE9F041044604F059FB2848E41C24F071
:101220000305016C2D1DA94200D90D46C46B13E0C6
:1012300054F8042CAA420ED184B1216809B1626825
:101240004A60616809B122680A60C26BA24231D16A
:101250002168C1632EE02468002CE9D18046816BAF
:10126000C0680F1857F8040C3E1A306838B10020D7
:1012700004F044FD57F8040C3E1A3068D0B9706889
:10128000A84217DB3044441B3046241D04F01CFDEB
:10129000D8F80C10491BC8F80C10D8F814102944C1
:1012A000C8F814107068401B02D0314602F09CFE52
:1012B00044F8045C2046BDE8F08100008C29002041
:1012C0000549CA69521CCA61496B01EBC0010A7821
:1012D000521C0A7000F01AB88C2900200A490268D2
:1012E0004B6B52F8082C03EBC2021378022B03D38A
:1012F000CB690BB15B1ECB611178491E11700021C7
:1013000001600846704700008C290020002806D0A4
:101310000349042202EBC000496B085808307047AB
:101320008C29002010B5C2B2CBB2D21A00D55242DD
:1013300093B25B43C0F30722C1F30724121B00D50D
:101340005242000C92B2A0EB114002FB023200B2FA
:10135000002801DA404200B280B200FB002010BD3C
:1013600010B50021084600F0B7F943F6FF7250426D
:10137000BDE8104013460146AFF300802DE9FC4163
:1013800007461C4615460E46042001F0DFFC804649
:101390001148C068C16C006D0F4406440D440444FC
:1013A000ADF80070ADF80450ADF80260ADF806403D
:1013B000684602F0A3FC07E023462A463146384639
:1013C00001F036FB02F05CFC0028F5D1404601F04C
:1013D000BDFCBDE8FC810000400000202DE9F0418B
:1013E0001C4616460D460746022B02DB0020BDE8D0
:1013F000F0811C20FFF70CFF0028F8D00DB105612B
:101400000AE0094A52F8241009B905E011460A68B1
:10141000002AFBD109690161846186820021016093
:101420004160C0E90217E2E76400002070B51D4684
:10143000FFF7D4FF040009D000F00EF8E068006860
:1014400020B90348006800EB85008465204670BD24
:101450004C000020FFF7D0BE70B590B38269022A1D
:1014600030DA1E4C54F8221019B944F8220032E048
:1014700019464B68002BFBD106E0CB68C5681B689A
:101480002D68AB4203DD09680029F6D11AE0C1B12D
:10149000CB68C6681B683668B3420CD1838A012BBF
:1014A00005D008E01946DB681B68AB4203DB0B681C
:1014B000002BF7D129B14B6833B118604A684260FC
:1014C00004E0FFE7012070BD44F822004860884234
:1014D00000D100210160002070BD000064000020E8
:1014E0000A4A816952F82130834202D1036842F8E6
:1014F0002130416809B102680A60016809B1426897
:101500004A600021016041607047000064000020D3
:10151000022801DB00207047054951F8200004E053
:10152000C16809680029F6D000680028F8D1704722
:10153000640000202DE9FC4706005BD000F09CF819
:101540003B4C81462068B0F9228000F09DF821686C
:1015500007468A8CD01B888441E000BF47F6FF71A4
:10156000304600F0A1FB82460146304600F072FB97
:101570002168054691F82C0000F0030001283FD0B7
:10158000022839D000204A8C101A4884ADF8000097
:101590006A1E1044ADF80400888CADF80200A9F171
:1015A00001010844ADF806006A465146304600F095
:1015B000F9FA2168BDF8020088845146304600F0EF
:1015C000F9F9064430780A281CD00D281AD0BDF845
:1015D0000000216828444884307818B1761C30789F
:1015E0000028BBD12068818C39448184818D21F011
:1015F00003018185BDE8FC8705EBD5704010C2E78B
:101600002846C0E7206890F82C1001F0030101295A
:101610000BD0022909D0018C418431780A29DBD111
:10162000828C02EB09018184D6E7A0F82280F4E7DE
:101630004C000020024B1B6859849A84FFF77ABF44
:101640004C000020034951F82000C1688A6A082133
:10165000104700006400002002490968C9694A680F
:10166000002110474C000020024A1268D2695268DB
:10167000104700004C00002002480068C069407E0E
:10168000704700004C0000200A490020096891F8CA
:101690002C2002F00C02042A07D0082A01D00C2AC0
:1016A00002D1C869007E40087047C869007E401EAC
:1016B000704700004C000020024951F820000069EA
:1016C0000068704764000020024951F8200000695A
:1016D000406870476400002070B50D4604F072F851
:1016E0000446284604F076F8204370BD2DE9F04109
:1016F0001948016821F00101016018480125856041
:101700001749016000681749884200D0FEE700F0E1
:101710002FFA154E2E20307000F097F9134804F080
:101720009DF805F0C5FB074601F0E4F910B101F0A2
:10173000EBF938B901F0EEF9044601F0E1F9214680
:1017400001F0FEFA0021084600F0F2F802F012F96A
:1017500075703846BDE8F081002000E0003002409E
:10176000C2A507F4CDB5E8B540000020582A0020F6
:1017700038B5040018D00D480068006EA04201D1B1
:1017800000F0ABF82046FFF79BFD0090406908B1E0
:1017900000F038F900980068FFF75CFE6846FFF734
:1017A0009DFD2046FFF70CFD38BD00004C000020D9
:1017B00038B5002460B1FFF783FD00900068006930
:1017C0008068804701F082FC04466846FFF786FD8A
:1017D000204638BD38B5002808D0FFF771FD00F16C
:1017E000180400906846FFF779FD204638BDF8B52B
:1017F00016460F46050012D0FFF762FD00904469BF
:101800006846FFF76BFD2846FFF7D2FF034608281E
:1018100000DD2CB132463946284604F015FDF8BDEE
:1018200032463946284604F0AFFEF8BD10B5002810
:1018300021D009B30AB3B1F90040B2F900309C429B
:1018400000DA23460380B1F90240B2F902309C422B
:1018500000DA23464380B1F90440B2F904309C42D7
:1018600000DD23468380B1F90610B2F906209142CB
:1018700000DC1146C18010BD11460A68026049684B
:10188000416010BD00280BD003880B44038083887F
:1018900019448180418811444180C1881144C1802C
:1018A0007047B0F90220B1F906309A4213DCB1F961
:1018B0000220B0F906309A420DDCB0F90020B1F9EF
:1018C00004309A4207DCB1F90010B0F904008142FB
:1018D00001DC012070470020704710B501F0C0F90D
:1018E00001F082FABDE8104001F01ABF70B5094D51
:1018F0000446022C2868467C09D22046FFF708FEE1
:1019000028B128684474FFF7E8FF034804603046B4
:1019100070BD00004C000020CC00002001F0C0B9D8
:1019200001F0F6B9014988607047000040000020CE
:10193000094A30B41080094A1180094A1268537C60
:10194000084A52F82330DA68146A0A46A446014667
:1019500030BC18466047000074000020760000206C
:101960004C0000206400002002480068002800D0DD
:10197000004770475001002002498A6802B9886018
:10198000FFF7F2BF400100202DE9F041084E044668
:10199000056830680168284688470746306841680E
:1019A00028468847284420603846BDE8F08100007A
:1019B000500000202DE9F0410C4606460025064F58
:1019C00005E0386841683046884706440544641E8F
:1019D000F7D22846BDE8F081500000202DE9F04103
:1019E0001E46069C1746884605463A46A8687F1C50
:1019F0003346D0F804C041462846E047641EF4D17F
:101A0000BDE8F08138B50546FFF75AFC00908189A2
:101A1000491E0CB284816846FFF760FC002C02D19D
:101A20002846FFF7CDFB38BD10B54FF420510448D0
:101A3000FFF7BEFBBDE810400248FFF773BF000090
:101A40008C010020389100087047704710B5082AB3
:101A50000EDC0346012A18D0022A56D0042A76D07A
:101A600010F8042B03F8012B491EF9D1012010BDF9
:101A7000102A08DC4FEA000230F8043B22F8023B4F
:101A8000491EF9D1F2E7002010BD10F8042BD2074F
:101A9000120E491E34D010F8044B491E04F0010404
:101AA00042EA84122CD010F8044B491E04F00104C1
:101AB00042EA441224D010F8044B491E04F00104F9
:101AC00042EA04121CD010F8044B491E04F0010431
:101AD00042EAC40214D010F8044B491E04F0010479
:101AE00042EA84020CD010F8044B491E04F00104B1
:101AF00042EA440204D010F8044B04F001042243EB
:101B000003F8012B0029C0D1B0E710F8042B92078D
:101B1000120E491E15D010F8044B491E04F00304A0
:101B200042EA04120DD010F8044B491E04F00304DD
:101B300042EA840205D010F8044B04F00304224367
:101B4000491E03F8012B0029DFD18FE7FFE710F8CA
:101B5000042B1207120E491E05D010F8044B04F096
:101B60000F042243491E03F8012B0029EFD17DE722
:101B70000A4810B5816900290ED101218161FFF762
:101B800053FF01F043F9054905481C310860BDE8E1
:101B90001040084600F068B910BD00004000002069
:101BA0008D5A00087CB5064628480D46006868B185
:101BB000002002F0A3F806E06A462946304602F00B
:101BC00087FB02F05DF80028F6D17CBD106800901C
:101BD0001F4C506801902268BDF8000032F84C1F7D
:101BE0000844ADF80000BDF8020091880844ADF843
:101BF0000200BDF8040011880844ADF80400BDF8E7
:101C0000060091880844ADF80600684602F076F8B0
:101C10000EE000BF2068BDF800106A464184BDF8A0
:101C2000021081842946304602F052FB02F028F867
:101C30000028EFD1206830F8221F428D891A0180D8
:101C40004188C28D891A41807CBD0000700000204F
:101C50004C00002073B5124A01A900981268904701
:101C600000240090C8B10F4900250968C969496975
:101C700059B10A684AB1019990477CBD6846FFF79F
:101C800083FE0546FFF7E8FC04440198401E0190DE
:101C9000F4D5284600F024F8044420467CBD00001A
:101CA0003C0100204C00002073B50D460098002434
:101CB00090B10A490968C969496959B14A684AB184
:101CC000294690477CBD6846FFF75EFE20B10A2892
:101CD00002D0641CAC42F6DB20467CBD4C000020E8
:101CE00038B5002469460094FFF7BEFC0099814294
:101CF00000DD0C1A204638BDB0F90030B1F90020E3
:101D0000934200DA0280B0F90230B1F90220934226
:101D100000DA4280B0F90430B1F90420934200DDCA
:101D20008280B0F90620B1F906108A4200DDC18038
:101D3000704770B5B1F90040B2F900309C4200DD47
:101D400023460380B1F90250B2F90240A54200DDFA
:101D50002C464480B1F90460B2F90450AE4200DA76
:101D600035468580B1F90610B2F90620914200DBB4
:101D70001146C1809D4201DBA14201DA002070BD05
:101D8000012070BD014602480068407C00F002B8A6
:101D90004C0000202DE9F84301268946044602281C
:101DA0005DDA304F7A6802B190472E4D5FEA090044
:101DB00005F1100532D0012803D0B9F1020F4ED140
:101DC00018E055F8240088B92046FFF7A1FB0090E1
:101DD00018B3C0680D21426A6846904702003ED0A1
:101DE00049460098904755F824000026401C45F8C5
:101DF000240034E02046FFF78BFB009068B1C068F8
:101E00000D21426A68469047040028D0386800B126
:101E1000804749460098A047002620E055F8240056
:101E2000A846012812D12046FFF772FB009068B146
:101E3000C0680D21426A68469047050006D03868A0
:101E400000B1804749460098A847002658F824105A
:101E500009B1012200E00022891A48F82410304616
:101E6000BDE8F8832401002002494A6942604861C4
:101E7000704700004000002010B502E000F8011B90
:101E8000521E0AB18307F9D1930818D001EB01441F
:101E900002F0030204EB042406E010C01B1F10C074
:101EA00040F8084B40F8044C042BF6DA01E010C06F
:101EB0005B1E002BFBD102E000F8011B521E002A22
:101EC000FAD110BD10B5830702D520F8021B521EAF
:101ED000530811D001EB0144042B09DB10C01B1F78
:101EE00010C0042B40F8084B40F8044CF6DA01E02F
:101EF00010C05B1E002BFBD1D20700D0018010BDAB
:101F0000FEE70000054A4FF40071002802D0104699
:101F1000FEF7E5BE1046FEF7E4BE000000140240E6
:101F200070B514461D462B46224600F013FA0449AC
:101F300004FB05F04989BDE8704000F09FB800003F
:101F40002400002001B502E00098401E0090009897
:101F50000028F9D108BD00002DE9F043203A97B2DE
:101F6000184EF568AA88EB8802FB03F44FEAE47C7C
:101F700004EB5C74C4F3C7042D6807FB045500F040
:101F8000E9F92C204FF0D04CACF80000002115E00E
:101F9000002033897289802715F8018027FA00F91B
:101FA00018EA090F02D0ACF8023001E0ACF80220C8
:101FB000401CC0B20828EFD3491CC9B2A142E7D3E4
:101FC000BDE8F08324000020F0B505460E4600244D
:101FD0000F4F19E0F8687B8881882144994203D922
:101FE0000024C18829448DB2C088B9882844884219
:101FF00001D90024002529462046FFF7ADFF761CB5
:10200000F8688088204484B23278002AE2D1F0BD9A
:102010002400002000B597B03C2108A8FEF7F9F88D
:102020001C2101A8FEF7F5F80121084601F014F97A
:10203000042101910F200390880607900020029050
:102040000490059006900891099008210A911021AA
:102050000B910C900E900F9010900902119112901C
:102060001390149001A81590169008A8FEF76EFD25
:1020700001210420FEF758FD17B000BD10B5002265
:102080002C244FF0D0431C8001E05980521C824226
:10209000FBD310BD2DE9FC5F0121782001F0CEF8C3
:1020A00002248DF804408DF805404FF48049CDF8A6
:1020B000009069467848FEF7BDFD0C220E21764857
:1020C000FEF7F6FD4FF4004ACDF800A069467248CD
:1020D000FEF7B0FD0C220F216F48FEF7E9FD012548
:1020E000009569466C48FEF7A5FD0C2200216A4860
:1020F000FEF7DEFD009469466748FEF79BFD0C2263
:1021000001216548FEF7D4FD8020009069466348B0
:10211000FEF790FD0C2207216048FEF7C9FD4FF441
:10212000807BCDF800B069465C48FEF783FD0C2249
:1021300008215A48FEF7BCFD26020096694657481A
:10214000FEF778FD0C2209215448FEF7B1FD670225
:10215000009769465148FEF76DFD0C220A214F4851
:10216000FEF7A6FD4FF40068CDF8008069464B48A5
:10217000FEF760FD0C220B214848FEF799FDE002B6
:10218000009069464548FEF755FD0C22114643482C
:10219000FEF78EFD2003009069464048FEF74AFD99
:1021A0000C220D213D48FEF783FDCDF800906946D5
:1021B0003A48FEF73FFD0C220E213848FEF778FD25
:1021C000CDF800A069463548FEF734FD0C220F21FA
:1021D0003248FEF76DFDCDF800B069462E48FEF797
:1021E00029FD0C2208212C48FEF762FD0096694665
:1021F0002948FEF71FFD0C2209212748FEF758FD4C
:10220000009769462448FEF715FD0C220A21224852
:10221000FEF74EFD1020009069461F48FEF70AFDAC
:102220000C2204211C48FEF743FD20200090694643
:102230001948FEF7FFFC0C2205211748FEF738FD70
:102240000097174F69463846FEF7F4FC0C220A2126
:102250003846FEF72DFD0095124F69463846FEF7C9
:10226000E9FC0C2200213846FEF722FD8DF80450CF
:1022700000208DF806008DF807508DF80540CDF848
:10228000008069463846FEF7D5FC00966946384618
:10229000FEF7D0FCBDE8FC9F000C0240001002409D
:1022A000001802400014024010B507283BD81E4B0E
:1022B0001870C4074FF0F0014FF4A07214D05A8088
:1022C000998036224FF0D0410A80DA88A2F5134473
:1022D000413C04D0A2F50544523C08D009E0082254
:1022E00042EA4010488004E059809A80E9E74001C2
:1022F00048802A2008800020488048805888401E56
:10230000C0F307224A80C0B248802B2008800020FA
:10231000488048809888401EC0F307224A80C0B297
:1023200048802C20088010BD2400002010B5FFF745
:10233000B1FEFFF76FFE0120FFF7E4FD00F0C0F9EA
:1023400000F024F802480078BDE81040FFF7ACBF69
:102350002400002030B52A254FF0D0442580050AFE
:102360006580C5B265801044401E020A6280C0B21A
:1023700060802B202080080A6080C8B26080C81866
:10238000401E010A6180C0B2608030BD10B500F00F
:102390006BF9B349C880B349A0F513424FF0D0445C
:1023A000413A7DD0A0F50542523A7AD1CF20208023
:1023B00000206080C120608030206080ED2020807F
:1023C0006420608003206080122060808120608013
:1023D000E820208085206080102060807820608048
:1023E000CB202080392060802C20608000206080FD
:1023F0003420608002206080F720208020206080D0
:10240000EA202080002060806080C0202080212081
:102410006080C120208011206080C52020802D2078
:1024200060803320608036202080002060803A2049
:10243000208055206080B1202080002060801720FF
:102440006080B62020800A206080A2206080F62074
:1024500020800120608030206080F22020800020D9
:1024600060802620208001206080E0202080D02015
:1024700060800020608002206080072060800B2048
:1024800060801A206080312060805420608040206D
:10249000608029206080122060806080608001E080
:1024A0002AE028E017206080E1202080D020608092
:1024B000002060800220608007206080052060800E
:1024C000252060802D206080442060804520608031
:1024D0001C20608018206080162060801C20608096
:1024E0001D206080112020800846FFF72BFD292049
:1024F00020802C20208010BDCF20208000206080F4
:102500008120608030206080ED2020806420608009
:10251000032060801220608081206080E82020807D
:10252000852060801020608078206080CB20208013
:10253000392060802C206080002060803420608002
:1025400002206080F720208020206080EA20208008
:10255000002060806080B1202080002060801B20EF
:102560006080B62020800A206080A2206080C02089
:10257000208035206080C120208011206080C5200F
:102580002080452060806080C7202080A22060805D
:10259000F2202080002060802620208001206080A2
:1025A000E02020800F206080262060802420608032
:1025B0000B2060800E2060800920608054206080A5
:1025C000A8206080462060800C20608017206080FA
:1025D000092060800F2060800720608000206080DC
:1025E000E120208000206080192060801B20608016
:1025F0000420608010206080072060802A20608096
:102600004720608039206080032060800620608041
:10261000608030206080382060800F20608036200D
:102620002080C82060802A20208000206080608078
:102630006080EF2060802B20208000206080608000
:10264000012060803F2060803A20208055206080FB
:10265000112020800846FFF775FC2920208010BD3E
:1026600024000020FCBF020010B504204FF0D04130
:1026700008804888488848884FF6FF7303EA00229C
:1026800048881043A0F50542523A0FD0D320088065
:1026900048884888488803EA00204C88044321463B
:1026A00004A004F06DF914B149F2413010BD0020CE
:1026B00010BD00006964203D202534780D0A00001B
:1026C00070B50A4D4FF4006421462846FEF707FB1B
:1026D00040F6FF263046FFF735FC21462846FEF738
:1026E00000FB3046BDE87040FFF72CBC00140240F0
:1026F0001CB50121052000F0A1FD01200090002063
:102700008DF804008DF8070069460548FEF792FA37
:102710004FF40050009069460248FEF78BFA1CBD4A
:10272000000002400008024070B504460D462946EC
:102730002046FEF7CDFA012801D0002070BD2946C1
:102740002046FEF7C5FA0128F9D0012070BD00002F
:102750000449054A0968497C52F821100969096849
:10276000084700004C000020640000202DE9F04FD5
:1027700005468DB07B48DDF860901A9C00681E46C7
:1027800017464FF0000A78B11B9B199ACDF80890B4
:102790000593CDE90324DDE91623CDE90023046880
:1027A00033463A46284680E0DDE9160201EB06088A
:1027B00005EB070C1043A8F10108ACF1010C01284E
:1027C00006D0C9F108000590002002910990C6E0EA
:1027D00065480268B2F90A30581A002806DD361A30
:1027E000002E63DD1946199B00FB0344B2F90E006D
:1027F000A8EB0000002802DD361A002E56DDB2F9E3
:102800000C00ACEB0000002800DD3F1AB2F90830E4
:102810000020AB4235DD581B3F1A4B46B9F1080F7B
:1028200026D006DC012B0BD0022B11D0042B28D193
:1028300016E0102B1ED0182B1FD0202B21D11CE00E
:1028400020F0070304EBE0041D4400F0070018E04B
:1028500020F0030304EBA0041D4400F0030010E08B
:1028600020F0010304EB60041D4400F0010008E0C7
:10287000044404E004EB400401E004EB800405445C
:102880000020002F12DD1B9BDDF864C0CDE904039E
:10289000CDE90069CDE902C4527C34483B4650F88A
:1028A0002200C26854680A462946A0470DB0BDE818
:1028B000F08F1799029808440C902B49401E009005
:1028C0000A68B2F90A30834241DCB2F90E1002986C
:1028D00081423CDB4FF0000BD84603950A9434E06C
:1028E000BBF1000F05D10A984FF0080B10F801ABAF
:1028F0000A900599ABEB090B3AFA01F00AFA09F1D3
:1029000001F0FF0A04D118490968097C890716D427
:1029100015490968C96B0A680B921B9A0AB152F8EB
:102920002000086016990398009B4218521E0299D5
:1029300000F07EF80C490B980968C96B0860039990
:10294000169808F1010808440390B845C8DB0998B7
:10295000401C09900C980290199804440998B042C0
:10296000A7DBA3E7700000204C00002064000020DB
:10297000F0B40C4612490968B1F90A30A3421CDCD4
:10298000B1F90E30A34218DBB1F90830834200DD03
:102990001846B1F90C30934200DA1A4682420CDB39
:1029A0004B7C084951F8235013462246E9688E684B
:1029B00001462846B446F0BC6047F0BC70470000B2
:1029C0004C000020640000200A46174930B4096812
:1029D000B1F90A30934225DCB1F90E30934221DB84
:1029E000B1F9083083421DDCB1F90C30834219DBA8
:1029F0000B7C0E4CDB0709D0497C54F82130D96898
:102A0000CC690146A44630BC18466047CB6B497C74
:102A10001B6854F82140E1688D6901462046AC46A8
:102A200030BC604730BC70474C0000206400002080
:102A300038B5134C2468B4F90850854200DD2846A7
:102A4000B4F90C50954200DA2A46824217DBB4F9F9
:102A50000A508D4200DD2946B4F90E509D4200DA3D
:102A60002B468B420BDB0093647C064B53F82440CF
:102A7000E3681D6913460A4601462046A84738BD4B
:102A80004C00002064000020082102F0D9BD0000A5
:102A90000148C06870470000240000200248092156
:102AA0000068407C02F0CCBD4C000020092102F0FF
:102AB000C7BD70B500252C462046FEF729FD00B1A4
:102AC0006D1C641C022CF7DB284670BD02480068B0
:102AD000407C00F003B800004C00002010B5FEF769
:102AE00017FD002805D0C168CA6ABDE81040022160
:102AF000104710BD014800687047000080000020AA
:102B0000012002F013BE0000014840687047000039
:102B100080000020022002F009BE00F001B8000091
:102B20002DE9F041002809D0876837B10D4E716852
:102B300019B10468B4F5807F02DD0020BDE8F081A2
:102B40003068844200DD0446002507E057F8250080
:102B5000FFF7FEFD716841F825006D1CA542F5DB0D
:102B60007068EBE7B00000200449054A0968497C19
:102B700052F8211009694968084700004C000020FC
:102B80006400002010B500F01F01074A074BC0F396
:102B90004514C0F3C4201B5D105C515C00EB0320A6
:102BA00000EB014010BD0000D0910008F09100083A
:102BB00010B50A4C606860B920688000FEF728FBF9
:102BC000606040B104F10801054808600846FFF75D
:102BD0004BF9002010BD012010BD0000B000002006
:102BE000B95A00082DE9F047FFF763FF07460024B4
:102BF000DFF860802AE02046FEF78AFC28B3D8F888
:102C0000000090F8119044742046FFF73DFF08281B
:102C100017DC1148114950F824000069884210D08F
:102C20002046FFF743FF0646002508E0E8B2FFF71D
:102C30009BFF0246E9B2204600F094F86D1CB542B5
:102C4000F4DBD8F8001081F81190641CBC42D2DB90
:102C5000BDE8F0874C000020640000205495000877
:102C600010B50D4C0D492068407C51F8200048B14A
:102C7000C16811B10968042901D00068F7E708B1FB
:102C8000FEF72EFC20680021016600F10801416179
:102C9000BDE8104000F02EB84C0000206400002079
:102CA0000149096849680847AC00002004490968DF
:102CB0000A7C520701D5C96B00E0896B0860704738
:102CC0004C0000207CB5094C05462068417C084832
:102CD00050F82100C1680A6B6946904720686A462F
:102CE00029460830FFF725F87CBD00004C00002085
:102CF000640000200448016804484A7C083150F808
:102D00002200C268126B10474C00002064000020B3
:102D10000149096809680847AC00002004490968AE
:102D20000A7C520701D5896B00E0C96B08607047C7
:102D30004C000020014A108151817047240000207E
:102D4000014AC2E90001704780000020014909687A
:102D500089680847AC0000200149C860704700003E
:102D600024000020F8B515460E460124FEF7D0FBDE
:102D7000009058B1C0681021426A6846904703002D
:102D800004D02A4631460098984700242046F8BDD2
:102D9000F8B515460E460124FEF7BAFB009058B16F
:102DA000C0680B21426A68469047030004D02A4657
:102DB00031460098984700242046F8BDF8B51546DE
:102DC0000E460124FEF7A4FB009058B1C0680A210A
:102DD000426A68469047030004D02A46314600986C
:102DE000984700242046F8BD10B5074C2068006BBA
:102DF000FFF7AEFCFFF792FF2068406BFFF7A8FCDF
:102E0000BDE81040FFF752BF4C00002030B59FB026
:102E100014211AA8FDF7FDF968216846FDF7F9F9B4
:102E200000231A4617491848FEF700FB04464FF4E2
:102E3000A0752A46F0210020FFF7AAFF2A46F021BC
:102E40000020FFF7BBFF00211B911A9103211C9169
:102E50000E4A0621117002211E911AA92046FDF783
:102E600042FF0B4908910B4809900B480B900B4807
:102E70000F900B4B0B4A69462046FDF754FF1FB0DD
:102E800030BD0000B8890008D08900082400002067
:102E9000893100086D31000875310008593100088A
:102EA000C50D0008590D000810B5012902D04FF0DA
:102EB000FF3010BDFFF73AFA002010BD2DE9FF4F9B
:102EC0008DB01746674ADDF870901E9E20981268F4
:102ED0001D4600248AB11D9B1F98CDE90293CDE9C0
:102EE0000460DDE91A03CDE9000314682B463A4675
:102EF0000D98A04711B0BDE8F08F0D9A01EB0508C1
:102F000002EB070CDDE91A231A43A8F10108ACF122
:102F1000010C012A06D0C9F108004FF0000B029104
:102F200005909CE0504A1268B2F90A40631A002BDF
:102F300006DDED1A002DDDDD21461D9C03FB046638
:102F4000B2F90E30A8EB0303002B02DDED1A002DC1
:102F5000D0DDB2F90C30ACEB0303002B00DDFF1A1F
:102F60000D9B1C1AB2F90830A3420DDDA3EB040C33
:102F70000CEB0003181A20F007000444A7EB0C0721
:102F800006EBE30603F00700002FB3DDDDF874C0A5
:102F90001F9BCDE902C6CDE90403CDE90059527C5F
:102FA00032483B4650F82200C26855680A4621461E
:102FB000A8479FE71B99029808440C902A49401E95
:102FC00000900A68B2F90A30834242DCB2F90E106E
:102FD000029881423DDB4FF0000A0D980A96D046D8
:102FE000039034E0BAF1000F05D10A984FF0080AB7
:102FF00010F8014B0A900599AAEB090A34FA01F07E
:1030000004FA09F4E4B204D117490968097C890774
:1030100017D415490968C96B0A680B921F9A0AB13F
:1030200052F82000086003991A98009B0A18DDE9FD
:103030000210521EFFF7FCFC0B490B980968C96B84
:10304000086003991A9808F1010808440390B845EC
:10305000C8DB0C9802901D980BF1010B0644AB45A0
:10306000A8DB47E7700000204C000020640000202F
:10307000002818D0410817D0810817D0C10817D0F0
:10308000010917D0410917D0010A17D0410A17D0FA
:10309000010B15D0C10B13D0010C11D0810C11D034
:1030A000000E11D020207047012070470220704789
:1030B00003207047042070470520704708207047A0
:1030C00010207047122070471820704700B500226A
:1030D000FFF7CEFF012804D0811E062903D808225D
:1030E0000BE0012209E0A0F10901072901D8102213
:1030F00003E011380F2800D82022104600BD000040
:103100002DE9FC410121202000F098F84024009492
:1031100001208DF8040000218DF806108DF80700BD
:103120008DF805100B4F69463846FDF783FD802664
:10313000009669463846FDF77DFDA5000095694675
:103140003846FDF777FD0348183004800680058077
:10315000BDE8FC81001402404FF0D04302E05A88E1
:1031600020F8022B491E4A1CF9D170474FF0D0417C
:10317000488070474FF0D04202E030F8023B538065
:10318000491E4B1CF9D170474FF0D0410880704761
:10319000FEE7704708B54FF4A06000F043F8252023
:1031A0008DF8000001208DF801008DF802008DF8E7
:1031B0000300684600F002F808BD000030B50F2398
:1031C000C27801250178002A1FD0154A126802F43E
:1031D000E062C2F5E062C2F30722C2F10404D34008
:1031E0004278A24084781C401443220101F1E0217E
:1031F00081F80024007800F01F018D404009800014
:1032000000F1E020C0F8005130BD01F01F00854002
:103210004809800000F1E020C0F8805130BD000076
:103220000CED00E0024908430249086070470000C5
:103230000000FA050CED00E070470000054A002987
:1032400003D0116801431160704711688143116018
:103250007047000030380240054A002903D0116849
:10326000014311607047116881431160704700008D
:1032700038380240054A002903D011680143116023
:103280007047116881431160704700004038024068
:10329000054A002903D01168014311607047116885
:1032A000814311607047000020380240054A002920
:1032B00003D01168014311607047116881431160A8
:1032C000704700004438024070B5244B196801F083
:1032D0000C01234C00291ED0224E04291DD00829A0
:1032E0001DD00460196801F0F00109091E4A545C00
:1032F0000168E14041601C6804F4E054A40A145DD4
:1033000021FA04F484601B6803F460435B0BD25C15
:10331000D140C16070BD0460E4E70660E2E70F4A97
:10332000121F1168C1F38055116801F03F0135B1DA
:10333000B6FBF1F11468C4F38814614305E0B4FBF3
:10334000F1F11468C4F3881461431268C2F30142B6
:10335000521C5200B1FBF2F10160C3E70838024091
:103360000024F40040787D01000000207047000038
:103370000CB50022019200922749086840F4803081
:1033800008604FF4A043086800F4003000900198F2
:10339000401C0190009810B901989842F3D1086838
:1033A000800302D50120009000E0009200980128DF
:1033B00031D119484030026842F08052026017480B
:1033C000026842F44042026013480830026802601A
:1033D000026842F400420260026842F4A0520260B5
:1033E000021F0F4B13600A6842F080720A600A687D
:1033F0009201FCD50B4A40F205711160016821F081
:1034000003010160016841F0020101600168C1F33C
:1034100081010229FAD10CBD003802400070004041
:1034200019544007003C02407047000010B5124894
:10343000016841F4700101601048016841F0010128
:1034400001600E4A00210832116002680C4B1A40DC
:103450000260031D0B4A1A60026822F48022026097
:1034600006480C300160FFF783FF03494FF000600E
:103470008039086010BD000088ED00E0003802408F
:10348000FFFFF6FE1030002410B509480168491C02
:103490000160084C0121204600F020F8002805D0EA
:1034A0002046BDE81040012100F009B810BD000021
:1034B0003400002000100040C94301827047C94316
:1034C00001827047002904D0018841F00101018088
:1034D0007047018821F001010180704702460020F9
:1034E000138A0B4092890A40002B02D0002A00D098
:1034F00001207047002A03D082890A4382817047E5
:1035000082898A43828170473EB501211020FFF7EE
:10351000B1FE0920019042F2CF00ADF80000094C45
:103520006946204600F010F801212046FFF7C4FF4D
:10353000012211462046FFF7DDFF01212046FFF75B
:10354000C1FF3EBD0010004030B50288164C174D3B
:10355000A0420DD0A8420BD0B0F1804F08D0144B40
:10356000984205D0134B984202D0134B984203D196
:1035700022F070034A881A43104B984206D0104B31
:10358000984203D022F440730A891A4302804A68A1
:10359000C2620A880285A04201D0A84201D1897A7C
:1035A00001860121818230BD0000014000040140FC
:1035B0000004004000080040000C004000100040E3
:1035C0000014004010B500F004F8BDE81040FFF70B
:1035D0009BBF08B54FF4E060FFF724FE36208DF85E
:1035E000000000208DF8010003208DF8020001206A
:1035F0008DF803006846FFF7E1FD08BD002904D0FF
:10360000818941F4005181817047818921F4005101
:10361000818170470246002012880A4200D00120B2
:10362000704710B540F66A13C1F3421301F01F044E
:103630000121A140012B07D0022B07D014303AB151
:1036400002680A43026010BD0C30F8E71030F6E75C
:1036500002688A43026010BD7FB504460D46208A89
:1036600020F44051E88808432082A08941F20C618F
:103670008843A9882A8911436A8902431143A18199
:10368000A08A20F44071A8890843A0826846FFF709
:103690001BFE1E48844202D01D48844201D103987B
:1036A00000E00298A189090408D500EBC00101EBF4
:1036B000001029684900B0FBF1F007E000EBC00101
:1036C00001EB001029688900B0FBF1F06422B0FB27
:1036D000F2F109010B096FF018056B4300EB830051
:1036E000A3891D044FF0320307D503EBC000B0FBE4
:1036F000F2F000F00700084306E003EB0010B0FB17
:10370000F2F000F00F00084320817FBD001001405F
:1037100000140140C1F3080181807047FEE70000FA
:1037200002490120096881F8540070474C000020CC
:103730002DE9F0418AB0040036D0FDF7C1FD0190BB
:10374000D0E90012CDE90412876A056A01A8FDF7E5
:10375000C5FD204600F0B4FA060025D0204600F052
:1037600002F98046B80704D52A46414604A800F06D
:10377000F8FB2046FDF7A4FD01904046FDF7A0FDB3
:1037800006903046FDF79CFD039005620698019A6D
:10379000C1691162C46101A8FDF7A0FD06A8FDF78B
:1037A0009DFD03A8FDF79AFD0AB0BDE8F081000079
:1037B0002DE9FC5FDFF834A10746DDE90C54DAF8A7
:1037C0001800DDF83CB0984691460E4604434DB9CA
:1037D000BAF8020048B346480AF144010068407C48
:1037E00051F82050681C0ED0FDB12846FDF768FD49
:1037F0000190B0F90010B0F902200F441644B9F15D
:10380000000F02D006E000250FE0B0F90430591A8D
:1038100001F10109B8F1000F04D1B0F90600801AD6
:1038200000F1010801A8FDF759FD0BF12C00FDF78F
:10383000ADFC5FEA000B56D0BAF80200401CAAF8B3
:1038400002005846FDF73CFD0090078007EB090198
:103850004680491E818006EB0801491EC1800E99F1
:103860000161244A816A2240114381626846FDF762
:1038700035FDDAF810005E4650B1FDF747FD07460A
:103880003046FDF743FD0146786948617E6101E0FD
:10389000CAF810B02946584600F0A8FAA00602D58A
:1038A000584600F03FF9E00704D0DAF82410491C2C
:1038B000CAF82410600602D55846FFF739FFA00762
:1038C0000DD55846FDF7FCFC0090816A41F00201DD
:1038D00081626846FDF702FD584600F0F0F80121CC
:1038E000584600F079FB5846BDE8FC9FC000002018
:1038F0004C0000209F3F3F0010B50446C168D4E94A
:103900000020172A0DD004DC0E2A0CD0142A07D16F
:1039100004E0222A0CD0282A02D10CE000F08BF916
:103920000020E06010BD2146BDE8104000F018B94D
:103930006FF07040F5E7BDE8104000F0C0B800003F
:10394000034804490068407C51F82000704700009B
:103950004C0000200401002010B5002802D0FDF723
:10396000D5FCC06910BD10B5002802D0FDF7CEFC13
:10397000806910BD2DE9FF5F2C4D6878002853D178
:1039800000272B482F616F630068DFF8A8903C4642
:103990004764AF806F804FF0020A4FF0FF3B43F661
:1039A000FF7805F144062046FDF7B2FD98B1CDE958
:1039B0000297CDE900BA0021424643460846FFF788
:1039C000F7FE1A4A46F824004C326FF0704142F874
:1039D000241000F074F8641C022CE4DB164FDFF8AE
:1039E0005C80DFF85C90002407EBC40000F0ECF88A
:1039F00008EBC40000F0E8F809EBC40000F0E4F8BC
:103A0000641C022CF0DB306800F08CF8FFF788FEB5
:103A10000120064968703C310A48086004B0084635
:103A2000BDE8F05FFEF720BABDE8FF9FC0000020B0
:103A30004C000020F5690008502B0020602B00206E
:103A4000702B0020CD5A000870B586B00D460600D8
:103A50002CD0FDF735FC0090846AA10723D5D0E96E
:103A60000010CDE90110E00302D5304600F014FA51
:103A70005DB1286803906868049003A9009800F07D
:103A8000ABF803A901A8FEF737F9314601A800F009
:103A9000ABF840B140F601000440012C08D001A968
:103AA000304600F0F5F96846FDF718FC06B070BD29
:103AB0000098026A816901A800F053FAF3E7002137
:103AC000FFF7C2BFFEB515460E4604001CD0FDF739
:103AD000F7FB0246009090F82800800711D5314688
:103AE00001A8FEF726F960B16846FDF7F7FB2A4604
:103AF00001A9204601F03EFF2046FFF72DFF0446B6
:103B00000CE06846FDF7EAFBFEBD2A4601A9204607
:103B1000FFF7D8FF2046FDF7F9FB046A002CF4D12B
:103B2000FEBD000070B50C4D04002868866C01D104
:103B30000A490C698464204600F026FAFFF7DAF897
:103B40002046FDF7E3FB2968B0F90020CA64B0F90C
:103B500002000865304670BD4C000020C000002007
:103B600070B50C00054609D0FFF7FDFE002805D012
:103B70002146A560BDE8704000F010BA70BD00009D
:103B80000EB50E48006890F8541009B10C4811E0C9
:103B9000806CFDF795FB0090D0E90010CDE9011095
:103BA0006846FDF79BFB0748816A11B101A800F048
:103BB0001BF801A802F002F90EBD00004C00002025
:103BC000D02A0020C000002002490A680260086074
:103BD00070470000D40000200B46B0F90220B0F975
:103BE00000101846FDF74EBE38B50C460546204677
:103BF000FDF766FB0146009090F82800800703D48B
:103C00006846FDF76BFB12E02846FEF775F8009852
:103C1000806920B104466846FDF760FBE7E7684627
:103C2000FDF75CFB204600F043FB002801DA002092
:103C300038BD012038BD38B50C4600280AD0002C0C
:103C400008D0FDF73DFB2146009000F004F86846DF
:103C5000FDF744FB38BD00224A800A808288038831
:103C6000D21A8A80C2884088101AC880704710B55E
:103C7000FFF779FE002802D0FDF748FBC06910BDB0
:103C80000D4810B5006890F85400002806D00B4C81
:103C90006069012803DD401E6061002010BD2069BD
:103CA000401C206101F0AEFA18B1FFF769FF012056
:103CB00010BD6069EFE700004C000020C82A00201A
:103CC00070B50546FFF7D3FF08E0AC4201D10024F0
:103CD00006E0FDF71BFB006AA84201D00400F4D106
:103CE000204670BD10B50446FDF710FB8069002822
:103CF000F9D12046BDE8104000F0DABAF0B5384EF0
:103D0000074687B0306890F8541041B1354C61696E
:103D1000491C6161012905DD012007B0F0BDFFF7F5
:103D20002FFFF9E7806CFDF7CBFA2F4D4FF0FF31F5
:103D300000902161297821B181680291C0680390C7
:103D400007E090F8281089073CD5D0E90010CDE9AC
:103D500002101FB1394602A8FDF7CEFF3068406C53
:103D600078B3009804903068406C01680591406811
:103D70000690A86A30B104A8FDF7B0FAA86AFDF76A
:103D80009FFA049005A90498FFF726FF05A902A849
:103D9000FDF7B2FF0DF11000FDF7A0FAA96A19B105
:103DA00002A8FFF721FFB0B13068816C02A8FFF7CD
:103DB0001BFF80B1DDE90201C4E90001FFF760FFEC
:103DC000ABE706E06069401E60616846FDF786FA71
:103DD00004E06846E0E76069401E606100209CE7FF
:103DE0004C000020C82A0020C0000020FEB50D00B5
:103DF000044647D0FDF764FA009000218561016216
:103E00002846FDF75DFA00990290C56991F82810DF
:103E100001F008062DB12846FDF752FA019036B19F
:103E200015E0C4616846FDF759FA02A828E090F849
:103E3000280000070BD5009805620298C461684607
:103E4000FDF74CFA02A8FDF749FA01A818E002A80C
:103E5000FDF744FA01A8FDF741FA2846FDF756FAA6
:103E600011E004620BE02846FDF750FA5EB990F8C5
:103E70002810090707D50198046200980562684672
:103E8000FDF72CFAFEBD0190056A002DEBD1E8E7A5
:103E9000202201F06FBD000038B5040022D0FDF7EC
:103EA0000FFA009090F82810890718D5406A40B1A1
:103EB0000D49C96AA14204D0FDF75AFC00990020BF
:103EC00048622046FFF748FD044606E02046FFF71B
:103ED000E3FF2046FDF71AFA046A002CF6D1684683
:103EE000FDF7FCF938BD0000C00000202DE9FF41BE
:103EF0009846164607460D0031D00846FDF7E0F912
:103F00000090846A0246A00726D5394601A8FDF72D
:103F100010FF08B340F601000440012C07D04246D0
:103F200001A9284601F026FD0098C46912E0009816
:103F30004346026A816901A8FFF7D8FFF4E7B4425B
:103F40000AD0424601A92046FFF7BCFD2046FDF7F6
:103F5000DDF9046A002CF2D16846FDF7BFF9BDE82F
:103F6000FF812023FFF7C2BFB0F90010B0F9042091
:103F7000914205DCB0F90210B0F90600814201DD82
:103F8000002070470120704710B5FFF7ABFE0028F6
:103F900003DBBDE81040FDF7A9BC10BD70B50D4CAA
:103FA00006460D46206814280DDA3046FDF7AEF9B6
:103FB00001696E6041B12068401C20602846884736
:103FC0002068401E206070BD2846BDE87040FFF7A5
:103FD00093BC00005C0100201FB5CDE900106946CC
:103FE000FFF7DCFF1FBD00002DE9F041214D0C461D
:103FF0000646E968A86B0844A119401E814206D80C
:104000000846096819B941680E4401F05DFEA86BC5
:10401000A0420AD254F8040C271A386828B97868E4
:104020000644384601F050FE3C46304601F08EFB17
:1040300010281CD205EBC0073246002120467B6CBD
:1040400002F0FBF857F8440F083400B144602060D8
:10405000002060603C6028683044286095F8291092
:1040600029B9E968081AA968814200D2A8603046D7
:10407000BDE8F0818C2900202DE9F041054601F0D2
:1040800025FC2A48046CAC4202D8ED1C25F0030440
:10409000804600680C34A04202D20020BDE8F081C6
:1040A00001F02EFD071EF9D0204601F04FFB4146DE
:1040B00030E000BF01EBC002526C52B3956845B3CB
:1040C0006B68A34206D2AA681AB395680DB36B68F1
:1040D000A342F8D3D8F84000191B0C301E46814289
:1040E00000D23446284601F0EFFD0421D8F8340010
:1040F00001EBC7010023455022463946284602F00D
:104100009CF8A64203DD2919301BFFF76DFF3846E6
:10411000C4E7401C1028CDD3204601F0EFFD002855
:10412000C2D0384601F00CFDB7E700008C29002012
:1041300001207047F0B40F4C246814B1A446F0BCC1
:1041400060470D4DDFF834C010C855FA84F6377853
:10415000C4F30726C4F307441CF806602C5D521E06
:1041600004EB461404EBC7240C801944ECD1F0BCDA
:10417000704700007800002030920008309300085B
:104180002DE9F0478146FEF789FC4FF0000807460D
:104190006FF07F444546FEF799FC060018D000BF3B
:1041A00056F82510494502D12846BDE8F0876D1C18
:1041B000BD42F5DB5FF00005484656F82510FDF7D7
:1041C000B1F8A04201D20446A8466D1CBD42F3DB03
:1041D0004046EAE710B5084A52FA80F1074BC0F3AF
:1041E0000724C0F307401B5D105C097800EB431007
:1041F00000EBC12010BD0000309200083093000891
:104200002DE9F05F9A46DDE90A8791460C4605469E
:104210008B46164635F8020B41468847B84701C41D
:10422000761EF7D15046BAF1200F06D20246494613
:104230005846BDE8F05FFDF709BCBDE8F09F2DE9E9
:10424000F05F9A46DDE90A8791460C4605468B46A3
:10425000164615F8010B41468847B84701C4761E3B
:10426000F7D15046BAF1200F06D2024649465846C9
:10427000BDE8F05FFDF7EABBBDE8F09F41884FF471
:10428000FC63C1F3C402007803EA51110A4300F051
:10429000F80042EA0020704781784278C908920805
:1042A000007841EA4211C00841EAC020704700008E
:1042B0000146064A002000BF52F820308B4204D04D
:1042C000401C0228F8DB4FF0FF307047040100204B
:1042D000F7B51546184A01A9009812689047174C7F
:1042E00000902068406920B12946FDF7DAFA0028DD
:1042F00021D00120FDF746FD2068C069406920B14A
:104300008268DDE90001904712E00D4D0CE068463F
:10431000FDF73AFB06462068C069016830468847C9
:10432000296809B1304688470198401E0190EED5B2
:104330000020FDF727FDFEBD3C0100204C000020C1
:104340006C0000202DE9FF4F85B08346DDE9139016
:10435000129ED0E900A0DBF8085003904A488C195F
:104360001F4600684FF08008007C10F0030006D064
:10437000012869D002281BD0032816D164E03878C0
:1043800028FA06F1084201D0039800E05046D5F81B
:10439000301180B28847761C082E01D100267F1C80
:1043A000A9F101005FEA0009E9D109B0BDE8F08F89
:1043B0004FF0000ACDF808A0D5F86CB00194397818
:1043C00028FA06F0014202980BD020B90120CDE96D
:1043D0000140D5F86CB003982BF8020B0AF10100EC
:1043E00012E0012811D1631E00200290079800906E
:1043F0000246D5F8A8C028460199E047D5F83821EB
:104400005146E86E904700208246641C761C082EB8
:1044100001D100267F1CA9F101005FEA0009CED17D
:10442000BAF1000FC1D00798631E00900246D5F87C
:10443000A84028460199A047D5F83821E86E09B070
:104440005146BDE8F04F1047397828FA06F001428E
:104450000DD0D5F8EC3021465846079A9847AB6AFC
:10446000D5F8F0C0434021465846079AE047641CFF
:10447000761C082E01D100267F1CA9F101005FEAFD
:104480000009E1D191E700004C0000202DE9FF5F19
:104490009046DDE90E924D4B99F80050C2F10804A8
:1044A0008A465D5DDDE91071D540494A139E126868
:1044B000127C12F0030226D0012A03D0022A37D040
:1044C000032A72D10069806880471FFA80FBBC42D2
:1044D00000D93C463F1BBAF1000F68D0E8070AD06C
:1044E000DAF808004146039A036850469847318835
:1044F00081EA0B0131806D0808F10108641E06F1A4
:104500000206EBD15EE0314ABC4200D93C463F1B7B
:1045100005F001006D0831F8200026F8020B641E3A
:10452000F6D1002F50D019F8010F0824155CEBE7E5
:1045300088881FFA80FBBC4200D93C463F1BBAF179
:10454000000F17D095B1E80708D0DAF80800414607
:10455000039A036850469847A6F800B008F101088E
:10456000641E06F1020612D06D08EBE706EB440666
:10457000A0440CE04DB1E80701D0A6F800B0641EDD
:1045800006F1020603D06D08F4E706EB4406002F9F
:104590001AD019F8011F0D480824455CCBE719F81B
:1045A000011F0A480824455C91E70DE0FFE7E80792
:1045B00003D0308880EA0B0030806D08641E06F15D
:1045C0000206F4D1002FEAD1BDE8FF9F4C94000809
:1045D0004C0000202DE9FF4F85B08668DDE91257B9
:1045E00014989B4600283AD03F489BF800904C19FD
:1045F00000684FF0C008007C10F0030016D00228BD
:104600002DD14FF0000ACDF80CA0F06ECDE901409D
:10461000C5F103004100C1F1060228FA02F000EAE8
:104620000900C8402ED00399E1B120E0C5F1030094
:104630004100C1F1060228FA02F000EA0900C84070
:10464000149931F82000D6F8301180B288476D1CDB
:10465000042D02D11BF8019F00257F1EE6D109B071
:10466000BDE8F08F012101940391F16E029114993C
:1046700031F82000029908800298801C02900AF10B
:10468000010013E00398012811D1631E002003905C
:10469000079800900246D6F8A8C030460199E04736
:1046A000D6F838215146F06E904700208246641CAF
:1046B0006D1C042D02D11BF8019F00257F1EA7D180
:1046C000BAF1000FCBD00798631E00900246D6F8CF
:1046D000A84030460199A047D6F83821F06E09B0BD
:1046E0005146BDE8F04F10474C0000202DE9FF5F18
:1046F0008B460FA9DDF8388091E82104C0F1040150
:10470000CCB298F80010400081402F48129F91468B
:104710000068CEB2007C10F0030004D001283AD02B
:1047200002284FD114E0AC4200DDECB22D1BB109E0
:104730003AF8210027F8020BB006060E641E14F0AA
:10474000FF04F4D1002D3DD0042418F8016FEAE7EE
:10475000AC4200DDECB22D1BB0090DD0B109BBF1AC
:10476000000F3AF82100388006D0DBF808004946EF
:10477000039A036858469847B006060E641EBF1C8D
:1047800009F1010914F0FF04E6D1002D1AD0042428
:1047900018F8016FDCE7AC4200DDECB22D1BB0096C
:1047A00003D0388880F0FF003880B006060E641E03
:1047B000BF1C14F0FF04F2D1002D03D0042418F81C
:1047C000016FE8E7BDE8FF9F4C0000202DE9FF4F97
:1047D00085B08668DDE9125714989B4600283AD0C8
:1047E0003F489BF800904C1900684FF0F008007C9F
:1047F00010F0030016D002282DD14FF0000ACDF89A
:104800000CA0F06ECDE90140C5F101008100C1F1BD
:10481000040228FA02F000EA0900C8402ED00399E9
:10482000E1B120E0C5F101008100C1F1040228FAE4
:1048300002F000EA0900C840149931F82000D6F8C7
:10484000301180B288476D1C022D02D11BF8019FE8
:1048500000257F1EE6D109B0BDE8F08F012101944B
:104860000391F16E0291149931F8200002990880A9
:104870000298801C02900AF1010013E003980128BD
:1048800011D1631E00200390079800900246D6F8CD
:10489000A8C030460199E047D6F838215146F06E5D
:1048A000904700208246641C6D1C022D02D11BF82B
:1048B000019F00257F1EA7D1BAF1000FCBD007982A
:1048C000631E00900246D6F8A84030460199A047E2
:1048D000D6F83821F06E09B05146BDE8F04F1047C8
:1048E0004C0000202DE9F05F92460BAA894692E821
:1048F00042010A9F9B468B003A78C1F102009A4020
:10490000D5B24F4A0E9CC0B21268127C12F003025C
:104910001BD0012A7CD0022A3AD1D9B328090DD064
:104920002909B9F1000F38F82100208006D0D9F804
:1049300008005A465146036848469847A41C0AF1A5
:10494000010A17F8015F761E4CE039B12909761E7D
:1049500038F8210024F8020B17F8015F022E11DB52
:10496000701006F001062A09401E38F8221005F0E2
:104970000F0224F8021B38F8221024F8021B17F843
:10498000015FF0D1002E03D0290938F821002080E2
:10499000BDE8F09F26E028090DD02909B9F1000FE4
:1049A00038F82100208006D0D9F808005A46514630
:1049B00003684846984715F00F000DD038F82000DE
:1049C0006080B9F1000F07D0D9F808005A460AF103
:1049D000010103684846984717F8015F241D0AF152
:1049E000020AB61E022ED6DA002ED1D02809CFD068
:1049F00038F820002080B9F1000FC9D0D9F808009C
:104A00005A46514603684846BDE8F05F1847FFE73D
:104A1000B04200DDF0B2361AA90903D0218881F036
:104A2000FF01218029070D0E401EA41C10F0FF007D
:104A3000F2D1002EACD0022017F8015FE8E70000A9
:104A40004C0000202DE9FF4F83B08568DDE9107B25
:104A50001E460C465FEA0B0020D02E480068007C02
:104A600010F0030018D0022818D14FF00008D5F834
:104A70006C90C246CDF8044016F8010BE8B1BAF1CB
:104A8000000F0ED012E03078D5F830113BF820003E
:104A900080B28847761C7F1E002FF4DC07B0BDE88B
:104AA000F08F0194D5F86C904FF0010A3BF820008C
:104AB00029F8020B08F1010013E0BAF1010F11D13E
:104AC000059800900246D5F8A8C0631E4FF0000A72
:104AD00028460199E047D5F838214146E86E9047CD
:104AE00000208046641C7F1EC6D1B8F1000FD5D0CF
:104AF0000598631E00900246D5F8A8402846019903
:104B0000A047D5F83821E86E07B04146BDE8F04F20
:104B1000104700004C0000202DE9F04387B0894683
:104B20000EA991E8F01181688DE8F011D1F8E44008
:104B30004946A04707B0BDE8F08300002DE9FF4FCC
:104B400083B099460398DDE91075DDE9138B86681B
:104B50009246012D05D0022D03D0042D01D0082D41
:104B600006D132480068007C00F0030002280ED015
:104B70000AEB0700401E00900498D6F8A84000EB0E
:104B80000B0101EB0903524630465B1EA04700248F
:104B900046E0042D24D004DC012D07D0022D3CD1A9
:104BA00011E0082D29D0102D37D131E01598CDF81E
:104BB00000B0CDE90190DDE9030104EB0A024346B0
:104BC000FFF7C0FB29E01598CDF800B0CDE90190C2
:104BD000DDE9030104EB0A024346FFF7FBFC1CE09E
:104BE0001598CDF800B0CDE90190DDE9030104EBA3
:104BF0000A024346FFF7EAFD0FE0159804EB0A02AC
:104C0000CDE90090DDE903014346FFF71BFF04E017
:104C1000D6F838214946404690471299641C88448A
:104C2000BC42B6DB07B0BDE8F08F00004C000020AE
:104C30002DE9FF4F8FB0A448DDE91F860068DDE94C
:104C40001C970C46006EFCF73BFB0790406908B1CF
:104C5000FCF736FB0A900798C0680C9007A8FCF791
:104C60003DFBA01910900A9858B197490968097C32
:104C7000890706D110ACCDF8009094E80E00FCF73F
:104C8000ADFEDDE9100101F021FE0446102F03D036
:104C9000182F5DDB002057E000251EE0DDE910B095
:104CA0002844DDF828A00190129E5FEA0801204602
:104CB0000ED068B17200FBF785FABAF1000F07D089
:104CC000DAF808003346594647685046019AB84713
:104CD0001E990C98884404446D1C4D45DEDBEAE0C7
:104CE0000A980390DDE910B10698DDF848A0084461
:104CF00001905FEA0805264620D0FEB1039830B146
:104D00008068534659464768019A0398B8470F99F7
:104D100028680969096888473080039828B1806845
:104D20005946019A0368039898472D1DAAF101007E
:104D3000B61C0BF1010B5FEA000AE8D10C981E9932
:104D4000044406988844401C06904845C8DBB2E0FD
:104D5000082F02D02198C0B365E000205DE02198C3
:104D6000129F00280A980290DDE910A05844454699
:104D700000902BD021980490534826460068007C70
:104D800010F0030002D0022841D109E015F8011B00
:104D900004987F1E30F8210026F8020BF6D136E089
:104DA000287858B1049931F820003080029828B151
:104DB00080685146009A0368029898476D1CB61C9B
:104DC0000AF1010A7F1EEBD121E02AE03E48264687
:104DD0000068007C10F0030002D0022817D105E023
:104DE0003A4641462046FBF7EDF910E0287840B1FD
:104DF0003080029828B180685146009A0368029872
:104E000098476D1CB61C0AF1010A7F1EEED10C9862
:104E10001E99044488440BF10100834648459EDBFB
:104E200049E02A482190002543E03846012F04D06C
:104E300002281CD0042F37D128E023480068006ED8
:104E4000FCF73EFACDF800800790219A129905945C
:104E5000CDE90320CDE9016111980A992B18DDE90C
:104E60000F02FFF713FB07A8FCF738FA1CE02198A4
:104E70001299CDE90210CDE90086119804942B18FF
:104E8000DDE90F020A99FFF731FC0DE02198129934
:104E9000CDE90210CDE90086119804942B18DDE9C4
:104EA0000F020A99FFF71EFD1E986D1C80440C9896
:104EB00004444D45B9DB0A98002802D00AA8FCF743
:104EC0000DFA13B0BDE8F08F4C0000205C91000893
:104ED00038B584680092D4F8E840A04738BD08B5DA
:104EE000009200F039F908BD38B5846800930B468C
:104EF000D4F8E840A04738BD2DE9FC47DFF8AC8086
:104F000081461E46D8F8000015468A46006EFCF71A
:104F1000D7F90190406908B1FCF7D2F90090294611
:104F2000504601F0D3FC04460198C768D8F8000049
:104F3000017CC90715D0D9F810008068804787B276
:104F4000009820B181682A460B685146984720880E
:104F50006D1C784020800198B542C0680444EFDDA4
:104F600019E0C06B0168009870B11FFA81F80098D1
:104F70002A4681680B6851469847A4F800806D1C4A
:104F80003C44B542F3DD06E0701B89B2401C218031
:104F90003C44401EFBD101A8FCF7A0F90098002872
:104FA00002D06846FCF79AF9BDE8FC874C00002067
:104FB00001700120704700002DE9F047234C0427C1
:104FC000E06AD8B1206907EBD0014518E800FFF787
:104FD00053F8060037D0616B07EBC600B9460F588F
:104FE00020690837C2003846D4F82C80FBF7EAF86D
:104FF0006763E66249466A1E20690EE01348C030C6
:10500000D0E901100830B1FBF0F5AD1CDEE7666BAE
:10501000431C01EBC007401CF3519042F7D3636B74
:1050200009EBC00000221A50206960626168281AEA
:10503000084425616060B8F1000001D0FCF7C0F8B9
:105040000020BDE8F0870120FBE700008C2900204C
:1050500038B58468049D0095D4F8E840A04738BD71
:105060002DE9FF4F83B03B4F03988B46164685686A
:105070003868DDF840809946007C1946C207A3EBEA
:105080000B0A35D139E000BFD5F8C470EC6E3FB1E2
:10509000CDE900644B46324659460398B8470DE0C7
:1050A0005F4608E0D5F8EC30324639460398984719
:1050B00024F8020B7F1C4F45F4DDEC6E0AF1010071
:1050C00005E021882A8D514024F8021B401E00284B
:1050D000F7D10096D5F8A8404B46324659462846A7
:1050E000A047D5F838210AF10101E86E9047761CF7
:1050F0004645C9DD07B0BDE8F08FA8EB06000AF110
:105100000104401CCDF8008044430B46D5F8A8C0EC
:10511000324659462846E04738680127D5F8689056
:10512000C06BD0F8008011E02646FA2C00D9FA2690
:1051300037B100271FFA88F132464846FCF7C2FE15
:10514000D5F83821314648469047A41B002CEBD1B6
:10515000D0E700004C0000202DE9FF4FDFF8A0A0B1
:105160000C4685B0DAF80000DDF848801F46C16BB8
:10517000154609680391006EFCF7A2F801902946D4
:10518000204601F0A3FB06460198391B01F1010BF3
:10519000D0F80C90406950B3FCF792F8A8EB0501E9
:1051A000491C00915B462A4602902146FCF716FCFA
:1051B00002A8FCF793F81AE0DAF80000007CC007B8
:1051C0000DD005985F46344600698068804780B2FC
:1051D0002188414024F8021B7F1EF9D105E0039885
:1051E0005A4681B23046FCF76DFE4E446D1C454573
:1051F000E2DD01A8FCF772F809B0BDE8F08F00000D
:105200004C000020FEB54F4CD4E90201CDE900016D
:10521000206970B3A089401C00B2ADF8000061891C
:10522000ADF80210B4F90410884207DD2088ADF80B
:105230000000E08910F10100ADF80200BDF90200A4
:10524000B4F90610884274DC3F4D2868806CFCF786
:1052500037F80290BDF90000B4F90010884220D15F
:10526000E088ADF80600A088ADF804002868806CDE
:105270000FE0FFE72088ADF800006088DCE700BFA2
:10528000FCF744F80646006A0022694600F0D5F8AB
:10529000B0690028F4D1029800226946C06900F084
:1052A000CCF8BDF80000ADF804002868806C0AE076
:1052B000FCF72CF80646006A0022694600F046F822
:1052C0000028EED1B0690028F2D102980022694688
:1052D000C06900F03BF80028E3D1B4F90400BDF93F
:1052E0000010ADF80400884207DADDE90001C4E9E6
:1052F000020102A8FBF7F2FF98E72868806C08E03B
:10530000FCF704F80546006A0022694600F05CF8E4
:10531000A8690028F4D1029800226946C06900F00B
:1053200053F802A8FBF7DAFF206944F620618842AF
:1053300001DD0020FEBDDDE90001C4E9020101201C
:10534000FEBD0000C82A00204C000020FEB5174614
:105350000E460546002433E02846FBF7B1FF0090D7
:10536000856A0146A80726D527B13A4601A8FCF769
:10537000E0FC03E0D1E90001CDE9010101A93046DB
:10538000FCF78FFAB8B1E80702D00098C56910E0C1
:10539000BDF80800401C308001240CE001AA314611
:1053A0002846FFF7D3FF00B101242846FBF7AEFFE4
:1053B000056A002DF2D10098056A6846FBF78EFF5A
:1053C000002DC9D12046FEBDFEB516460D46044649
:1053D00030E02046FBF774FF0090846A0146A00786
:1053E00023D526B1324601A8FCF7A3FC03E0D1E99E
:1053F0000001CDE9010101A92846FCF752FAA0B14C
:10540000E00702D00098C4690DE0BDF80400401E1A
:10541000A8800AE001AA29462046FFF7D5FF2046CA
:10542000FBF774FF046A002CF4D10098046A684604
:10543000FBF754FF002CCCD1FEBDFEB516460D4641
:1054400004464AE02046FBF73BFF0090846A014691
:10545000A0073DD526B1324601A8FCF76AFC03E05F
:10546000D1E90001CDE9010101A92846FCF719FAAB
:1054700010B3E00702D00098C46927E000983EB15D
:10548000B0F90210B6F90200814203DD084601E0DE
:10549000B0F90200B5F90210814207DABDF9060041
:1054A000B5F90610401E05E0E88011E0BDF90A00DC
:1054B000B5F906108842F7DB0AE001AA2946204622
:1054C000FFF7BBFF2046FBF721FF046A002CF4D155
:1054D0000098046A6846FBF701FF002CB2D1FEBDBC
:1054E00000787047012070478068012901D00020B2
:1054F0007047406C70470000012901D000207047C0
:10550000004870479C9100080D291CD008DC012937
:1055100014D00A290CD00B290CD00C2906D10BE091
:1055200016291AD0172913D0182918D0002070472F
:105530000C4870470C4870470C48704700688068FA
:10554000D0F8FC00704700688068D0F8F40070471D
:1055500000688068D0F8F800704705487047054833
:10556000704700002D56000819560008895500089C
:10557000295E0008D9550008162901D0002070477F
:1055800000487047EF17000870B50546FBF7AEFC02
:105590004FF4FA70AC68FBF73BFEA066A16B206885
:1055A000C91DC9104843FBF733FEE0660022012104
:1055B000A869FDF779FC0546D4F80811204688470C
:1055C000D4F8B01020468847002D01DD012070BDC1
:1055D000002070BD70470000F8B50D4DDDE906678D
:1055E0008468286867B1002809D10096D4F8A860BB
:1055F0002046B04754F8A80F286006482060F8BD40
:105600000028FCD0C4F8A80000202860F8BD0000E5
:1056100088000020D555000870B515460C46064692
:10562000FBF764FCB068C0E9004570BD70B5154675
:105630000C460646FBF75AFCB068C0E9024570BD4F
:1056400070B500240D46022807DAFBF761FF20B190
:10565000C1688A6A294690470446204670BD806822
:105660000F292CD2DFE801F02B080A0C0E2B2B2B74
:1056700010121414161D240000687047406870470B
:1056800080687047C0687047806B70470020704723
:10569000012070470028FCD090F8340000F0010091
:1056A00070470028FCD090F83400C0F340007047E9
:1056B0000028FCD090F83400C0F3800070474FF011
:1056C000FF307047006810B1C268926A10474FF00F
:1056D000FF30704710B5FDF7E1F9B0F5807F03D0DA
:1056E000802803D307211AE0082118E0402801D3BD
:1056F000062114E0202801D3052110E0102801D351
:1057000004210CE0082801D3032108E0042801D378
:10571000022104E0022801D3012100E00021012040
:105720008840401E10BD4FF6FF70704770B50024D2
:105730000646012531462846FFF782FF844200DAFB
:1057400004466D1EF6D5204670BD00000146054A90
:105750000F2000BF02EBC0031B6C8B4201D9401E1F
:10576000F8D570478C2900208368D3F8EC301847AF
:1057700010B50846114601F0A9F8008810BD8068F0
:1057800000220A804A800288521E8A808088401E39
:10579000C880704738B50C468068FBF791FD0090D3
:1057A00081882180C1886180818802891144491ED5
:1057B000A180C18840890844401EE0806846FBF70C
:1057C0008DFD38BD024909684884002070470000FB
:1057D0004C000020024909688884002070470000BE
:1057E0004C000020F0B4124C646814B1A446F0BC24
:1057F0006047541E04FB030401EB82000D4DDFF8EB
:1058000038C0001F2188E41A01F01F06521EAF5D48
:10581000C1F3451605EBD1211CF80660097801EBB0
:10582000062101EB074140F80419EBD1F0BC7047A9
:1058300078000020D0910008F091000870B504466F
:10584000FDF72CF90546FDF741F9AC4201D30020E4
:1058500070BD0028FCD050F8240070BD70B5184D04
:105860000446E868011DC0E90E010064091D61617C
:10587000417C05F1240050F82100C1680A6B04F155
:10588000080190470F486066A868E061E868083042
:10589000606101202076FEF753F8A064032084F8AD
:1058A00068006FF07040206360630020FDF7F8F936
:1058B0006FF07F40FDF72CFA0348286170BD0000AF
:1058C00040000020B08900083094000870B5264CD4
:1058D00094F82800002846D1012604F1C00584F878
:1058E000286069684FF42050814200D90146286839
:1058F00000F020FCA86810B968688008A8601C49FE
:105900001A4808600846FCF7AFFA5A2020620020C7
:105910005FF0100101FA00F204EBC003401C1A64AE
:105920001028F7D3D5E9001288181438C4E90D01FE
:10593000022300200421C4E9032305E0636B421C19
:1059400001EBC005401C5A512269521E8242F5D813
:1059500066622069401E6060A16BE068FEF744FB50
:10596000FFF72AFB266370BD8C290020595A0008D6
:1059700038000020FEB514460D460646FBF7C6FC6F
:105980000090836A980731D52846FEF7EDFA002883
:105990002CD040F601000340012B27D03046FBF706
:1059A0008FFC02460090294601A8FCF7C2F901A825
:1059B000FEF7DAFAB8B1009944F22002886A104280
:1059C00005D0083101AA0846FBF730FF0BE0DDE9FE
:1059D000012320438862C1E9022305498888401CCD
:1059E0008880FBF7C1FF6846FBF778FCFEBD00002E
:1059F000C0000020084670471046704708467047B0
:105A0000104670470068401A401E70474068801A70
:105A1000401E70470068401A401E70474068801A58
:105A2000401E704710467047084670474068801A0D
:105A3000401E70470068401A401E7047104670476D
:105A4000084670474068801A401E70470068401A38
:105A5000401E7047704700000B4910B5002081F8C8
:105A600028000146084880224030FCF705FAC02291
:105A700000210548FCF700FA03480C220021BDE88C
:105A80001040C030FCF7F8B98C290020084910B547
:105A900000208861014670220648FCF7EDF90448B1
:105AA00008220021BDE810402430FCF7E5B90000D1
:105AB00040000020582A002010B5034C6068FBF716
:105AC0009BFB0020606010BDB00000200B4A10B5A9
:105AD000002151709163084602F15C0402F1540305
