:020000040800F2
:1000000070040020A10100084F170008670A0008CB
:100010004D170008AF020008651B00080000000033
:100020000000000000000000000000002919000886
:10003000EB07000800000000F5170008E5190008AC
:10004000BB010008BB010008BB010008BB010008A0
:10005000BB010008BB010008BB010008BB01000890
:10006000BB010008BB010008BB010008BB01000880
:10007000BB010008BB010008BB010008BB01000870
:10008000BB010008BB010008BB010008BB01000860
:10009000BB010008BB010008BB010008BB01000850
:1000A000BB010008BB010008BB010008BB01000840
:1000B000BB010008BB010008BB010008BB01000830
:1000C000BB010008BB010008BB010008BB01000820
:1000D000BB010008BB010008BB010008BB01000810
:1000E000BB010008BB010008BB010008BB01000800
:1000F000BB010008BB010008BB010008BB010008F0
:10010000BB010008BB010008BB010008BB010008DF
:10011000BB010008BB010008BB010008BB010008CF
:10012000BB010008BB010008BB010008BB010008BF
:10013000BB010008BB010008BB010008BB010008AF
:10014000B1020008BB010008BB010008BB010008A8
:10015000BB010008BB010008BB010008BB0100088F
:10016000BB010008BB010008BB010008BB0100087F
:10017000BB010008BB010008BB010008BB0100086F
:10018000BB010008BB010008DFF810D000F05EF8EA
:100190000048004755200008AFF30080700400209D
:1001A0000648804706480047FEE7FEE7FEE7FEE711
:1001B000FEE7FEE7FEE7FEE7FEE7FEE7E9190008D7
:1001C00089010008D2B201E000F8012B491EFBD2E0
:1001D00070470022F6E710B513460A460446194652
:1001E000FFF7F0FF204610BD2DE9F05F0546002027
:1001F00092469B4688460646814640241BE0284698
:1002000041464746224600F042F853465A46C01A35
:10021000914110D311461846224600F029F82D1AB4
:1002200067EB01084F4622460120002100F020F82C
:1002300017EB00094E41201EA4F10104DFDC484603
:1002400031462A464346BDE8F09F0000064C074D64
:1002500006E0E06840F0010394E807009847103496
:10026000AC42F6D3FFF794FF645F0008845F000898
:10027000202A04DB203A00FA02F100207047914066
:10028000C2F1200320FA03F3194390407047202A5B
:1002900004DB203A21FA02F00021704721FA02F330
:1002A000D040C2F120029140084319467047FEE752
:1002B00010B50C4A00210C4800F0CEF909480B4952
:1002C0004268A2F59853143B05D1027A042A02D160
:1002D000807A082802D00020086010BD0120086044
:1002E00010BD0000580000200068004014000020ED
:1002F00010B500F0B5F800F09BF900F06BF9BDE81F
:10030000104000F087B8000010B50C4988420AD1AF
:1003100001214C06204601F099FA2046BDE8104024
:10032000002101F093BA01218C06204601F08EFADB
:100330002046BDE81040002101F088BA006400406A
:10034000F0B5827A01219140304C226842F00102DE
:1003500022602E4D1C352A688A432A602B4A067B70
:100360000C322B4B002E14D116688E431660468833
:10037000C78846EA0746877A03EBC707C7F840668F
:100380000688878846EA0746877A03EBC707C7F8D7
:100390004466067B012E14D116680E43166042880F
:1003A000068842EA0642867A03EBC606C6F840266D
:1003B000C288868842EA0642867A03EBC603C3F8FF
:1003C0004426124AC37A121D3BB113680B431360D3
:1003D0000E4A0389143223B106E013688B4313607D
:1003E000F6E713688B4313600389012B02D113686E
:1003F0000B431360407B012802D128680843286022
:10040000206820F001002060F0BD00000066004080
:10041000006000401FB50E208DF80A0000208DF806
:100420000B0001218DF80C10ADF8000049F6A40274
:10043000ADF802204FF6FF72ADF80420ADF80620AB
:10044000ADF808008DF80D106846FFF779FF01221E
:100450000221024800F032F81FBD00000068004091
:100460007CB50121022001F0C7F9134D09220C21AE
:10047000284600F0DDFA09220D21284600F0D8FABE
:100480004FF40050009002248DF804408DF8054090
:1004900000218DF8061001218DF8071069462846C5
:1004A00000F088FAE10200918DF804406946284680
:1004B00000F080FA7CBD000000040240002A03D056
:1004C00042690A434261704742698A434261704708
:1004D00010B50022036823F002030360036843F0B1
:1004E000010303604FF6FF7300E0521C4468E40709
:1004F00001D19A42F9D14268D2073ED08A79012AC5
:100500003DD0026822F080020260CA79012A3BD005
:10051000026822F0400202600A7A012A39D0026899
:1005200022F0200202604A7A012A37D0026822F0C3
:10053000100202608A7A012A35D0026822F008028D
:100540000260CA7A012A33D0026822F004020260F3
:100550008A78CC78920742EA04620C7942EA044233
:100560004C79098842EA0452491E0A43C261016873
:1005700021F001010160002120E0002010BD02688F
:1005800042F080020260C0E7026842F0400202606E
:10059000C2E7026842F020020260C4E7026842F04B
:1005A00010020260C6E7026842F008020260C8E773
:1005B000026842F004020260CAE7491C4268D2079E
:1005C00001D09942F9D14068C00701D0002010BD88
:1005D000012010BD3EB501214FF0C06001F028F9A7
:1005E000124C2046FFF790FE684600F093F8002179
:1005F0008DF8061001228DF807208DF808208DF85F
:1006000009108DF80A108DF80B108DF802108DF876
:10061000032003208DF804008DF805200620ADF896
:10062000000069462046FFF753FF3EBD00680040CA
:1006300008B54FF4C06001F0D3F840208DF80000F9
:1006400000208DF801008DF8020001208DF80300D4
:10065000684601F091F808BD10B500EB0113D3F81E
:10066000B04104F004041472002C2CD0D3F8B04133
:10067000E408546003F5D8731C6804F00204547253
:100680005C6804F00F0494725C68240AD4749C685B
:10069000D4729C68240A14739C68240C54739C685C
:1006A000240E9473DC68D473DC68240A1474DC6848
:1006B000240C5474DB681B0E937449B1016941F03A
:1006C0002001016110BDD3F8B041640D1460D1E781
:1006D000C16841F02001C16010BD00001CB50021BF
:1006E0000AA20CCACDE9002341F21432426004226E
:1006F000027200224272082282726A464418535CD7
:10070000E372491CC9B20829F8D31CBDE40CE40CFF
:10071000E40CE40C00218171C1710172417281729B
:10072000C1728170C17003210171022141710121E7
:100730000180704730B50246002093685B010AD4FF
:100740009068000101D5012005E09068C00001D546
:10075000022000E0042004283BD002EB0012D2F873
:10076000803103F00103C2F880310B7A93B3D2F8E1
:1007700080414D681C434B7A43EAC5031C43C2F8D1
:1007800080418B7A03F00F038B7202F5C0725368BD
:1007900023F00F03536053688C7A23435360CB7A62
:1007A0008C7B0D7B43EA04634C7B240444EA0524E0
:1007B00023439360CB7B8C7C43EA04634C7C097CB1
:1007C000240444EA01210B43D360116841F0010184
:1007D000116030BDFFE7D2F880314C7A23430C889A
:1007E00043EA4453C2F88031CBE7704770B586B016
:1007F0000121084601F000F80121102001F034F831
:1008000000248DF8164001208DF8170002258DF880
:1008100015508DF81450400204901C4E04A9304627
:1008200000F0C8F88DF814506902049104A930460C
:1008300000F0C0F807220A21304600F0F9F807223C
:100840000921304600F0F4F84FF4E1300090ADF8A3
:100850000440ADF80640ADF80840ADF80C400C205F
:10086000ADF80A000A4C6946204601F019F900F07B
:100870006FFF012240F22551204601F0F6F80121D8
:10088000204601F0DFF806B070BD00000000024015
:100890000010014001B502E00098401E0090009851
:1008A0000028F9D108BD00008000A0F1C040002957
:1008B00004D0016841F00101016070470168024AFB
:1008C0001140016070470000FEFF0F0070B5016825
:1008D0008900A1F1C0410B68344A1340D0E90124DA
:1008E0002243D0E903452C432243446922438469CF
:1008F0002243C4692243046A2243446A2243846A2D
:100900002243C46A2243046B22431A430A6081686B
:10091000082907D101688900A1F1C0410A6842F0A5
:1009200040020A600168491C8A00A2F1C0421168B5
:1009300001F04044416BD1E9003543EA05138D686D
:100940008E892D0245EA06452B430D8A43EA05535D
:100950000D7D896943EA05630B4323431360C16A34
:10096000B1F5804F08D000686FF070418000A0F1B1
:10097000C040C0F8041170BD01688900A1F1C041F8
:10098000D1F804210A4B1A40806BD0E9003443EAC5
:10099000041384688589240244EA0544806923435A
:1009A00003431343C1F8043170BD00008000F7FF1A
:1009B0000000F0CF2DE9F041002201274FF0030C99
:1009C00007FA02F50B682B40AB422CD106685300A6
:1009D0000CFA03F4A64306600E79D0F800809E401E
:1009E00046EA080606600E79012E01D0022E12D1C9
:1009F0008668A64386604E79D0F808809E4046EA15
:100A0000080686604668AE43466045688E79964023
:100A1000B6B235434560C568A543C560CC799C40F6
:100A2000C3681C43C460521C102AC9D3BDE8F081BE
:100A300010B54B07DB0E9A40C90800EB8100016A34
:100A40000F249C40A1430162016A1143016210BD61
:100A50000246002012690A4200D0012070474183FB
:100A6000704701837047FEE7054A4FF40071002884
:100A700002D01046FFF7F3BF1046FFF7F2BF0000A9
:100A80000014024070B514461D462B46224600F065
:100A900039FB044904FB05F04989BDE8704000F0CA
:100AA000CDB900003000002001B502E00098401EE2
:100AB000009000980028F9D108BD00002DE9F0430E
:100AC000203A97B2184EF568AA88EB8802FB03F427
:100AD0004FEAE47C04EB5C74C4F3C7042D6807FBA5
:100AE000045500F00FFB2C204FF0D04CACF8000068
:100AF000002115E0002033897289802715F80180D4
:100B000027FA00F918EA090F02D0ACF8023001E028
:100B1000ACF80220401CC0B20828EFD3491CC9B26F
:100B2000A142E7D3BDE8F08330000020F0B50546D0
:100B30000E4600240F4F19E0F8687B888188214415
:100B4000994203D90024C18829448DB2C088B9884C
:100B50002844884201D90024002529462046FFF771
:100B6000ADFF761CF8688088204484B23278002A71
:100B7000E2D1F0BD300000202DE9FF4F85B00746DF
:100B80008846002416B20320A0EB42000FFA80F939
:100B900094E00898E8B3254642E0381908EB050AC6
:100BA00004901FFA8AF180B200F0BEFB1FFA8AF1AE
:100BB000A7EB040A1FFA8AF000F0B6FB08EB04006A
:100BC00081B2A7EB050B03901FFA8BF000F0ACFB92
:100BD000A8EB040081B202901FFA8BF000F0A4FB96
:100BE000A8EB050B1FFA8BF11FFA8AF000F09CFBB3
:100BF00004981FFA8BF180B200F096FB029807EB85
:100C0000050A81B21FFA8AF000F08EFB039881B2C8
:100C100000E008E01FFA8AF000F086FB6D1C2DB2A0
:100C2000B542BADD37E0381908EB06050190A9B2E4
:100C300080B200F079FBA7EB040AA9B21FFA8AF090
:100C400000F072FB08EB040081B2A7EB060B0090EA
:100C50001FFA8BF000F068FBA8EB0405A9B21FFA9D
:100C60008BF000F061FBA8EB060B1FFA8BF11FFA6B
:100C70008AF000F059FB01981FFA8BF180B200F066
:100C800053FBA9B2BD19A8B200F04EFB009881B287
:100C9000A8B200F049FB641C24B2B9F1000F05DAD8
:100CA00009EB8400801D0FFA80F907E0A01B09EB17
:100CB00080000A300FFA80F9761E36B2B4427FF710
:100CC00068AF09B0BDE8F08F2DE9FE4F0025002682
:100CD000171AA3EB010882468B46681E002F03DD1E
:100CE0004FF00101019107E003D14FF000010191A4
:100CF00002E00190C7F10007B8F1000F03DD4FF0EB
:100D00000100009007E003D14FF00000009002E0E6
:100D10000090C8F10008474501DD3C4600E044462C
:100D20004FF00009601C029017E05946504600F051
:100D3000FBFA3D444644A54204DD2D1B0198504476
:100D40001FFA80FAA64204DD361B009858441FFAA9
:100D500080FB09F101091FFA89F902988145E4DD58
:100D6000BDE8FE8F2DE9F041064606980F46144671
:100D70001D4600280DD02B4622463946304600F04D
:100D8000C1F9134904FB05F00989BDE8F04100F001
:100D900055B83444641EA2B23B4639463046FFF78C
:100DA00093FF3D446D1EABB2A2B2A9B23046FFF72D
:100DB0008BFFABB2324639463046FFF785FFABB208
:100DC000A2B2A0B23946BDE8F041FFF77DBF0000F6
:100DD0003000002000B597B03C2108A8FFF7F9F9D2
:100DE0001C2101A8FFF7F5F90121084600F012FDCA
:100DF000042101910F2003908806079000200290A3
:100E00000490059006900891099008210A911021FC
:100E10000B910C900E900F9010900902119112906E
:100E20001390149001A81590169008A8FFF74EFD96
:100E300001210420FFF738FD17B000BD10B50022D6
:100E40002C244FF0D0431C8001E05980521C824278
:100E5000FBD310BD2DE9FC5F0121782000F0CCFC14
:100E600002248DF804408DF805404FF48049CDF8F8
:100E7000009069467848FFF79DFD0C220E217648C8
:100E8000FFF7D6FD4FF4004ACDF800A0694672483E
:100E9000FFF790FD0C220F216F48FFF7C9FD0125D8
:100EA000009569466C48FFF785FD0C2200216A48D1
:100EB000FFF7BEFD009469466748FFF77BFD0C22F3
:100EC00001216548FFF7B4FD802000906946634822
:100ED000FFF770FD0C2207216048FFF7A9FD4FF4D2
:100EE000807BCDF800B069465C48FFF763FD0C22BB
:100EF00008215A48FFF79CFD26020096694657488C
:100F0000FFF758FD0C2209215448FFF791FD6702B5
:100F1000009769465148FFF74DFD0C220A214F48C2
:100F2000FFF786FD4FF40068CDF8008069464B4816
:100F3000FFF740FD0C220B214848FFF779FDE00246
:100F4000009069464548FFF735FD0C22114643489D
:100F5000FFF76EFD2003009069464048FFF72AFD29
:100F60000C220D213D48FFF763FDCDF80090694646
:100F70003A48FFF71FFD0C220E213848FFF758FDB5
:100F8000CDF800A069463548FFF714FD0C220F216B
:100F90003248FFF74DFDCDF800B069462E48FFF707
:100FA00009FD0C2208212C48FFF742FD00966946F6
:100FB0002948FFF7FFFC0C2209212748FFF738FDDD
:100FC000009769462448FFF7F5FC0C220A212248C5
:100FD000FFF72EFD1020009069461F48FFF7EAFC3E
:100FE0000C2204211C48FFF723FD202000906946B5
:100FF0001948FFF7DFFC0C2205211748FFF718FD01
:101000000097174F69463846FFF7D4FC0C220A2197
:101010003846FFF70DFD0095124F69463846FFF739
:10102000C9FC0C2200213846FFF702FD8DF8045060
:1010300000208DF806008DF807508DF80540CDF89A
:10104000008069463846FFF7B5FC00966946384689
:10105000FFF7B0FCBDE8FC9F000C0240001002400E
:10106000001802400014024010B5072830D81A4A70
:101070001070C4074FF0F0014FF4A07329D05380D3
:10108000918036234FF0D0410B80D388A3F51344D1
:10109000413C03D1082343EA401048802A200880BD
:1010A0000020488048805088401EC0F307234B80B2
:1010B000C0B248802B20088000204880488090885B
:1010C000401EC0F307224A80C0B248802C2008800E
:1010D00010BD51809380D4E73000002010B5FFF799
:1010E000B9FEFFF777FE0120FFF7BEFC00F000F924
:1010F00000F024F802480078BDE81040FFF7B4BFC4
:101100003000002030B52A254FF0D0442580050A54
:101110006580C5B265801044401E020A6280C0B27C
:1011200060802B202080080A6080C8B26080C818C8
:10113000401E010A6180C0B2608030BD10B500F071
:10114000C3F85F49C880A0F5134141397ED1CF2053
:101150004FF0D044208000206080812060803020CB
:101160006080ED2020806420608003206080122059
:10117000608081206080E8202080852060801020B1
:10118000608078206080CB202080392060802C20F7
:101190006080002060803420608002206080F72022
:1011A000208020206080EA202080002060806080F5
:1011B000B1202080002060801B206080B62020802D
:1011C0000A206080A2206080C020208035206080BE
:1011D000C120208011206080C520208045206080B3
:1011E0006080C7202080A2206080F2202080002024
:1011F00060802620208001206080E02020800F2059
:10120000608026206080242060800B2060800E207B
:1012100060800920608054206080A8206080462083
:1012200060800C20608017206080092060800F2083
:1012300060800720608000206080E1202080002006
:101240006080192060801B20608000E036E0042070
:10125000608010206080072060802A206080472006
:10126000608039206080032060800620608060807C
:1012700030206080382060800F2060803620208001
:10128000C82060802A2020800020608060806080EC
:10129000EF2060802B202080002060806080012073
:1012A00060803F2060803A2020805520608011209F
:1012B00020800448FFF7F8FB2920208010BD0000A3
:1012C00030000020FCBF0200D3214FF0D04001804D
:1012D0004188418841884FF6FF7202EA0122418825
:1012E000114349F24130814200D000207047000094
:1012F00070B50A4D4FF4006421462846FFF7AFFB56
:1013000040F6FF263046FFF7CFFB21462846FFF781
:10131000A8FB3046BDE87040FFF7C6BB0014024092
:1013200001231A46FFF7EEBE10B5084C62889042C2
:101330000AD2A288914207D2FFF7F2FF2189BDE8C5
:1013400010400120FFF77ABD10BD000030000020E2
:101350001CB50121052000F04FFA0120009000206B
:101360008DF804008DF8070069460548FFF722FB59
:101370004FF40050009069460248FFF71BFB1CBD6C
:10138000000002400008024070B504460D462946A0
:101390002046FFF75DFB012801D0002070BD2946E3
:1013A0002046FFF755FB0128F9D0012070BD000051
:1013B00010B5014600F00AF8C38803484288BDE82A
:1013C00010400020FFF75EBB300000200148C068DD
:1013D0007047000030000020014A108151817047A1
:1013E000300000200149C860704700003000002034
:1013F0000149088170470000300000202DE9F047C6
:101400009AB0904F3878401C38708F48FFF7EAFF49
:101410004FF4784900214846FFF7DEFF8B4D8C4E94
:1014200000212B8832880846FFF72CFBFFF7CEFF00
:1014300088A10020FFF77AFBFFF7C8FFC0888BA1C7
:10144000FFF774FB90484FF6FF740088A0F5134136
:10145000413907D1FFF7BAFFC0888CA104EA4000E8
:10146000FFF764FBFFF7B2FFC0888DA100EB4000DF
:1014700080B2FFF75BFB9148FFF7B4FF4FF4FC68C5
:101480004046FFF7B5FF3A788DA101A800F07CFB3C
:10149000FFF79CFFC08804EA8000FFF789FFFFF791
:1014A00095FFC08801A904EA8000FFF73FFB874849
:1014B000FFF798FFFFF78AFFC08804EA8000FFF774
:1014C00077FF1F20FFF794FFFFF780FFC08880A100
:1014D00004EA8000FFF72AFB4F463846FFF788FFF3
:1014E000E623D222AA213220FFF7EEFBF023D222FC
:1014F000C8213220FFF7E8FB4046FFF779FFE623DB
:10150000C822AA216420FFF7DFFBC821F023DC22D8
:101510000846FFF7D9FB1F20FFF76AFF6E22E6237C
:10152000AA211046FFF7D0FBF023DC22C82182203D
:10153000FFF7CAFB6FF07F494846FFF7ABF92888F1
:101540003288803883B280210020FFF79BFAFFF7B2
:101550003DFFC08804EA8000FFF72AFF1F20FFF745
:1015600047FFFFF733FFC0885CA104EA8000FFF764
:10157000DDFA3846FFF73CFF4FF0010A1E236422D4
:10158000C8213220CDF800A0FFF7ECFB4046FFF762
:101590002FFF0020009028231422C821A020FFF74D
:1015A000E1FB1F20FFF724FF14233222C821AA20C9
:1015B000CDF800A0FFF7D6FB4846FFF76BF9288867
:1015C0003288803883B280210020FFF75BFAFFF772
:1015D000FDFEC08804EA8000FFF7EAFE1F20FFF747
:1015E00007FFFFF7F3FEC0883FA104EA8000FFF782
:1015F0009DFA3846FFF7FCFE00231422C821642020
:10160000FFF7BAFA4046FFF7F3FE01230A22C8218A
:101610006420FFF7B1FA1F20FFF7EAFE002314222F
:10162000C8218C20FFF7A8FA4846FFF733F928882D
:101630003288803883B280210020FFF723FA1AB065
:10164000BDE8F087100000201800002034000020C2
:1016500032000020424820332E3220696E63682019
:101660004C434420706172613A000000496D61672B
:1016700065207265736F6C7574696F6E3A323430C1
:10168000783332302070780036000020494C4939D8
:10169000333431204C434420647269766572000013
:1016A0005850543230343620546F7563682050617E
:1016B00064206472697665720000000020000020DA
:1016C000436F756E74203A202564200028000020A6
:1016D00044726177206C696E653A000044726177EC
:1016E00020526563743A0000447261772043697246
:1016F0003A0000002DE9FC410121202000F07CF897
:101700004024009401208DF8040000218DF806107B
:101710008DF807008DF805100B4F69463846FFF726
:1017200049F98026009669463846FFF743F9A50037
:10173000009569463846FFF73DF9034818300480A4
:1017400006800580BDE8FC8100140240FEE770477A
:1017500008B54FF4A06000F043F825208DF8000094
:1017600001208DF801008DF802008DF80300684615
:1017700000F002F808BD000030B50F23C278012543
:101780000178002A1FD0154A126802F4E062C2F5FF
:10179000E062C2F30722C2F10404D3404278A240BF
:1017A00084781C401443220101F1E02181F80024D7
:1017B000007800F01F018D404009800000F1E0201A
:1017C000C0F8005130BD01F01F008540480980007D
:1017D00000F1E020C0F8805130BD00000CED00E0C9
:1017E0000249084302490860704700000000FA05FA
:1017F0000CED00E070470000054A002903D0116895
:101800000143116070471168814311607047000007
:1018100030380240054A002903D0116801431160A5
:1018200070471168814311607047000038380240EA
:10183000054A002903D011680143116070471168FF
:10184000814311607047000040380240054A00297A
:1018500003D0116801431160704711688143116022
:101860007047000020380240054A002903D0116863
:101870000143116070471168814311607047000097
:101880004438024070B5244B196801F00C01234C18
:1018900000291ED0224E04291DD008291DD0046025
:1018A000196801F0F00109091E4A545C0168E14021
:1018B00041601C6804F4E054A40A145D21FA04F4A5
:1018C00084601B6803F460435B0BD25CD140C16051
:1018D00070BD0460E4E70660E2E70F4A121F11687A
:1018E000C1F38055116801F03F0135B1B6FBF1F14C
:1018F0001468C4F38814614305E0B4FBF1F1146883
:10190000C4F3881461431268C2F30142521C5200AE
:10191000B1FBF2F10160C3E7083802400024F40093
:1019200040787D0100000020704700000CB50022C7
:10193000019200922749086840F4803008604FF413
:10194000A043086800F4003000900198401C01900A
:10195000009810B901989842F3D10868800302D525
:101960000120009000E000920098012831D1194830
:101970004030026842F0805202601748026842F428
:10198000404202601348083002680260026842F474
:1019900000420260026842F4A0520260021F0F4B34
:1019A00013600A6842F080720A600A689201FCD5EE
:1019B0000B4A40F205711160016821F003010160DA
:1019C000016841F0020101600168C1F3810102294F
:1019D000FAD10CBD00380240007000401954400795
:1019E000003C02407047000010B51248016841F405
:1019F000700101601048016841F0010101600E4A68
:101A000000210832116002680C4B1A400260031D6D
:101A10000B4A1A60026822F48022026006480C30E9
:101A20000160FFF783FF03494FF0006080390860D1
:101A300010BD000088ED00E000380240FFFFF6FE18
:101A400010300024002904D0818941F400518181A3
:101A50007047818921F4005181817047024600203E
:101A600012880A4200D00120704710B540F66A1370
:101A7000C1F3421301F01F040121A140012B07D043
:101A8000022B07D014303AB102680A43026010BD3D
:101A90000C30F8E71030F6E702688A43026010BDA8
:101AA0007FB504460D46208A20F44051E88808435B
:101AB0002082A08941F20C618843A9882A891143B8
:101AC0006A8902431143A181A08A20F44071A88948
:101AD0000843A0826846FFF7D5FE1E48844202D024
:101AE0001D48844201D1039800E00298A1890904AD
:101AF00008D500EBC00101EB001029684900B0FBDC
:101B0000F1F007E000EBC00101EB0010296889004B
:101B1000B0FBF1F06422B0FBF2F109010B096FF0A8
:101B200018056B4300EB8300A3891D044FF03203BB
:101B300007D503EBC000B0FBF2F000F0070008434C
:101B400006E003EB0010B0FBF2F000F00F000843DA
:101B500020817FBD0010014000140140C1F3080145
:101B600081807047FEE700000FB4054B10B503A954
:101B7000044A029800F02CF810BC5DF814FB000039
:101B800031200008400000200FB4084B10B504A914
:101B900002AA039800F01CF8044602A9002000F0F5
:101BA00042FA204610BC5DF814FB00002720000814
:101BB00002E008C8121F08C1002AFAD17047704716
:101BC000002001E001C1121F002AFBD17047000074
:101BD0002DE9FF4F8DB00F460546002606E025286B
:101BE0000BD0DDE90F1290476D1C761C2878002879
:101BF000F5D111B03046BDE8F08F0024A246A146D1
:101C00000122E94900E0044315F8013F203B02FAB4
:101C100003F00842F7D128782A2810D06FF02F025D
:101C20002878A0F13001092914D80AEB8A0102EBC7
:101C3000410144F0020400EB010A6D1CF0E701CF02
:101C40005FEA000A03D544F40054CAF1000A44F0E4
:101C500002046D1C28782E2817D115F8010F44F0C6
:101C600004042A280ED06FF02F022878A0F130014A
:101C700009290AD809EB890102EB410100EB0109AE
:101C80006D1CF2E757F8049B6D1C28786C280FD068
:101C900006DC4C2817D068280DD06A2814D104E03F
:101CA000742810D07A280FD10DE044F400140AE013
:101CB00044F4801401E044F440146978814202D174
:101CC00004F580146D1C6D1C28786E281ED00CDC69
:101CD000632830D004DC00288BD0582811D19FE035
:101CE000642867D069280CD164E073282DD004DC07
:101CF0006F2872D0702804D194E075286ED07828AF
:101D00006DD0DDE90F129047761C4BE1C4F3025011
:101D1000022806D0032809D0042801CF09D0066084
:101D200040E101CFF117C0E900613BE101CF06803E
:101D300038E1067036E117F8040B8DF8000000203A
:101D40008DF80100EB46012003E057F804BB4FF08B
:101D5000FF3061074FF0000102D40DE008F10101EE
:101D6000884649450FDA8045F8DB1BF80810002942
:101D7000F4D108E008F1010188468142FADB1BF842
:101D800008100029F6D1DDE90F23AAEB08008146EF
:101D9000214600F031F9304400EB080604E0DDE9AB
:101DA0000F121BF8010B9047B8F10108F7D221463A
:101DB0004846F2E00A21C4F302524FF0000B0891AA
:101DC000022A04D001CFC117032A09D00AE0FF1D5F
:101DD00027F00707F7E8020108E02CE01EE01FE00B
:101DE00000B2C117042A01D140B2C117021E71F11D
:101DF000000206DA0023D0EB030063EB01012D2281
:101E000002E0220504D52B228DF82420012203E0D4
:101E1000E20701D02022F7E7904653E00A210BE0C9
:101E2000102109E010214FF0000B44F004044FF0A2
:101E30000809089103E008214FF0000B0891C4F352
:101E40000252022A04D001CF0021032A06D006E064
:101E5000FF1D27F00707F7E8020103E080B2042A1C
:101E600000D1C0B24FF0000822072BD52A78702A83
:101E700007D0DDF820C08CF0100C5CEA0B0C05D00C
:101E80000EE040228DF82420012208E050EA0103F0
:101E900006D030238DF824308DF82520022290467C
:101EA000089B83F0080353EA0B030BD150EA0102AD
:101EB00001D1620706D530228DF824204FF00108A9
:101EC000A9F101092A78582A04D038A20B9208AA4D
:101ED0000A920BE03AA2F9E75B46089AFEF784F90A
:101EE0000B9B9B5C0A9A521E0A92137050EA0102E5
:101EF000F2D10A98ADEB000000F1200B600702D58B
:101F000024F4803401E04FF00109D94502DDA9EB4A
:101F10000B0000E0002000EB0B0141440890AAEB0D
:101F2000010AE00306D4DDE90F232146504600F004
:101F300063F806444FF0000908E009A911F8090008
:101F4000DDE90F12904709F10109761CC145F4DB68
:101F5000E0030CD5DDE90F232146504600F04CF894
:101F6000064404E0DDE90F1230209047761C089902
:101F7000481E08900029F5DC08E00A980A990078C4
:101F8000491C0A91DDE90F129047761CBBF1000154
:101F9000ABF1010BF1DC21465046DDE90F2300F0E7
:101FA00019F806446D1C21E609280100303132334E
:101FB0003435363738396162636465660000000085
:101FC000303132333435363738394142434445466F
:101FD000000000002DE9F041044600251E4617468A
:101FE000880404D405E039462020B0476D1C641EE7
:101FF000F9D52846BDE8F0812DE9F04104460025D9
:102000001E469046C80301D5302700E020278804EB
:1020100004D505E041463846B0476D1C641EF9D52D
:102020002846BDE8F0810A68531C0B6010707047A9
:1020300070B50446064DE1B22846FFF78FFD8021BA
:102040002846FFF70BFD0028F9D0204670BD0000A0
:1020500000100140FFF74EFBFEF7C8FBFFF73EF80C
:10206000FFF776F9FEF744F958A0FFF77DFD60A071
:10207000FFF77AFD6D48FFF777FD6D48FFF774FDB8
:102080006CA0FFF771FD0620FEF7EEFF4FF0400B4E
:10209000DFF8DCA1DFF8DC91774CFFF7AFF9012125
:1020A0007648FFF771F9012840D1AAF800B08025E1
:1020B000AAF800506E4F0602BF1C3E806E481F38C3
:1020C000FEF70CFB6C496E481F39FEF733FB42F2FA
:1020D0001070FEF7DFFBAAF800B03D80AAF80060A0
:1020E00068A0FFF741FD6EA0FFF73EFD62481F3874
:1020F000416871A0FFF738FD5F4F143F75A0FFF7EF
:1021000033FD00250A26795D78A0FFF72DFD681CB8
:1021100090FBF6F106FB110010B960A0FFF724FD5B
:102120006D1C082DEFDB5DA0FFF71EFDD9F8040044
:102130000128B2D1AAF800B04D498020891C08803E
:102140004000AAF800006BA0FFF70EFD61A0FFF7AA
:102150000BFD00250A26615D64A0FFF705FD681CE4
:1021600090FBF6F106FB110010B94CA0FFF7FCFC48
:102170006D1C082DEFDB49A0FFF7F6FC2078617895
:1021800040EA0125A078E17840EA012620796179CA
:1021900040EA0127A079E17940EA01285AA0FFF737
:1021A000E3FC29465CA0FFF7DFFC31465FA0FFF7A8
:1021B000DBFC394662A0FFF7D7FC414665A0FFF77C
:1021C000D3FC0020C9F8040067E700000D0A2031A5
:1021D0002ECAB9D3C3B5BCCFDFC1ACBDD3BAC3C15E
:1021E000BDB8F643414ED1B6C9E8B1B80D0A0000FA
:1021F0000D0A20322ECAB9D3C3CCF8CFDFC3B1C188
:10220000ACBDD3BAC33A20463430375632B5D7B016
:10221000E5A3BA335633203C2D2D2D3E2043414EAD
:102220002F3438355F335633200D0A00C85E00085E
:10223000185F00080D0A20352EB1BEC0FDD6D0B5FE
:10224000C463616EB2A8CCD8C2CACEAA314D427066
:1022500073A3ACCEAA73746D3332B5C463616ED709
:10226000EEB8DFCBD9C2CAA1A3200D0A000000003E
:1022700018140240100000206300002000000240FB
:10228000006800400D0AD2D1CAB9D3C343414EB74A
:10229000A2CBCDCAFDBEDDB0FCA3A10D0A0000009B
:1022A0000D0AB7A2CBCDB5C4B1A8CEC4C4DAC8DD7F
:1022B000CEAAA3BA0D0A00000D0A20C0A9D5B949BB
:1022C00044BAC54578744964A3BA30782578200D9E
:1022D0000A0000003C3C2D43414E2D4445425547E9
:1022E0002D41525241592D3E3E0A00002530327890
:1022F000202020000D0A43414EBDD3CAD5B5BDCA2A
:10230000FDBEDDA3BA0D0A00B5B1C7B0B5E7D1B9BE
:10231000CEAAA3BA0D0A0000566F6C7461676531CE
:102320003A2025646D760D0A00000000566F6C742B
:10233000616765323A2025646D760D0A0000000061
:10234000566F6C74616765333A2025646D760D0AAB
:1023500000000000566F6C74616765343A20256494
:102360006D760D0A00000000000000000000000073
:1023700000000000000000000000001818181818E5
:10238000180800081800000000000034242424006D
:1023900000000000000000000000000016247F2460
:1023A00024247E2424000000000000083E684868C1
:1023B0001C1612127C10100000000061D2967408E6
:1023C00010162949C6000000000000003C64643873
:1023D000724ACE467F00000000000018181818004E
:1023E0000000000000000000000000040818103089
:1023F0003030301010180C04000000201008080CB9
:102400000404040C08181020000000080A341C6A98
:102410000800000000000000000000000000181884
:10242000187F1818180000000000000000000000CD
:102430000000001818083000000000000000000034
:10244000003C000000000000000000000000000050
:1024500000000018180000000000000206040C082C
:102460000810102020400000000000003C66424799
:102470005B7342663C0000000000000018784808CA
:10248000080808087E000000000000003C46060620
:10249000040810207E000000000000007C060604F6
:1024A0003C0202067C000000000000000C1C14240A
:1024B0006444FF0404000000000000007E606060CF
:1024C0007E0202067C000000000000001E30604812
:1024D000764242623C000000000000007E020604DA
:1024E0000C08181030000000000000003C6242366A
:1024F0001C6642423C000000000000003C66424274
:10250000661A02047800000000000000000018189D
:10251000000000181800000000000000000018185B
:102520000000001818083000000000000000041827
:102530003060100C060000000000000000000000E9
:102540007E007E0000000000000000000000301847
:1025500004060C1020000000000000301C060606D7
:1025600018100010100000000000001C224141DD86
:10257000B5A5A5AF94C0403C00000000181C342451
:1025800026627E43C1000000000000007C464246F7
:102590007C4242427C000000000000001E204040BF
:1025A000404040603E000000000000007C46424386
:1025B0004343424678000000000000007E606060F7
:1025C0007E6060607E000000000000007E60606051
:1025D0007E60606060000000000000001E604040FF
:1025E000CE4242623E0000000000000042424242F1
:1025F0007E42424242000000000000007E1818188F
:10260000181818187E000000000000007C04040464
:1026100004040444780000000000000042444850D4
:1026200070584C4442000000000000002020202090
:10263000202020203E000000000000006266675F4E
:102640005B5BC1C1C1000000000000006262725209
:102650005A4A4E4646000000000000003C6243C358
:10266000C3C343623C000000000000007C464242BD
:102670004678404040000000000000003C6243C338
:10268000C3C343623C180F00000000007C66626612
:102690007C6C646662000000000000003E604060E8
:1026A0001C0602027C000000000000007F181818C1
:1026B000181818181800000000000000424242429A
:1026C000424242623C00000000000000C1434262FE
:1026D0002624341C1800000000000000C1C141493C
:1026E0005B5B7666660000000000000043663418FD
:1026F000181C2466C300000000000000C1426634BC
:102700001C18181818000000000000007E02040CBD
:10271000181020607E0000000000001C1010101037
:10272000101010101010101C00000040202010107D
:1027300008080C04060200000000003C0C0C0C0C05
:102740000C0C0C0C0C0C0C3C00000000181C24623F
:102750000000000000000000000000000000000079
:1027600000000000000000FF00000020100000003A
:1027700000000000000000000000000000003C0617
:10278000023E42467A0000000000004040405C6289
:10279000424242427C0000000000000000001E2077
:1027A000604060203E0000000000000202023E6225
:1027B000424242663A0000000000000000003C6215
:1027C000427E40603E0000000000000F1810107EA6
:1027D00010101010100000000000000000003F6604
:1027E000426658403E43423C0000004040405C622C
:1027F00042424242420000000000001818007808DF
:10280000080808087E000000000000040C007C049A
:102810000404040404040C78000000606060626C2E
:1028200078706864620000000000007808080808FA
:10283000080808087E000000000000000000764B39
:102840004B4B4B4B4B0000000000000000005C6253
:1028500042424242420000000000000000003C6290
:10286000424342623C0000000000000000005C6245
:10287000424242427C4040400000000000003E6274
:10288000424242663A0202020000000000006E72FC
:1028900063606060600000000000000000003E20F7
:1028A000203C06027C000000000000001010FE101A
:1028B000101010101E000000000000000000424236
:1028C000424242663A00000000000000000043421D
:1028D0006624341818000000000000000000C1C188
:1028E0005B5A5E6666000000000000000000622681
:1028F0001C181C266200000000000000000043427B
:102900006624341C181830E00000000000007E0629
:102910000C1810207E0000000000000E181010108F
:10292000307010101010180E000008080808080871
:1029300008080808080808080000003018080808F7
:102940000C0E080808081830000000000000000005
:10295000714B0600000000000000000000000000B5
:102960000000000000000000000000000000000067
:102970000000000000000000000000000000000057
:102980000000000000000000000000000000000047
:1029900000000380018001800180018001800180AE
:1029A0000180018001800000000003C003C000001E
:1029B0000000000000000000000000000000000017
:1029C00000000E700E700E700C3000000000000051
:1029D00000000000000000000000000000000000F7
:1029E00000000000000000000000000000000000E7
:1029F000000000000618063806307FFE0C300C3050
:102A00000C300C307FFE0C601C60186018600000F9
:102A100000000000000000000000000000000000B6
:102A200000C000C00FF83CC831C031803D801F801D
:102A300003F001F8031C030C031C3FF83FE0070000
:102A40000600000000000000000000000000000080
:102A50001C007E0E630C631863307E6000C0018032
:102A60000300077C0EE61CC618C630C6607C00005A
:102A70000000000000000000000000000000000056
:102A800000000FE01CF0387038701C601FC00F0091
:102A90003F8C71CC60EC607C70383CFC1FCE000039
:102AA0000000000000000000000000000000000026
:102AB000000003C0018001800180000000000000D0
:102AC0000000000000000000000000000000000006
:102AD00000000000000000000000000000000000F6
:102AE000003000E001C0018003000700060006007E
:102AF0000E000E000E000E0006000700030003800B
:102B000001C000E0003000000000000000000000F4
:102B10000C0006000380018001C000E0006000603E
:102B20000070007000700060006000E000C0018074
:102B3000038006000C000000000000000000000000
:102B40000000018011881DB803C007E03DBC01886A
:102B500001800000000000000000000000000000F4
:102B60000000000000000000000000000000000065
:102B70000000000000000000018001800180018051
:102B800001807FFE01800180018001800000000043
:102B90000000000000000000000000000000000035
:102BA0000000000000000000000000000000000025
:102BB000000000000000000003C003C001C001C00D
:102BC00003801F0000000000000000000000000063
:102BD00000000000000000000000000000000000F5
:102BE00000000FF0000000000000000000000000E6
:102BF00000000000000000000000000000000000D5
:102C000000000000000000000000000000000000C4
:102C1000000000000000000003C003C003C000006B
:102C200000000000000000000000000000000000A4
:102C30000000001800380030006000E000C001C053
:102C400001800300030006000E000C001C001800A9
:102C50003000000000000000000000000000000044
:102C6000000001800FF01C38381C301C707E70EEA4
:102C7000738E7E0E7C0C300C381C1E780FE000002A
:102C80000000000000000000000000000000000044
:102C90000000000007C01FC039C001C001C001C052
:102CA00001C001C001C001C001C03FFC3FFC0000E9
:102CB0000000000000000000000000000000000014
:102CC000000003801FF01838003800180038003862
:102CD000007001E0038007001C003FFC3FFC000087
:102CE00000000000000000000000000000000000E4
:102CF000000007801FF0003800380038003007E07F
:102D000007F00038001C001C001820F83FE000000D
:102D100000000000000000000000000000000000B3
:102D20000000000000F001B0033007300E301C300E
:102D3000383070307FFE7FFE003000300030000001
:102D40000000000000000000000000000000000083
:102D5000000000001FF818001800180018001FE0FD
:102D600000F8001C001C001C003800F01FC0000010
:102D70000000000000000000000000000000000053
:102D80000000000003F80F001C001800300037F8A6
:102D90003C3C300C300C380C381C1E380FF0000056
:102DA0000000000000000000000000000000000023
:102DB000000000003FFC001C00180038007000609C
:102DC00000E001C001800380070006000E00000043
:102DD00000000000000000000000000000000000F3
:102DE000000003C01FF8381C381C381C1C380FF0BA
:102DF00007F01C78381C300C381C3C380FF00000F1
:102E000000000000000000000000000000000000C2
:102E1000000003801FF03838301C701C700C380C18
:102E20001FFC0FCC001C001800701FE01F8000006A
:102E30000000000000000000000000000000000092
:102E40000000000000000000000003C003C001807B
:102E5000000000000000000003C003C003C0000029
:102E60000000000000000000000000000000000062
:102E70000000000000000000000003C003C001804B
:102E8000000000000000000003C003C001C001C03A
:102E900003800F00000000000000000000000000A0
:102EA0000000000000000000003800F001C0070032
:102EB0001E0038000E00078001C0007000300000C6
:102EC0000000000000000000000000000000000002
:102ED00000000000000000000000000000003FFCB7
:102EE000000000003FFC3FFC00000000000000006C
:102EF00000000000000000000000000000000000D2
:102F000000000000000000001C000F00038001E032
:102F10000078001C007001E003800E000C0000002F
:102F200000000000000000000000000000000000A1
:102F300000000FC000F0003800380038003803F0FF
:102F400003800300030000000000078007800000EA
:102F50000000000000000000000000000000000071
:102F600000E007F80C0C18063006700363F36633B4
:102F7000C673CC63CC62CC66CCE6C7FCE0006000D4
:102F8000700038101FF0000000000000000000007A
:102F90000000000003C007E006E00E700E700C3069
:102FA0001C3818183FFC3FFC700E600EE007000054
:102FB0000000000000000000000000000000000011
:102FC000000000003FF03838381C381C38383FF01B
:102FD0003FF8381C380C380C381C3FF83FE0000034
:102FE00000000000000000000000000000000000E1
:102FF000000000E007FC1E043800380030007000BC
:1030000070007000300038003C001F9C07FC00007E
:1030100000000000000000000000000000000000B0
:10302000000000003FF03078301C300C300E300EC5
:10303000300E300E300E301C30383FF03FC00000F4
:103040000000000000000000000000000000000080
:10305000000000001FF818001800180018001FF8E2
:103060001FF818001800180018001FF81FF80000BB
:103070000000000000000000000000000000000050
:10308000000000001FF818001800180018001FF8B2
:103090001FF8180018001800180018001800000089
:1030A0000000000000000000000000000000000020
:1030B000000000F007FC1E043800300070007000B3
:1030C00070FC700C700C300C380C1F1C07FC0000DE
:1030D00000000000000000000000000000000000F0
:1030E00000000000300C300C300C300C300C3FFC79
:1030F0003FFC300C300C300C300C300C300C00002D
:1031000000000000000000000000000000000000BF
:10311000000000003FFC01800180018001800180EF
:10312000018001800180018001803FFC3FFC0000A4
:10313000000000000000000000000000000000008F
:10314000000000001FF00030003000300030003080
:10315000003000300030003000701DE01FC0000063
:10316000000000000000000000000000000000005F
:1031700000000000381C387038E039C03B803F0048
:103180003F003B8039C038E038703838381C0000C8
:10319000000000000000000000000000000000002F
:1031A000000000001C001C001C001C001C001C0077
:1031B0001C001C001C001C001C001FFC1FFC00004D
:1031C00000000000000000000000000000000000FF
:1031D00000000000381C7C3C6C3E6E6E666E66CE55
:1031E00063C663866186600660066006600600004E
:1031F00000000000000000000000000000000000CF
:10320000000000003C0C3C0C3E0C360C330C338CA4
:10321000318C31CC30EC306C307C303C301C0000D8
:10322000000000000000000000000000000000009E
:10323000000001C00FF81C3C381C700E700E6006B8
:103240006006700E700E700C381C1E780FE00000C7
:10325000000000000000000000000000000000006E
:10326000000000003FF0383C381C380C380C381C8B
:1032700038783FE038003800380038003800000067
:10328000000000000000000000000000000000003E
:10329000000001C00FF81C3C381C700E700E600658
:1032A0006006700E700E700C381C1E780FE00180E6
:1032B00001C000FF003C0000000000000000000012
:1032C000000000003FF0383838183818383838F027
:1032D0003FC038E0387038383838381C380E0000B5
:1032E00000000000000000000000000000000000DE
:1032F000000001E00FF83800380038003C001F8063
:1033000003F00078001C001C001C38783FE000002F
:1033100000000000000000000000000000000000AD
:10332000000000007FFE018001800180018001809B
:103330000180018001800180018001800180000006
:10334000000000000000000000000000000000007D
:1033500000000000300C300C300C300C300C300C05
:10336000300C300C300C300C381C1C380FF00000C6
:10337000000000000000000000000000000000004D
:1033800000000000E006700E700E381C381C1C187F
:103390001C380C300E70066007E003C003C000004C
:1033A000000000000000000000000000000000001D
:1033B00000000000600660066006600661866386A5
:1033C00073C673CE766C366C3C3C3C3C381C0000BB
:1033D00000000000000000000000000000000000ED
:1033E00000000000301C38181C380E7007E003C0C5
:1033F00003C007E00E701C381838381C700E00002F
:1034000000000000000000000000000000000000BC
:1034100000000000700E700C381C1C380E70066026
:1034200007E003C00180018001800180018000006D
:10343000000000000000000000000000000000008C
:10344000000000003FFC001C0038007000E001C0DC
:10345000038007000E000C0018003FFC3FFC00003A
:10346000000000000000000000000000000000005C
:1034700007F007F00600060006000600060006003A
:10348000060006000600060006000600060006000C
:103490000600060007F00000000000000000000029
:1034A000000018001C000C00060007000300038049
:1034B000018001C000C000600070003000380018BA
:1034C000000C0000000000000000000000000000F0
:1034D0000FE00FE0006000600060006000600060CE
:1034E00000600060006000600060006000600060DC
:1034F000006000600FE0000000000000000000001D
:103500000000000003C006C006600C301818301C14
:1035100000000000000000000000000000000000AB
:10352000000000000000000000000000000000009B
:10353000000000000000000000000000000000008B
:10354000000000000000000000000000000000007B
:1035500000000000FFFF000000000000000000006D
:1035600000001E00038000000000000000000000BA
:10357000000000000000000000000000000000004B
:10358000000000000000000000000000000000003B
:10359000000000000000000000001FF01038001CB8
:1035A000001C0FFC1C1C381C381C3CFC1FDC0000E1
:1035B000000000000000000000000000000000000B
:1035C000000038003800380038003BF83E1C3C1C36
:1035D000380C380C380C380C381C3C781FE00000D4
:1035E00000000000000000000000000000000000DB
:1035F0000000000000000000000007F80E001C00A2
:1036000038003800380038001C000F1807F8000098
:1036100000000000000000000000000000000000AA
:103620000000001C001C001C001C0FFC1C1C381C93
:10363000301C301C301C301C383C1CFC0F9C000023
:10364000000000000000000000000000000000007A
:10365000000000000000000000000FF01C38381CC3
:10366000300C3FFC3000300038001E0C07FC00001E
:10367000000000000000000000000000000000004A
:10368000003C01FE03800300030003007FFC7FFC7D
:103690000300030003000300030003000300000015
:1036A000000000000000000000000000000000001A
:1036B000000000000000000000000FFE1C38381859
:1036C000381818381FF03B8030003FF01FFC300ED8
:1036D000700E381C1FF80000000000000000000001
:1036E000000038003800380038003BF83E383C1CF9
:1036F000381C381C381C381C381C381C381C00007E
:1037000000000000000000000000000000000000B9
:10371000018003C003C0000000001FC001C001C041
:1037200001C001C001C001C001C001C03FFC0000D8
:103730000000000000000000000000000000000089
:10374000002000700070000000003FF0007000706A
:1037500000700070007000700070007000700070E9
:10376000007020E03FC000000000000000000000EA
:1037700000001800180018001800183C187018E015
:103780001B801F001B8019E018701838181C0000DF
:103790000000000000000000000000000000000029
:1037A00000001FC001C001C001C001C001C001C0B4
:1037B00001C001C001C001C001C001C03FFC000048
:1037C00000000000000000000000000000000000F9
:1037D000000000000000000000006F3C79EE71CE98
:1037E000718E718E718E718E718E718E718E0000E0
:1037F00000000000000000000000000000000000C9
:10380000000000000000000000003BF83E383C1CB7
:10381000381C381C381C381C381C381C381C00005C
:103820000000000000000000000000000000000098
:10383000000000000000000000000FF01C3C381CDD
:10384000700E700E700E700C381C1E780FE00000A9
:103850000000000000000000000000000000000068
:10386000000000000000000000003BF83E1C3C1C73
:10387000380C380C380C380C381C3C783FE03800D9
:103880003800380038000000000000000000000090
:10389000000000000000000000000FFC1C1C381C91
:1038A000301C301C301C301C383C1CFC0F9C001C95
:1038B000001C001C001C00000000000000000000B4
:1038C0000000000000000000000019F81F1C1C0C84
:1038D000180E180018001800180018001800000032
:1038E00000000000000000000000000000000000D8
:1038F000000000000000000000000FF81C0018008D
:103900001E000FC001F80018001818381FF0000042
:1039100000000000000000000000000000000000A7
:10392000000000000600060006007FFC06000600FE
:1039300006000600060006000700078401FC0000E0
:103940000000000000000000000000000000000077
:1039500000000000000000000000381C381C381C6B
:10396000381C381C381C381C383C1CFC0FDC000090
:103970000000000000000000000000000000000047
:1039800000000000000000000000700C381C381817
:103990001C380C300E70066007E003C003C0000046
:1039A0000000000000000000000000000000000017
:1039B0000000000000000000000060066006618654
:1039C000738E73CC33CC366C366C3C3C3C38000088
:1039D00000000000000000000000000000000000E7
:1039E00000000000000000000000381C1C380E70B1
:1039F00007E003C003C007E00E701C38381E00004B
:103A000000000000000000000000000000000000B6
:103A100000000000000000000000700C381C381886
:103A20001C380C300E70066007E003C003C0038032
:103A300007000E007C0000000000000000000000F5
:103A4000000000000000000000001FF800380070B7
:103A500000E001C0038007000C001FFC3FFC0000D9
:103A60000000000000000000000000000000000056
:103A7000007801F803800380038003800380030043
:103A80003F003E0003000380038003800380038027
:103A9000038001C000F800000000000001800180E8
:103AA000018001800180018001800180018001800E
:103AB00001800180018001800180018001800180FE
:103AC0000180018001800000000000000000000073
:103AD0001E001F80018001C001C001C001C000C0E4
:103AE00000FC007C00C001C001C001C001C001C0D9
:103AF00001C003801F000000000000000000000063
:103B000000000000000000000000000000001C0099
:103B10003F0671CE60FC00000000000000000000C5
:103B20000000000000000000000000000000000095
:103B30000000000000000000000000000000000085
:103B40000000000000000000000000000000000075
:103B50000000000000000000000000000000000065
:103B60000000000000000000000000000000000055
:103B70000000000000000000000000000000000045
:103B80000000000000000000000000000000000035
:103B900000000000000000000000003C00003C00AD
:103BA000003C00003C00003C00003C00003C0000E9
:103BB0003C00003C00003C00003C00003C00003C9D
:103BC00000003C00000000000000003C00007E00FF
:103BD000003C0000000000000000000000000000A9
:103BE00000000000000000000000000000000000D5
:103BF0000000000000000000000003C3E003C3E079
:103C000003C3C003C3C003C3C003C3C003C1C00018
:103C100000000000000000000000000000000000A4
:103C20000000000000000000000000000000000094
:103C30000000000000000000000000000000000084
:103C40000000000000000000000000000000000074
:103C50000000000000000000000000000000000064
:103C600001E0E001C0E001C0E001C0E03FFFFE3F35
:103C7000FFFE03C1C00381C00381C00381C07FFF79
:103C8000FC7FFFFC07838007038007038007038016
:103C90000707800000000000000000000000000096
:103CA0000000000000000000000000000000000014
:103CB00000000000000000000700000F00000E00E0
:103CC00001FFF007FFF01F0E001E1E001E1C001E4D
:103CD0001C000FDC0007FC0000FF80003FF00038F4
:103CE000F800387800783C0070783071F83FFFE0D9
:103CF0001FFF0000E00000E00000E0000000000006
:103D000000000000000000000000000000000000B3
:103D1000000000000000000000000F800F3FE01EC8
:103D200078703C7070707070E07071C03FE3801FFD
:103D3000C700000E00001C0000780000F0F001E752
:103D4000FC03CF0E078E0E0F0E0E1E0E0E3C07BC90
:103D50007003F800000000000000000000000000F8
:103D60000000000000000000000000000000000053
:103D70000000000000000000000000000001FF0043
:103D800007FF800F03C00F03C00F03C00F0780079A
:103D90009F0003FE0003F0000FF83C3E7C3C3C1FFC
:103DA0003C780FF87807F87C01F03E03F81FFFFC21
:103DB00007FE1F00000000000000000000000000DF
:103DC00000000000000000000000000000000000F3
:103DD00000000000000000000000003E00003C0069
:103DE000003C00003C00003C00003C00003C0000A7
:103DF00000000000000000000000000000000000C3
:103E000000000000000000000000000000000000B2
:103E100000000000000000000000000000000000A2
:103E20000000000000000000000000000000000092
:103E3000000000000000000000800001C0000780BA
:103E4000000F00001E00003C0000780000F00000A1
:103E5000E00001E00001E00001C00003C00003C079
:103E60000001C00001E00001E00000F00000F000EF
:103E7000007800003C00001E00000F000007C0009A
:103E800001C0000000000000000000000000000071
:103E90000000000000000000000003C00001E0007E
:103EA00000F000007C00003E00001E00000F00003B
:103EB00007800007800003800003C00003C00003E8
:103EC000C00003C0000380000780000780000F00CF
:103ED000001E00003C0000780000F00001E000033C
:103EE0008000000000000000000000000000000052
:103EF00000000000000000000000001C00001C008A
:103F00000018000F18F007DBE0007F0000FF00073B
:103F1000DBE00E1870001800001C00001C00000000
:103F20000000000000000000000000000000000091
:103F30000000000000000000000000000000000081
:103F40000000000000000000000000000000000071
:103F50000000000000000000000000000000000061
:103F6000000000000000000000003C00003C0000D9
:103F70003C00003C00003C00003C003FFFFC3FFFD9
:103F8000FC003C00003C00003C00003C00003C0009
:103F90000000000000000000000000000000000021
:103FA0000000000000000000000000000000000011
:103FB0000000000000000000000000000000000001
:103FC00000000000000000000000000000000000F1
:103FD00000000000000000000000000000000000E1
:103FE00000000000000000007C00007E00007E0059
:103FF000003E00001E00003C0000F80007E0000446
:1040000000000000000000000000000000000000B0
:1040100000000000000000000000000000000000A0
:104020000000000000000000000000000000000090
:10403000000000000000000000000003FFE003FF9C
:10404000E000000000000000000000000000000090
:104050000000000000000000000000000000000060
:104060000000000000000000000000000000000050
:104070000000000000000000000000000000000040
:104080000000000000000000000000000000000030
:104090000000000000000000000000000000000020
:1040A00000000000000000007C0000FE0000FE0098
:1040B000007E000000000000000000000000000082
:1040C00000000000000000000000000000000000F0
:1040D000000000000000000000000000780000F078
:1040E0000000E00001E00003C00003800007800042
:1040F0000F00000E00001E00003C000038000070A1
:104100000000F00000E00001C00003C000078000D4
:104110000700000F00001E00001C0000000000004F
:10412000000000000000000000000000000000008F
:10413000000000000000000000000000000000007F
:1041400001FFC007FFE00F00F01E00781E003C3C9E
:1041500000FC3C07FC3C1FBC3C7C1C3DF03C3FC0D1
:104160003C3F003C1E00381E00780F80F007FFE047
:1041700001FF8000000000000000000000000000BF
:10418000000000000000000000000000000000002F
:10419000000000000000000000000000000000001F
:1041A000007E0003FE001FDE000E1E00001E000049
:1041B0001E00001E00001E00001E00001E00001E4B
:1041C00000001E00001E00001E00001E000FFFF871
:1041D0000FFFF800000000000000000000000000D9
:1041E00000000000000000000000000000000000CF
:1041F00000000000000000000000000000000000BF
:1042000003FF800FFFE00E01F00000F00000F0005F
:1042100000F00000F00001E00003C0000F80003E4D
:1042200000007C0001F00003C0000F80001FFFFCB5
:104230001FFFFC0000000000000000000000000064
:10424000000000000000000000000000000000006E
:10425000000000000000000000000000000000005E
:104260000FFF800FFFE00001E00000F00000F00011
:1042700001E00003C001FF0001FFC00003F00000E7
:10428000780000780000780000780001F00FFFC08F
:104290000FFF000000000000000000000000000010
:1042A000000000000000000000000000000000000E
:1042B00000000000000000000000000000000000FE
:1042C000000FC0001FC0003FC0007BC000F3C00152
:1042D000E3C003C3C00783C00F03C01C03C038037F
:1042E000C07FFFFE7FFFFE0003C00003C00003C0CD
:1042F0000003C000000000000000000000000000FB
:1043000000000000000000000000000000000000AD
:10431000000000000000000000000000000000009D
:104320000FFFE00FFFE00F00000F00000F00000F75
:1043300000000F00000FFF800FFFE00000F0000002
:10434000780000780000780000F00003E00FFFC064
:104350000FFE000000000000000000000000000050
:10436000000000000000000000000000000000004D
:10437000000000000000000000000000000000003D
:10438000003FF001FFF003E0000780000F00001E77
:1043900000001E1F001FFFE01FC1F81E00781E0056
:1043A0003C1E003C1E003C0F00780F80F807FFE029
:1043B00001FF80000000000000000000000000007D
:1043C00000000000000000000000000000000000ED
:1043D00000000000000000000000000000000000DD
:1043E0001FFFFC1FFFFC0000780000F00000E00051
:1043F00001E00003C0000780000F00000F00001E56
:1044000000003C0000780000F00001F00001E00036
:1044100003C00000000000000000000000000000D9
:10442000000000000000000000000000000000008C
:10443000000000000000000000000000000000007C
:1044400003FFE00FE3F00F00781E00781E00780FE6
:1044500000F007E3E001FF8001FF8007E7E00F00C5
:10446000F81E00781E003C1E007C1F00F80FFFF0B5
:1044700003FFC0000000000000000000000000007A
:10448000000000000000000000000000000000002C
:10449000000000000000000000000000000000001C
:1044A00003FF800FC7E01E00F01E00783C00783C40
:1044B00000783C00381E00780FEFF807FFB80000C6
:1044C000780000780000F00001E0000FC00FFF004E
:1044D0000FF00000000000000000000000000000DD
:1044E00000000000000000000000000000000000CC
:1044F00000000000000000000000000000000000BC
:10450000000000000000000000000000007E00002D
:104510007E00007E00001800000000000000000087
:1045200000000000000000003C00007E00007E0053
:10453000003E00000000000000000000000000003D
:10454000000000000000000000000000000000006B
:10455000000000000000000000000000000000005B
:10456000000000000000000000000000007E0000CD
:104570007E00007E00001800000000000000000027
:1045800000000000000000003E00007E00007F00F0
:10459000001F00001E00001E0000FC0007F00004C9
:1045A000000000000000000000000000000000000B
:1045B00000000000000000000000000000000000FB
:1045C0000000000000000000400001E00007C00003
:1045D0001F00007E0001F80003E0000F80000F8044
:1045E0000003E00000F800003E00000F800003E040
:1045F0000000E000000000000000000000000000DB
:1046000000000000000000000000000000000000AA
:10461000000000000000000000000000000000009A
:10462000000000000000000000000000000000008A
:1046300000000000001FFFF8000000000000000064
:10464000001FFFF81FFFF80000000000000000003E
:10465000000000000000000000000000000000005A
:10466000000000000000000000000000000000004A
:10467000000000000000000000000000000000003A
:1046800000000000000000000007800003E00000C0
:10469000F800003E00000F800003E00000F8000179
:1046A000F00007C0001F00007C0001F00007C00000
:1046B00003000000000000000000000000000000F7
:1046C00000000000000000000000000000000000EA
:1046D0000000000000000000000001C00001FE001A
:1046E000007F800007C00001E00000F00000F00043
:1046F00001F00003E0007FC0007E00007000007049
:104700000000700000000000000000F80000F80049
:1047100000F80000000000000000000000000000A1
:104720000000000000000000000000000000000089
:1047300000000000000000000000001F8000FFF0EB
:1047400003C07807801C0E000E1C000E3C000F38C2
:104750003FC778FFC770E3C771C3C7F3C387E3C31D
:1047600087E3878EE3878EE3CF8EE3FFFC71F9F05A
:104770007000007000003800003C00000F01C0070E
:10478000FFC000000000000000000000000000006A
:104790000000000000000000000000000000000019
:1047A000007E00007F0000FF0000E78001E780033B
:1047B000C3C003C3C00781E00781E00F00F00F0012
:1047C000F81FFFF81FFFFC3C003C3C001E78001E59
:1047D000F0000F00000000000000000000000000DA
:1047E00000000000000000000000000000000000C9
:1047F00000000000000000000000000000000000B9
:104800001FFFC01FFFF01E00F01E00781E00781E64
:1048100000F01E01F01FFFC01FFFE01E01F81E0088
:10482000781E003C1E003C1E00781E00F81FFFE0B2
:104830001FFF00000000000000000000000000005A
:104840000000000000000000000000000000000068
:104850000000000000000000000000000000000058
:1048600000FFF803FFF807C0000F00001E00001E45
:1048700000003C00003C00003C00003C00003C000C
:10488000003E00001E00000F00000FC00803FFF8EC
:1048900000FFF80000000000000000000000000021
:1048A0000000000000000000000000000000000008
:1048B00000000000000000000000000000000000F8
:1048C0003FFF003FFFE03C01F03C00783C003C3CF7
:1048D000003C3C003C3C001E3C001E3C001E3C00DA
:1048E0003C3C003C3C00783C00F83C07E03FFFC00B
:1048F0003FFC00000000000000000000000000007D
:1049000000000000000000000000000000000000A7
:104910000000000000000000000000000000000097
:104920000FFFF00FFFF00F00000F00000F00000F4F
:1049300000000F00000FFFF00FFFF00F00000F004E
:10494000000F00000F00000F00000F00000FFFF02D
:104950000FFFF00000000000000000000000000059
:104960000000000000000000000000000000000047
:104970000000000000000000000000000000000037
:104980000FFFF00FFFF00F00000F00000F00000FEF
:1049900000000F00000FFFF00FFFF00F00000F00EE
:1049A000000F00000F00000F00000F00000F0000BC
:1049B0000F000000000000000000000000000000E8
:1049C00000000000000000000000000000000000E7
:1049D00000000000000000000000000000000000D7
:1049E00000FFFC03FFFC0FC0041F00001E00003C82
:1049F00000003C0000780FFC780FFC78003C3C0085
:104A00003C3C003C3E003C1F003C0FC03C03FFFC14
:104A100000FFF8000000000000000000000000009F
:104A20000000000000000000000000000000000086
:104A30000000000000000000000000000000000076
:104A40003C003C3C003C3C003C3C003C3C003C3CD2
:104A5000003C3C003C3FFFFC3FFFFC3C003C3C007A
:104A60003C3C003C3C003C3C003C3C003C3C003CB2
:104A70003C003C00000000000000000000000000BE
:104A80000000000000000000000000000000000026
:104A90000000000000000000000000000000000016
:104AA0000FFFF80FFFF8003C00003C00003C000046
:104AB0003C00003C00003C00003C00003C00003C8E
:104AC00000003C00003C00003C00003C000FFFF8F0
:104AD0000FFFF800000000000000000000000000D0
:104AE00000000000000000000000000000000000C6
:104AF00000000000000000000000000000000000B6
:104B00000FFFE00FFFE00001E00001E00001E00026
:104B100001E00001E00001E00001E00001E000012F
:104B2000E00001E00001E00003C00C07C00FFF80BF
:104B300007FE000000000000000000000000000070
:104B40000000000000000000000000000000000065
:104B50000000000000000000000000000000000055
:104B60001E00781E01F01E03C01E07801E1F001EBF
:104B70003C001E78001EF0001FF0001EF8001E3CD6
:104B8000001E1E001E0F801E07C01E01E01E00F842
:104B90001E007C000000000000000000000000007B
:104BA0000000000000000000000000000000000005
:104BB00000000000000000000000000000000000F5
:104BC000078000078000078000078000078000073B
:104BD00080000780000780000780000780000780B2
:104BE0000007800007800007800007800007FFF8AB
:104BF00007FFF800000000000000000000000000B7
:104C000000000000000000000000000000000000A4
:104C10000000000000000000000000000000000094
:104C20003E007C3F00FC3F81DC3B81DC3BC39C3988
:104C3000C39C38E71C38EF1C387E1C387C1E383C7F
:104C40001E78001E78001E78001E78001E78001E58
:104C500078001E00000000000000000000000000BE
:104C60000000000000000000000000000000000044
:104C70000000000000000000000000000000000034
:104C80001F003C1F803C1FC03C1DC03C1DE03C1C65
:104C9000F03C1C783C1C783C1C3C3C1C1E3C1C0F13
:104CA0003C1C0F3C1C07BC1C03FC1C01FC1C00FC36
:104CB0001C00FC00000000000000000000000000DC
:104CC00000000000000000000000000000000000E4
:104CD00000000000000000000000000000000000D4
:104CE00001FFC007FFF00F00F81E007C3C003C3CB9
:104CF000001E78001E78001E78001E78001E7800C6
:104D00001E3C003C3C003C1E00781F00F007FFE00A
:104D100001FF800000000000000000000000000013
:104D20000000000000000000000000000000000083
:104D30000000000000000000000000000000000073
:104D40001FFF801FFFF01E00F81E007C1E003C1E8F
:104D5000003C1E003C1E00781E03F01FFFC01FFE1B
:104D6000001E00001E00001E00001E00001E0000AD
:104D70001E00000000000000000000000000000015
:104D80000000000000000000000000000000000023
:104D90000000000000000000000000000000000013
:104DA00001FFC007FFF00F00F81E007C3C003C3CF8
:104DB000001E78001E78001E78001E78001E780005
:104DC0001E3C003C3C003C1E00781F80F007FFE0CA
:104DD00001FF80003C00003C00001F06000FFF00A8
:104DE00001F80000000000000000000000000000CA
:104DF00000000000000000000000000000000000B3
:104E00000FFF800FFFE00E01F00E00F00E00F00E1D
:104E100000F00E01F00FFFC00FFF000E1F000E0785
:104E2000800E03C00E01E00E00F00E00F80E0078B8
:104E30000E003C0000000000000000000000000028
:104E40000000000000000000000000000000000062
:104E50000000000000000000000000000000000052
:104E600003FFF00FFFF01F00001E00001E00001FD8
:104E700000000FC00007FC0000FF80000FF00001E1
:104E8000F80000780000780000782000F83FFFE08C
:104E90003FFF800000000000000000000000000054
:104EA0000000000000000000000000000000000002
:104EB00000000000000000000000000000000000F2
:104EC0003FFFFC3FFFFC003C00003C00003C0000BA
:104ED0003C00003C00003C00003C00003C00003C6A
:104EE00000003C00003C00003C00003C00003C0096
:104EF000003C000000000000000000000000000076
:104F000000000000000000000000000000000000A1
:104F10000000000000000000000000000000000091
:104F20003C003C3C003C3C003C3C003C3C003C3CED
:104F3000003C3C003C3C003C3C003C3C003C3C0019
:104F40003C3C003C3C003C1E00781F00F80FFFE09A
:104F500003FF8000000000000000000000000000CF
:104F60000000000000000000000000000000000041
:104F70000000000000000000000000000000000031
:104F8000F8000F78001E3C001E3C003C1E00381E3E
:104F900000780F00700F00F00781E00781E003C385
:104FA000C003E3C001E78000F78000FF00007E003F
:104FB000007E000000000000000000000000000073
:104FC00000000000000000000000000000000000E1
:104FD00000000000000000000000000000000000D1
:104FE00078000E78000E78000E78001E38001E380B
:104FF000001E383C1C383C1C387E1C387F1C3CE7AB
:105000001C3CE79C3DC39C1DC3DC1F81DC1F80F85A
:105010001F00F80000000000000000000000000079
:105020000000000000000000000000000000000080
:105030000000000000000000000000000000000070
:105040003C003C1E00780F00F00781E003C3C00164
:10505000E78000FF00007E00007E0000FF0001FFEF
:105060008003E7C007C3E00F81F01F00F83E007C1B
:105070007C003E0000000000000000000000000076
:105080000000000000000000000000000000000020
:105090000000000000000000000000000000000010
:1050A00078001F3C003E1E007C1F00780F80F00738
:1050B000C1E003E3C001E78000FF00007E00003C88
:1050C00000003C00003C00003C00003C00003C00B4
:1050D000003C000000000000000000000000000094
:1050E00000000000000000000000000000000000C0
:1050F00000000000000000000000000000000000B0
:105100001FFFFC1FFFFC0000F80001E00003C000CF
:105110000780000F00001E00003C0000780000F037
:105120000003E00007C0000F80001F00003FFFFCED
:105130003FFFFC0000000000000000000000000035
:10514000000000000000000000000000000000005F
:105150000000000000000000000001FFC001FFC0CF
:1051600001E00001E00001E00001E00001E00001D9
:10517000E00001E00001E00001E00001E00001E0EA
:105180000001E00001E00001E00001E00001E000BA
:1051900001E00001E00001E00001E00001E00001A9
:1051A000FFC0000000000000000000000000000040
:1051B000000000000000000000000E00000F0000D2
:1051C00007000003800003C00001E00000E00000D1
:1051D000F000007800003800003C00001E00000EC7
:1051E00000000F000007800003800001C00001E004
:1051F0000000E000007000007800003C00000000AB
:10520000000000000000000000000000000000009E
:105210000000000000000000000003FF8003FF808A
:1052200000078000078000078000078000078000DB
:1052300007800007800007800007800007800007C4
:10524000800007800007800007800007800007803B
:1052500000078000078000078000078000078003A8
:10526000FF800000000000000000000000000000BF
:10527000000000000000000000000000000000002E
:10528000003C00007E0000E70001C3800381C007EE
:1052900000E00E00F01E007800000000000000009A
:1052A00000000000000000000000000000000000FE
:1052B00000000000000000000000000000000000EE
:1052C00000000000000000000000000000000000DE
:1052D00000000000000000000000000000000000CE
:1052E00000000000000000000000000000000000BE
:1052F00000000000000000000000000000000000AE
:10530000000000000000000000000000000000009D
:10531000000000000000000000000000FFFFFFFF91
:10532000FFFF00000000000000000000000000007F
:10533000000000000000000000000F800003E000FB
:1053400000F800003C000000000000000000000029
:10535000000000000000000000000000000000004D
:10536000000000000000000000000000000000003D
:10537000000000000000000000000000000000002D
:10538000000000000000000000000000000000001D
:10539000000000000000000000000000000000000D
:1053A00000000000000000000000000007FFC00730
:1053B000E7F00000F000007800007800FFF807FF39
:1053C000F80F00781E00781E00781E03F80FFFF813
:1053D00007FC780000000000000000000000000052
:1053E00000000000000000000000000000000000BD
:1053F000000000000000000000001E00001E000071
:105400001E00001E00001E00001E00001E7FE01E89
:10541000FFF01FC0781F00781E003C1E003C1E00DD
:105420003C1E003C1E00381E00781E00F01FFFE0EE
:1054300007FF000000000000000000000000000066
:10544000000000000000000000000000000000005C
:10545000000000000000000000000000000000004C
:1054600000000000000000000000000000FFF0034A
:10547000FFF007C0000F80000F00001E00001E009C
:10548000001E00000F00000F800007C00003FFF0A7
:1054900000FFF0000000000000000000000000001D
:1054A00000000000000000000000000000000000FC
:1054B00000000000000000000000000078000078FC
:1054C00000007800007800007800007801FFF807FD
:1054D000FFF80F00781E00781E00783C00783C0032
:1054E000783C00781C00781E01F81F03F80FFF7845
:1054F00003FC780000000000000000000000000035
:10550000000000000000000000000000000000009B
:10551000000000000000000000000000000000008B
:1055200000000000000000000000000001FFC007B4
:10553000E3F00F00F81E00781E003C1FFFFC1FFF69
:10554000FC1C00001E00001E00000F800007FFF87A
:1055500001FFF80000000000000000000000000053
:10556000000000000000000000000000000000003B
:10557000000000000000000000000003FC001FFE0F
:10558000003E00007800007800007000007000000D
:1055900070003FFFFC3FFFFC0070000070000070D7
:1055A00000007000007000007000007000007000CB
:1055B000007000000000000000000000000000007B
:1055C00000000000000000000000000000000000DB
:1055D00000000000000000000000000000000000CB
:1055E00000000000000000000000000003FFFC07B6
:1055F000C3FC0F00F01E00F01E00F00F00F00F8340
:10560000E00FFFC01E7C001C00001F00000FFFF019
:105610000FFFFC1E003C3C003C3C003C1F81F80F8F
:10562000FFE0003800000000000000000000000063
:10563000000000000000000000001E00001E00002E
:105640001E00001E00001E00001E00001E7FE01E47
:10565000FFF01FC0F01F00781E00781E00781E00AB
:10566000781E00781E00781E00781E00781E0078D4
:105670001E00780000000000000000000000000094
:10568000000000000000000000000000000000001A
:1056900000000000000000000000003C00007E0050
:1056A000007E00003C000000000000000FFE000F24
:1056B000FE00001E00001E00001E00001E00001E56
:1056C00000001E00001E00001E00001E000FFFF85C
:1056D0000FFFF800000000000000000000000000C4
:1056E00000000000000000000000000000000000BA
:1056F000000000000000000000000003800007E040
:105700000007E00003800000000000000FFFC00F52
:10571000FFC00003C00003C00003C00003C00003BB
:10572000C00003C00003C00003C00003C00003C0EA
:105730000003C00003C00003C00007801E3F001F1D
:10574000FE0001C00000000000000000000000009A
:10575000000000000000000000000F00000F00002B
:105760000F00000F00000F00000F00000F00F80FE7
:1057700001E00F07C00F1F000F3C000FF8000FF8EB
:10578000000F3E000F1F000F07C00F03E00F00F8CF
:105790000F007C000000000000000000000000007E
:1057A00000000000000000000000000000000000F9
:1057B000000000000000000000000FFE000FFE00CF
:1057C000001E00001E00001E00001E00001E000043
:1057D0001E00001E00001E00001E00001E00001E15
:1057E00000001E00001E00001E00001E000FFFF83B
:1057F0000FFFF800000000000000000000000000A3
:105800000000000000000000000000000000000098
:105810000000000000000000000000000000000088
:1058200000000000000000000000000039F9F83B13
:10583000BBBC3E3E1C3C3E1C383C1C383C1C383C2F
:105840001C383C1C383C1C383C1C383C1C383C1C6C
:10585000383C1C00000000000000000000000000B8
:105860000000000000000000000000000000000038
:105870000000000000000000000000000000000028
:105880000000000000000000000000001E7FE01E7D
:10589000FFF01FC0F01F00781E00781E00781E0069
:1058A000781E00781E00781E00781E00781E007892
:1058B0001E00780000000000000000000000000052
:1058C00000000000000000000000000000000000D8
:1058D00000000000000000000000000000000000C8
:1058E00000000000000000000000000001FFC007F1
:1058F000E7F00F00F81E003C3C003C3C003C3C0044
:105900003C3C003C3C003C1E00781F00F007FFE0E0
:1059100001FF800000000000000000000000000007
:105920000000000000000000000000000000000077
:105930000000000000000000000000000000000067
:105940000000000000000000000000001E7FE01EBC
:10595000FFF01FC0781F00781E003C1E003C1E0098
:105960003C1E003C1E00381E00781E00F01FFFE0A9
:105970001FFF001E00001E00001E00001E00001E73
:105980000000000000000000000000000000000017
:105990000000000000000000000000000000000007
:1059A00000000000000000000000000001FFF807F8
:1059B000F7F80F00781E00781E00783C00783C0055
:1059C000783C00781C00781E01F81F03F80FFF7860
:1059D00003FC780000780000780000780000780070
:1059E000007800000000000000000000000000003F
:1059F00000000000000000000000000000000000A7
:105A00000000000000000000000000000F1FF00F69
:105A10007FF80FE03C0F803C0F003C0F00000F00B0
:105A2000000F00000F00000F00000F00000F00002B
:105A30000F00000000000000000000000000000057
:105A40000000000000000000000000000000000056
:105A50000000000000000000000000000000000046
:105A600000000000000000000000000001FFE0074F
:105A7000E1E00F00000F000007800003FC0000FFC2
:105A8000C0000FF00000F00000780000F00FFFE011
:105A90000FFF800000000000000000000000000078
:105AA00000000000000000000000000000000000F6
:105AB00000000000000000000000000000000000E6
:105AC00001E00001E00001E00001E0007FFFF87F5D
:105AD000FFF801E00001E00001E00001E00001E06A
