:020000040802F0
:10000000C0E2002059020208B757030871500308E4
:10001000B55703081F400308F177030800000000EC
:10002000000000000000000000000000A101020824
:100030000D4B030800000000F50102089576030847
:1000400073020208730202087302020873020208B4
:1000500073020208730202087302020873020208A4
:100060007302020873020208730202087302020894
:100070007302020873020208730202087302020884
:100080007302020873020208730202087302020874
:100090007302020873020208730202087302020864
:1000A0007302020873020208730202087302020854
:1000B0007302020873020208730202087302020844
:1000C0007302020873020208730202087302020834
:1000D0007302020873020208730202087302020824
:1000E0007302020873020208730202087302020814
:1000F0007302020873020208730202087302020804
:10010000730202084D6103087302020873020208B9
:1001100073020208730202087302020873020208E3
:10012000730202087302020873020208F948030806
:1001300073020208730202087302020873020208C3
:1001400021400308730202087302020873020208C6
:1001500073020208730202087302020873020208A3
:100160007302020873020208730202087302020893
:100170007302020873020208730202087302020883
:100180007302020873020208DFF810D000F056FC78
:1001900000480047A5AA0308AFF30080C0E2002092
:1001A0002A4B19680868B0E8F04F80F30988BFF35C
:1001B0006F8F4FF0000080F311887047000000003F
:1001C00006480068006880F3088862B661B6BFF32D
:1001D0004F8FBFF36F8F00DF00BF00BF08ED00E05F
:1001E000DFF80C00016841F470010160704700BF46
:1001F00088ED00E0EFF30980BFF36F8F134B1A68AF
:100200001EF0100F08BF20ED108A20E9F04F10609B
:1002100008B44FF0500080F31188BFF34F8FBFF345
:100220006F8F1BF0E3FB4FF0000080F3118808BCD8
:1002300019680868B0E8F04F1EF0100F08BFB0EC66
:10024000108A80F30988BFF36F8F7047C0000020C9
:10025000EFF30580704700000648804706480047D6
:10026000FEE7FEE7FEE7FEE7FEE7FEE7FEE7FEE766
:10027000FEE7FEE7A9760308890102082DE9F05F91
:100280000546002092469B46884606468146402405
:100290001BE0284641464746224600F08DF953466A
:1002A0005A46C01A914110D311461846224600F012
:1002B00074F92D1A67EB01084F46224601200021F0
:1002C00000F06BF917EB00094E41201EA4F1010468
:1002D000DFDC484631462A464346BDE8F09F000031
:1002E0000649074A0868504343F23902104408603F
:1002F0004008704701490860704700003003002043
:100300006D4EC64110B5441A0346944209D2841872
:10031000114403E011F8013D04F8013D521EF9D2E9
:1003200010BD40EA0104A40703D009E010C9121F60
:1003300010C3042AFAD203E011F8014B03F8014B71
:10034000521EF9D210BDD2B201E000F8012B491EB5
:10035000FBD270470022F6E710B513460A46044662
:100360001946FFF7F0FF204610BD421C10F8011B94
:100370000029FBD1801A7047034611F8012B00F8C1
:10038000012B002AF9D11846704700000FB400B5C0
:100390008DB010A909900B9000914FF0FF300A909A
:1003A00000200C9005480690054807906A4609A869
:1003B0000F9900F025F90DB05DF814FB1D06020839
:1003C0003B0602082DE9FF5F1D464FF0FF3BD5E9D4
:1003D000014691465F464FF00008A9697F1C0198CD
:1003E0008847296A824688470028F6D1BAF1FF3F3C
:1003F0000CD024F4C064002E19DD600614D5BAF1C7
:100400002B0F09D0BAF12D0F0ED103E0584604B0DE
:10041000BDE8F09F44F48064A9697F1C0198884777
:10042000761E8246002E02DDBAF1300F03D0B9F1FC
:10043000000F26D032E0A969761E44F400747F1CB8
:10044000019888478246002E05DDBAF1780F06D064
:10045000BAF1580F03D0B9F1000F10D01EE0B9F176
:10046000000F02D0B9F1100F18D1A969761E24F43B
:1004700000747F1C019888478246102002E0082003
:1004800000E00A20814609E008FB0908A969761EF8
:1004900044F400747F1C019888478246002E05DDD5
:1004A0004946504600F098F80028EDDAE9690198CD
:1004B0008847A00502D46FF00100A8E7E00725D126
:1004C000600613D5600502D5C8F1000000E0404683
:1004D00029680A1D2A600968220501D5087015E0FF
:1004E000220701D5088011E008600FE02868011D8F
:1004F00029600068210502D580F8008006E0210708
:1005000002D5A0F8008001E0C0F8008038467EE700
:1005100000F0004230F000400AD0C10D01F56071DA
:10052000C0F3160042EA0151C20840071143704768
:1005300000200146704701F0004330B421F0004133
:1005400050EA010206D00A0DA2F56072C1F3130150
:10055000002A02DC30BC00207047440F44EAC1048A
:10056000C100E01830BC00EBC25000F077B830B5E5
:100570000B46014600202022012409E021FA02F561
:100580009D4205D303FA02F5491B04FA02F52844FB
:10059000151EA2F10102F1DC30BD202A04DB203A55
:1005A00000FA02F1002070479140C2F1200320FAC6
:1005B00003F3194390407047202A04DB203A21FAC4
:1005C00002F00021704721FA02F3D040C2F120026C
:1005D00091400843194670473A2800D2303820F03D
:1005E0002002412A01D3A2F13700884201D34FF003
:1005F000FF30704702681144137801601846704755
:10060000D160044951610449116200211161114610
:1006100000F03EBAF5050208850A0208426842B1B8
:10062000016811F8013B23B1521EC0E900121846BF
:1006300070470121C160881E704742685AB1C36883
:10064000016843B983688B4205D0491E521CC0E93A
:100650000012002070474FF0FF3070470029A8BFFC
:100660007047401C490008BF20F00100704710B4DB
:10067000B0FA80FC00FA0CF050EA010404BF10BC90
:10068000704749B1CCF1200421FA04F411FA0CF1BD
:1006900018BF012121430843A3EB0C01CB1D4FEAF6
:1006A00000614FEA102042BF002010BC704700EBF1
:1006B000C35010440029A4BF10BC7047401C49001F
:1006C00008BF20F0010010BC70472DE9FE4F8046A6
:1006D00081EA0300C00F0C46009021F0004123F096
:1006E0000045B8EB0200A94105D24046214690469C
:1006F0001C460B46024623F00040104347D0270D0E
:10070000C7F30A00C3F30A510290401A019040282F
:100710006BDAC3F3130040F4801B0098924620B1BB
:100720000023D2EB030A63EB0B0B01985946C0F18F
:1007300040025046FFF731FF06460D4650465946E7
:10074000019A00F08DF910EB08006141002487EA5E
:10075000115284EAE7731A4340D0009A62B3019AB7
:10076000012A4FEA075215DC001B61EB02014FF032
:10077000004202EA0752CDE90042001C41F5801117
:1007800032462B4600F02BFB03B0BDE8F08F40460D
:100790002146F9E7001B61EB0201001C41F58013C3
:1007A00000185B412018A2F5001747EB030140EA4F
:1007B000D570B6196D4111E06D084FEA360645EA6D
:1007C000C0754FEA0752001B61EB0201001C41F5A6
:1007D000801149084FEA30000019514132462B463A
:1007E00003B0BDE8F04F00F0EBBA009801224000E2
:1007F0000023D0EB020263EBE073009821464FEA3E
:10080000E074B8EB000061EB0401E9E783F000431A
:100810005BE781F0004158E72DE9FE4F81EA0304D0
:1008200004F0004421F0004100944FF0000B23F04D
:10083000004350EA01045ED052EA03045BD0C3F3E4
:100840000A54C1F30A552C44A4F2F3340194A0FBDA
:100850000254C1F3130141F48011C3F3130343F4B1
:10086000801301FB024400FB034E840A970A44EA0A
:10087000815447EA8357A4FB076802958D0A05FB5C
:1008800007854FEA932C04FB0C542705029D4FEA81
:10089000065847EA1637B5EB08056EEB070C870ECE
:1008A000920E47EA811742EA8312A7FB0201B6EBD8
:1008B0000B0164EB00042B0D43EA0C335E1844EB90
:1008C0001C50DA465146E7FB0201C5F313044FEA18
:1008D0000B3343EA14534FEA0432019C43EA060304
:1008E000A4F10C040294009CCDE900B400F077FA66
:1008F00003B0BDE8F08F00200146F9E72DE9F04D87
:1009000081EA030404F0004B21F0004514464FF047
:10091000000A23F0004150EA050220D054EA010207
:100920001DD0C5F30A570246C5F31303C1F31300E4
:10093000C1F30A5640F4801543F48013A7EB060870
:10094000101BD64608F2FD3873EB050002D308F100
:10095000010801E092185B41B8F1000F03DA0020B2
:100960000146BDE8F08D00204FF480110646844614
:100970000EE0171B73EB050705D3121B63EB050392
:1009800006434CEA010C49084FEA300092185B41DB
:1009900050EA0107EDD152EA030012D082EA0400C6
:1009A00083EA0501084305D0101BAB4106D20122A2
:1009B000002306E000224FF0004302E06FF0010246
:1009C00053101AEB06004CEB085110EB0A0041EBF8
:1009D0000B01BDE8F04D00F0F3B9C1F30A52C1F3C9
:1009E000130140F2FF3341F480119A4202DA0020F1
:1009F0000146704740F233439A42A2F2334202DC8E
:100A00005242FFF7D9BDFFF7C8BD000030B5041E44
:100A100071F1000404DB4FF00044404264EB01013B
:100A2000141E73F1000405DB1C464FF000435242D4
:100A300063EB0403994208BF904230BD064C074D5A
:100A400006E0E06840F0010394E80700984710349E
:100A5000AC42F6D3FFF79CFBA4B80608C4B806085E
:100A6000202A06DBCB17203A41FA02F043EAE07372
:100A700006E041FA02F3D040C2F12002914008435F
:100A800019467047C0B24FF4F05100F0F7B90000BA
:100A90002DE9F34F8BB04FF0000801F10C000C462C
:100AA0004FF0010B46460DF1080A019062690121E1
:100AB00001989047051E2DD0252D2CD0216A8847FE
:100AC000C0B16269012101989047216A88470028D6
:100AD000F7D1411E62690198904700E0761CA16938
:100AE0000B988847216A88470028F7D1E1690B985D
:100AF0008847DBE7A1690B9888470746A84201D1E0
:100B0000761CD3E7E1690B9888477F1C02D1B8F1C6
:100B1000000F6FD047E1002762693D4639460198D2
:100B200090472A2804D16269012101989047012544
:100B3000DFF888926269012101989047A0F13001A5
:100B40000A290AD24F45E5DC07EB870100EB410794
:100B5000303FDFD445F01005ECE7E90601D46FF033
:100B600000476C280AD04C2814D0682815D06A2871
:100B70000DD074281CD07A281AD01DE0626901219A
:100B8000019890476C2802D045F0040514E045F028
:100B900002050DE045F020050AE062690121019897
:100BA0009047682802D045F0080505E045F4006547
:100BB0006269012101989047C4E9015765283DD039
:100BC00019DC58287AD00CDC452837D004DC2528DD
:100BD00026D0412831D131E046282FD047282CD1CA
:100BE0002CE05B2877D0612828D063287CD064284B
:100BF00023D15AE0D1E06F2848D008DC66281DD008
:100C000067281BD0692821D06E2816D127E07028CC
:100C100045D0732868D0752847D078280DD14DE08D
:100C2000A1690B988847054625283FF469AFE1691B
:100C30000B9888476D1C3FF46AAFB4E023466A46C0
:100C40006FF001000B99AFF300809FE045F040008A
:100C50006060A80723464FF0000236D43EE0E80764
:100C60007FF447AF2068011D21600068290501D588
:100C700006701BE7290701D5068017E7A90703D5EA
:100C8000F117C0E9006111E706600FE745F0400089
:100C90006060A80723464FF0080216D41EE040F615
:100CA0000E0125EA0100606016E045F0400060603A
:100CB000A80723464FF00A0207D40FE045F0400092
:100CC0006060A80708D5234610226FF001000B9939
:100CD000AFF300805AE007E0234610226FF00100D6
:100CE0000B99FFF76FFB51E04FF000094F464B4661
:100CF000632802D05B2807D041E02079C00601D4E8
:100D00000120A06001273AE0626901210198904723
:100D10005E2805D14FF00109626949460198904764
:100D2000216939B900210A46534643F82120491C5C
:100D30000829FADBB0B3216969B9C11700EBD162A8
:100D400053110AEB830122F01F02821A01200B6863
:100D5000904003430B6062690121019890475D2830
:100D6000E8D1B9F1000F09D00020514651F82020F8
:100D7000D24341F82020401C0828F7DB02AB224672
:100D800000976FF001000B99AFF3008000280CDA98
:100D9000401C08D1BBF1000F05D04FF0FF300DB063
:100DA000BDE8F08FFFE74046F9E7E90701D108F118
:100DB000010806444FF0000B78E60000CCCCCC0CC8
:100DC00010B5141E73F1000408DA401C41F1000153
:100DD00092185B411A4301D120F0010010BD2DE9AA
:100DE000F04D92469B4611B1B1FA81F202E0B0FAA1
:100DF00080F220329046FFF7D0FB04460F4640EACF
:100E00000A0041EA0B0153465A46084313D01146E3
:100E100053EA010019D0C8F140025046FFF7CCFB5D
:100E200005460E46504659464246FFF7B6FB084374
:100E300005D0012004E020463946BDE8F08D0020B1
:100E4000054346EAE0762C4337430A986305E40AF3
:100E5000A0EB08000022FD0A44EA47540A3002D5FC
:100E600000200146E9E7010510196941DDE908455F
:100E700000196941BDE8F04DA2E700007F2801D9C3
:100E8000002208E0064A02EB5002C007127800D1A7
:100E9000120902F00F020120904008407047000044
:100EA0008676060870B58C1810F8015B15F00703FC
:100EB00001D110F8013B2A1106D110F8012B03E0F3
:100EC00010F8016B01F8016B5B1EF9D12B0705D4FB
:100ED0000023521E0DD401F8013BFAE710F8013B44
:100EE000CB1A921C03E013F8015B01F8015B521E60
:100EF000F9D5A142D8D3002070BD00002DE9F047FC
:100F0000466886B00546304603F0AEF8C36D0090E3
:100F1000D0F88840D0F88070D0F86880B0F87C9025
:100F2000002B63D0D3F800A0684603F0EDF914B9A4
:100F300009E024683CB16368284698470028F8D047
:100F400006B0BDE8F0872B68172B00F0A4801DDCED
:100F50000F2B00F08C807CDC0B2B00F0BE800D2B67
:100F60000AD119F0080F07D1EB68DB6823B11B7AAF
:100F700013B130460CF008F83046294609F0FAFE65
:100F80000028DDD028460AF0BFFAD9E7262B74D016
:100F90002EDC1E2B00F0AD80202BEDD1EC68002C58
:100FA000EAD0314660680DF031F9002800F0BE80CB
:100FB000304603F059F8B0F87C300190190740F141
:100FC0002A8101A803F0A0F9314660680DF00CF900
:100FD0000028D1D0304603F047F8034662680190FC
:100FE00001A8C3F8802003F08FF9C5E79A469BE774
:100FF0002A2B65D0B3F5107FBED13046D5F80C80D2
:1010000003F032F806ACB0F87C7044F8140D2046BA
:1010100003F07AF9EB68002B92D098F80830002B97
:1010200000F0A980390740F1B58030460AF0D6F8C3
:1010300007F48873B3F5887F82D107F080039BB2F1
:10104000002B7FF47DAF4146304605220BF040FF78
:1010500076E7112B22D0142B8ED1304601A900F057
:101060002FFC02AB03CBEB681860596068E7BAF15C
:10107000000F81D03046D0477EE7EB68022B7FF42B
:101080005FAF06A9272241F8142DA86803960493A0
:101090000DF016FA54E7C5F80C8051E73046EC68BD
:1010A00002F0E2FF01902389012B05D1B0F87C30DA
:1010B00043F48073A0F87C3001A803F025F95BE7C6
:1010C000304602F0D1FFEB680090002B66D0C0F8EC
:1010D0008430684603F018F932E7304602F0C4FF66
:1010E00003467030009302F06DFE684603F00CF981
:1010F00042E7EC68012C55D0002E3FF421AF04F0FC
:1011000035FF304602F0B0FFB0F87C3001901C078C
:1011100006D523F00803A0F87C3030460BF0BCF96C
:1011200001A803F0F1F806F027FE09E7304602F0C7
:101130009BFFB0F87C3001901A0706D523F0080316
:10114000A0F87C3030460BF0A7F901A803F0DCF8DA
:10115000314620680DF048F800283FF40DAF3046C6
:1011600002F082FF03462268019001A8C3F88020A4
:1011700003F0CAF800E7304602F076FFB0F87C20B2
:101180000190034622F480722046A3F87C2003F0ED
:10119000BBF8D5E630460BF0F7FE46E7D0F88430D2
:1011A000EB6096E738460BF097FC18B338460BF027
:1011B000EBFE38460BF01EF8A8B926B9002F7FF4D5
:1011C000BFAEEF60BCE604F0D1FE304602F04CFF4B
:1011D000B0F87C3001901A0725D501A803F094F8E7
:1011E00006F0CAFDEAE72146384609F0AFFE002EB8
:1011F000E4D0E8E740460BF033FF0746304602F004
:1012000033FF03466846C3F88070009303F07CF810
:10121000002ED3D0D7E743F00803A0F87C30304647
:101220000BF03AF9CDE643F00803A0F87C303046E5
:101230000BF032F9D1E700BF2DE9F04F0F46B0F9BE
:101240000C10B0F90AB08569B0F90E60B0F910A0C1
:10125000B0F812804D4C8FB001EB0309B0F90830A3
:101260000493436805939344603504F07FFE4FF484
:10127000805E32460097494658460395534602948D
:10128000CDF804E00AF042F8064628B906F074FDED
:1012900030460FB0BDE8F08F02F0E6FEDFF8F4A0B4
:1012A000049906903022554609F00AFF0DF1380BDB
:1012B0000FCD5BF8207D07F134040FC40FCD0FC4B0
:1012C00095E80300189B84E8030000257B66DAF8A4
:1012D0002830FB65C7F88050FD66C7F88850A7F82E
:1012E0007C80584603F010F809A9304600F0E8FA6F
:1012F000BDF92A10BDF92800BDF92C20BDF92E300A
:10130000234C03955B1A121A41F2827501320133A4
:1013100002940096019509F0F9FFDAF828300446A6
:101320005B6830469847304602F09EFE03465846BA
:101330009C66069302F0E8FF30460AF051FA04F08A
:1013400015FE304602F090FE036F079007A8089341
:1013500002F0DAFF059908A807F070FD38B906F029
:101360000BFD06F009FD30460FB0BDE8F08F3046AA
:1013700002F07AFE089A0267034607A8079302F074
:10138000C3FF30460BF088F8E9E700BFFD0E020806
:10139000591C0208740100202DE9F041044690B068
:1013A000006800F0CDF9B04B6668A3F12C05002869
:1013B00008BF1D461C2E00F2F880DFE816F0220060
:1013C000F600F600F600F6003500F600F600F6002E
:1013D000F600F6005100F600F600FB00F600F600FD
:1013E000F6000F01F600F60049014B014D014F01D7
:1013F000F600F600F6001D006E69304610B0BDE83C
:10140000F081206802F030FE10ABB0F85A2043F8AB
:101410002C0D42F00C02A0F85A20184602F074FF7E
:1014200020680BF09DFEE8E72B690193B4F910E00A
:10143000B4F91470B4F91860B4F91C40EB68009367
:101440003246704639462346ADF82060ADF81CE0C0
:10145000ADF81E70ADF82240002603F02DFFCCE75A
:101460001C2320680893079002F0FEFD036D059091
:1014700007A89847064605A802F046FF012E40F34C
:101480002681AB6802936B6801932B686269A1693E
:1014900020690093334607F019F92769A369374497
:1014A000C6EB0308286806F0F3F84246394660693F
:1014B00004F030F9686806F0EBF8606942460130E4
:1014C000394604F027F96B6A022B00F3F3802A6A8D
:1014D000964218DA63692069012E03F1020740F38E
:1014E0002481024406EB0308013A3044434639465E
:1014F00004F07EFBA069821BEB69C01A39464346A3
:10150000013004F075FB012ED4BF66696369E76999
:101510002868CCBFF6180236013F06F0B9F83A4603
:101520003146206904F00CFB3A463146A06904F0CC
:1015300007FBE769686806F0ABF82069023F3A46A6
:101540000130314604F0FCFAA0693A4601383146D0
:1015500004F0F6FAEB69022B40F38280AB6AE7698C
:10156000A868022BCCBFFF1A023F06F091F8EA6987
:10157000022A00F396802B6A022B00F388802868E9
:1015800006F086F8A2692169E06904F0C3F868688A
:1015900006F07EF8A2692169E069013A013101385B
:1015A00004F0B8F8AE6A022E60DC0026304610B0B7
:1015B000BDE8F08104F114010EC9A8682569ADF8F1
:1015C0001E10ADF82020ADF82230ADF81C5006F00A
:1015D0005FF807A804F038FB00260EE7298B226984
:1015E000A3696669E5692068ADF81E605B1A0A4464
:1015F000ADF82030ADF81C20ADF8225002F034FDDB
:10160000036F0590FBB1022006F0A8F8059AB2F826
:101610007C30C3F3C0030E3302EB8303986806F0FB
:1016200037F8059B586B06F04BF8059B186F02F0D6
:101630001BFD059B0690B3F95A2007A903F06AFC2D
:1016400006A802F061FE05A802F05EFE0026D4E6C0
:10165000AE6AD2E6EE69D0E62E6ACEE66E6ACCE6D7
:101660002B6A022B8BDD79E750020020A269E76923
:101670002169A8688C1C951E06F00AF8B91B2A4639
:1016800020460131BB1E04F0B3FA0026B5E6A2697C
:10169000E869101A3B4631460130023A04F0A8FAD4
:1016A0006DE720690244013A02303B46314604F0BE
:1016B0009FFA60E7A86805F0EBFF61696B6A0B446D
:1016C00042463846013B023104F092FA1BE7286893
:1016D00005F0DEFF2169EA6960690A44013A04F015
:1016E00019F8A269E9696069511A013104F012F828
:1016F000676920690137394604F0B0F93946A069B5
:1017000004F0ACF9686805F0C3FF20693946013080
:1017100004F0A4F9A0693946013804F09FF927695B
:10172000A3690237A3F10208BCE60244013A023081
:101730003B46394604F05CFAA069B846821EDBE6F7
:1017400010B5044682B080B104F010FC204602F0CF
:101750008BFC02ABB0F87C4043F8040D1846C4F390
:10176000C00402F0D1FD06F007FB204602B010BD18
:1017700000B9704730B5044683B00D4604F0F6FB5F
:10178000204602F071FC836C0190AB4203D085646B
:10179000806E0AF081FE01A802F0B6FD06F0ECFAB8
:1017A00003B030BD2DE9F041044684B00E4604F08C
:1017B000DDFB24B906F0E0FA04B0BDE8F081204674
:1017C00002F052FC458EC36D039005F02005ADB2CA
:1017D0009F6845B1B0F954502DB9406B04F022FB1D
:1017E000039B851C00E003465E6303A802F08CFDAA
:1017F0003B680121204698473B6806460321204666
:1018000098473B6880460021204698470746204677
:1018100000F0E4F94346324629462046009700F09E
:1018200063F920460AF038FE06F0A6FA04B0BDE8D7
:10183000F08100BF00B9704730B5044683B00D4653
:1018400004F094FB204602F00FFC036F0090684602
:10185000019302F059FD294601A807F0EFFA18B9E3
:1018600006F08AFA03B030BD204602F0FDFB019A73
:10187000026703466846009302F046FD20460AF0E0
:101880000BFE06F079FA03B030BD00BF00B9704717
:1018900030B5044683B00D4604F068FB204602F0E4
:1018A000E3FB02AB056443F8040D4564184602F0FF
:1018B0002BFD20460AF0F0FD06F05EFA03B030BDC5
:1018C0002DE9F04F89B007460D4602F0CDFBC36D00
:1018D00005909C68012123683846984723680321B6
:1018E0008046384698472368022183463846984701
:1018F00023680021824638469847814605980CF0B7
:1019000091F8064605980CF095F803460598448E24
:1019100004F02004A4B2B4B1B0F95420B0F9584096
:10192000002A4ED091B2C06E0C44A4B280B1039193
:10193000029201930AF032FC019B029A03990FFA7A
:1019400080FE80B205E021462246C06E0028EED11E
:1019500086461FFA89FC013ECBEB060B6444013B33
:101960000CF1FF3C8C44CAEB03030FFA8BFB0FFA1C
:1019700088F804446B812A80A5F802E0A5F812C01B
:10198000A5F808B0A5F810B0A5F80480A5F80C805B
:10199000A5F80E90EC8005A802F0B6FC08AAB5F9EF
:1019A000103042F8043D3846B5F90C30069306A9CC
:1019B00000F04CF8069A079BAA812B8209B0BDE87B
:1019C000F08F406B019304F02DFA023081B20C4489
:1019D00002B2A4B20598019BB7E700BF08B5438ED9
:1019E00003F020039BB24BB10246B0F9540000B1A2
:1019F00008BD506B04F016FA023008BD184608BD49
:101A000070B58AB00C46064602F02EFB0AABC26DDA
:101A100043F8280D1846956802F076FC0196032CD1
:101A200005D8DFE804F00F0C0902172302936B6856
:101A300001A898470AB070BD15230293F7E7162353
:101A40000293F4E718230293F1E700BF2DE9F04376
:101A500083B088460446914602F006FB034602A87E
:101A6000DA6D40F8083D9568B3F90070B3F902608B
:101A700002F04AFC2B682046002198470546204684
:101A80000AF0BCF860B3044607E001A802F03CFC91
:101A900020460AF02DFA044610B3204602F0E4FA7C
:101AA000B0F9023001909B1B9D42EED1836A1B0668
:101AB0000BD5B0F90030D9F80020DB1B934203F1BD
:101AC000FF33E2DCC9F80030DFE7B0F90430D8F8C2
:101AD0000020DB1B9342A4BF0133C8F80030D4E7D9
:101AE00003B0BDE8F08300BF2DE9F04F83B00E4690
:101AF0009B460546144602F0B7FA0DF10808C26D80
:101B000048F8080DD2F80890FFF768FF07464046EE
:101B100002F0FAFBD9F80030012128469847D9F89D
:101B200000300321824628469847D9F80030804685
:101B3000002128469847B742814644D028460AF0FB
:101B40005DF8BE1B0546002844D00C9B0027C8EB5F
:101B50000B0BC3EB0909C4EB0A0AB8460AE0B4F55B
:101B6000007F10D001A802F0CFFB28460AF0C0F990
:101B7000054678B3284602F077FA846A019004F4A7
:101B80002074802CEBD1BEB9836A1A0609D49B0558
:101B9000E8D507FB06A14A4628460AF0E7FF0137C9
:101BA000E0E708FB16B14A4628460AF0DFFF019B32
:101BB00008F101089B6AEAE72846324631460BF0F5
:101BC00075F80198E0E7A245B8D1D845B6D10C9B8D
:101BD0009842B3D103B0BDE8F08F00BF70B586B0B6
:101BE000064602F041FA034606A89C6E40F8183DEE
:101BF000DD6E02F089FB84B96DB1304601A9FFF7B3
:101C00005FFEBDF90A20BDF90630BDF9081028466F
:101C1000D21A0AF06DFF06B070BD304601A9FFF779
:101C20004FFEBDF90A20BDF9081020460AF060FFFA
:101C3000BDF90A00BDF90E20BDF90C30BDF9081040
:101C4000121A591A2046013201310BF023FB002DE4
:101C5000D7D106B070BD00BF2DE9F043456887B00D
:101C6000044628460AF076F9074602F0FDF90346D5
:101C700006A85E6E40F8143DD3F84880D3F88090F3
:101C800002F042FB23680E3B232B3FD8DFE803F032
:101C900035463E3E3E3E12123E123E3E3E3E3E3EE9
:101CA00018243E3E2B3E3E3E3E3E3E3E3E3E3E3EA7
:101CB0003E3E3E30204609F027FC07B0BDE8F083E9
:101CC000E368002BF9D0B9F1000F3BD04D4539D076
:101CD00048460BF059F9F0E72146384609F04AF832
:101CE00007B0BDE8F083C4F80C8007B0BDE8F0830E
:101CF0000023E36007B0BDE8F083E3685A68002A78
:101D000004DD1B68092B1DD00A2B1FD0002ED1D05B
:101D100067602046B04707B0BDE8F0836FF07043BE
:101D2000984504D0404607F0D7FF02F085FC002E0E
:101D3000C3D094E80F0002AC84E80F00204603955E
:101D4000B047BAE728460BF08BF9B6E728460BF008
:101D5000CFF9B2E72DE9F04F161A85B05D1A9E460D
:101D600056EA0503DDF838B078D086EAE67385EAEE
:101D7000E574A3EBE673A4EBE5749C420746894641
:101D800032DC1C46A6424FF0000301933AD06D426C
:101D900039464FF0FF33002D1746C6F100040A46BE
:101DA000F1460393DBF8001032D1DFF80883019B82
:101DB000D8F800E00846002B00F0CF809EF81A30DB
:101DC000002B00F0C181002CC0F2C581B54EAA469F
:101DD0007246013B451C032B00F23281DFE813F011
:101DE0004A013F0156011F013B4630462E4611462F
:101DF0004F46A64299464FF00103724605468E466D
:101E00000193C4D10123002D0393DBF80010CCD043
:101E1000DFF8A082D8F8000004EBD476827E4FEA87
:101E20006606B8BF7642F2B9002C14DB019B002B8A
:101E300000F05181924601E0D8F80000436E96FB15
:101E4000F4F00AEB07015B6848440AF1010A98477D
:101E500054452E44F0DA05B0BDE8F08F05B0BDE87A
:101E6000F04F00F07BB95A1C00F02D81002C53DBA1
:101E7000CDF808904FF0000AC14698464144CBF88F
:101E80000010827E013A032A15D8DFE802F0574B92
:101E90002C02854B4FEAE17E83FB0132CEEBA2029E
:101EA00002EB4202A1EBC2020B2A12DD22F0040275
:101EB000103A012A0DD996FBF4F1029B426E1944A7
:101EC000019B002B40F0F880526838469047DBF8C1
:101ED00000100AF1010A544507F101072E4416DBF0
:101EE000D9F80000CAE76F4B4FEAE17E83FB01326D
:101EF000CEEBE20202EB8202A1EB82020B2AD7DCDC
:101F00000AF1010A544507F101072E44E8DA039A61
:101F10000132434600F0DD80CB1ACBF8003005B02B
:101F2000BDE8F08F614A0A40002AC0F2E680012A2B
:101F3000CCBF00220122002ACBD1BCE75C4A01F1D0
:101F4000060E0EEA0202002AC0F2DC800B2ACCBF89
:101F500000220122002ABCD1ADE79EF81A30002BE6
:101F600000F0E980002CC0F2F680DDF804A04E4EAF
:101F70007246013B451C032B13D8DFE803F04337BF
:101F8000210286FB0031C317C3EBA10303EB43031C
:101F9000A0EBC3030B2B0ADD23F00403103B012B42
:101FA00005D9536E49465B6807EB0A0098470AF16A
:101FB000010A544514DBD8F800202846937ED8E760
:101FC000384B83FB0031C317C3EBE10303EB8303FF
:101FD000A0EB83030B2BE1DC0AF1010A5445EADA9A
:101FE000691ECBF8001005B0BDE8F08F2F4B034001
:101FF000002BC0F29680012BCCBF00230123002BC5
:10200000D5D1CEE72A4B691D0B40002BC0F28E8044
:102010000B2BCCBF00230123002BC8D1C1E7224BDF
:1020200083FB0031C317C3EBA10303EB4303A0EB16
:10203000C3030B2B0ADD23F00403103B012B05D94E
:10204000536E0AEB07015B68484698470AF1010A9C
:102050005445C5DBD8F800202846937EB9E6134BDB
:102060000340002B53DB012BCCBF00230123002BAB
:10207000ECD1E5E70E4B691D0B40002B4CDB0B2B25
:10208000CCBF00230123002BE0D1D9E786FB003130
:10209000C317C3EBE10303EB8303A0EB83030B2B19
:1020A000CBDCD3E767666666ABAAAA2A030000808A
:1020B0000F000080640100200846526839469047AE
:1020C000DBF8001005E72144002CCBF80010BFF628
:1020D000CFAE214420E79A4601E0D8F80000436ED5
:1020E00096FBF4F10AEB07005B6849440AF1010A28
:1020F000984754452E44F0DAADE6013A62F0030207
:10210000013214E7013A62F00F0201321EE7013B8F
:1021100063F003030133A6E7013B63F00F030133D0
:10212000ADE7013B63F00303013364E7013B63F078
:102130000F0301336CE7DEF864301B68494638460C
:1021400005B0BDE8F04F18473946484605B0BDE830
:10215000F04F07F057BA0D4642E700BF064B1B6829
:102160001A7E012A05D0013A02EBD272521000F019
:1021700005B85B6E5B681847640100202DE9F04FDD
:10218000DFF8DCB0354EDBF80040154640F2C322E4
:1021900002FB05F2034685B086FB0209606E0293DE
:1021A000D217C2EBA919EF18C5EB030805EBD57ED2
:1021B00005FB05F6046806EB6E0309F101093A46D2
:1021C000404601938A46A047B9F1000F42DD029ACA
:1021D000012413190293531E0393334616461AE043
:1021E000013DAF19C5EB0608DBF800305B6E0AEB6A
:1021F00004013A461B6840469847DBF800305B6EA6
:10220000C4EB0A013A461B68404601349847A14591
:1022100020DB05FB05F3019A04FB04339A42E3DA61
:10222000A945DDDA029ADBF80030171B039A5B6ED2
:1022300002EB0408384642460AEB05011B68984742
:10224000DBF800305B6E424638461B68C5EB0A017E
:102250009847C5E705B0BDE8F08F00BFD34D6210C9
:10226000640100202DE9F04F002987B01F4C40F396
:10227000D5822746054600EB810E43F6FF74B5F97B
:102280000260B44205F10405A8BF3446B742B8BFA6
:102290003746AE45F3D10497154D2D686D696DB184
:1022A000B5F90660049FB5F90250F61AED1AB74267
:1022B000A8BF3746AC420497B8BF2C46049DAC4239
:1022C00000F38E81DFF82C800593934606464D1E61
:1022D0008A460020074B8245186040F37C81059BAD
:1022E000CDF80CB02344029319E000BF01C0FFFFFA
:1022F000640100205CC10020A6450CD0C0F27381AF
:10230000A44500F38581F44540F37881A64502DCBD
:10231000A44580F28281BA45384640F3EC8006EB52
:102320008001A84200F10107ACBF0023BB00B1F956
:1023300002C03344A4450246B3F902E0DCD1A6450D
:1023400000F03E82002DC8BF0021E4DD5AB1013A01
:1023500006EB82030131B3F90230A3420BD1A9424B
:10236000D9D0002AF3D12A4606EB82030131B3F912
:102370000230A342F3D01B1BC4EB0E0E93EA0E0FE8
:1023800036F9202040F112829F4B1B680B2BC2DCD8
:10239000002B40F32B82581E410008EB010CBCF9C6
:1023A00004E0724500F3318208EB4309A9F804E028
:1023B000002800F01B82981E4FEA400908EB090E26
:1023C000BEF904B05A4500F38D80ACF804B0002883
:1023D00000F00C82D81E410008EB010CBCF904C0CF
:1023E000624500F31482AEF804C0002800F0FE81BC
:1023F000A3F1040984484FEA490B00EB0B0EBEF928
:1024000004C062456EDC4144A1F804C0B9F1000F7C
:1024100000F0EC81581F410008EB010CBCF904905E
:102420004A4500F3E781AEF80490002800F0DE8111
:10243000981F4FEA400B08EB0B0EBEF904904A457B
:1024400050DCACF80490002800F0D081D81F410087
:1024500008EB0109B9F904C0624500F3CB81AEF87D
:1024600004C0002800F0C281A3F1080C4FEA4C0E12
:1024700008EB0E00B0F90400824233DCA9F8040036
:10248000BCF1000F00F0B281A3F1090041000190FE
:102490005D4800EB0109B9F904B05A4500F3BB816E
:1024A000C6440198AEF804B0002800F09F81A3F163
:1024B0000A004FEA400C08EB0C0EBEF904B05A4576
:1024C00010DCA9F804B0002800F09081A3F10B0102
:1024D000490008EB0100B0F90400824200F3998141
:1024E000AEF80400484801440133BA4503608A80CD
:1024F00038463FF714AF444BDDF80CB01B68002B97
:1025000069DD012BB8F9040065D0404BB8F906200D
:102510001B68029F5B6E58441B685A4439469847B3
:10252000D8F80030022B56DD032BB8F9080052D042
:10253000364BB8F90A201B685B6E58441B685A4436
:1025400039469847D8F80030042B44DD052BB8F9FC
:102550000C0040D02D4BB8F90E201B685B6E584420
:102560001B685A4439469847D8F80030062B32DDAC
:10257000072BB8F910002ED0244BB8F912201B6895
:102580005B6E58441B685A4439469847D8F8003067
:10259000082B20DD1C4A092BB2F914001BD01B4B61
:1025A000B8F916201B685B6E58441B685A443946BC
:1025B0009847D8F800300A2B0DDD0B2BB8F918001E
:1025C00009D0124BB8F91A201B685B6E3946584483
:1025D0001B685A449847049B0134A342BFF679AE66
:1025E00007B0BDE8F08FA445FFF695AEF44514DCC6
:1025F000A4453FF790AEA645FFF68DAE36F92020F4
:10260000B3F9003010E000BF5CC10020640100207D
:10261000A6453FF780AEF445EADD6146B3F90020F8
:1026200036F92030F4468E46991ACCEB040303FBAE
:1026300001F3002BCCEB0E0EDBBF4FEA6E0101F174
:10264000FF3103EB6E01591A764B1B680B2B3FF7DA
:1026500062AE91FBFEF1002B0A44019240F3C4806C
:10266000581E1146420008EB020EBEF904C0614537
:1026700000F3C28008EB4309A9F804C0002800F069
:10268000B380981E4FEA400B08EB0B0CBCF904908A
:10269000494500F38380AEF80490002800F0A48040
:1026A000D81E420008EB0209B9F904E0714500F3B5
:1026B0009F80ACF804E0002800F09680A3F1040CA1
:1026C0004FEA4C0E08EB0E00B0F90400814265DCC5
:1026D000A9F80400BCF1000F00F086805149581F92
:1026E000420001EB02090199B9F904B0594500F320
:1026F0008780C644AEF804B0002875D0981F4FEA12
:10270000400B08EB0B0EBEF904C0614546DCA9F88E
:1027100004C0002868D0D81F420008EB020CBCF9A6
:102720000490494564DCAEF8049000285CD0A3F125
:1027300008004FEA400908EB090EBEF904B05945FC
:102740002CDCACF804B000284ED0A3F10900420004
:1027500008EB020CBCF904C0614554DCAEF804C0BF
:10276000002841D02F49A3F10A004FEA400C01EBA9
:102770000C0E0199BEF9049049450FDC4244A2F8C1
:102780000490002830D0A3F10B00420008EB0200B7
:10279000B0F90400814231DCAEF804002148BDF8F4
:1027A00004100244013391800360B4E51E4B039989
:1027B0001B685B6E0A441B68029910469847AAE59D
:1027C00036F92010B3F90030039801440246181876
:1027D000154B1B685B6E8142B6BF02460A4608462F
:1027E0001B680299984796E50022D7E7002179E611
:1027F0005A46D3E7594675E65A00CFE76246CDE719
:102800004FEA4C02CAE74A46C8E759006AE6494619
:1028100068E6614666E64FEA4C0163E6049443F6D7
:10282000FF7439E55CC100206401002038B5204BFD
:10283000204C1D6803F09AFB284607F04DFA05F07E
:102840009BFA1D4B1D6803F091FB284607F07EFAAA
:1028500005F092FA03F08AFB236801221A7605F04C
:102860008BFA03F083FB236800259D8505F084FA2D
:1028700003F07CFB23685D8505F07EFA03F076FBB0
:10288000284607F07BFA05F077FA0C4B1D6803F039
:102890006DFB236805B1DD6105F06EFA03F066FBA0
:1028A000236800229A76BDE8384005F065BA00BF7B
:1028B00060010020640100205C010020580100201C
:1028C00030B585B0019108B3044603F04FFB2046B4
:1028D00001F0CAFB04AB456E43F8040D184601F045
:1028E00013FD019801F0C0FB04AB846043F8080DB0
:1028F000184601F009FD04220DEB0201284601F003
:1029000027FD204609F0C8FD05F036FA05B030BDB8
:1029100030B585B0019108B3044603F027FB20468B
:1029200001F0A2FB04AB856E43F8040D184601F0DC
:10293000EBFC019801F098FB04AB846043F8080DB0
:10294000184601F0E1FC04220DEB0201284601F0DB
:10295000FFFC204609F0A0FD05F00EFA05B030BDE1
:102960002DE9F04F90E81800B3F5407F99B0054687
:1029700000F02C810146204608F0FCF90646002EA6
:1029800000F0F1802B68053B212B00F21981DFE874
:1029900013F02601170117011701170117012D0167
:1029A000170117011701220017011701170117015D
:1029B0001701170117011701170117011701170157
:1029C0001701170117011701170117011701170147
:1029D00017011701ED002046ED6801F045FBC26AC2
:1029E0000F90034612689F6D596D049210A8DA6D1E
:1029F0001B6E059203930191029709F069F810A9E3
:102A00000F9808F0EDFA0DF1400E9EE803000DF16D
:102A1000500B8BE80300BDF85210BDF81030BDF824
:102A200050200398BDF85460BDF856E03944059F26
:102A3000194418181A443B44F31A019EADF8543057
:102A4000C0EB0E003244ADF85020ADF85600ADF8A2
:102A500052109BE8030012AB83E8030018460AF00B
:102A60004BFC0F9B586B04F007FE01F0E5FD0F9F38
:102A7000D7F894301BB10021204698470F9F97F854
:102A80006C30002B40F07181049A10A9584606F072
:102A9000B1F958460AF030FC0F9E96F83B20002A08
:102AA00040F0F580D6F8943013B1012120469847C4
:102AB00012A80AF021FC0F9B586E01F0CBFC0026F7
:102AC0008046E0B10F9B3146586E01F0D7FC01F013
:102AD000CBFA0136169080B10768384601F0C4FA87
:102AE0000346294638460E9323B11B6898470EA823
:102AF00001F00AFC16A801F007FCB045E2D15846E7
:102B00000AF0FAFB0F9B986E01F0A4FC00268046A9
:102B1000E0B10F9B3146986E01F0B0FC01F0A4FAD1
:102B20000136169080B10768384601F09DFA0346D9
:102B3000294638460D9323B11B6898470DA801F02C
:102B4000E3FB16A801F0E0FBB045E2D100200AF05B
:102B5000D3FB0F9BD3F8943013B120460221984742
:102B60000FA801F0D1FB19B0BDE8F08FEB68052B81
:102B700026D12046AE6809F0A1FA864205D020464B
:102B8000AC6809F06BFA84421AD16C68AE682046D2
:102B900001F06AFA1690304607F08AFF0746304681
:102BA00009F05AF8169BFE2808BFC3F8807020462B
:102BB00018BFC3F88C7009F06FFC16A801F0A4FBD5
:102BC000284608F0A1FC19B0BDE8F08F0146204668
:102BD00008F0D0F8064620460FF0BAFCCFE62046B3
:102BE0000FF0B6FC284608F08FFCECE7204601F019
:102BF0003BFA1490406E01F02DFC061EC8BF002465
:102C00001BDD149B2146586E01F038FC01F02CFAB4
:102C10000134169078B10568284601F025FA03467C
:102C2000129312A823B15F6801F06EFB2846B847E3
:102C300016A801F069FBA642E3D1149B986E01F03F
:102C400009FC051EC8BF002411DD149B2146986EA7
:102C500001F014FC01F008FA0134169028B1006864
:102C600001F086F816A801F04FFBA542EDD1149BA8
:102C700018AC586E01F0BEFB54F8103D986E01F090
:102C8000B9FB204601F040FB19B0BDE8F08F019B75
:102C90003BB9029B2BB9059B1BB9039B002B3FF44F
:102CA00001AFF26A16A92046D2F8008008F0F2FFC0
:102CB00009F02CF9049009F03BF90199BDF958A0ED
:102CC000BDF95A20BDF95C90BDF95E308A44029985
:102CD0000A440792059AC2EB0909039A07469B1A10
:102CE000B06B069304F0C8FCF06B04F0D1FC0199C2
:102CF00041B14A1EB5F90030049942445B1A9A4228
:102D000080F2EA80029B3BB1B5F90220013BD21B65
:102D10004344934280F2F480059951B1BDF95C209F
:102D2000B5F90430501A049901305E1AB04240F3EC
:102D3000F880039BBBB11946BDF95E30B5F906209A
:102D4000591A0131D71BB9420DDCBDF95C20BDF920
:102D5000580001F0AFFC069809F101020AF1FF31B9
:102D6000013002F0D7FC0F9E9CE616A9204608F021
:102D700091FFFB6A386C1B680993BDF95E300793BD
:102D8000BDF95A300893D7F84490D7F84880BDF978
:102D90005CA0BDF9586004F07BFC02F0EFFF0690E8
:102DA000B9F1000F4FD0B7F87820FB6CD20754BFB1
:102DB000D7F88C2000224B441344994503DCC9EB1F
:102DC00003039945FBDD05990A93019B97F87A0067
:102DD0005A18C6EB0A0AC2F1010202EB0A010E46BA
:102DE00004F07EFC0A9B9E4231462CDD0998019A34
:102DF0000A951044CDF82C801E180994039D88462E
:102E0000824606E002F0B2FC4E44CAEB0603984547
:102E100016DD029BBDF95A40BDF95EE097F87AC015
:102E20001C44C5EB0E0E3246304621467346BCF1BB
:102E3000000FE7D172462146304602F081FEE3E7FB
:102E400009AC94E83001B8F1000F41D03B6DD7F8E0
:102E5000806043449E1BB04503DCC8EB0606B045CA
:102E6000FBDD029A039B089997F87B00D318079A19
:102E7000C3F10103C1EB0209994404F031FCB145EF
:102E800026DD08950794059DDDF80CA005E0704649
:102E900002F06CFC4644B14518DDBDF95E00BDF999
:102EA0005C40019ABDF958E097F87BC0CAEB00007E
:102EB000801B641B9644034601462246BCF1000F6A
:102EC000E5D12246714602F025FCE3E7079C089D08
:102ED000069804F005FCD7E50399BDF95E30BDF90D
:102EE00058005B1A02990133414401F0E3FB069B51
:102EF0005A1C079B0AF1FF30591E02F021FE01E720
:102F0000BDF95C20BDF95A10BDF9580001F0D2FBA3
:102F1000079B09F101020AF1FF31581E02F0FAFB8A
:102F2000FAE60399BDF95E305B1A02990133414418
:102F300001F0C0FB079B591E069B09F101005A1CBA
:102F400002F0FEFDF5E600BF2DE9F04FB0F90A6092
:102F5000B0F90C708569B0F90E90B0F910A0B0F816
:102F60001280B0F9084087B08B4616441F446C3578
:102F700002F0FCFFDFF878E0CDF800B04FF0000B76
:102F800030463946039553464A46CDF808E0CDF819
:102F900004B008F0BBF9064610B301F027FA074663
:102FA00001F024FA0546304601F05EF885660F4DC3
:102FB000476621465A46059006AF08F081F80FCDC6
:102FC00057F804ED0EF134040FC40FCD0FC495E88B
:102FD0000F0084E80F00AEF87880384601F094F9CD
:102FE00004F0CAFE304607B0BDE8F08FA001002013
:102FF0006129020810B584B00446ADF8061002F04D
:10300000B5FF204601F030F8029070B1406A01F03F
:103010002BF80223044601460DF1060202980394A0
:1030200000F0A4F903A801F06FF902A801F06CF90F
:1030300004F0A2FE04B010BD2DE9F04782B00746AF
:103040000D4690461E4602F091FF2C2000F046FEF1
:10305000044628B904F090FE204602B0BDE8F0878F
:10306000680000F03BFE824618B1B8F1000F00D0B6
:10307000E6B90DF10409204600F0F6FF1349144AA1
:10308000DFF854E00190034683E80600C3F824A06B
:103090009F615D611E61C3F80CE0484601F034F9A0
:1030A00004F06AFE204602B0BDE8F08700F0DCFFC5
:1030B0000DF10809074B49F8040D41461B687200E1
:1030C0009847484601F020F9D5E700BFDD290308FD
:1030D0005D28030800020020E52303082DE9F041E4
:1030E00082B080460F4616461D4602F03FFF302054
:1030F00000F0F4FD0446C0B100F0B6FF02AA0E498C
:1031000042F8040D034603C99F619E84DD614FF0C0
:103110007E5703F10C06094DC3F814809F6286E8C0
:10312000030010461D6001F0EFF804F025FE204674
:1031300002B0BDE8F08100BFD0010020D12A030811
:1031400030B52DED028B83B038B99FED158AB0EE06
:10315000480A03B0BDEC028B30BD044610EE105A95
:1031600002F004FF204600F07FFF07EE905A90ED3A
:103170000A8A0190B4EE678AF1EE10FA0AD101A82A
:1031800001F0C2F804F0F8FDB0EE480A03B0BDEC5F
:10319000028B30BD8562806809F07EF9EFE700BFE1
:1031A0000000000000B97047F0B5044683B00F4638
:1031B0001D46164602F0DAFE204600F055FF02AB2F
:1031C000089A43F8040D026647658665C56518468A
:1031D00001F09AF820460FF0BBF9204609F05CF99F
:1031E00004F0CAFD03B0F0BD70B582B018B9044652
:1031F000204602B070BD064614460D4602F0B6FEEB
:10320000304600F031FF032C019009D800EB840216
:10321000546BAC4205D05563304609F03DF900E0EF
:10322000002401A801F070F804F0A6FD204602B0C9
:1032300070BD00BF70B582B018B90446204602B018
:1032400070BD06460D4602F091FE304600F00CFFC0
:10325000446C0190AC4203D04564304609F01CF93F
:1032600001A801F051F804F087FD204602B070BDBE
:1032700070B582B018B90446204602B070BD06464B
:103280000D4602F073FE304600F0EEFE846C0190B5
:10329000AC4203D08564304609F0FEF801A801F085
:1032A00033F804F069FD204602B070BD70B582B0FD
:1032B00018B90446204602B070BD06460D4602F01D
:1032C00055FE304600F0D0FE90F86C400190AC42C4
:1032D00004D080F86C50304609F0DEF801A801F007
:1032E00013F804F049FD204602B070BD70B582B0FD
:1032F00018B90446204602B070BD06460D4602F0DD
:1033000035FE304600F0B0FE90F87B400190A542BB
:1033100004D080F87B50304609F0BEF801A800F0D8
:10332000F3FF04F029FD204602B070BD70B582B0F5
:1033300018B90446204602B070BD06460D4602F09C
:1033400015FE304600F090FE90F87A400190A542BC
:1033500004D080F87A50304609F09EF801A800F0B9
:10336000D3FF04F009FD204602B070BD2DE9F047FF
:10337000846884B09CB10446164600696269904234
:103380001D460B460ED0421C226105FB0030314623
:103390002A46FCF7B7FFE368A3B12046984704B07C
:1033A000BDE8F087421E05FB02F229441846FCF7EF
:1033B000A9FF034620690138314605FB00302A4643
:1033C000FCF7A0FFA668304600F04EFE034604A8B6
:1033D000D3F854A040F80C3DD3F85890D3F85C8053
:1033E0001F6E00F091FF304602A908F053FCBDF8B3
:1033F0000850BDF80A40BDF80C20BDF80E30C8EBEF
:103400000202DB1B02A9304655444C44ADF808507B
:10341000ADF80A40ADF80C20ADF80E3008F0CAFF48
:1034200004B0BDE8F08700BF2DE9F04784B0064640
:1034300000F01AFE034604A8D3F854A040F80C3D4F
:10344000D3F85890D3F85C801F6E00F05DFF3046D3
:1034500002A908F01FFCBDF80850BDF80A40BDF8ED
:103460000C20BDF80E30C8EB0202DB1B02A930466F
:1034700055444C44ADF80850ADF80A40ADF80C2066
:10348000ADF80E3008F096FF04B0BDE8F08700BF3D
:1034900070B584680D46A4B195E80E0063635B07C0
:1034A000E162226305D594E80F0060602160E2606C
:1034B000A3602B69AA89A28413B123EAE373236270
:1034C00070BD06464FF4BE7000F0A2FC084BB06021
:1034D00021461B684FF4BE729847B368054A1E64C4
:1034E00002200121D8841962C3F81021B468D3E7FF
:1034F00004020020253702082DE9F04185680446C2
:10350000884617461E467DB14146682205F58A70F9
:10351000FCF7F8FE2046B8472046B04723699B6871
:103520009847A862BDE8F0814FF4BE7000F070FCCF
:10353000084BA06029461B684FF4BE729847A368E9
:10354000054A1C6402200121D8841962C3F81021A5
:10355000A568D9E70402002025370208F8B504461B
:1035600000F0C2F8A3681149DA8C0E68104C1148BB
:10357000114D124FC3F8B460C3F8AC404E68104C04
:10358000C3F8A800002122F003020E48C3F8B0508F
:10359000C3F8B870C3F8C860C3F8CC40DA84C3F885
:1035A0009400C3F8BC10C3F8D010F8BD6C01002023
:1035B00031360308D9370308F1350308ED30030825
:1035C000053203088D350308F8B5044600F08CF881
:1035D000A468104AD4F8C8300F481049104F114E53
:1035E000114DC4F8F800C4F8A010C4F8A420C4F821
:1035F0000431C4F8EC70D4F89430C4F8F060C4F826
:10360000F4502046102198471022084BA2636364AF
:10361000F8BD00BFA53803087137020889300308D8
:1036200051F10208311203083136020818AD0608BC
:10363000F0B58468E38C9B0783B03DD5D4F808319E
:1036400020460E46174698473146D4F80C310546B9
:103650003A4620469847D4F8983006461BB10022D7
:1036600001212046984704F110000BC89D42D4BFA9
:10367000002201228542ACBF134642F001038E4274
:10368000B8BF43F0010313BBE3699E421FDC294628
:103690003246D4F8AC3020469847D4F8A0302046C3
:1036A0009847D4F8983005461BB1204601220021E6
:1036B0009847284603B0F0BDD4F8AC302046984770
:1036C000D4F8A030204603B0BDE8F0401847626847
:1036D0002368013A00920022013BD4F8A8701146F9
:1036E0002046B847D3E700BF38B5856805B138BD77
:1036F00004464FF4BE7000F08BFB084BA0602946D7
:103700001B684FF4BE729847A368054A1C640220E8
:103710000121D8841962C3F8102138BD04020020A9
:1037200025370208F0B4114C264607460FCE90B05C
:103730006D460FC596E80F00203485E80F000FCCCA
:1037400008AD0FC594E80F0085E80F007B6B10AA49
:1037500002EB830353F8402C53F8203CC7F80821B0
:10376000C7F80C3110B0F0BC704700BF7477060882
:103770002DE9F0418468E08C1D46830782B028D58E
:10378000D4F80831204690460F46984742460646F0
:103790003946D4F80C3120469847804604F1100091
:1037A0000BC89E42D4BF002201228642ACBF134602
:1037B00042F001038845B8BF43F00103ABB9E369A8
:1037C000984512DC42463146D4F8AC302046984742
:1037D00003E0D4F8AC3020469847D4F8A43029460A
:1037E000204602B0BDE8F041184762682368013AFC
:1037F00000920022013BD4F8A87011462046B84739
:10380000E0E700BF2DE9F04F4F4E3368DA69B3F9B6
:103810002250D469B4F80CB083458BB07DD8E189CF
:1038200081427AD3216808914FF0FF31CBEB000B36
:103830000791BBF1FF3F6AD0177EB3F92A80A27CC3
:10384000B3F9249094F810A017FB02F340460693B6
:1038500006F094FA3368069A0899099002FB0B1057
:103860009A6BDB6904900592A27C03924FF0010BE6
:10387000CDF808B0DA7E01929B7E009328463B4645
:103880005246494605F0D8FC079801301CD048F054
:10389000020006F073FA2C4A079812680899069BF2
:1038A00003FB0013916BD26905910493A37C0393EE
:1038B000CDF808B0D37E0193937E009352463B46E9
:1038C0004946284605F0B8FC33681F4FDB695A7E2D
:1038D0001B7E9A4214D9B8F1020F11D088F004006F
:1038E00006F04CFA3B68DB69187ED97E9A7E5B7ED7
:1038F00000FB01910AFB02524B44284605F0ACFE46
:103900009DF8240006F03AFA3368B3F92250627C3D
:1039100015445D840BB0BDE8F08FA1680029F6D096
:103920000F88B842F3D3B1F802E08645EFD3496877
:10393000C01B80B26768089701EB800731F920B09F
:10394000B7F90210079174E764010020044B1B686B
:10395000DB69DB6909B11A7C0A60587C704700BFDB
:103960006401002002230B80704700BFC3699A895D
:103970008A4202D8DA898A4211D2986818B103883B
:10398000994201D20020704742888A42FAD3C91A6C
:10399000436833F82100C043C0F3C03070470120B2
:1039A000704700BF2DE9F04F3E4D2B68DA69B3F93F
:1039B0002A60D36989B043B11A88904202D35988EA
:1039C000814205D29B68002BF6D109B0BDE8F08F8B
:1039D000D3F80480DFF8CC90841A08EBC407304693
:1039E00097F802B006F0CAF98246286818F8342021
:1039F000D0F81CE0D0F838C09EF81830B0F9241088
:103A0000B0F92200CDF814C006934FF0010C7B688A
:103A10000493CDF80CB0CDF808C09EF81BC0CDF8CB
:103A200004C09EF81AE0069BCDF800E005F004FC07
:103A30002B68DA69537E92F818B05B4523D9022EC1
:103A4000069320D0D17E079102F06EF9064602F06F
:103A500035F903F01DFED9F8002018F834C0D469F8
:103A6000B2F9220094F81BE00799B2F92440069BB2
:103A70000CFB0E0201FB034301FB0B4105F0ECFDC7
:103A8000304603F005FE504606F078F92B68797849
:103A9000D8695A8C807E00FB01225A8409B0BDE8A7
:103AA000F08F00BF64010020114B70B41B68DD690A
:103AB000EB6943B11A88904202D35C88844205D2F4
:103AC0009B68002BF6D1184670BC70475E68AC7ED0
:103AD000821A06EBC2035B7813FB04F00029F3D0D3
:103AE00016F8323014FB03F30B6070BC704700BF54
:103AF0006401002001230B80704700BFC06950B1F2
:103B000003888B4202D843888B4203D28068002806
:103B1000F6D17047012070472DE9F047234E3368F6
:103B2000002B3FDD224D234F2C68D7F80090C3EBCC
:103B3000431804EB880808F10C080C344FF0000A15
:103B4000A4F10803742218464946FCF7DBFB221F48
:103B50002063A06344F80CAC6263E4607C34A0454D
:103B6000EED10024A04603E092B13268904514DA09
:103B700011F006FA2B681A59904203EB040108F180
:103B8000010804F17C04EFD104313960BDE8F0870D
:103B9000086004313960BDE8F087194604313960A6
:103BA000BDE8F087024B034F1968EDE7F8010020EC
:103BB00000C1002064010020F8B5194F194B1A4EBE
:103BC000384640F80C3F05F025F93468C4EB44143E
:103BD000A400204600F01CF9144B386022461B68F4
:103BE000002198474FF0FF33736011F0CFF933682D
:103BF000002B11DD0024254603E072B133689D429D
:103C00000ADA11F0BDF93B681A599042234405F1D4
:103C1000010504F17C04F0D1F8BD1860F8BD00BFC7
:103C200000C1002075290308F801002004020020CB
:103C300009B9084670472DE9F0410E46054602F0E5
:103C400095F902F093F930460AF0A6FE044604F016
:103C500093F824B3174FFA697B6B0132FA6113F8BA
:103C60003420013203F8342003EBC403D3F804807A
:103C700008F10800C5B1104B324629461B68984729
:103C8000D8F800107A6B0B4D12F83130012B03D9A4
:103C9000E86908B10138E861013B02F8313004F00D
:103CA0006BF82046BDE8F081044B324629461B687C
:103CB0009847E5E7B8C10020000200200402002078
:103CC00000B9704710B5044602F050F920460AF0DA
:103CD00063FE044604F050F8204610BD70B505465A
:103CE00002F044F925B9002404F046F8204670BDDE
:103CF00002F03CF928460AF04FFE044604F03CF876
:103D0000002CF0D0144E1549F269736B0132F26148
:103D100013F83420013203F8342003EBC4032A469D
:103D20005D680B6805F10800002198472968726BEF
:103D300012F83130012B01D9F06930B9013B02F89A
:103D4000313004F019F8204670BD0138013BF061B4
:103D500002F83130F5E700BFB8C1002004020020AE
:103D6000024B21F0030183E803007047A4BF002049
:103D700000B9704770B50D4C054602F0F7F8636B5B
:103D8000EE003344596848680AF058FC626B636877
:103D9000616A1644013300206360716002F83500E7
:103DA0006562BDE8704003F0E7BF00BFB8C1002006
:103DB00028B1034AD36B036003B15860D0637047E6
:103DC000B8C10020F8B5054602F0D0F82C68B4B1AF
:103DD0000E4E02F0CBF8736BE7003B44596848681D
:103DE0000AF02CFC716B7368726A0F440133002077
:103DF00073607A6001F83400746203F0BDFF002341
:103E00002B60BDE8F84003F0B7BF00BFB8C1002089
:103E1000F8B5894E96F828300446002B2FD003348D
:103E2000356CF26B24F003040434A54238BF2546F8
:103E300062B152F8043C9D42144604D114E054F897
:103E4000043C9D4210D02468002CF8D1F368B46B78
:103E50001C4454F8041C611A0B68002B65D14B6894
:103E60009D426CDD002408E023680BB16168596055
:103E7000616801B10B60A24253D02046F8BD6F4B80
:103E80009A685868012186F828100AB982089A6051
:103E90005A25356210272022402519683764B264FC
:103EA000356580274FF480724FF40075B765326630
:103EB000B5664FF480674FF400624FF48055A1F16E
:103EC00014033767B267C6F880504FF400574FF4B9
:103ED00080424FF400450344C6F88870C6F890202D
:103EE000C6F898504FF480374FF400324FF48025D5
:103EF000C6F8A070C6F8A820C6F8B0500222012566
:103F00004FF40027B16373633261F060C6F8B87094
:103F10005D60756275600AF091FB0DF0C9F835635C
:103F20007DE72368F3632046F8BD00200FF09CF97D
:103F300054F8041C611A0B68002B93D18FE7D6F854
:103F4000B8703D4A581B041DBB420C4472D2D2F8D3
:103F5000B070BB426CD2D2F8A870BB4266D2D2F825
:103F6000A070BB4260D2D2F898709F425AD9D2F862
:103F70009070BB4254D2D2F88870BB424ED2D2F875
:103F80008070BB4248D2926F934243D2376F2A4A25
:103F9000BB423DD2976EBB4238D2176EBB4233D282
:103FA000976DBB422ED2176DBB4229D2976CBB4294
:103FB00024D2126C93420CD2F2687369521B2B44C8
:103FC000F260736110B944F8045C56E70AF036FBFE
:103FD000F9E700223768D1F808E0FB1A3360CB68B4
:103FE000BEF1000F01D0CEF8043013B1C3F800E0E9
:103FF000E2E706EBC202C2F844E0DDE70122E9E7AE
:104000000222E7E70322E5E70422E3E70522E1E7EE
:104010000622DFE70722DDE70822DBE70922D9E7EE
:104020000A22D7E70B22D5E70C22D3E70D22D1E7EE
:104030000E22CFE70F22CDE7B8C10020A4BF002099
:1040400030B1044B5B6B03EBC000436858680C381D
:10405000704700BFB8C10020024A936901339361E1
:10406000704700BFB8C10020074AD169536B0131C6
:10407000D16113F83020013203F8302003EBC00384
:1040800058680830704700BFB8C1002009B9002047
:1040900070472DE9F8430F46064601F067FF3846A2
:1040A0000AF07AFC054603F067FE002D65D0002E6D
:1040B0005AD0334C636B4FEAC60843445B68596877
:1040C0000C398F42A8BF0F4601F050FF636BE269C5
:1040D00013F835002B49013003F8350003EBC50018
:1040E0000232D0F80490E26113F83620013203F86E
:1040F000362043443A465F680B6809F1080007F12F
:1041000008019847D9F80010636B13F83120012A91
:1041100001D9E06970BB013A03F83120396813F81E
:104120003120012A02D9E069154F00BB013A03F89A
:10413000312001F01BFF636B434400275968486836
:104140000AF07CFA606B6268616A00EB0803013276
:104150006260596000F83670666203F00DFE03F08D
:104160000BFE2846BDE8F8832846BDE8F8830138F1
:10417000F861DBE70138E061CDE70020BDE8F883B6
:10418000B8C1002000020020F8B5584C01F0EEFE46
:1041900094F82830002B57D0D4F8BC30534A9BBB3E
:1041A000D2F8B43083BBD2F8AC306BBBD2F8A430B9
:1041B00053BBD2F89C303BBBD2F8943023BBD2F82F
:1041C0008C300BBBD2F88430F3B9D36FE3B9536FA3
:1041D000D3B9E36EC3B9536EB3B9D36DA3B9536DFD
:1041E00093B9D36C83B9536C73B96FF00B03404927
:1041F000DA1781FB0313C2EB6313246A04FB03F495
:1042000003F0BAFD2046F8BD9B68002BF5D00022D4
:1042100001E09B6843B159689B689142104684BF96
:104220000A461046002BF4D10C38B0F5800F034637
:10423000DDD8226A2E4B02FB00F0A3FB00235C09B1
:1042400003F09AFD2046F8BD2A4B9A685868012170
:1042500084F828100AB982089A601968A1635A265E
:104260001022202526622264A564402780264FF470
:1042700080724FF40075A1F114032765A6652266CC
:10428000A5664FF480674FF400664FF480524FF4F8
:10429000005503442767A667C4F88020C4F88850F7
:1042A0004FF480474FF400464FF480324FF400350E
:1042B000C4F89070C4F89860C4F8A020C4F8A8505E
:1042C000022201254FF480274FF400266363226108
:1042D000E060C4F8B070C4F8B8605D6065626560A5
:1042E0000AF0ACF90CF0E4FE256355E7B8C10020F4
:1042F0001F85EB51A4BF0020024A9369013B9361E3
:10430000704700BFB8C1002030B403680A4A53F8B0
:10431000085C0446506B10F83530012B03D9D16985
:1043200009B10139D161013B00F835300022104656
:10433000226030BC704700BFB8C10020034B5B6BEC
:1043400003EBC00040680830704700BFB8C10020D0
:10435000A0B32DE9F041044682B008467ABB154669
:104360002046FFF781FE02AE078846F8080DD0F818
:1043700004803046FFF7C8FF791C40468900FFF7EC
:1043800085FE804660B3FFF76FFE02AB43F8040D75
:1043900040F827501846FFF7B7FF2046FFF764FEA6
:1043A0000288009003460132C0F8048030461A802B
:1043B000FFF7AAFF002002B0BDE8F0817047114668
:1043C000FFF736FC05460028CAD12046FFF74CFE11
:1043D00002AB43F8080D1846FFF796FF0120EAE705
:1043E0002846FFF7C5FC0120E5E700BF0820FFF7DE
:1043F00075BC00BF00B9704730B583B00546FFF704
:1044000033FE0090406838B96846FFF77DFF2846C4
:10441000FFF7AEFC03B030BDFFF726FE009B019016
:104420001B885BB1002400E0019800EB8400FFF7DB
:10443000C9FC009B1B880134A342F5DC01A8FFF7EF
:1044400063FF00980430FFF7BDFC009B00221A8038
:10445000DAE700BF10B582B018B90446204602B0B2
:1044600010BDFFF701FE02AB048843F8040D1846A7
:10447000FFF74AFF204602B010BD00BF10B582B062
:1044800018B90446204602B010BD0C46FFF7ECFDFB
:10449000038800909C4206D300246846FFF734FF4F
:1044A000204602B010BD406808B90446F5E7FFF7A2
:1044B000DBFD02AB50F8244043F8040D1846FFF72B
:1044C00023FFEAE7B0F1004F2DE9F04175D0002855
:1044D0007EDB00240C1BE4B200210AB1013CE4B2F3
:1044E00084B33F4F99B3651E9442DFF8F8E04FF074
:1044F000310CEDB219D057F8256090FBF6F1C9B236
:104500000A291FD806FB11000DB90131C9B20A29C9
:1045100001F1300149D01C68661C1E6021708DB10C
:104520002C46651E9442EDB2E5D119684E1C1E6002
:104530009EF800600E7057F8256090FBF6F1C9B246
:104540000A29DFD91B6800221A70BDE8F081651EB8
:104550009442DFF890C04FF03108EDB217D057F811
:10456000256090FBF6F1C9B20A2901F1300EE9D8B5
:1045700006FB1100196811D04C1C1C6081F800E08A
:10458000002DDFD02C46651E9442EDB2E7D11968AC
:104590004E1C1E609CF800600E70E0E74E1C254625
:1045A0001E602C4681F80080EDE7196825464E1CF8
:1045B0001E602C4681F800C0B3E71D684C1E681CC5
:1045C0002D211860E4B229706FF00040012184E7CA
:1045D0001D682D266C1C1C60404201242E7079E75A
:1045E0007C8806087CC20020C3B2CAB29A1A92B272
:1045F00030B415B2002DBCBF524215B2C0F3072330
:10460000C1F307229B1A9BB2090C1AB2C1EB1041ED
:10461000002A89B20CB2BCBF5B421AB2002CBCBFEC
:1046200049420CB202FB02F205FB0520A1B201FBDC
:10463000010030BC704700BF2DE9F041002182B07D
:10464000084601F005FC01F091FC042005F096FB02
:10465000174B1B69DD6C1C6DA5F57F57A4F57F56C4
:1046600005F57F5504F57F5480463F3F3F353F3E7B
:104670003F346846ADF80070ADF80450ADF8026004
:10468000ADF8064009F0DEF948B123462A46314626
:10469000384604F0E1FF09F069F80028F5D14046FA
:1046A00005F06CFB03F068FB02B0BDE8F08100BFD1
:1046B000540100202DE9F04182B016461C46074601
:1046C0000D4601F053FC042005F058FB134B1B6909
:1046D000DA6C1B6D8046174416441D441C44684622
:1046E000ADF80070ADF80460ADF80250ADF80640CA
:1046F00009F0A8F948B1234632462946384604F065
:10470000ABFF09F033F80028F5D1404605F036FB41
:1047100003F032FB02B0BDE8F08100BF540100207D
:104720002DE9F047044682B00D461646002B38D0DE
:104730009A46009626680B9B0A9A51462046B04737
:10474000074618B9384602B0BDE8F08707F0DAF935
:10475000618A8046384606F0F9FB384608F0DCFDF1
:10476000013D404608F0D8FD002DC8BF4FF00009BC
:1047700004DC1AE008F0D0FD013D16D054F81C6F9F
:10478000CDF80090002320461A464146B047064621
:104790000028EFD1384606F003FF304602B0BDE8EE
:1047A000F08707F0BDF98246C3E740461D2108F0B7
:1047B00039FBBAF1FF3FC5D001F0D8FB07F02CFA66
:1047C00060B9BA4502D0384608F04AFC03F0D4FA82
:1047D000384602B0BDE8F0870028F4D0FFF7AEFD00
:1047E00080698742F8D1F1E7012B12DCF8B5064663
:1047F0001C2017460C461D46FFF70AFBB8B154B102
:1048000004610023836085618782C6600360436022
:10481000F8BD00207047074B53F825200AB9F0E790
:104820001A461368002BFBD113690361E9E70020E6
:10483000F8BD00BF90C20020012B3BDC2DE9F843FE
:1048400081461C2090460F461E46FFF7E1FA0546BA
:1048500000287FD0414A002F31D00023DFF804E147
:1048600052F8264003609EF8001007618E42866170
:10487000A0F81480C0F80C904360836002DB731CC6
:104880008EF80030002C5DD021464C68002CFBD106
:10489000D9F80000CB681B6883422CDD0968002929
:1048A000F8D148B92E4B16361A68284642F82650D9
:1048B000BDE8F883002070472846BDE8F88352F829
:1048C0002610002930D0084600E018460368002B67
:1048D000FBD1DFF890E000692B6028619EF80000B2
:1048E000AE618642A5F81480C5F80C906B60AB6091
:1048F000CBDB0C46C3E70AD04B6843B31D606B604B
:104900008D4214BF0B4600234D602B60C9E7B8F100
:10491000010FF1D104E0D9680C6884421946EBDB41
:104920000B68002BF7D1E7E7DFF838E001609EF86D
:10493000003086619E42A0F81480C0F80C9041605F
:104940008160D6DA42F82650D9F80000A9E742F88B
:104950002650D5E70020BDE8F88300BF90C20020B4
:104960006401002089C20020FFF722BA00283CD051
:1049700070B48469012C03DD0123184670BC7047B4
:104980001E4B1F4D1A789442A4BF621C1A7055F832
:1049900024300BB92FE013465A68002AFBD1C268B5
:1049A000116802E01B68002BE6D0DA6812689142B9
:1049B000F8DB0DD05A68DAB110604260984214BF3B
:1049C0001A46002258600023026070BC18467047E7
:1049D000828A012AEED104E0D3681E68B1421346F0
:1049E000E8DC1A68002AF7D1E4E70123184670478B
:1049F00045F82400E2E745F82400BEE789C200201C
:104A000090C2002000284DD02DE9F041DFF89CE055
:104A1000254F9EF80060BC4602E02846002D27D0B6
:104A200084690568012CF8DCB44257F82430A4BF2F
:104A3000661CF6B20BB932E013465A68002AFBD165
:104A4000C268116802E01B68002BE6D0DA681268C1
:104A50008A42F8DC10D05A68A2B1106042609842D5
:104A600014BF1A460022586002602846002DD7D194
:104A70008EF80060BDE8F081828A012A0BD05A6866
:104A8000002AEAD147F82400E9E7D368D3F8008088
:104A900088451346DFDB1A68002AF6D1DBE74CF8BD
:104AA0002400BAE7704700BF90C2002089C20020EE
:104AB0000F4A816952F8213098420AD042680AB1FF
:104AC00003681360036803B15A6000230360436006
:104AD0007047036842F821302BB100225A604268C7
:104AE000002AEED1F0E74268002AEAD1EDE700BFE4
:104AF00090C200200020704701280EDC084B53F8BC
:104B0000200058B1C3681B681BB908E0C3681B6864
:104B100023B100680028F9D1704700207047704722
:104B200090C200202DE9F843074610F02BFA074405
:104B300010F028FA3E1A002EDFF86090DFF860804F
:104B400022DD01F027F8D9F800309E42A8BF1E46AA
:104B500001F00CFAD8F80040FFF77EFAB4B1254610
:104B600003F00AF9013DFBD1304610F007FA01F0DD
:104B7000FDF9013CFBD1FFF7BFFB03F0FDF810F09E
:104B800001FA3E1A002EDCDCBDE8F883304610F056
:104B9000F5F9FFF7B1FB03F0EFF8F0E7680100204B
:104BA00004C1002010B584B004AB01AC43F8104D33
:104BB000FFF788FC204600F015F904B010BD00BFD7
:104BC00030B52DED028BB5EE400AF1EE10FA83B050
:104BD00004465AD1DFED7F8AF7EE007A7E4B53F818
:104BE000243000EE103AB8EE408AB6EE007A68EE55
:104BF000277AF5EEC07AF1EE10FA00F1848077EEB4
:104C0000877A17EE900AFBF783FC41EC100B15F046
:104C1000D9FD51EC100BFBF78EFC07EE900AFDEE70
:104C2000E77A17EE900A01F0F1F928EE280A002C35
:104C30000CBF2346631C001BB5EEC00A0028ACBFA6
:104C40001D181D1CF1EE10FAEDB2F6EE007A6DD4CF
:104C500070EE277A17EE900AFBF75AFC41EC100B26
:104C600015F0B0FD51EC100BFBF765FC07EE900A58
:104C7000FDEEE77A224617EE900A294603B0BDEC16
:104C8000028BBDE83040FFF78DBFB5EEC00AF1EEF4
:104C900010FAF0EE408A09DBF7EE007AB4EEE70A8C
:104CA000F1EE10FA53D4F0EE687A97E7FFEE007A4F
:104CB000B4EEE70AF1EE10FAF5DD9FED487AF0EE7A
:104CC000C07A77EE877AF5EE407AF1EE10FA71D07D
:104CD0000023B2EE047A67EE877A0133FCEEE76ACE
:104CE000DBB216EE902A002AF5D0A34262DDFEEE7A
:104CF000007AF4EEE78AF1EE10FA60D8002C5FD16A
:104D0000FFEE008ACFE777EEC77A17EE900AFBF73F
:104D1000FFFB41EC100B14F01AF951EC100BFBF7F0
:104D20000AFC07EE900AFDEEE77A7AE770EE677A02
:104D300017EE900AFBF7ECFB41EC100B14F007F9AF
:104D400051EC100BFBF7F7FB07EE900A90E79FED95
:104D5000237AF0EEC07A77EE877AF5EE407AF1EEBC
:104D600010FA22D00023B2EE047A67EE877A01337C
:104D7000FCEEE76ADBB216EE902A002AF5D0A342D9
:104D800013DDF6EE007AF4EEE78AF1EE10FA1ADBA4
:104D9000B4B9F7EE008A104BDFED117A1B6801936E
:104DA00007EE103AB8EE478A3BE7F7EE007A78EE66
:104DB000A77A13E7F7EE007A78EEE77A0EE72CB1E0
:104DC000F7EE007A0AE7002C7FF404AFDFED018AEA
:104DD000E1E700BF000000007C8806085F708930B2
:104DE0000000000008B100F001B870472DE9F04F55
:104DF000474E83B0044601F0B9F800F0A1FF3368D4
:104E00000746B3F9229000F0E9FF3268938C1FFA4D
:104E100080FACAEB03031BB29384217800294DD09A
:104E2000BFB2B04647F6FF71204603F067FE014669
:104E30008346204603F020FE31688B8D03F0030388
:104E4000012B5AD0022B5CD085B24FF0000E4A8C59
:104E5000B1F92430ADF80230CEEB020292B210B2BA
:104E6000013B05F1FF3E964448843B446A4659465F
:104E7000ADF800002046ADF80630ADF804E003F0D0
:104E8000B7F93368BDF802209A845946204602F0EB
:104E900043FE225C0A2A04EB00031BD00D2A19D022
:104EA000BDF80000D8F8002005445584197819B1E0
:104EB00059785C1C0029B5D1B2F92430918D9A44FF
:104EC00021F00303A2F824A0938502F055FF03B05C
:104ED000BDE8F08F3268918D01F00301013901299D
:104EE0008ABF118CA2F82290518419780A29DED148
:104EF000918C394491841978D9E71FFA80FE754660
:104F0000A5E700EBD072C2F34F0E85B29FE700BF5A
:104F10006401002020B3F0B50C4683B00546164668
:104F200001F024F8D4B1204608F0E6F9074638B17C
:104F300068463A46214603F041FE684608F0DCF92F
:104F40003246214647F6FF73284603F0ABF9384650
:104F500008F0D2F902F010FF03B0F0BD2746EFE7EA
:104F6000704700BF08B100F001B870472DE9F04F5D
:104F700089468BB01546044603921F4600F0F6FFA3
:104F8000B9F90030B9F90410B9F906000193CE1A45
:104F90000291B9F902B0059000F0D2FE15F00C08AC
:104FA00006F10106049076D11FFA80FA484608F00F
:104FB000A3F902460490A8B1019800210B4660F3C2
:104FC0000F01029860F30F0305986BF31F4160F324
:104FD0001F43069106A84946079303F0EFFD06A874
:104FE00008F08AF9039B03F003080AF1FF330393E7
:104FF00043461FFA8BF5B0461E4615E0022E34D00C
:105000001EB9B9F80030ADF820302046594608AA3C
:1050100003F0EEF820463A46414603F07BFF044495
:1050200055442378ADB273B33A464146204603F067
:10503000DBFF039BBDF80420ADF820200146EB18F0
:10504000BDF80820ADF8225083462046ADF8242054
:10505000ADF8263003F010FD012ECFD1B9F80430A1
:105060000133181AADF82000CFE7B9F90010B9F9EB
:1050700004305B1A181A013000EBD07001EB6000AD
:10508000ADF82000C1E7049808F036F902F074FE8C
:105090000BB0BDE8F08FA24600F068FF3A463146FB
:1050A0005046002503F036FF40B182443A4631466F
:1050B0005046013503F02EFF0028F6D102F05CFEC9
:1050C000B8F1080F08D0B8F10C0F0FD0B8F1040FE9
:1050D00002D0BDF810A069E7BDF810A0059B15FB34
:1050E0000AF501335D1B0FFA85FB5FE7059B049909
:1050F000CBEB0303013305FB113505EBD5750BEB4A
:1051000065050FFA85FB1FFA81FA4FE72DE9F04F8D
:1051100091B081461E460F46904600F027FF654B32
:105120001C68E56C246DA019E11905EB090305EB7A
:105130000802044608900EA8029301920791ADF868
:105140003830ADF83C20ADF83A10ADF83E4008F0EC
:1051500079FC002800F09180019B029A9DF868403C
:105160009DF86C70C2EB030B1A9AC2F307201B9ACE
:10517000C2F307261A9AC2F307411B9A0BEBDB73A3
:105180005B10C2F3074E1A9A0BFB04353C1B120E40
:1051900006940BFB0034301A03900BFB01300BFB21
:1051A00002330D931B9B0A95C1EB0E01C2EB1363F7
:1051B0000B940C90049105935E4600F0B5FD1A9B8C
:1051C0001B9A099093426AD0002E52D0029D019AF8
:1051D00095425CDC0AAF024697E880074FF0010B6E
:1051E00006E00BF1010B019B0135AB4222462FDBA0
:1051F0009AFBF6F399FBF6F41B0697FBF6F143EAEC
:10520000044398FBF6F441EA042405991C43039BEC
:105210008A4404999844029B89440699AB421046FB
:105220000F44E0DA9442DCD004F090FDBBF1010FB2
:10523000CBEB0500089B079905F1FF3222D004F063
:105240000BFA019B0135AB424FF0010B2246CFDA3E
:10525000204604F07BFDBBF1010F1AD0019A089B98
:105260000799CBEB0200013004F0F6F9099804F03D
:105270006DFD08F07BFA00289FD102F07DFD11B092
:10528000BDE8F08F1A46681E04F0BCF9ABE704F0E5
:105290005DFD089A0799019804F0B4F9E6E718460D
:1052A00004F054FD089B019A0799029804F0D4F980
:1052B000DCE700BF640100202DE9F04F91B081468A
:1052C0001E460F46904600F051FE644B1C68E56C8C
:1052D000246DA019E11905EB090305EB080204464A
:1052E00001900EA8079308920291ADF83830ADF8FE
:1052F0003C20ADF83A10ADF83E4008F0A3FB002882
:1053000000F09180019B029A9DF868409DF86C70B6
:10531000C2EB030B1A9AC2F307201B9AC2F30726AB
:105320001A9AC2F307411B9A0BEBDB735B10C2F3B3
:10533000074E1A9A0BFB04353C1B120E06940BFB0E
:105340000034301A03900BFB01300BFB02330D933A
:105350001B9B0A95C1EB0E01C2EB13630B940C90DF
:10536000049105935E4600F0DFFC1A9B1B9A09909E
:10537000934269D0002E52D0029D019A95425BDC87
:105380000AAF024697E880074FF0010B06E00BF1E9
:10539000010B019B0135AB4222462FDB9AFBF6F352
:1053A00099FBF6F41B0697FBF6F143EA044398FBDE
:1053B000F6F441EA042405991C43039B8A440499AA
:1053C0009844029B89440699AB4210460F44E0DAA8
:1053D0009442DCD004F0BAFCBBF1010FCBEB050129
:1053E00005F1FF33089A079822D004F035F9019BA4
:1053F0000135AB424FF0010B2246CFDA204604F0D4
:10540000A5FCBBF1010F19D0019B089A0798CBEBC3
:105410000301013104F020F9099804F097FC08F029
:10542000A5F900289FD102F0A7FC11B0BDE8F08FCC
:10543000691E04F087F8ACE704F088FC089A01992B
:10544000079804F07FF8E7E7184604F07FFC019B1B
:10545000089A0299079804F0FFF8DDE7640100203C
:105460002DE9F04F8FB01646189C0194199C0394B7
:105470001A9C0A940B901C46069100F077FDA44BF1
:105480001B680020DF6C1D6D08F0DCFA002800F0BE
:1054900084800A9A069B002A07EB0602099205EB14
:1054A000040203F1004305920B9A03F1FF3302EB70
:1054B00043030D9314BF6FF0010302230293019B7A
:1054C000002B66D0039B002B63D0069B002B60DD76
:1054D000019B5A1C00F0FF80012B039B00F00A8106
:1054E000012B14BF05210421894B1B685B69002B2C
:1054F00000F0DD800998B3F90220B3F90050069C52
:105500000792B3F906200892013D0246A842B3F97A
:105510000430224402F1FF32BABF2D1A25EAE575A4
:1055200000259A42C4BF02469B1A0A9ACCBF013397
:105530002346002A00F0C3800D9EAB4229DD099A64
:10554000013902F1FF380022454404919844914604
:10555000012747F6FF7BB6F90040029B5C451E44DD
:1055600000F08380049B002F39D0042B00F2AB8025
:10557000DFE803F02820182D0300059BE218019BAB
:105580000135002703FB02F2039BB2FBF3F2454512
:10559000E1D108F0EBF8002891D10FB0BDE8F04F51
:1055A00002F0EABB059B01351C440027039BB4FBBA
:1055B000F3F2ECE7059B01351C1B0027039BB4FBB2
:1055C000F3F2E4E7059B01351A1B0027DFE7059B93
:1055D0001C44019B013503FB04F20027D7E7042B91
:1055E00076D8DFE803F03F3933150300059B1C44F0
:1055F000019B03FB04F4039BB4FBF3F40799914272
:105600000EDD8C420CDA013509F101092246BEE7B4
:10561000059B07991C44019B914203FB04F4F0DCB9
:10562000089991422EDA8C42EDDCA31803EBD37378
:105630005B10194628460C9303F0E4FF0C9B0135E0
:105640001A462846214603F0DDFFDDE7059B1C4492
:10565000039BB4FBF3F4D1E7059B1C1B039BB4FB3A
:10566000F3F4CBE7059B1C1BC8E7B9F1000F04D18D
:10567000002F36D00135012789E701354FF00009A9
:10568000012784E704EB020A0AEBDA7A4FEA6A0A96
:1056900094425346CDDB114628465246013503F06D
:1056A000B1FF51462846224603F0ACFFACE70A9A08
:1056B0002ABB4FF0FF3307930893069B15460B9ABE
:1056C00002EB450639E7059B0135E21800275EE746
:1056D000059B1C4492E7039B012B14BF022101216F
:1056E00002E7114628460C92013503F055FF0127C9
:1056F0000C9A4CE7012B14BF03210021F4E64FF074
:10570000FF321D46079208920D9E069B17E700BFC9
:1057100064010020F0B5144F83B006460D461446D0
:1057200000F024FC3B68196DDA6C0E4433B215446A
:1057300014446846ADF80050ADF80440ADF80230AE
:10574000ADF8063008F07EF950B13B685B6E22463A
:105750001B6831462846984708F008F80028F4D11D
:1057600002F00AFB03B0F0BD640100202DE9F04F08
:10577000B84D8DB08046894617469A4600F0F6FB34
:105780002C680020E66C246D08F05CF9002800F01D
:10579000268104EB0A03A144C3EB090B06EB0802C4
:1057A000F119CBF10008C1EB020A18EA2B0838BF47
:1057B000D8464AEA0B07CDF814B004930391A64EDD
:1057C000934604E007F0D2FF002800F008812B6820
:1057D0001C7E0023012C079300F03281002FF1D0B2
:1057E000BAF1000F04F1FF34C0F2258150460222C5
:1057F000059933EA210328BF1346404580F2F4801F
:1058000043F004030246DBB24046411001EB822222
:1058100092FBF0F2911106EB4100C2F3830CCCF144
:10582000100EB0F92400BEF1100F0EFB00F006D0F0
:10583000894A02EB4101B1F926100CFB010010F17D
:10584000080148BF00F117010911580748BFC1F509
:105850008061DA0748BFC1F500619B0748BFC1F509
:10586000805101F50062C2F30B02B2F5006FC6BFB2
:10587000A2F5006201200020B2F5806FC8BFC2F51A
:10588000006201F58063911102F03F02C2F1400213
:1058900092B236F811E0402A02FB0EFE08D0102921
:1058A00006D00131C2F1400236F8111002FB01EEC0
:1058B0000EF1200E4FEA9E1E002840F097807046A1
:1058C000C3F30B03B3F5006FC6BFA3F5006301225A
:1058D0000022B3F5806FC8BFC3F5006303F03F0E2D
:1058E0009911CEF1400E1FFA8EFE36F81130BEF13E
:1058F000400F00FB04F00EFB03F308D0102906D084
:105900000131CEF1400E36F811100EFB0133203379
:105910009B0902B15B42002803FB04F469DB00F53C
:105920000070002C4FEAA0206ADB04F50074002808
:105930004FEAA4246BDD00F1010C002C4FEA6C0C43
:105940004FEA60006EDD04F1010E4FEA6E0E641046
:105950001FFA8CFC1FFA8BF21FFA8EF302EB0C0E6F
:10596000ADF820E0BDF80CE080B2121AF444C0EBB0
:105970000E00BDF810E0ADF82420A4B21FFA89F1A2
:10598000CA18091BC4EB0E049E440023ADF8222064
:10599000ADF826101A46ADF82800042108A8ADF885
:1059A0002CC0ADF82A40ADF82EE0FCF75BFC2B686C
:1059B0005B7E002B7FF406AF49465846FCF7CEFBD2
:1059C000244B1B685B7E002B7FF4FCAE049903988C
:1059D000FCF7C4FB07F0CAFE00287FF4F8AE02F023
:1059E000CBF90DB0BDE8F08F42460EE7CEF10000D6
:1059F00066E7C0F500708012002CC0F1000094DA58
:105A0000C4F50074A4120028C4F1000493DC431E02
:105A100000EBD07C03EBD373002C4FEA63004FEA1A
:105A20006C0C90DC631E04EBD47E03EBD3735C1030
:105A30004FEA6E0E8CE7CAF1000003220123D7E67D
:105A400007AB0093039A049B49465846FCF782F93A
:105A5000B8E600BF64010020B488060870B5134E94
:105A600082B005460C4600F081FA3368DA6C1B6D93
:105A700015441C442AB223B26846ADF80420ADF8A0
:105A80000020ADF80630ADF8023007F0DBFF48B17A
:105A900033685B6E21465B682846984707F066FED0
:105AA0000028F5D102F068F902B070BD6401002051
:105AB0002DE9F04782B0044689469246984600F0A8
:105AC00055FA1E4B1F683E7EFD6C3F6D013EB6B21F
:105AD0002C44B9445544B844A11B7219C6EB0903C0
