:020000040800F2
:1000000078B8002059020008E73D01089136010840
:10001000E53D01089B320108ED45010800000000A4
:10002000000000000000000000000000A101000826
:10003000C132010800000000F501000891440108E8
:1000400073020008730200087302000873020008BC
:1000500073020008730200087302000873020008AC
:10006000730200087302000873020008730200089C
:10007000730200087302000873020008730200088C
:1000800073020008730200080930010873020008B7
:10009000730200087302000873020008730200086C
:1000A000730200087302000873020008730200085C
:1000B000730200087302000873020008730200084C
:1000C000730200087302000873020008730200083C
:1000D000730200087302000873020008730200082C
:1000E000730200087302000873020008730200081C
:1000F000730200087302000873020008730200080C
:1001000073020008730200087302000873020008FB
:1001100073020008730200087302000873020008EB
:1001200073020008730200087302000873020008DB
:1001300073020008730200087302000873020008CB
:1001400073020008730200087302000873020008BB
:1001500073020008730200087302000873020008AB
:10016000730200087302000873020008730200089B
:10017000730200087302000873020008730200088B
:100180007302000873020008DFF810D000F018FABC
:1001900000480047E54D0108AFF3008078B8002023
:1001A0002A4B19680868B0E8F04F80F30988BFF35C
:1001B0006F8F4FF0000080F311887047000000003F
:1001C00006480068006880F3088862B661B6BFF32D
:1001D0004F8FBFF36F8F00DF00BF00BF08ED00E05F
:1001E000DFF80C00016841F470010160704700BF46
:1001F00088ED00E0EFF30980BFF36F8F134B1A68AF
:100200001EF0100F08BF20ED108A20E9F04F10609B
:1002100008B44FF0500080F31188BFF34F8FBFF345
:100220006F8F15F0FDFB4FF0000080F3118808BCC4
:1002300019680868B0E8F04F1EF0100F08BFB0EC66
:10024000108A80F30988BFF36F8F70474000002049
:10025000EFF30580704700000648804706480047D6
:10026000FEE7FEE7FEE7FEE7FEE7FEE7FEE7FEE766
:10027000FEE7FEE7A54401088901000810B5441A0D
:100280000346944209D28418114403E011F8013D59
:1002900004F8013D521EF9D210BD40EA0104A40742
:1002A00003D009E010C9121F10C3042AFAD203E0D8
:1002B00011F8014B03F8014B521EF9D210BDD2B216
:1002C00001E000F8012B491EFBD270470022F6E73F
:1002D00010B513460A4604461946FFF7F0FF2046BC
:1002E00010BD034611F8012B00F8012B002AF9D1AB
:1002F0001846704700F0004230F000400AD0C10DAF
:1003000001F56071C0F3160042EA0151C2084007CE
:100310001143704700200146704701F0004330B49C
:1003200021F0004150EA010206D00A0DA2F56072E8
:10033000C1F31301002A02DC30BC00207047440FD7
:1003400044EAC104C100E01830BC00EBC25000F028
:1003500041B82DE9F05F0546002092469B4688464D
:100360000646814640241BE0284641464746224631
:1003700000F020F853465A46C01A914110D3114656
:100380001846224600F02EF92D1A67EB01084F4659
:1003900022460120002100F025F917EB00094E410B
:1003A000201EA4F10104DFDC484631462A464346BC
:1003B000BDE8F09F202A04DB203A21FA02F0002158
:1003C000704721FA02F3D040C2F120029140084365
:1003D000194670470029A8BF7047401C490008BF54
:1003E00020F00100704710B4B0FA80FC00FA0CF065
:1003F00050EA010404BF10BC704749B1CCF120049D
:1004000021FA04F411FA0CF118BF01212143084329
:10041000A3EB0C01CB1D4FEA00614FEA102042BF55
:10042000002010BC704700EBC35010440029A4BF4B
:1004300010BC7047401C490008BF20F0010010BCF0
:1004400070472DE9FE4F804681EA0300C00F0C463D
:10045000009021F0004123F00045B8EB0200A941D3
:1004600005D24046214690461C460B46024623F0E4
:100470000040104347D0270DC7F30A00C3F30A51C9
:100480000290401A019040286BDAC3F3130040F445
:10049000801B0098924620B10023D2EB030A63EB45
:1004A0000B0B01985946C0F14002504600F09AF8F3
:1004B00006460D4650465946019A00F0A2F810EB48
:1004C00008006141002487EA115284EAE7731A4365
:1004D00040D0009A62B3019A012A4FEA075215DC14
:1004E000001B61EB02014FF0004202EA0752CDE926
:1004F0000042001C41F5801132462B4600F0A2F864
:1005000003B0BDE8F08F40462146F9E7001B61EBE0
:100510000201001C41F5801300185B412018A2F570
:10052000001747EB030140EAD570B6196D4111E0A1
:100530006D084FEA360645EAC0754FEA0752001BC0
:1005400061EB0201001C41F5801149084FEA3000BF
:100550000019514132462B4603B0BDE8F04F00F080
:1005600062B80098012240000023D0EB020263EB46
:10057000E073009821464FEAE074B8EB000061EBAD
:100580000401E9E783F000435BE781F0004158E7AD
:1005900030B5041E71F1000404DB4FF0004440420A
:1005A00064EB0101141E73F1000405DB1C464FF0DF
:1005B0000043524263EB0403994208BF904230BDAE
:1005C000064C074D06E0E06840F0010394E80700A0
:1005D00098471034AC42F6D3FFF7DAFD64A6010861
:1005E00084A60108202A04DB203A00FA02F1002048
:1005F00070479140C2F1200320FA03F31943904061
:100600007047202A06DBCB17203A41FA02F043EA72
:10061000E07306E041FA02F3D040C2F120029140BB
:1006200008431946704710B5141E73F1000408DA28
:10063000401C41F1000192185B411A4301D120F0A6
:10064000010010BD2DE9F04D92469B4611B1B1FA63
:1006500081F202E0B0FA80F220329046FFF7C2FF4A
:1006600004460F4640EA0A0041EA0B0153465A4647
:10067000084313D0114653EA010019D0C8F14002D3
:100680005046FFF797FE05460E46504659464246ED
:10069000FFF7A8FF084305D0012004E020463946B3
:1006A000BDE8F08D0020054346EAE0762C43374351
:1006B0000A986305E40AA0EB08000022FD0A44EA58
:1006C00047540A3002D500200146E9E70105101918
:1006D0006941DDE9084500196941BDE8F04DA2E72F
:1006E00070B58C1810F8015B15F0070301D110F8F4
:1006F000013B2A1106D110F8012B03E010F8016B21
:1007000001F8016B5B1EF9D12B0705D40023521EA3
:100710000DD401F8013BFAE710F8013BCB1A921C0B
:1007200003E013F8015B01F8015B521EF9D5A14209
:10073000D8D3002070BD00002DE9F047466886B090
:100740000546304603F07AF8C36D0090D0F8884033
:10075000D0F88070D0F86880B0F87C90002B63D01F
:10076000D3F800A0684603F0B9F914B909E0246889
:100770003CB16368284698470028F8D006B0BDE829
:10078000F0872B68172B00F0A4801DDC0F2B00F0E6
:100790008C807CDC0B2B00F0BE800D2B0AD119F075
:1007A000080F07D1EB68DB6823B11B7A13B1304621
:1007B0000BF060FD3046294609F062FC0028DDD0D0
:1007C00028460AF027F8D9E7262B74D02EDC1E2BFA
:1007D00000F0AD80202BEDD1EC68002CEAD0314642
:1007E00060680CF089FE002800F0BE80304603F0FF
:1007F00025F8B0F87C300190190740F12A8101A852
:1008000003F06CF9314660680CF064FE0028D1D02A
:10081000304603F013F803466268019001A8C3F85C
:10082000802003F05BF9C5E79A469BE72A2B65D049
:10083000B3F5107FBED13046D5F80C8002F0FEFF34
:1008400006ACB0F87C7044F8140D204603F046F96D
:10085000EB68002B92D098F80830002B00F0A980AC
:10086000390740F1B580304609F03EFE07F4887341
:10087000B3F5887F82D107F080039BB2002B7FF411
:100880007DAF4146304605220BF098FC76E7112BF0
:1008900022D0142B8ED1304601A900F0FBFB02AB15
:1008A00003CBEB681860596068E7BAF1000F81D09C
:1008B0003046D0477EE7EB68022B7FF45FAF06A996
:1008C000272241F8142DA868039604930CF06EFFBC
:1008D00054E7C5F80C8051E73046EC6802F0AEFFF3
:1008E00001902389012B05D1B0F87C3043F480734B
:1008F000A0F87C3001A803F0F1F85BE7304602F085
:100900009DFFEB680090002B66D0C0F884306846ED
:1009100003F0E4F832E7304602F090FF034670300F
:10092000009302F039FE684603F0D8F842E7EC681D
:10093000012C55D0002E3FF421AF04F02DFE30469F
:1009400002F07CFFB0F87C3001901C0706D523F044
:100950000803A0F87C3030460AF014FF01A803F029
:10096000BDF806F01FFD09E7304602F067FFB0F85A
:100970007C3001901A0706D523F00803A0F87C30DC
:1009800030460AF0FFFE01A803F0A8F831462068BF
:100990000CF0A0FD00283FF40DAF304602F04EFFF2
:1009A00003462268019001A8C3F8802003F096F85E
:1009B00000E7304602F042FFB0F87C200190034689
:1009C00022F480722046A3F87C2003F087F8D5E655
:1009D00030460BF04FFC46E7D0F88430EB6096E7EA
:1009E00038460BF0EFF918B338460BF043FC3846A5
:1009F0000AF076FDA8B926B9002F7FF4BFAEEF60EC
:100A0000BCE604F0C9FD304602F018FFB0F87C30B7
:100A100001901A0725D501A803F060F806F0C2FC82
:100A2000EAE72146384609F017FC002EE4D0E8E753
:100A300040460BF08BFC0746304602F0FFFE0346B3
:100A40006846C3F88070009303F048F8002ED3D0B6
:100A5000D7E743F00803A0F87C3030460AF092FE56
:100A6000CDE643F00803A0F87C3030460AF08AFE59
:100A7000D1E700BF2DE9F04F0F46B0F90C10B0F9E7
:100A80000AB08569B0F90E60B0F910A0B0F8128014
:100A90004D4C8FB001EB0309B0F908300493436863
:100AA00005939344603504F077FD4FF4805E324641
:100AB000009749465846039553460294CDF804E002
:100AC00009F0AAFD064628B906F06CFC30460FB0C6
:100AD000BDE8F08F02F0B2FEDFF8F4A004990690B2
:100AE0003022554609F072FC0DF1380B0FCD5BF842
:100AF000207D07F134040FC40FCD0FC495E8030027
:100B0000189B84E8030000257B66DAF82830FB6533
:100B1000C7F88050FD66C7F88850A7F87C80584613
:100B200002F0DCFF09A9304600F0B4FABDF92A1042
:100B3000BDF92800BDF92C20BDF92E30234C0395BA
:100B40005B1A121A41F28275013201330294009647
:100B5000019509F061FDDAF8283004465B683046FB
:100B60009847304602F06AFE034658469C66069354
:100B700002F0B4FF304609F0B9FF04F00DFD304635
:100B800002F05CFE036F079007A8089302F0A6FF2F
:100B9000059908A807F068FC38B906F003FC06F0D0
:100BA00001FC30460FB0BDE8F08F304602F046FE43
:100BB000089A0267034607A8079302F08FFF3046A2
:100BC0000AF0E0FDE9E700BF390700082D1400082E
:100BD000CC0000202DE9F041044690B0006800F000
:100BE000CDF9B04B6668A3F12C05002808BF1D465F
:100BF0001C2E00F2F880DFE816F02200F600F60066
:100C0000F600F6003500F600F600F600F600F600F5
:100C10005100F600F600FB00F600F600F6000F01AA
:100C2000F600F60049014B014D014F01F600F600B8
:100C3000F6001D006E69304610B0BDE8F0812068F6
:100C400002F0FCFD10ABB0F85A2043F82C0D42F036
:100C50000C02A0F85A20184602F040FF20680BF062
:100C6000F5FBE8E72B690193B4F910E0B4F91470CF
:100C7000B4F91860B4F91C40EB6800933246704632
:100C800039462346ADF82060ADF81CE0ADF81E7083
:100C9000ADF82240002603F025FECCE71C23206897
:100CA0000893079002F0CAFD036D059007A89847C6
:100CB000064605A802F012FF012E40F32681AB681C
:100CC00002936B6801932B686269A16920690093A4
:100CD000334607F011F82769A3693744C6EB0308C8
:100CE000286805F0EBFF42463946606904F028F8B1
:100CF000686805F0E3FF606942460130394604F058
:100D00001FF86B6A022B00F3F3802A6A964218DA06
:100D100063692069012E03F1020740F32481024434
:100D200006EB0308013A30444346394604F076FAAC
:100D3000A069821BEB69C01A39464346013004F0B2
:100D40006DFA012ED4BF66696369E7692868CCBF74
:100D5000F6180236013F05F0B1FF3A4631462069E8
:100D600004F004FA3A463146A06904F0FFF9E76955
:100D7000686805F0A3FF2069023F3A46013031461A
:100D800004F0F4F9A0693A460138314604F0EEF96E
:100D9000EB69022B40F38280AB6AE769A868022BFB
:100DA000CCBFFF1A023F05F089FFEA69022A00F36F
:100DB00096802B6A022B00F38880286805F07EFF5E
:100DC000A2692169E06903F0BBFF686805F076FF5E
:100DD000A2692169E069013A0131013803F0B0FFED
:100DE000AE6A022E60DC0026304610B0BDE8F0810D
:100DF00004F114010EC9A8682569ADF81E10ADF8FC
:100E00002020ADF82230ADF81C5005F057FF07A8A0
:100E100004F030FA00260EE7298B2269A36966697F
:100E2000E5692068ADF81E605B1A0A44ADF8203011
:100E3000ADF81C20ADF8225002F000FD036F0590C4
:100E4000FBB1022005F0A0FF059AB2F87C30C3F395
:100E5000C0030E3302EB8303986805F02FFF059B58
:100E6000586B05F043FF059B186F02F0E7FC059BEC
:100E70000690B3F95A2007A903F036FC06A802F041
:100E80002DFE05A802F02AFE0026D4E6AE6AD2E6C0
:100E9000EE69D0E62E6ACEE66E6ACCE62B6A022BAD
:100EA0008BDD79E798010020A269E7692169A868CC
:100EB0008C1C951E05F002FFB91B2A462046013105
:100EC000BB1E04F0ABF90026B5E6A269E869101A6A
:100ED0003B4631460130023A04F0A0F96DE7206943
:100EE0000244013A02303B46314604F097F960E78C
:100EF000A86805F0E3FE61696B6A0B444246384618
:100F0000013B023104F08AF91BE7286805F0D6FEA0
:100F10002169EA6960690A44013A03F011FFA26994
:100F2000E9696069511A013103F00AFF67692069B4
:100F30000137394604F0A8F83946A06904F0A4F84E
:100F4000686805F0BBFE20693946013004F09CF862
:100F5000A0693946013804F097F82769A369023778
:100F6000A3F10208BCE60244013A02303B4639468E
:100F700004F054F9A069B846821EDBE610B50446B9
:100F800082B080B104F008FB204602F057FC02ABAF
:100F9000B0F87C4043F8040D1846C4F3C00402F0D6
:100FA0009DFD06F0FFF9204602B010BD2DE9F0418D
:100FB000044684B00E4604F0EFFA24B906F0F2F9C4
:100FC00004B0BDE8F081204602F038FC458EC36DC8
:100FD000039005F02005ADB29F6845B1B0F95450BB
:100FE0002DB9406B04F034FA039B851C00E00346E6
:100FF0005E6303A802F072FD3B680121204698471A
:101000003B6806460321204698473B6880460021FE
:10101000204698470746204600F0CAF94346324624
:1010200029462046009700F049F920460AF0AAFB1D
:1010300006F0B8F904B0BDE8F08100BF00B9704710
:1010400030B5044683B00D4604F0A6FA204602F0FF
:10105000F5FB036F00906846019302F03FFD2946BF
:1010600001A807F001FA18B906F09CF903B030BDE9
:10107000204602F0E3FB019A0267034668460093AC
:1010800002F02CFD20460AF07DFB06F08BF903B040
:1010900030BD00BF2DE9F04F89B007460D4602F084
:1010A000CDFBC36D05909C680121236838469847A5
:1010B00023680321804638469847236802218346E7
:1010C000384698472368002182463846984781462B
:1010D00005980BF01DFE064605980BF021FE034611
:1010E0000598448E04F02004A4B2B4B1B0F95420A1
:1010F000B0F95840002A4ED091B2C06E0C44A4B250
:1011000080B10391029201930AF0BEF9019B029A09
:1011100003990FFA80FE80B205E021462246C06E98
:101120000028EED186461FFA89FC013ECBEB060B68
:101130006444013B0CF1FF3C8C44CAEB03030FFAFF
:101140008BFB0FFA88F804446B812A80A5F802E033
:10115000A5F812C0A5F808B0A5F810B0A5F804804D
:10116000A5F80C80A5F80E90EC8005A802F0B6FC5E
:1011700008AAB5F9103042F8043D3846B5F90C30EC
:10118000069306A900F04CF8069A079BAA812B82C9
:1011900009B0BDE8F08F406B019304F059F90230BB
:1011A00081B20C4402B2A4B20598019BB7E700BF1C
:1011B00008B5438E03F020039BB24BB10246B0F951
:1011C000540000B108BD506B04F042F9023008BD74
:1011D000184608BD70B58AB00C46064602F02EFBD4
:1011E0000AABC26D43F8280D1846956802F076FCEC
:1011F0000196032C05D8DFE804F00F0C0902172331
:1012000002936B6801A898470AB070BD152302933A
:10121000F7E716230293F4E718230293F1E700BFE0
:101220002DE9F04383B088460446914602F006FB60
:10123000034602A8DA6D40F8083D9568B3F90070DE
:10124000B3F9026002F04AFC2B682046002198475F
:101250000546204609F058FE60B3044607E001A8A1
:1012600002F03CFC204609F0B9FF044610B32046CA
:1012700002F0E4FAB0F9023001909B1B9D42EED1DE
:10128000836A1B060BD5B0F90030D9F80020DB1BB0
:10129000934203F1FF33E2DCC9F80030DFE7B0F935
:1012A0000430D8F80020DB1B9342A4BF0133C8F8F8
:1012B0000030D4E703B0BDE8F08300BF2DE9F04F64
:1012C00083B00E469B460546144602F0B7FA0DF170
:1012D0000808C26D48F8080DD2F80890FFF768FFBB
:1012E0000746404602F0FAFBD9F8003001212846B3
:1012F0009847D9F800300321824628469847D9F804
:1013000000308046002128469847B742814644D0A5
:10131000284609F0F9FDBE1B0546002844D00C9B69
:101320000027C8EB0B0BC3EB0909C4EB0A0AB8464C
:101330000AE0B4F5007F10D001A802F0CFFB2846E8
:1013400009F04CFF054678B3284602F077FA846A24
:10135000019004F42074802CEBD1BEB9836A1A0684
:1013600009D49B05E8D507FB06A14A4628460AF0A2
:1013700073FD0137E0E708FB16B14A4628460AF03C
:101380006BFD019B08F101089B6AEAE7284632469B
:1013900031460AF001FE0198E0E7A245B8D1D845F0
:1013A000B6D10C9B9842B3D103B0BDE8F08F00BF1B
:1013B00070B586B0064602F041FA034606A89C6E58
:1013C00040F8183DDD6E02F089FB84B96DB13046FE
:1013D00001A9FFF75FFEBDF90A20BDF90630BDF98E
:1013E00008102846D21A0AF0F9FC06B070BD304643
:1013F00001A9FFF74FFEBDF90A20BDF908102046EC
:101400000AF0ECFCBDF90A00BDF90E20BDF90C3064
:10141000BDF90810121A591A2046013201310BF099
:10142000AFF8002DD7D106B070BD00BF2DE9F04355
:10143000456887B00446284609F002FF074602F0D7
:10144000FDF9034606A85E6E40F8143DD3F84880C7
:10145000D3F8809002F042FB23680E3B232B3FD849
:10146000DFE803F035463E3E3E3E12123E123E3E5F
:101470003E3E3E3E18243E3E2B3E3E3E3E3E3E3EDF
:101480003E3E3E3E3E3E3E30204609F0C3F907B0A8
:10149000BDE8F083E368002BF9D0B9F1000F3BD031
:1014A0004D4539D048460AF0E5FEF0E7214638467A
:1014B00008F0E6FD07B0BDE8F083C4F80C8007B083
:1014C000BDE8F0830023E36007B0BDE8F083E36884
:1014D0005A68002A04DD1B68092B1DD00A2B1FD077
:1014E000002ED1D067602046B04707B0BDE8F0833A
:1014F0006FF07043984504D0404607F087FE02F035
:1015000085FC002EC3D094E80F0002AC84E80F00E5
:1015100020460395B047BAE728460AF017FFB6E71A
:1015200028460AF05BFFB2E72DE9F04F161A85B0A6
:101530005D1A9E4656EA0503DDF838B078D086EA93
:10154000E67385EAE574A3EBE673A4EBE5749C42CD
:101550000746894632DC1C46A6424FF00003019341
:101560003AD06D4239464FF0FF33002D1746C6F191
:1015700000040A46F1460393DBF8001032D1DFF88D
:101580000883019BD8F800E00846002B00F0CF80CC
:101590009EF81A30002B00F0C181002CC0F2C581EA
:1015A000B54EAA467246013B451C032B00F2328120
:1015B000DFE813F04A013F0156011F013B46304668
:1015C0002E4611464F46A64299464FF001037246F9
:1015D00005468E460193C4D10123002D0393DBF809
:1015E0000010CCD0DFF8A082D8F8000004EBD4764D
:1015F000827E4FEA6606B8BF7642F2B9002C14DB51
:10160000019B002B00F05181924601E0D8F80000C8
:10161000436E96FBF4F00AEB07015B6848440AF15D
:10162000010A984754452E44F0DA05B0BDE8F08F22
:1016300005B0BDE8F04F00F07BB95A1C00F02D81D9
:10164000002C53DBCDF808904FF0000AC1469846B5
:101650004144CBF80010827E013A032A15D8DFE816
:1016600002F0574B2C02854B4FEAE17E83FB01329F
:10167000CEEBA20202EB4202A1EBC2020B2A12DD68
:1016800022F00402103A012A0DD996FBF4F1029BD4
:10169000426E1944019B002B40F0F8805268384696
:1016A0009047DBF800100AF1010A544507F10107E1
:1016B0002E4416DBD9F80000CAE76F4B4FEAE17EF3
:1016C00083FB0132CEEBE20202EB8202A1EB82024B
:1016D0000B2AD7DC0AF1010A544507F101072E4411
:1016E000E8DA039A0132434600F0DD80CB1ACBF8EA
:1016F000003005B0BDE8F08F614A0A40002AC0F210
:10170000E680012ACCBF00220122002ACBD1BCE70F
:101710005C4A01F1060E0EEA0202002AC0F2DC80E9
:101720000B2ACCBF00220122002ABCD1ADE79EF8D3
:101730001A30002B00F0E980002CC0F2F680DDF8B2
:1017400004A04E4E7246013B451C032B13D8DFE824
:1017500003F04337210286FB0031C317C3EBA1031B
:1017600003EB4303A0EBC3030B2B0ADD23F00403BD
:10177000103B012B05D9536E49465B6807EB0A0005
:1017800098470AF1010A544514DBD8F8002028468E
:10179000937ED8E7384B83FB0031C317C3EBE103DB
:1017A00003EB8303A0EB83030B2BE1DC0AF1010ABB
:1017B0005445EADA691ECBF8001005B0BDE8F08F99
:1017C0002F4B0340002BC0F29680012BCCBF00238F
:1017D0000123002BD5D1CEE72A4B691D0B40002BEE
:1017E000C0F28E800B2BCCBF00230123002BC8D16D
:1017F000C1E7224B83FB0031C317C3EBA10303EB0B
:101800004303A0EBC3030B2B0ADD23F00403103BBF
:10181000012B05D9536E0AEB07015B6848469847D0
:101820000AF1010A5445C5DBD8F800202846937E0A
:10183000B9E6134B0340002B53DB012BCCBF002335
:101840000123002BECD1E5E70E4B691D0B40002B6B
:101850004CDB0B2BCCBF00230123002BE0D1D9E7BD
:1018600086FB0031C317C3EBE10303EB8303A0EB5B
:1018700083030B2BCBDCD3E767666666ABAAAA2A89
:10188000030000800F000080BC0000200846526862
:1018900039469047DBF8001005E72144002CCBF8CF
:1018A0000010BFF6CFAE214420E79A4601E0D8F8F9
:1018B0000000436E96FBF4F10AEB07005B684944B5
:1018C0000AF1010A984754452E44F0DAADE6013A90
:1018D00062F00302013214E7013A62F00F020132B2
:1018E0001EE7013B63F003030133A6E7013B63F00E
:1018F0000F030133ADE7013B63F00303013364E7FA
:10190000013B63F00F0301336CE7DEF864301B68C2
:101910004946384605B0BDE8F04F184739464846B5
:1019200005B0BDE8F04F07F007B90D4642E700BF2C
:10193000064B1B681A7E012A05D0013A02EBD272CF
:10194000521000F005B85B6E5B681847BC000020C1
:101950002DE9F04FDFF8DCB0354EDBF800401546DE
:1019600040F2C32202FB05F2034685B086FB020962
:10197000606E0293D217C2EBA919EF18C5EB0308EA
:1019800005EBD57E05FB05F6046806EB6E0309F151
:1019900001093A46404601938A46A047B9F1000F33
:1019A00042DD029A012413190293531E0393334616
:1019B00016461AE0013DAF19C5EB0608DBF800300A
:1019C0005B6E0AEB04013A461B6840469847DBF819
:1019D00000305B6EC4EB0A013A461B684046013496
:1019E0009847A14520DB05FB05F3019A04FB04336E
:1019F0009A42E3DAA945DDDA029ADBF80030171BD8
:101A0000039A5B6E02EB0408384642460AEB050176
:101A10001B689847DBF800305B6E424638461B680F
:101A2000C5EB0A019847C5E705B0BDE8F08F00BFD8
:101A3000D34D6210BC0000202DE9F04F002987B083
:101A40001F4C40F3D5822746054600EB810E43F636
:101A5000FF74B5F90260B44205F10405A8BF34462D
:101A6000B742B8BF3746AE45F3D10497154D2D6840
:101A70006D696DB1B5F90660049FB5F90250F61AAB
:101A8000ED1AB742A8BF3746AC420497B8BF2C4600
:101A9000049DAC4200F38E81DFF82C8005939346C1
:101AA00006464D1E8A460020074B8245186040F3CB
:101AB0007C81059BCDF80CB02344029319E000BF54
:101AC00001C0FFFFBC00002018970020A6450CD0E5
:101AD000C0F27381A44500F38581F44540F3788119
:101AE000A64502DCA44580F28281BA45384640F31F
:101AF000EC8006EB8001A84200F10107ACBF002397
:101B0000BB00B1F902C03344A4450246B3F902E078
:101B1000DCD1A64500F03E82002DC8BF0021E4DDE7
:101B20005AB1013A06EB82030131B3F90230A34204
:101B30000BD1A942D9D0002AF3D12A4606EB820361
:101B40000131B3F90230A342F3D01B1BC4EB0E0EDC
:101B500093EA0E0F36F9202040F112829F4B1B684A
:101B60000B2BC2DC002B40F32B82581E410008EBEC
:101B7000010CBCF904E0724500F3318208EB430923
:101B8000A9F804E0002800F01B82981E4FEA4009E3
:101B900008EB090EBEF904B05A4500F38D80ACF88D
:101BA00004B0002800F00C82D81E410008EB010CA4
:101BB000BCF904C0624500F31482AEF804C00028EA
:101BC00000F0FE81A3F1040984484FEA490B00EBC1
:101BD0000B0EBEF904C062456EDC4144A1F804C09E
:101BE000B9F1000F00F0EC81581F410008EB010C27
:101BF000BCF904904A4500F3E781AEF80490002850
:101C000000F0DE81981F4FEA400B08EB0B0EBEF987
:101C100004904A4550DCACF80490002800F0D081D4
:101C2000D81F410008EB0109B9F904C0624500F36F
:101C3000CB81AEF804C0002800F0C281A3F1080CEB
:101C40004FEA4C0E08EB0E00B0F90400824233DC80
:101C5000A9F80400BCF1000F00F0B281A3F1090063
:101C6000410001905D4800EB0109B9F904B05A4503
:101C700000F3BB81C6440198AEF804B0002800F020
:101C80009F81A3F10A004FEA400C08EB0C0EBEF94D
:101C900004B05A4510DCA9F804B0002800F0908187
:101CA000A3F10B01490008EB0100B0F904008242E6
:101CB00000F39981AEF80400484801440133BA4565
:101CC00003608A8038463FF714AF444BDDF80CB010
:101CD0001B68002B69DD012BB8F9040065D0404B6F
:101CE000B8F906201B68029F5B6E58441B685A4473
:101CF00039469847D8F80030022B56DD032BB8F947
:101D0000080052D0364BB8F90A201B685B6E584465
:101D10001B685A4439469847D8F80030042B44DDF4
:101D2000052BB8F90C0040D02D4BB8F90E201B68DC
:101D30005B6E58441B685A4439469847D8F80030BF
:101D4000062B32DD072BB8F910002ED0244BB8F942
:101D500012201B685B6E58441B685A4439469847EA
:101D6000D8F80030082B20DD1C4A092BB2F91400EA
:101D70001BD01B4BB8F916201B685B6E58441B68C0
:101D80005A4439469847D8F800300A2B0DDD0B2B02
:101D9000B8F9180009D0124BB8F91A201B685B6E0D
:101DA000394658441B685A449847049B0134A3425F
:101DB000BFF679AE07B0BDE8F08FA445FFF695AE4B
:101DC000F44514DCA4453FF790AEA645FFF68DAE72
:101DD00036F92020B3F9003010E000BF189700203A
:101DE000BC000020A6453FF780AEF445EADD614621
:101DF000B3F9002036F92030F4468E46991ACCEB20
:101E0000040303FB01F3002BCCEB0E0EDBBF4FEA08
:101E10006E0101F1FF3103EB6E01591A764B1B681D
:101E20000B2B3FF762AE91FBFEF1002B0A440192AF
:101E300040F3C480581E1146420008EB020EBEF962
:101E400004C0614500F3C28008EB4309A9F804C04F
:101E5000002800F0B380981E4FEA400B08EB0B0CF3
:101E6000BCF90490494500F38380AEF80490002843
:101E700000F0A480D81E420008EB0209B9F904E082
:101E8000714500F39F80ACF804E0002800F09680D4
:101E9000A3F1040C4FEA4C0E08EB0E00B0F904005D
:101EA000814265DCA9F80400BCF1000F00F08680D7
:101EB0005149581F420001EB02090199B9F904B0D8
:101EC000594500F38780C644AEF804B0002875D0A9
:101ED000981F4FEA400B08EB0B0EBEF904C061459A
:101EE00046DCA9F804C0002868D0D81F420008EBDF
:101EF000020CBCF90490494564DCAEF8049000285B
:101F00005CD0A3F108004FEA400908EB090EBEF9C6
:101F100004B059452CDCACF804B000284ED0A3F135
:101F20000900420008EB020CBCF904C0614554DC16
:101F3000AEF804C0002841D02F49A3F10A004FEAAF
:101F4000400C01EB0C0E0199BEF9049049450FDCE1
:101F50004244A2F80490002830D0A3F10B004200C4
:101F600008EB0200B0F90400814231DCAEF8040055
:101F70002148BDF804100244013391800360B4E5A8
:101F80001E4B03991B685B6E0A441B68029910463E
:101F90009847AAE536F92010B3F9003003980144B8
:101FA00002461818154B1B685B6E8142B6BF02468D
:101FB0000A4608461B680299984796E50022D7E72B
:101FC000002179E65A46D3E7594675E65A00CFE72D
:101FD0006246CDE74FEA4C02CAE74A46C8E75900D5
:101FE0006AE6494668E6614666E64FEA4C0163E602
:101FF000049443F6FF7439E518970020BC000020D4
:1020000038B5204B204C1D6803F0C6FA284607F06F
:10201000FDF805F0C7F91D4B1D6803F0BDFA284611
:1020200007F02EF905F0BEF903F0B6FA2368012295
:102030001A7605F0B7F903F0AFFA236800259D85FD
:1020400005F0B0F903F0A8FA23685D8505F0AAF958
:1020500003F0A2FA284607F02BF905F0A3F90C4B80
:102060001D6803F099FA236805B1DD6105F09AF95E
:1020700003F092FA236800229A76BDE8384005F012
:1020800091B900BFB8000020BC000020B4000020BF
:10209000B000002030B585B0019108B3044603F0CC
:1020A0007BFA204601F0CAFB04AB456E43F8040DF1
:1020B000184601F013FD019801F0C0FB04AB8460E9
:1020C00043F8080D184601F009FD04220DEB02014A
:1020D000284601F027FD204609F054FB05F062F97F
:1020E00005B030BD30B585B0019108B3044603F0AA
:1020F00053FA204601F0A2FB04AB856E43F8040DB1
:10210000184601F0EBFC019801F098FB04AB8460E9
:1021100043F8080D184601F0E1FC04220DEB020122
:10212000284601F0FFFC204609F02CFB05F03AF9A7
:1021300005B030BD2DE9F04F90E81800B3F5407FB1
:1021400099B0054600F02C810146204607F098FF23
:102150000646002E00F0F1802B68053B212B00F293
:102160001981DFE813F02601170117011701170184
:1021700017012D011701170117012200170117017F
:10218000170117011701170117011701170117018F
:10219000170117011701170117011701170117017F
:1021A0001701170117011701ED002046ED6801F036
:1021B00045FBC26A0F90034612689F6D596D0492E9
:1021C00010A8DA6D1B6E059203930191029708F037
:1021D00005FE10A90F9808F089F80DF1400E9EE851
:1021E00003000DF1500B8BE80300BDF85210BDF851
:1021F0001030BDF850200398BDF85460BDF856E08B
:102200003944059F194418181A443B44F31A019E97
:10221000ADF85430C0EB0E003244ADF85020ADF8AC
:102220005600ADF852109BE8030012AB83E80300A0
:1022300018460AF0D7F90F9B586B04F033FD01F0F4
:10224000E5FD0F9FD7F894301BB100212046984739
:102250000F9F97F86C30002B40F07181049A10A901
:10226000584606F0DDF858460AF0BCF90F9E96F87D
:102270003B20002A40F0F580D6F8943013B10121BC
:102280002046984712A80AF0ADF90F9B586E01F04E
:10229000CBFC00268046E0B10F9B3146586E01F022
:1022A000D7FC01F0CBFA0136169080B107683846AA
:1022B00001F0C4FA0346294638460E9323B11B6841
:1022C00098470EA801F00AFC16A801F007FCB045DB
:1022D000E2D158460AF086F90F9B986E01F0A4FCF3
:1022E00000268046E0B10F9B3146986E01F0B0FCAD
:1022F00001F0A4FA0136169080B10768384601F063
:102300009DFA0346294638460D9323B11B6898472A
:102310000DA801F0E3FB16A801F0E0FBB045E2D107
:1023200000200AF05FF90F9BD3F8943013B12046D8
:10233000022198470FA801F0D1FB19B0BDE8F08F3A
:10234000EB68052B26D12046AE6809F02DF88642B1
:1023500005D02046AC6808F0F7FF84421AD16C68BB
:10236000AE68204601F06AFA1690304607F03AFE51
:102370000746304608F0E6FD169BFE2808BFC3F866
:102380008070204618BFC3F88C7009F0FBF916A8BE
:1023900001F0A4FB284608F03DFA19B0BDE8F08F23
:1023A0000146204607F06CFE064620460FF0B0F9C5
:1023B000CFE620460FF0ACF9284608F02BFAECE700
:1023C000204601F03BFA1490406E01F02DFC061EF1
:1023D000C8BF00241BDD149B2146586E01F038FC59
:1023E00001F02CFA0134169078B10568284601F006
:1023F00025FA0346129312A823B15F6801F06EFB21
:102400002846B84716A801F069FBA642E3D1149B01
:10241000986E01F009FC051EC8BF002411DD149B55
:102420002146986E01F014FC01F008FA0134169070
:1024300028B1006801F086F816A801F04FFBA5420C
:10244000EDD1149B18AC586E01F0BEFB54F8103D52
:10245000986E01F0B9FB204601F040FB19B0BDE8D1
:10246000F08F019B3BB9029B2BB9059B1BB9039BCA
:10247000002B3FF401AFF26A16A92046D2F8008083
:1024800008F07EFD08F0B8FE049008F0C7FE019940
:10249000BDF958A0BDF95A20BDF95C90BDF95E3078
:1024A0008A4402990A440792059AC2EB0909039AE1
:1024B00007469B1AB06B069304F0F4FBF06B04F034
:1024C000FDFB019941B14A1EB5F90030049942441F
:1024D0005B1A9A4280F2EA80029B3BB1B5F9022076
:1024E000013BD21B4344934280F2F480059951B1E1
:1024F000BDF95C20B5F90430501A049901305E1A18
:10250000B04240F3F880039BBBB11946BDF95E3081
:10251000B5F90620591A0131D71BB9420DDCBDF9B6
:102520005C20BDF9580001F0AFFC069809F10102EA
:102530000AF1FF31013002F003FC0F9E9CE616A960
:10254000204608F01DFDFB6A386C1B680993BDF935
:102550005E300793BDF95A300893D7F84490D7F806
:102560004880BDF95CA0BDF9586004F0A7FB02F0FB
:102570001BFF0690B9F1000F4FD0B7F87820FB6C25
:10258000D20754BFD7F88C2000224B4413449945FE
:1025900003DCC9EB03039945FBDD05990A93019B15
:1025A00097F87A005A18C6EB0A0AC2F1010202EB48
:1025B0000A010E4604F0AAFB0A9B9E4231462CDD1E
:1025C0000998019A0A951044CDF82C801E18099498
:1025D000039D8846824606E002F0DEFB4E44CAEBCD
:1025E0000603984516DD029BBDF95A40BDF95EE031
:1025F00097F87AC01C44C5EB0E0E32463046214691
:102600007346BCF1000FE7D172462146304602F016
:10261000ADFDE3E709AC94E83001B8F1000F41D01B
:102620003B6DD7F8806043449E1BB04503DCC8EB8C
:102630000606B045FBDD029A039B089997F87B00DC
:10264000D318079AC3F10103C1EB0209994404F0BE
:102650005DFBB14526DD08950794059DDDF80CA0CE
:1026600005E0704602F098FB4644B14518DDBDF91F
:102670005E00BDF95C40019ABDF958E097F87BC057
:10268000CAEB0000801B641B9644034601462246A9
:10269000BCF1000FE5D12246714602F051FBE3E7A1
:1026A000079C089D069804F031FBD7E50399BDF916
:1026B0005E30BDF958005B1A02990133414401F0C4
:1026C000E3FB069B5A1C079B0AF1FF30591E02F0E0
:1026D0004DFD01E7BDF95C20BDF95A10BDF9580068
:1026E00001F0D2FB079B09F101020AF1FF31581EEC
:1026F00002F026FBFAE60399BDF95E305B1A0299F7
:102700000133414401F0C0FB079B591E069B09F1B0
:1027100001005A1C02F02AFDF5E600BF2DE9F04F3A
:10272000B0F90A60B0F90C708569B0F90E90B0F993
:1027300010A0B0F81280B0F9084087B08B4616445C
:102740001F446C3502F028FFDFF878E0CDF800B0C8
:102750004FF0000B30463946039553464A46CDF8B4
:1027600008E0CDF804B007F057FF064610B301F0BB
:1027700027FA074601F024FA0546304601F05EF8D4
:1027800085660F4D476621465A46059006AF07F00D
:102790001DFE0FCD57F804ED0EF134040FC40FCD1C
:1027A0000FC495E80F0084E80F00AEF87880384633
:1027B00001F094F904F0F6FD304607B0BDE8F08F63
:1027C000F80000203521000810B584B00446ADF8AB
:1027D000061002F0E1FE204601F030F8029070B1E0
:1027E000406A01F02BF80223044601460DF106026F
:1027F0000298039400F0A4F903A801F06FF902A86D
:1028000001F06CF904F0CEFD04B010BD2DE9F047E5
:1028100082B007460D4690461E4602F0BDFE2C20B3
:1028200000F046FE044628B904F0BCFD204602B084
:10283000BDE8F087680000F03BFE824618B1B8F1B1
:10284000000F00D0E6B90DF10409204600F0F6FFB4
:102850001349144ADFF854E00190034683E8060068
:10286000C3F824A09F615D611E61C3F80CE0484677
:1028700001F034F904F096FD204602B0BDE8F0877F
:1028800000F0DCFF0DF10809074B49F8040D414643
:102890001B6872009847484601F020F9D5E700BF51
:1028A0009D1B01081D1A010848010020A5150108FB
:1028B0002DE9F04182B080460F4616461D4602F0D3
:1028C0006BFE302000F0F4FD0446C0B100F0B6FF0E
:1028D00002AA0E4942F8040D034603C99F619E8473
:1028E000DD614FF07E5703F10C06094DC3F81480EB
:1028F0009F6286E8030010461D6001F0EFF804F0C7
:1029000051FD204602B0BDE8F08100BF2801002043
:10291000911C010830B52DED028B83B038B99FEDC5
:10292000158AB0EE480A03B0BDEC028B30BD0446F8
:1029300010EE105A02F030FE204600F07FFF07EE46
:10294000905A90ED0A8A0190B4EE678AF1EE10FA7F
:102950000AD101A801F0C2F804F024FDB0EE480A43
:1029600003B0BDEC028B30BD8562806808F00AFFC1
:10297000EFE700BF0000000000B97047F0B5044663
:1029800083B00F461D46164602F006FE204600F0B4
:1029900055FF02AB089A43F8040D02664765866549
:1029A000C565184601F09AF820460EF0B1FE2046A3
:1029B00008F0E8FE04F0F6FC03B0F0BD70B582B09C
:1029C00018B90446204602B070BD064614460D46AE
:1029D00002F0E2FD304600F031FF032C019009D8EF
:1029E00000EB8402546BAC4205D05563304608F0CE
:1029F000C9FE00E0002401A801F070F804F0D2FC48
:102A0000204602B070BD00BF70B582B018B9044650
:102A1000204602B070BD06460D4602F0BDFD3046B0
:102A200000F00CFF446C0190AC4203D0456430468A
:102A300008F0A8FE01A801F051F804F0B3FC20460C
:102A400002B070BD70B582B018B90446204602B01D
:102A500070BD06460D4602F09FFD304600F0EEFECA
:102A6000846C0190AC4203D08564304608F08AFE45
:102A700001A801F033F804F095FC204602B070BDC7
:102A800070B582B018B90446204602B070BD064643
:102A90000D4602F081FD304600F0D0FE90F86C400B
:102AA0000190AC4204D080F86C50304608F06AFEC9
:102AB00001A801F013F804F075FC204602B070BDC7
:102AC00070B582B018B90446204602B070BD064603
:102AD0000D4602F061FD304600F0B0FE90F87B40FC
:102AE0000190A54204D080F87B50304608F04AFEA1
:102AF00001A800F0F3FF04F055FC204602B070BDC1
:102B000070B582B018B90446204602B070BD0646C2
:102B10000D4602F041FD304600F090FE90F87A40FC
:102B20000190A54204D080F87A50304608F02AFE81
:102B300001A800F0D3FF04F035FC204602B070BDC0
:102B40002DE9F047846884B09CB1044616460069BC
:102B5000626990421D460B460ED0421C226105FB65
:102B6000003031462A46FDF789FBE368A3B12046D1
:102B7000984704B0BDE8F087421E05FB02F22944E5
:102B80001846FDF77BFB034620690138314605FBFB
:102B900000302A46FDF772FBA668304600F04EFE74
:102BA000034604A8D3F854A040F80C3DD3F858903D
:102BB000D3F85C801F6E00F091FF304602A908F048
:102BC000DFF9BDF80850BDF80A40BDF80C20BDF88B
:102BD0000E30C8EB0202DB1B02A9304655444C44C0
:102BE000ADF80850ADF80A40ADF80C20ADF80E3045
:102BF00008F056FD04B0BDE8F08700BF2DE9F047AE
:102C000084B0064600F01AFE034604A8D3F854A088
:102C100040F80C3DD3F85890D3F85C801F6E00F05C
:102C20005DFF304602A908F0ABF9BDF80850BDF8C9
:102C30000A40BDF80C20BDF80E30C8EB0202DB1BC9
:102C400002A9304655444C44ADF80850ADF80A404E
:102C5000ADF80C20ADF80E3008F022FD04B0BDE850
:102C6000F08700BF70B584680D46A4B195E80E00EA
:102C700063635B07E162226305D594E80F0060603F
:102C80002160E260A3602B69AA89A28413B123EAC0
:102C9000E373236270BD06464FF4BE7000F0A2FCE1
:102CA000084BB06021461B684FF4BE729847B3686A
:102CB000054A1E6402200121D8841962C3F810213C
:102CC000B468D3E74C010020F92E00082DE9F0414B
:102CD00085680446884617461E467DB141466822EF
:102CE00005F58A70FDF7CAFA2046B8472046B04776
:102CF00023699B689847A862BDE8F0814FF4BE70D5
:102D000000F070FC084BA06029461B684FF4BE72AF
:102D10009847A368054A1C6402200121D8841962DF
:102D2000C3F81021A568D9E74C010020F92E00084E
:102D3000F8B5044600F0C2F8A3681149DA8C0E68B1
:102D4000104C1148114D124FC3F8B460C3F8AC4099
:102D50004E68104CC3F8A800002122F003020E4870
:102D6000C3F8B050C3F8B870C3F8C860C3F8CC401B
:102D7000DA84C3F89400C3F8BC10C3F8D010F8BDCF
:102D8000C4000020F127010899290108B127010892
:102D9000AD220108C52301084D270108F8B50446F6
:102DA00000F08CF8A468104AD4F8C8300F481049D5
:102DB000104F114E114DC4F8F800C4F8A010C4F81B
:102DC000A420C4F80431C4F8EC70D4F89430C4F8EA
:102DD000F060C4F8F4502046102198471022084BA8
:102DE000A2636364F8BD00BF652A0108452F00088F
:102DF000492201083DE400081D050108052E0008D0
:102E0000D89A0108F0B58468E38C9B0783B03DD560
:102E1000D4F8083120460E46174698473146D4F874
:102E20000C3105463A4620469847D4F89830064675
:102E30001BB1002201212046984704F110000BC865
:102E40009D42D4BF002201228542ACBF134642F00E
:102E500001038E42B8BF43F0010313BBE3699E42F6
:102E60001FDC29463246D4F8AC3020469847D4F8C7
:102E7000A03020469847D4F8983005461BB120462C
:102E8000012200219847284603B0F0BDD4F8AC30A9
:102E900020469847D4F8A030204603B0BDE8F04063
:102EA000184762682368013A00920022013BD4F877
:102EB000A87011462046B847D3E700BF38B58568EB
:102EC00005B138BD04464FF4BE7000F08BFB084BD3
:102ED000A06029461B684FF4BE729847A368054A54
:102EE0001C6402200121D8841962C3F8102138BD66
:102EF0004C010020F92E0008F0B4114C264607467C
:102F00000FCE90B06D460FC596E80F00203485E8CF
:102F10000F000FCC08AD0FC594E80F0085E80F0037
:102F20007B6B10AA02EB830353F8402C53F8203C30
:102F3000C7F80821C7F80C3110B0F0BC704700BFCB
:102F4000346501082DE9F0418468E08C1D46830753
:102F500082B028D5D4F80831204690460F469847CD
:102F6000424606463946D4F80C31204698478046FA
:102F700004F110000BC89E42D4BF002201228642F9
:102F8000ACBF134642F001038845B8BF43F00103CC
:102F9000ABB9E369984512DC42463146D4F8AC300F
:102FA0002046984703E0D4F8AC3020469847D4F840
:102FB000A4302946204602B0BDE8F04118476268B7
:102FC0002368013A00920022013BD4F8A870114610
:102FD0002046B847E0E700BF2DE9F04F4F4E336879
:102FE000DA69B3F92250D469B4F80CB083458BB0D8
:102FF0007DD8E18981427AD3216808914FF0FF3171
:10300000CBEB000B0791BBF1FF3F6AD0177EB3F902
:103010002A80A27CB3F9249094F810A017FB02F345
:103020004046069306F044F93368069A08990990D9
:1030300002FB0B109A6BDB6904900592A27C039251
:103040004FF0010BCDF808B0DA7E01929B7E009321
:1030500028463B465246494605F088FB0798013012
:103060001CD048F0020006F023F92C4A0798126899
:103070000899069B03FB0013916BD2690591049399
:10308000A37C0393CDF808B0D37E0193937E009385
:1030900052463B464946284605F068FB33681F4FB9
:1030A000DB695A7E1B7E9A4214D9B8F1020F11D007
:1030B00088F0040006F0FCF83B68DB69187ED97ED6
:1030C0009A7E5B7E00FB01910AFB02524B4428462C
:1030D00005F05CFD9DF8240006F0EAF83368B3F9CA
:1030E0002250627C15445D840BB0BDE8F08FA1686E
:1030F0000029F6D00F88B842F3D3B1F802E0864534
:10310000EFD34968C01B80B26768089701EB80075E
:1031100031F920B0B7F90210079174E7BC00002024
:10312000044B1B68DB69DB6909B11A7C0A60587CB7
:10313000704700BFBC00002002230B80704700BF17
:10314000C3699A898A4202D8DA898A4211D2986878
:1031500018B10388994201D20020704742888A4200
:10316000FAD3C91A436833F82100C043C0F3C03012
:1031700070470120704700BF2DE9F04F3E4D2B688E
:10318000DA69B3F92A60D36989B043B11A889042E9
:1031900002D35988814205D29B68002BF6D109B031
:1031A000BDE8F08FD3F80480DFF8CC90841A08EBE8
:1031B000C407304697F802B006F07AF882462868CD
:1031C00018F83420D0F81CE0D0F838C09EF8183039
:1031D000B0F92410B0F92200CDF814C006934FF0D6
:1031E000010C7B680493CDF80CB0CDF808C09EF8B4
:1031F0001BC0CDF804C09EF81AE0069BCDF800E095
:1032000005F0B4FA2B68DA69537E92F818B05B4582
:1032100023D9022E069320D0D17E079102F09AF88E
:10322000064602F061F803F049FDD9F8002018F8CD
:1032300034C0D469B2F9220094F81BE00799B2F9BE
:103240002440069B0CFB0E0201FB034301FB0B41D8
:1032500005F09CFC304603F031FD504606F028F89E
:103260002B687978D8695A8C807E00FB01225A84B9
:1032700009B0BDE8F08F00BFBC000020114B70B456
:103280001B68DD69EB6943B11A88904202D35C8800
:10329000844205D29B68002BF6D1184670BC70475B
:1032A0005E68AC7E821A06EBC2035B7813FB04F007
:1032B0000029F3D016F8323014FB03F30B6070BC16
:1032C000704700BFBC00002001230B80704700BF87
:1032D000C06950B103888B4202D843888B4203D225
:1032E00080680028F6D17047012070472DE9F0472B
:1032F000234E3368002B3FDD224D234F2C68D7F837
:103300000090C3EB431804EB880808F10C080C3458
:103310004FF0000AA4F10803742218464946FCF74E
:10332000ADFF221F2063A06344F80CAC6263E4602D
:103330007C34A045EED10024A04603E092B132686F
:10334000904514DA10F042F92B681A59904203EBB9
:10335000040108F1010804F17C04EFD10431396063
:10336000BDE8F087086004313960BDE8F087194690
:1033700004313960BDE8F087024B034F1968EDE76F
:1033800040010020BC960020BC000020F8B5194F79
:10339000194B1A4E384640F80C3F05F051F8346886
:1033A000C4EB4414A400204600F01CF9144B386010
:1033B00022461B68002198474FF0FF33736010F0DE
:1033C0000BF93368002B11DD0024254603E072B1B0
:1033D00033689D420ADA10F0F9F83B681A599042B6
:1033E000234405F1010504F17C04F0D1F8BD186017
:1033F000F8BD00BFBC960020351B0108400100202D
:103400004C01002009B9084670472DE9F0410E46ED
:10341000054602F0C1F802F0BFF830460AF032FC6F
:10342000044603F0BFFF24B3174FFA697B6B0132E8
:10343000FA6113F83420013203F8342003EBC4039B
:10344000D3F8048008F10800C5B1104B3246294674
:103450001B689847D8F800107A6B0B4D12F8313082
:10346000012B03D9E86908B10138E861013B02F892
:10347000313003F097FF2046BDE8F081044B32461F
:1034800029461B689847E5E76C9700204801002013
:103490004C01002000B9704710B5044602F07CF8DA
:1034A00020460AF0EFFB044603F07CFF204610BDE7
:1034B00070B5054602F070F825B9002403F072FFDC
:1034C000204670BD02F068F828460AF0DBFB04468F
:1034D00003F068FF002CF0D0144E1549F269736BAD
:1034E0000132F26113F83420013203F8342003EB87
:1034F000C4032A465D680B6805F10800002198475F
:103500002968726B12F83130012B01D9F06930B99A
:10351000013B02F8313003F045FF204670BD013811
:10352000013BF06102F83130F5E700BF6C970020F5
:103530004C010020024B21F0030183E80300704797
:103540006095002000B9704770B50D4C054602F03B
:1035500023F8636BEE003344596848680AF0E4F9D5
:10356000626B6368616A16440133002063607160B6
:1035700002F835006562BDE8704003F013BF00BF7C
:103580006C97002028B1034AD36B036003B15860E5
:10359000D06370476C970020F8B5054601F0FCFF3A
:1035A0002C68B4B10E4E01F0F7FF736BE7003B449B
:1035B000596848680AF0B8F9716B7368726A0F4409
:1035C0000133002073607A6001F83400746203F004
:1035D000E9FE00232B60BDE8F84003F0E3BE00BF26
:1035E0006C970020F8B5894E96F828300446002BD9
:1035F0002FD00334356CF26B24F003040434A5425D
:1036000038BF254662B152F8043C9D42144604D1AD
:1036100014E054F8043C9D4210D02468002CF8D1EA
:10362000F368B46B1C4454F8041C611A0B68002B3B
:1036300065D14B689D426CDD002408E023680BB126
:1036400061685960616801B10B60A24253D02046A5
:10365000F8BD6F4B9A685868012186F828100AB99E
:1036600082089A605A253562102720224025196861
:103670003764B264356580274FF480724FF400756B
:10368000B7653266B5664FF480674FF400624FF459
:103690008055A1F114033767B267C6F880504FF424
:1036A00000574FF480424FF400450344C6F8887039
:1036B000C6F89020C6F898504FF480374FF4003287
:1036C0004FF48025C6F8A070C6F8A820C6F8B05000
:1036D000022201254FF40027B16373633261F06069
:1036E000C6F8B8705D60756275600AF01DF90CF07F
:1036F00055FE35637DE72368F3632046F8BD00205F
:103700000EF092FE54F8041C611A0B68002B93D142
:103710008FE7D6F8B8703D4A581B041DBB420C44D5
:1037200072D2D2F8B070BB426CD2D2F8A870BB4251
:1037300066D2D2F8A070BB4260D2D2F898709F4295
:103740005AD9D2F89070BB4254D2D2F88870BB429A
:103750004ED2D2F88070BB4248D2926F934243D28D
:10376000376F2A4ABB423DD2976EBB4238D2176EA2
:10377000BB4233D2976DBB422ED2176DBB4229D2CA
:10378000976CBB4224D2126C93420CD2F2687369DC
:10379000521B2B44F260736110B944F8045C56E785
:1037A0000AF0C2F8F9E700223768D1F808E0FB1AFE
:1037B0003360CB68BEF1000F01D0CEF8043013B1F6
:1037C000C3F800E0E2E706EBC202C2F844E0DDE73E
:1037D0000122E9E70222E7E70322E5E70422E3E723
:1037E0000522E1E70622DFE70722DDE70822DBE723
:1037F0000922D9E70A22D7E70B22D5E70C22D3E723
:103800000D22D1E70E22CFE70F22CDE76C970020E3
:103810006095002030B1044B5B6B03EBC000436844
:1038200058680C38704700BF6C970020024A9369B3
:1038300001339361704700BF6C970020074AD1693C
:10384000536B0131D16113F83020013203F830207D
:1038500003EBC00358680830704700BF6C97002026
:1038600009B9002070472DE9F8430F46064601F0DC
:1038700093FE38460AF006FA054603F093FD002D44
:1038800065D0002E5AD0334C636B4FEAC6084344D0
:103890005B6859680C398F42A8BF0F4601F07CFE67
:1038A000636BE26913F835002B49013003F83500EA
:1038B00003EBC5000232D0F80490E26113F8362021
:1038C000013203F8362043443A465F680B6809F139
:1038D000080007F108019847D9F80010636B13F846
:1038E0003120012A01D9E06970BB013A03F8312087
:1038F000396813F83120012A02D9E069154F00BB5D
:10390000013A03F8312001F047FE636B434400277E
:10391000596848680AF008F8606B6268616A00EBF1
:10392000080301326260596000F83670666203F085
:1039300039FD03F037FD2846BDE8F8832846BDE889
:10394000F8830138F861DBE70138E061CDE700205A
:10395000BDE8F8836C97002048010020F8B5584C6A
:1039600001F01AFE94F82830002B57D0D4F8BC3060
:10397000534A9BBBD2F8B43083BBD2F8AC306BBB9C
:10398000D2F8A43053BBD2F89C303BBBD2F8943071
:1039900023BBD2F88C300BBBD2F88430F3B9D36F91
:1039A000E3B9536FD3B9E36EC3B9536EB3B9D36DF3
:1039B000A3B9536D93B9D36C83B9536C73B96FF0DA
:1039C0000B034049DA1781FB0313C2EB6313246A2C
:1039D00004FB03F403F0E6FC2046F8BD9B68002BD3
:1039E000F5D0002201E09B6843B159689B68914281
:1039F000104684BF0A461046002BF4D10C38B0F5AF
:103A0000800F0346DDD8226A2E4B02FB00F0A3FB99
:103A100000235C0903F0C6FC2046F8BD2A4B9A68D7
:103A20005868012184F828100AB982089A60196838
:103A3000A1635A261022202526622264A56440270D
:103A400080264FF480724FF40075A1F114032765AE
:103A5000A6652266A5664FF480674FF400664FF4B2
:103A600080524FF4005503442767A667C4F88020AE
:103A7000C4F888504FF480474FF400464FF480322A
:103A80004FF40035C4F89070C4F89860C4F8A020D2
:103A9000C4F8A850022201254FF480274FF40026D5
:103AA00063632261E060C4F8B070C4F8B8605D6020
:103AB0006562656009F038FF0CF070FC256355E71E
:103AC0006C9700201F85EB5160950020024A936996
:103AD000013B9361704700BF6C97002030B40368CE
:103AE0000A4A53F8085C0446506B10F83530012B35
:103AF00003D9D16909B10139D161013B00F83530F1
:103B000000221046226030BC704700BF6C97002036
:103B1000034B5B6B03EBC00040680830704700BF8D
:103B20006C970020A0B32DE9F041044682B008460E
:103B30007ABB15462046FFF781FE02AE078846F89D
:103B4000080DD0F804803046FFF7C8FF791C4046C6
:103B50008900FFF785FE804660B3FFF76FFE02AB7A
:103B600043F8040D40F827501846FFF7B7FF2046EA
:103B7000FFF764FE0288009003460132C0F804801B
:103B800030461A80FFF7AAFF002002B0BDE8F0819E
:103B900070471146FFF736FC05460028CAD120467B
:103BA000FFF74CFE02AB43F8080D1846FFF796FFEF
:103BB0000120EAE72846FFF7C5FC0120E5E700BF42
:103BC0000820FFF775BC00BF00B9704730B583B05F
:103BD0000546FFF733FE0090406838B96846FFF7A6
:103BE0007DFF2846FFF7AEFC03B030BDFFF726FE91
:103BF000009B01901B885BB1002400E0019800EB62
:103C00008400FFF7C9FC009B1B880134A342F5DC4C
:103C100001A8FFF763FF00980430FFF7BDFC009B8D
:103C200000221A80DAE700BF10B582B018B9044646
:103C3000204602B010BDFFF701FE02AB048843F836
:103C4000040D1846FFF74AFF204602B010BD00BF22
:103C500010B582B018B90446204602B010BD0C461B
:103C6000FFF7ECFD038800909C4206D300246846D1
:103C7000FFF734FF204602B010BD406808B9044683
:103C8000F5E7FFF7DBFD02AB50F8244043F8040DE5
:103C90001846FFF723FFEAE7B0F1004F2DE9F041A6
:103CA00075D000287EDB00240C1BE4B200210AB191
:103CB000013CE4B284B33F4F99B3651E9442DFF8F0
:103CC000F8E04FF0310CEDB219D057F8256090FBB9
:103CD000F6F1C9B20A291FD806FB11000DB901314E
:103CE000C9B20A2901F1300149D01C68661C1E6066
:103CF00021708DB12C46651E9442EDB2E5D1196854
:103D00004E1C1E609EF800600E7057F8256090FBF8
:103D1000F6F1C9B20A29DFD91B6800221A70BDE882
:103D2000F081651E9442DFF890C04FF03108EDB28B
:103D300017D057F8256090FBF6F1C9B20A2901F1B6
:103D4000300EE9D806FB1100196811D04C1C1C601C
:103D500081F800E0002DDFD02C46651E9442EDB2C4
:103D6000E7D119684E1C1E609CF800600E70E0E7F9
:103D70004E1C25461E602C4681F80080EDE7196830
:103D800025464E1C1E602C4681F800C0B3E71D6816
:103D90004C1E681C2D211860E4B229706FF00040A1
:103DA000012184E71D682D266C1C1C604042012403
:103DB0002E7079E73C76010830980020C3B2CAB271
:103DC0009A1A92B230B415B2002DBCBF524215B24D
:103DD000C0F30723C1F307229B1A9BB2090C1AB246
:103DE000C1EB1041002A89B20CB2BCBF5B421AB2CF
:103DF000002CBCBF49420CB202FB02F205FB0520BD
:103E0000A1B201FB010030BC704700BF2DE9F041B9
:103E1000002182B0084601F031FB01F0BDFB042017
:103E200005F046FA174B1B69DD6C1C6DA5F57F5735
:103E3000A4F57F5605F57F5504F57F5480463F3F36
:103E40003F353F3E3F346846ADF80070ADF8045052
:103E5000ADF80260ADF8064008F06AFF48B12346AD
:103E60002A463146384604F091FE08F0F5FD002858
:103E7000F5D1404605F01CFA03F094FA02B0BDE813
:103E8000F08100BFAC0000202DE9F04182B0164661
:103E90001C4607460D4601F07FFB042005F008FA9A
:103EA000134B1B69DA6C1B6D8046174416441D4486
:103EB0001C446846ADF80070ADF80460ADF80250DF
:103EC000ADF8064008F034FF48B123463246294693
:103ED000384604F05BFE08F0BFFD0028F5D14046EF
:103EE00005F0E6F903F05EFA02B0BDE8F08100BF2C
:103EF000AC0000202DE9F047044682B00D4616467E
:103F0000002B38D09A46009626680B9B0A9A514699
:103F10002046B047074618B9384602B0BDE8F087DA
:103F200006F076FF618A8046384606F095F93846F5
:103F300008F068FB013D404608F064FB002DC8BF57
:103F40004FF0000904DC1AE008F05CFB013D16D0DC
:103F500054F81C6FCDF80090002320461A464146C5
:103F6000B04706460028EFD1384606F09FFC3046A1
:103F700002B0BDE8F08706F059FF8246C3E740462D
:103F80001D2108F0C5F8BAF1FF3FC5D001F004FBD0
:103F900006F0C8FF60B9BA4502D0384608F0D6F935
:103FA00003F000FA384602B0BDE8F0870028F4D0EC
:103FB000FFF7AEFD80698742F8D1F1E7012B12DCF3
:103FC000F8B506461C2017460C461D46FFF70AFBAF
:103FD000B8B154B104610023836085618782C660F3
:103FE00003604360F8BD00207047074B53F825205D
:103FF0000AB9F0E71A461368002BFBD11369036175
:10400000E9E70020F8BD00BF44980020012B3BDC0D
:104010002DE9F84381461C2090460F461E46FFF7C7
:10402000E1FA054600287FD0414A002F31D0002315
:10403000DFF804E152F8264003609EF800100761A3
:104040008E428661A0F81480C0F80C9043608360B3
:1040500002DB731C8EF80030002C5DD021464C68CA
:10406000002CFBD1D9F80000CB681B6883422CDD03
:1040700009680029F8D148B92E4B16361A68284627
:1040800042F82650BDE8F883002070472846BDE876
:10409000F88352F82610002930D0084600E0184670
:1040A0000368002BFBD1DFF890E000692B602861EA
:1040B0009EF80000AE618642A5F81480C5F80C9009
:1040C0006B60AB60CBDB0C46C3E70AD04B6843B3F5
:1040D0001D606B608D4214BF0B4600234D602B604A
:1040E000C9E7B8F1010FF1D104E0D9680C68844246
:1040F0001946EBDB0B68002BF7D1E7E7DFF838E078
:1041000001609EF8003086619E42A0F81480C0F8DD
:104110000C9041608160D6DA42F82650D9F8000050
:10412000A9E742F82650D5E70020BDE8F88300BF94
:1041300044980020BC0000203D980020FFF722BAE0
:1041400000283CD070B48469012C03DD012318469B
:1041500070BC70471E4B1F4D1A789442A4BF621C5E
:104160001A7055F824300BB92FE013465A68002A0C
:10417000FBD1C268116802E01B68002BE6D0DA6848
:1041800012689142F8DB0DD05A68DAB110604260D3
:10419000984214BF1A46002258600023026070BC87
:1041A00018467047828A012AEED104E0D3681E685F
:1041B000B1421346E8DC1A68002AF7D1E4E701238C
:1041C0001846704745F82400E2E745F82400BEE7AA
:1041D0003D9800204498002000284DD02DE9F04162
:1041E000DFF89CE0254F9EF80060BC4602E02846C0
:1041F000002D27D084690568012CF8DCB44257F8FB
:104200002430A4BF661CF6B20BB932E013465A68DC
:10421000002AFBD1C268116802E01B68002BE6D0BF
:10422000DA6812688A42F8DC10D05A68A2B11060CD
:104230004260984214BF1A46002258600260284625
:10424000002DD7D18EF80060BDE8F081828A012A66
:104250000BD05A68002AEAD147F82400E9E7D3686E
:10426000D3F8008088451346DFDB1A68002AF6D1B0
:10427000DBE74CF82400BAE7704700BF4498002001
:104280003D9800200F4A816952F8213098420AD0A7
:1042900042680AB103681360036803B15A600023DF
:1042A000036043607047036842F821302BB100225D
:1042B0005A604268002AEED1F0E74268002AEAD14B
:1042C000EDE700BF449800200020704701280EDC75
:1042D000084B53F8200058B1C3681B681BB908E0AD
:1042E000C3681B6823B100680028F9D1704700201B
:1042F00070477047449800202DE9F84307460FF0B7
:1043000067F907440FF064F93E1A002EDFF8609059
:10431000DFF8608022DD00F053FFD9F800309E42C4
:10432000A8BF1E4601F038F9D8F80040FFF77EFA22
:10433000B4B1254603F036F8013DFBD130460FF00D
:1043400043F901F029F9013CFBD1FFF7BFFB03F072
:1043500029F80FF03DF93E1A002EDCDCBDE8F883A9
:1043600030460FF031F9FFF7B1FB03F01BF8F0E72F
:10437000C0000020C096002010B584B004AB01AC92
:1043800043F8104DFFF788FC204600F015F904B003
:1043900010BD00BF30B52DED028BB5EE400AF1EE39
:1043A00010FA83B004465AD1DFED7F8AF7EE007A27
:1043B0007E4B53F8243000EE103AB8EE408AB6EE49
:1043C000007A68EE277AF5EEC07AF1EE10FA00F185
:1043D000848077EE877A17EE900AFBF78BFF41EC2B
:1043E000100B10F0E4FC51EC100BFBF796FF07EEFE
:1043F000900AFDEEE77A17EE900A01F01DF928EE1B
:10440000280A002C0CBF2346631C001BB5EEC00A13
:104410000028ACBF1D181D1CF1EE10FAEDB2F6EE2F
:10442000007A6DD470EE277A17EE900AFBF762FFE0
:1044300041EC100B10F0BBFC51EC100BFBF76DFFC7
:1044400007EE900AFDEEE77A224617EE900A29461B
:1044500003B0BDEC028BBDE83040FFF78DBFB5EE79
:10446000C00AF1EE10FAF0EE408A09DBF7EE007AAE
:10447000B4EEE70AF1EE10FA53D4F0EE687A97E75B
:10448000FFEE007AB4EEE70AF1EE10FAF5DD9FEDEB
:10449000487AF0EEC07A77EE877AF5EE407AF1EE60
:1044A00010FA71D00023B2EE047A67EE877A0133F6
:1044B000FCEEE76ADBB216EE902A002AF5D0A342A2
:1044C00062DDFEEE007AF4EEE78AF1EE10FA60D8D3
:1044D000002C5FD1FFEE008ACFE777EEC77A17EEA8
:1044E000900AFBF707FF41EC100B10F058FC51EC61
:1044F000100BFBF712FF07EE900AFDEEE77A7AE762
:1045000070EE677A17EE900AFBF7F4FE41EC100BA1
:1045100010F045FC51EC100BFBF7FFFE07EE900A84
:1045200090E79FED237AF0EEC07A77EE877AF5EE8A
:10453000407AF1EE10FA22D00023B2EE047A67EE50
:10454000877A0133FCEEE76ADBB216EE902A002A86
:10455000F5D0A34213DDF6EE007AF4EEE78AF1EE31
:1045600010FA1ADBB4B9F7EE008A104BDFED117ABE
:104570001B68019307EE103AB8EE478A3BE7F7EE67
:10458000007A78EEA77A13E7F7EE007A78EEE77A0A
:104590000EE72CB1F7EE007A0AE7002C7FF404AFA7
:1045A000DFED018AE1E700BF000000003C76010872
:1045B0005F7089300000000008B100F001B870475A
:1045C0002DE9F04F474E83B0044600F0E5FF00F0C0
:1045D000CDFE33680746B3F9229000F015FF32682C
:1045E000938C1FFA80FACAEB03031BB293842178E1
:1045F00000294DD0BFB2B04647F6FF71204603F008
:1046000093FD01468346204603F04CFD31688B8DB7
:1046100003F00303012B5AD0022B5CD085B24FF07C
:10462000000E4A8CB1F92430ADF80230CEEB020214
:1046300092B210B2013B05F1FF3E964448843B44E0
:104640006A465946ADF800002046ADF80630ADF890
:1046500004E003F0E3F83368BDF802209A84594679
:10466000204602F06FFD225C0A2A04EB00031BD0F7
:104670000D2A19D0BDF80000D8F800200544558453
:10468000197819B159785C1C0029B5D1B2F92430D8
:10469000918D9A4421F00303A2F824A0938502F09F
:1046A00081FE03B0BDE8F08F3268918D01F0030107
:1046B000013901298ABF118CA2F8229051841978FE
:1046C0000A29DED1918C394491841978D9E71FFAEF
:1046D00080FE7546A5E700EBD072C2F34F0E85B29F
:1046E0009FE700BFBC00002020B3F0B50C4683B0AC
:1046F0000546164600F050FFD4B1204607F072FF81
:10470000074638B168463A46214603F06DFD6846D3
:1047100007F068FF3246214647F6FF73284603F04C
:10472000D7F8384607F05EFF02F03CFE03B0F0BD5C
:104730002746EFE7704700BF2DE9F04F91B0814663
:104740001E460F46904600F027FF654B1C68E56C3F
:10475000246DA019E11905EB090305EB08020446D5
:1047600008900EA8029301920791ADF83830ADF889
:104770003C20ADF83A10ADF83E4008F0D9FA0028D8
:1047800000F09180019B029A9DF868409DF86C7042
:10479000C2EB030B1A9AC2F307201B9AC2F3072637
:1047A0001A9AC2F307411B9A0BEBDB735B10C2F33F
:1047B000074E1A9A0BFB04353C1B120E06940BFB9A
:1047C0000034301A03900BFB01300BFB02330D93C6
:1047D0001B9B0A95C1EB0E01C2EB13630B940C906B
:1047E000049105935E4600F0B5FD1A9B1B9A099053
:1047F00093426AD0002E52D0029D019A95425CDC11
:104800000AAF024697E880074FF0010B06E00BF174
:10481000010B019B0135AB4222462FDB9AFBF6F3DD
:1048200099FBF6F41B0697FBF6F143EA044398FB69
:10483000F6F441EA042405991C43039B8A44049935
:104840009844029B89440699AB4210460F44E0DA33
:104850009442DCD004F014FDBBF1010FCBEB05005A
:10486000089B079905F1FF3222D004F08FF9019BD4
:104870000135AB424FF0010B2246CFDA204604F05F
:10488000FFFCBBF1010F1AD0019A089B0799CBEBF3
:104890000200013004F07AF9099804F0F1FC08F004
:1048A000DBF800289FD102F07DFD11B0BDE8F08F4C
:1048B0001A46681E04F040F9ABE704F0E1FC089AE0
:1048C0000799019804F038F9E6E7184604F0D8FC97
:1048D000089B019A0799029804F058F9DCE700BF99
:1048E000BC0000202DE9F04F91B081461E460F46D6
:1048F000904600F051FE644B1C68E56C246DA019D5
:10490000E11905EB090305EB0802044601900EA826
:10491000079308920291ADF83830ADF83C20ADF81D
:104920003A10ADF83E4008F003FA002800F09180FC
:10493000019B029A9DF868409DF86C70C2EB030BD6
:104940001A9AC2F307201B9AC2F307261A9AC2F3D7
:1049500007411B9A0BEBDB735B10C2F3074E1A9AED
:104960000BFB04353C1B120E06940BFB0034301A73
:1049700003900BFB01300BFB02330D931B9B0A953D
:10498000C1EB0E01C2EB13630B940C9004910593E1
:104990005E4600F0DFFC1A9B1B9A0990934269D097
:1049A000002E52D0029D019A95425BDC0AAF02466E
:1049B00097E880074FF0010B06E00BF1010B019B1C
:1049C0000135AB4222462FDB9AFBF6F399FBF6F456
:1049D0001B0697FBF6F143EA044398FBF6F441EA21
:1049E000042405991C43039B8A4404999844029B20
:1049F00089440699AB4210460F44E0DA9442DCD079
:104A000004F03EFCBBF1010FCBEB050105F1FF33D8
:104A1000089A079822D004F0B9F8019B0135AB42FF
:104A20004FF0010B2246CFDA204604F029FCBBF1FF
:104A3000010F19D0019B089A0798CBEB03010131B4
:104A400004F0A4F8099804F01BFC08F005F800280D
:104A50009FD102F0A7FC11B0BDE8F08F691E04F0F1
:104A60000BF8ACE704F00CFC089A0199079804F0E5
:104A700003F8E7E7184604F003FC019B089A029943
:104A8000079804F083F8DDE7BC0000202DE9F04F23
:104A90008FB01646189C0194199C03941A9C0A9492
:104AA0000B901C46069100F077FDA44B1B6800207C
:104AB000DF6C1D6D08F03CF9002800F084800A9A34
:104AC000069B002A07EB0602099205EB040203F19C
:104AD000004305920B9A03F1FF3302EB43030D935E
:104AE00014BF6FF0010302230293019B002B66D0D9
:104AF000039B002B63D0069B002B60DD019B5A1C9F
:104B000000F0FF80012B039B00F00A81012B14BFF2
:104B100005210421894B1B685B69002B00F0DD80B7
:104B20000998B3F90220B3F90050069C0792B3F933
:104B300006200892013D0246A842B3F904302244FF
:104B400002F1FF32BABF2D1A25EAE57500259A4217
:104B5000C4BF02469B1A0A9ACCBF01332346002ADF
:104B600000F0C3800D9EAB4229DD099A013902F1A4
:104B7000FF3800224544049198449146012747F6A6
:104B8000FF7BB6F90040029B5C451E4400F0838029
:104B9000049B002F39D0042B00F2AB80DFE803F038
:104BA0002820182D0300059BE218019B01350027E2
:104BB00003FB02F2039BB2FBF3F24545E1D107F0A0
:104BC0004BFF002891D10FB0BDE8F04F02F0EABBD7
:104BD000059B01351C440027039BB4FBF3F2ECE773
:104BE000059B01351C1B0027039BB4FBF3F2E4E794
:104BF000059B01351A1B0027DFE7059B1C44019B21
:104C0000013503FB04F20027D7E7042B76D8DFE851
:104C100003F03F3933150300059B1C44019B03FB44
:104C200004F4039BB4FBF3F4079991420EDD8C422C
:104C30000CDA013509F101092246BEE7059B079907
:104C40001C44019B914203FB04F4F0DC089991425F
:104C50002EDA8C42EDDCA31803EBD3735B101946FC
:104C600028460C9303F068FF0C9B01351A46284632
:104C7000214603F061FFDDE7059B1C44039BB4FB69
:104C8000F3F4D1E7059B1C1B039BB4FBF3F4CBE7C8
:104C9000059B1C1BC8E7B9F1000F04D1002F36D0CB
:104CA0000135012789E701354FF00009012784E725
:104CB00004EB020A0AEBDA7A4FEA6A0A9442534694
:104CC000CDDB114628465246013503F035FF5146EB
:104CD0002846224603F030FFACE70A9A2ABB4FF081
:104CE000FF3307930893069B15460B9A02EB450684
:104CF00039E7059B0135E21800275EE7059B1C4458
:104D000092E7039B012B14BF0221012102E7114608
:104D100028460C92013503F0D9FE01270C9A4CE786
:104D2000012B14BF03210021F4E64FF0FF321D4692
:104D3000079208920D9E069B17E700BFBC0000205B
:104D4000F0B5144F83B006460D46144600F024FC1F
:104D50003B68196DDA6C0E4433B21544144468464E
:104D6000ADF80050ADF80440ADF80230ADF80630B3
:104D700007F0DEFF50B13B685B6E22461B68314690
:104D80002846984707F068FE0028F4D102F00AFB95
:104D900003B0F0BDBC0000202DE9F04FB84D8DB040
:104DA0008046894617469A4600F0F6FB2C6800209C
:104DB000E66C246D07F0BCFF002800F0268104EBB0
:104DC0000A03A144C3EB090B06EB0802F119CBF16E
:104DD0000008C1EB020A18EA2B0838BFD8464AEA95
:104DE0000B07CDF814B004930391A64E934604E04C
:104DF00007F032FE002800F008812B681C7E00239B
:104E0000012C079300F03281002FF1D0BAF1000F8E
:104E100004F1FF34C0F2258150460222059933EA9D
:104E2000210328BF1346404580F2F48043F0040379
:104E30000246DBB24046411001EB822292FBF0F2C7
:104E4000911106EB4100C2F3830CCCF1100EB0F9C6
:104E50002400BEF1100F0EFB00F006D0894A02EBD1
:104E60004101B1F926100CFB010010F1080148BF07
:104E700000F117010911580748BFC1F58061DA0731
:104E800048BFC1F500619B0748BFC1F5805101F5DE
:104E90000062C2F30B02B2F5006FC6BFA2F500625A
:104EA00001200020B2F5806FC8BFC2F5006201F595
:104EB0008063911102F03F02C2F1400292B236F8D3
:104EC00011E0402A02FB0EFE08D0102906D0013165
:104ED000C2F1400236F8111002FB01EE0EF1200E75
:104EE0004FEA9E1E002840F097807046C3F30B03E4
:104EF000B3F5006FC6BFA3F5006301220022B3F52E
:104F0000806FC8BFC3F5006303F03F0E9911CEF167
:104F1000400E1FFA8EFE36F81130BEF1400F00FB36
:104F200004F00EFB03F308D0102906D00131CEF1B6
:104F3000400E36F811100EFB013320339B0902B1ED
:104F40005B42002803FB04F469DB00F50070002CD1
:104F50004FEAA0206ADB04F5007400284FEAA4247D
:104F60006BDD00F1010C002C4FEA6C0C4FEA600085
:104F70006EDD04F1010E4FEA6E0E64101FFA8CFC18
:104F80001FFA8BF21FFA8EF302EB0C0EADF820E045
:104F9000BDF80CE080B2121AF444C0EB0E00BDF86C
:104FA00010E0ADF82420A4B21FFA89F1CA18091B39
:104FB000C4EB0E049E440023ADF82220ADF8261069
:104FC0001A46ADF82800042108A8ADF82CC0ADF8A9
:104FD0002A40ADF82EE0FCF72FFD2B685B7E002BFE
:104FE0007FF406AF49465846FCF7A2FC244B1B68E9
:104FF0005B7E002B7FF4FCAE04990398FCF798FCD1
:1050000007F02AFD00287FF4F8AE02F0CBF90DB0CE
:10501000BDE8F08F42460EE7CEF1000066E7C0F52E
:1050200000708012002CC0F1000094DAC4F5007406
:10503000A4120028C4F1000493DC431E00EBD07CD2
:1050400003EBD373002C4FEA63004FEA6C0C90DC47
:10505000631E04EBD47E03EBD3735C104FEA6E0E39
:105060008CE7CAF1000003220123D7E607AB0093C7
:10507000039A049B49465846FCF756FAB8E600BF27
:10508000BC0000207476010870B5134E82B005464E
:105090000C4600F081FA3368DA6C1B6D15441C4431
:1050A0002AB223B26846ADF80420ADF80020ADF86E
:1050B0000630ADF8023007F03BFE48B133685B6E56
:1050C00021465B682846984707F0C6FC0028F5D1C2
:1050D00002F068F902B070BDBC0000202DE9F04775
:1050E00082B0044689469246984600F055FA1E4B17
:1050F0001F683E7EFD6C3F6D013EB6B22C44B94444
:105100005544B844A11B7219C6EB090368464644CE
:10511000ADF80010ADF80420ADF80230ADF806602F
:1051200007F006FED8B109F1010708F1FF362A465B
:105130004946204603F0A0FC2A464146204603F09B
:105140009BFC32463946204603F0F6FC324639468F
:10515000284603F0F1FC07F07FFC0028E7D102F0BD
:1051600021F902B0BDE8F087BC00002070B582B024
:10517000064614460D4600F00FFA104B1A68D36C21
:10518000126D1E4433B2154414446846ADF8025003
:10519000ADF80640ADF80030ADF8043007F0C8FDBA
:1051A00040B122462946304603F0C6FC07F054FCC5
:1051B0000028F6D102F0F6F802B070BDBC00002065
:1051C0002DE9F041124F134EDFF84C8000253C686A
:1051D0001CB1A047041C18BF012405F09BFC3368D8
:1051E000002818BF01244BB1984738B1D8F80030D7
:1051F00013B1012498473CB10125E8E7D8F8003005
:10520000002BF7D1002CF7D12846BDE8F08100BF74
:10521000689800206C98002064980020F0B583B056
:10522000074616461C460D4600F0B6F9104B1B68A3
:10523000DA6C1B6D174416441D441C446846ADF8D7
:105240000070ADF80460ADF80250ADF8064007F00C
:105250006FFD48B1234632462946384603F096FC96
:1052600007F0FAFB0028F5D102F09CF803B0F0BD7E
:10527000BC000020F0B583B0B0F90070B0F9026056
:10528000B0F90450B0F9064000F086F9104B1B68E5
:10529000DA6C1B6D174415441E441C446846ADF877
:1052A0000070ADF80450ADF80260ADF8064007F0AC
:1052B0003FFD48B123462A463146384603F066FC96
:1052C00007F0CAFB0028F5D102F06CF803B0F0BD7E
:1052D000BC000020034B53F82000C36808219B6AE0
:1052E000184700BF4498002010B500F055F903F0AE
:1052F0008DFC03F0E1FD044602F054F8204610BD99
:1053000010B5044600F048F9054B1B68DB69002125
:105310005B6820469847044602F044F8204610BDDA
:10532000BC00002038B504460D4600F035F9064BA8
:105330001B68DB6929465B6820469847044602F0F3
:1053400031F8204638BD00BFBC00002008B105F090
:1053500045BD704710B500F01FF903F05FFC03F086
:10536000ABFD044602F01EF8204610BD10B500F05B
:1053700013F9044B1B68DB695C7E02F013F82046CE
:1053800010BD00BFBC00002010B500F005F9054BB2
:105390001B68DB691C7EDB7E14FB03F402F002F861
:1053A000204610BDBC00002010B500F0F5F8034BFE
:1053B0001B689C7E01F0F6FF204610BDBC0000205B
:1053C00038B505460C4600F0E7F8064A064BB2F938
:1053D0000020B3F900302A602360BDE8384001F0B6
:1053E000E1BF00BF32980020349800200EF0F0B8E2
:1053F0000448342335216122017002718370C37027
:10540000704700BF3001002010B500F0C5F80F4B09
:105410001A68938D03F00C03082B08D00C2B06D0D0
:10542000042B0BD0002401F0BDFF204610BDD36932
:105430001C7E640801F0B6FF204610BDD3691C7EB7
:10544000013C01F0AFFF204610BD00BFBC000020B2
:10545000027EC07E02FB00F0704700BF024B53F893
:1054600020301B691868704744980020024B53F89D
:1054700020301B69586870474498002038B50546AD
:105480000C4600F089F8044B1B685D849C8401F095
:1054900089FF002038BD00BFBC00002090B583B05C
:1054A00000AF344A334B1B6823F001031360324BC7
:1054B00001221A6000BF304B1B68002BFBD12F4B21
:1054C0002F4A1A602D4B1B682E4A934200D0FEE7EC
:1054D00002F064F92C4B2E221A700EF07BF82B4848
:1054E0000BF0AAFF0DF0D2FC786003F035FC034608
:1054F000002B0CBF01230023DCB203F073FC034636
:10550000002B0CBF01230023DBB22343DBB2002BB3
:1055100009D003F037FC044603F07AFC0346194631
:10552000204603F0BFFE0021002001F0FDFB06F045
:1055300009F8FDF7DBFE164B1B68002B12D00DE0BF
:10554000134B1B681B68002B03D0114B1B681B6897
:1055500098470F4B1B685B680D4A13600C4B1B6828
:10556000002BEDD10B4B01221A707B6818460C37CB
:10557000BD4690BD002000E00830024000300240EF
:10558000C2A507F4CDB5E8B5309800207495002089
:10559000EC9500203C9800202DE9F041234D6B68EC
:1055A00023B10EF013F8AB68984204D00EF054F813
:1055B0000EF00CF8A8606B680133012B6B6001D012
:1055C000BDE8F0811A4F3B68002B29DD00242646F8
:1055D00006E042B33B6801369E4204F17C041FDAC8
:1055E0000DF0F4FF2B681A5990422344F1D17B68E7
:1055F000B342E5D0002B10DB2A68C3EB431302EB68
:105600008308FEF761FE2B68C8F878001C44094B3C
:10561000A06F04341C60FEF7DFFD7E60BDE8F08102
:1056200000242646E3E71860E1E700BFBC960020AF
:1056300040010020BC00002080EAE073A3EBE0738F
:10564000092B02461FDD632B20D9B3F57A7F20D3C7
:1056500042F20F718B421FD917498B421FD917494C
:105660008B421FD916498B421FD916498B421FD92D
:1056700015498B428BBF0A20092009230823002AE1
:10568000B8BF981C704701200023F8E702200123CF
:10569000F5E703200223F2E704200323EFE70520C8
:1056A0000423ECE706200523E9E707200623E6E7C5
:1056B00008200723E3E700BF9F8601003F420F0059
:1056C0007F969800FFE0F505FFC99A3B10B582B0C0
:1056D00028B9134B1B681C6E14B902B010BD0446E8
:1056E000FFF75AFF2046FEF7A9F802AB446943F8DA
:1056F000080D1846FEF7F2F91CB901F053FE02B08E
:1057000010BD2046FEF79AF802AC826844F8040DFA
:10571000936898472046FEF7E1F901F043FEEEE773
:10572000BC00002000B97047014A114600F002B8E1
:1057300001F0FFFF2DE9F04784B00C461546064600
:10574000FFF72AFF002001F0C5FADFF8E480D8F85F
:105750000030814630461F6EFEF770F803680090F7
:10576000986901F07FFA314B9C42009B04BFB3F96A
:105770000440B3F906501A895B89ADF80840013A34
:10578000013B22442B448246ADF80C20ADF80E308C
:10579000ADF80A5004F04CFE6846FEF79FF902A8E7
:1057A00007F0C6FA48BB504601F05CFAFFF7F4FE7A
:1057B000002F38D0D8F800301B6E8BBB05F01AF8DC
:1057C0003846FEF73BF804ACD8F8003044F80C0D2E
:1057D0001F660068FEF7B4FC2046FEF77FF903F071
:1057E000BBFD03F03FFD01F0DDFD484601F072FA1C
:1057F00001F0D8FD04B0BDE8F0872A4621463046C6
:1058000000F0A0FC07F028F90028CCD02A46214659
:10581000304600F097FC07F01FF90028EDD1C2E7F1
:1058200001F012FACAE701F00FFADCE701F0FFFF1E
:10583000BC0000202DE9F04385B00646904699460D
:105840000F46FFF7A9FE1C4A1C4B1268507C53F808
:10585000204001E02468FCB1E3681A68042AF9D109
:10586000DB6A0121204698470546D8B12469A36820
:105870009847013018D00C9B0294009301954B4639
:1058800042463946304600F0E3FA044601F08AFD0C
:10589000204605B0BDE8F083FEF718FD044648B188
:1058A000C368DDE70446F1E70C9B054C43F00103B8
:1058B0000C93E0E72046ECE7BC0000204498002071
:1058C0004C9B010800B9704710B582B00446FFF741
:1058D00063FE104B1B681B6E9C4217D02046FDF7E1
:1058E000ADFF4369019063B90068FEF727FC01A88A
:1058F000FEF7F4F82046FDF725FE01F053FD02B057
:1059000010BD184601F034FD0198EDE701F09CF957
:10591000E4E700BFBC0000202DE9F04F87B0064649
:1059200092461C468946FFF737FE564B1A68564B7F
:10593000577CDB57012B384640F3978003F012FA6F
:105940000546384603F054FA0746002E00F08A80D8
:1059500005A904A8FFF734FD049A059BB6F900C019
:10596000B6F90200B6F904E0B6F9061015441F4472
:10597000013D2CEAEC73013F20EAE07202930392AE
:105980007545D4BFC3EB0503C3EB0E038F42D4BFF1
:10599000C2EB0702C2EB01021D4617460135013773
:1059A00004B97C42002D4FDD002F4DDD109B00938C
:1059B0002A46234603990298FFF73CFF80460028B9
:1059C00048D000F099F88742064604D02D4B1B685A
:1059D000986C002851D1404600F09CF9DFF8ACB03B
:1059E0003D4600240EE0AD1BACB95046C847DBF87D
:1059F00000303444FF2003B198474046FFF792FE41
:105A0000A74212DDAE42EEDD2946404600F062F9C3
:105A1000AD1B002CE9D0039B029940461A1900F0F7
:105A2000A9F94046FFF752FEDFE74046FFF74AFF7D
:105A3000002000F06FF9B74206D0124B1B68986C3B
:105A400010B1332107F0D0FE01F0ACFC002007B00C
:105A5000BDE8F08F5046C84701F0A4FC012007B014
:105A6000BDE8F08F039602969AE703F025F9054604
:105A7000384603F04BF9074667E7322107F0B4FEDA
:105A8000A9E700BFBC000020409800200897002034
:105A900030B5044683B098B1FFF77EFD2046FDF790
:105AA000CDFE036802AD1B6945F8040D9B6898475D
:105AB00003F072FD04462846FEF710F801F072FC70
:105AC000204603B030BD00BFA0B110B5044682B07F
:105AD000FFF762FD2046FDF7B1FE02AB00F11804AE
